:100000000C9431070C9459070C9459070C94590718
:100010000C9459070C9459070C9459070C945907E0
:100020000C9459070C9459070C9459070C945907D0
:100030000C9459070C9459070C9459070C945907C0
:100040000C94312D0C9459070C9407300C943930D2
:100050000C9459070C9459070C9459070C945907A0
:100060000C9459070C945907EB2B3F2C0C2C152C96
:10007000182C272C302C392C482C5D2C1C03830089
:10008000207E16000000000500010000030C0601A0
:10009000F5050006050A02F50900090D0900F41826
:1000A00000080E0901F426000E0C1202F53B000DAB
:1000B0000C0F01F54F0002050501F55100040F0674
:1000C00001F55900040F0601F5610007070902F563
:1000D000680009090C01F8730003060401FE7600AC
:1000E00004020601FC770003030401FE7900060DFB
:1000F0000500F58300090C0900F59100060C0901C3
:10010000F59A00090C0900F5A800080C0900F5B4DF
:1001100000080C0901F5C000080C0901F5CC000825
:100120000C0901F5D800090C0900F5E600080C09D6
:1001300001F5F200090C0900F5000103090601F8B8
:100140000401030C0602F809010A0A0C01F7160162
:100150000A050C01FA1D010A0A0C01F82A01070C14
:100160000901F535010D0C1102F549010D0C0D00C9
:10017000F55D010B0C0C00F56E010B0C0D01F57F0C
:10018000010B0C0D01F590010B0C0C01F5A1010AFE
:100190000C0B01F5B0010C0C0E01F5C2010C0C0E9C
:1001A00001F5D401050C0701F5DC01080E0900F585
:1001B000EA010D0C0E01F5FE010B0C0C01F50F020E
:1001C000100C1100F527020B0C0D01F538020C0C78
:1001D0000E01F54A020A0C0B01F559020C0F0E0133
:1001E000F570020C0C0D01F58202080C0A01F58E67
:1001F000020C0C0C00F5A0020B0C0D01F5B1020D68
:100200000D0D00F5C702120C1200F5E2020D0C0DE7
:1002100000F5F6020D0C0D00F50A030B0C0C01F5B0
:100220001B03040F0601F52303060D0500F52D033E
:10023000040F0601F5350308070A01F53C0309011F
:100240000900033E0304030600F440030909090002
:10025000F84B030A0C0A00F55A0307090800F86274
:10026000030A0C0A00F5710308090800F87A03076D
:100270000C0700F58503070D0901F891030A0C0A24
:1002800000F5A003050C0500F5A80306100700F50E
:10029000B4030A0C0A00F5C303050C0500F5CB03F3
:1002A0000F090F00F8DC030A090A00F8E80309093E
:1002B0000900F8F3030A0D0A00F804040A0D0A0005
:1002C000F8150408090800F81E0405090701F824B8
:1002D00004060B0600F62D040A090A00F839040981
:1002E000090900F844040C090D00F8520409090931
:1002F00000F85D04080D0900F86A0407090801F810
:10030000720405100700F47C04010D0401F57E045D
:1003100005100702F4880408020901FCFFF4921F8B
:10032000F0CF3CE388130984C247F990C84CFF130F
:10033000090C86401038D692D2F07C3E179393D6A3
:100340007C103C21CF0E2430A0C50334E72640B9F1
:1003500004C423308C841C0F00CC06603E00E78F61
:10036000189C8CE4E3C79E3C72FDE0FF803244CCD5
:10037000CCCCC462108422333333326480316BB10D
:100380008ED68C00080402010FF84020100800DF10
:100390009500FFFF800C218610C308618430C01CCB
:1003A0003398DC7E3F1F8FC7E3B198C38008E38E8C
:1003B00038E38E38E3BF3C3F23C0E0703038181874
:1003C000185FDFE07C8E0E0E0C1E07030302E6F8BA
:1003D000060E0E3E2E4E8E8EFFFF0E0E3F7E4040CE
:1003E000F8FC1E060202E4F8071C3070FCE6E7E7A2
:1003F000E767663C7F3FA0D040603010180C0406D1
:1004000003003CC6C6C6FC7C3ECFC7C7C67C3E3395
:10041000B8DC7E3F1DCE7F07070F1C00FF803FE04A
:10042000FF8037E5400000707878783803803C031F
:10043000C030FFC0000000FFC0C03C03C01C01C1B1
:10044000E1E1E0E000003D9F3E70E104080070E162
:10045000C00F818318C4899C4CE4672239224FE382
:10046000000C101F0002003001C00E00B805C04F84
:1004700002383FE107183DE3F0FF871CE39C739CC3
:100480007F0E71C738E71CE77FC01F261DC1B01E55
:1004900001C0380700E00E04E10FC0FF0E71C7383D
:1004A000770EE1DC3B8770CE39C67F80FFCE19C165
:1004B000388730FE1CC388702E0DC37FE0FFDC3709
:1004C00005C4731FC731C4701C0703E01F230E70DF
:1004D0006E02E00E00E1FE0E60E70E38E0F8F9F77C
:1004E0000E70E70E70E7FE70E70E70E70E70EF9F7C
:1004F000FB9CE739CE739DF01F0E0E0E0E0E0E0EF6
:100500000E0E0ECECC78F9F3821C20E207203F01BC
:10051000DC0E7073C38F1C3DF3F0F80E01C038077A
:1005200000E01C0380702E09C37FE0F80F3C1E3CE6
:100530001E2E2E2E2E264E274E274E238E238E2104
:100540000E711FF0EE09E13E25E49E91D21E43C8D4
:10055000390370201F830C70EE07E07E07E07E07F2
:10056000E0770E30C1F8FF1CE71DC771DCE7F1C072
:10057000701C0703E00F839C70E606E07E07E07EB8
:1005800007E0760630C1980F007803E0FF07387166
:10059000C71C71C7387E077077873C71EF8F39476A
:1005A000C1C0F07C3E0F83C3C6BCFFFCE38E10E0ED
:1005B0000E00E00E00E00E00E00E01F0F8EE09C1C2
:1005C000382704E09C1382704E08E20F80FC7BC148
:1005D0000E087081C40E207A01D00E803801C0044C
:1005E000002000FDFBDC38438710E1C438F2072E01
:1005F00081D3A034700E1C03870060801020FEF3AE
:10060000C30F103900F003801E017009C08F083D30
:10061000F3F0FC7BC18E083881E807401C00E0073E
:10062000003801C01F00FFD8721E4380E01C070184
:10063000C0382E0F837FE0FCCCCCCCCCCCCCF0C12E
:10064000061820C3041860830CF333333333333379
:10065000F0181C34266243C1FF80C6307C63B1C0F1
:10066000E1F33B9DCEFF80F01C0701DC7B9C771DF6
:10067000C771DC77393C3CED9F0E1C38393C078054
:10068000E038EE77B8EE3B8EE3B8E778EF3C66E60D
:10069000FEE0E0E0723C3EEDC7C70E1C3870E1C7DB
:1006A000C031DFBF7EE79060FCFE0C17C0F01C0776
:1006B00001DC7B9CE739CE739CE73BFF739DE739F8
:1006C000CE739DF01C71CF1C71C71C71C71C7DBE01
:1006D000F01C0701CE711C8741F8771CE71BEFF374
:1006E0009CE739CE739DF0F738F7B9CE739CE739A4
:1006F000CE739CE739CEFFFEF71EE739CE739CE739
:1007000039CEFFC03E31B8FC7E3F1F8EC63E00F79B
:100710001EE71DC771DC771DCE7F1C0701C0F800E6
:100720003C9CEE3B8EE3B8EE39CE3F80E0380E07BE
:10073000C0F77B707070707070F87E73C78E39B0C0
:1007400010CF9C71C71C71D380F79CE739CE739C86
:10075000E739CE3FC0FBB88C8743C0E0701008007B
:10076000F7B63173A33A3DA3DC18C1881080FBB8FB
:100770008E8381C0F098CEEF80F7627234343C18DB
:1007800018101010E0E0FF1C70E3871C71FE198C3C
:100790006318CC618C6318C3FFF8C318C631863365
:1007A00018C63198F08E00000100FF0032000100F1
:1007B00000010200000703003010040000000800E0
:1007C0000202090000000A0000000C0000000D00F9
:1007D00000000F00000010000000110007001200D0
:1007E000000013000000FF00C80010009016110068
:1007F0002702FF00320012001A00FF00320013002F
:10080000001829002A00FF003200300000003100EB
:1008100000003200000035000602360008083700EC
:10082000070038000102390000003C0000003D00D4
:1008300000002000000021000000500000005100D6
:10084000EF005200000053003F01600000A761006C
:1008500003006A0000009000100092000000930066
:1008600003009500001197000000980000000700A9
:1008700033010100B903FF8357FFFAB304000006F8
:1008800006B60125B00168CC0105B10600151C1C97
:1008900083AAC0065050013C1E08B4070240002A3B
:1008A0002A0D783A01553601C03501004402000294
:1008B0001100FF962900FF322E89298F2B02E200BA
:1008C000E401E510E601E710E870F200EA00EB2031
:1008D000EC3CEDC8E938F1011B1A1A022461255CD1
:1008E000183619011F88FF051F80FF051F90FF059F
:1008F0001FD4FF05170536092838FF28283C0200B9
:100900000300040005EF060007000801093F00008E
:100910000000003E5B4F5B3E3E6B4F6B3E1C3E7CDF
:100920003E1C183C7E3C181C577D571C1C5E7F5E8D
:100930001C00183C1800FFE7C3E7FF00182418004C
:10094000FFE7DBE7FF30483A060E262979292640E3
:100950007F050507407F05253F5A3CE73C5A7F3E0F
:100960001C1C08081C1C3E7F14227F22145F5F00A1
:100970005F5F06097F017F006689956A606060603D
:100980006094A2FFA29408047E040810207E201028
:1009900008082A1C08081C2A08081E101010100C31
:1009A0001E0C1E0C30383E3830060E3E0E0600007F
:1009B00000000000005F00000007000700147F1423
:1009C0007F14242A7F2A1223130864623649562092
:1009D000500008070300001C2241000041221C00B7
:1009E0002A1C7F1C2A08083E080800807030000876
:1009F00008080808000060600020100804023E514A
:100A000049453E00427F40007249494946214149DB
:100A10004D331814127F1027454545393C4A494942
:100A20003141211109073649494936464949291EAC
:100A3000000014000000403400000008142241149B
:100A400014141414004122140802015909063E41ED
:100A50005D594E7C1211127C7F494949363E414115
:100A600041227F4141413E7F494949417F0909096E
:100A7000013E414151737F0808087F00417F4100DA
:100A80002040413F017F081422417F404040407F89
:100A9000021C027F7F0408107F3E4141413E7F09D6
:100AA0000909063E4151215E7F0919294626494917
:100AB000493203017F01033F4040403F1F20402057
:100AC0001F3F4038403F6314081463030478040355
:100AD0006159494D43007F41414102040810200003
:100AE0004141417F04020102044040404040000374
:100AF00007080020545478407F2844443838444440
:100B00004428384444287F385454541800087E0937
:100B10000218A4A49C787F0804047800447D400057
:100B20002040403D007F1028440000417F40007C71
:100B3000047804787C080404783844444438FC1869
:100B400024241818242418FC7C080404084854544D
:100B5000542404043F44243C4040207C1C2040207A
:100B60001C3C4030403C44281028444C9090907CE1
:100B70004464544C440008364100000077000000F3
:100B80004136080002010204023C2623263C1EA135
:100B9000A161123A4040207A385454555921555594
:100BA0007941225454784221555478402054557943
:100BB000400C1E52721239555555593954545459D6
:100BC00039555454580000457C410002457D42008F
:100BD00001457C407D1211127DF0282528F07C54BF
:100BE0005545002054547C547C0A097F49324949B8
:100BF00049323A4444443A324A4848303A41412121
:100C00007A3A42402078009DA0A07D3D4242423D7C
:100C10003D4040403D3C24FF2424487E4943662B10
:100C20002FFC2F2BFF0929F620C0887E09032054B2
:100C30005479410000447D413048484A32384040B0
:100C4000227A007A0A0A727D0D19317D2629292F10
:100C500028262929292630484D4020380808080828
:100C600008080808382F10C8ACBA2F102834FA002A
:100C7000007B000008142A142222142A14085500AC
:100C8000550055AA55AA55AAFF55FF55FF0000006B
:100C9000FF00101010FF00141414FF001010FF00CC
:100CA000FF1010F010F0141414FC001414F700FFDF
:100CB0000000FF00FF1414F404FC141417101F109C
:100CC000101F101F1414141F00101010F00000004B
:100CD000001F101010101F10101010F01000000056
:100CE000FF101010101010101010FF10000000FF67
:100CF000140000FF00FF00001F10170000FC04F4A8
:100D000014141710171414F404F40000FF00F7145F
:100D1000141414141414F700F714141417141010E6
:100D20001F101F141414F4141010F010F000001F02
:100D3000101F0000001F14000000FC140000F01041
:100D4000F01010FF10FF141414FF141010101F00E7
:100D5000000000F010FFFFFFFFFFF0F0F0F0F0FFE9
:100D6000FFFF0000000000FFFF0F0F0F0F0F3844C0
:100D7000443844FC4A4A4A347E02020606027E0295
:100D80007E0263554941633844443C04407E201E42
:100D90002006027E020299A5E7A5991C2A492A1C71
:100DA0004C7201724C304A4D4D303048784830BC5E
:100DB000625A463D3E494949007E0101017E2A2A88
:100DC0002A2A2A44445F444440514A444040444A09
:100DD00051400000FF0103E080FF000008086B6B3A
:100DE000083612362436060F090F060000181800C0
:100DF00000001010003040FF0101001F01011E0023
:100E0000191D1712003C3C3C3C0000000000000093
:100E100000080002010000030407000000000000B9
:100E20000000010204081020408001020408102084
:100E3000010204081020040404040404040402024F
:100E40000202020203030303030300000000250063
:100E500028002B0000000000240027002A00810742
:100E6000693011241FBECFEFD8E0DEBFCDBF11E047
:100E7000A0E0B1E0EEE2F6E602C005900D92A437E4
:100E8000B107D9F722E0A4E7B1E001C01D92AE346A
:100E9000B207E1F71EE0C2E6DEE004C02297FE01E1
:100EA0000E94CF32CE35D107C9F70E94AD300C94E5
:100EB00015330C94000026E040E855E260E070E055
:100EC00081EB91E00E94A52F8CE791E00E94BB0A84
:100ED0008CE791E00E94790FBC018CE791E00E94C1
:100EE000A31C6CE770E08CE791E00E94302760E083
:100EF00070E08CE791E00E94152761E08BE00C9494
:100F0000512EEF920F9382E1E82E0EE02FE040E1A8
:100F100061E18CE791E00E94080A0F91EF9008953B
:100F20004F925F926F927F928F929F92AF92BF92F9
:100F3000CF92DF92EF92FF920F931F93CF93DF93A5
:100F40004C016FEF7FEF8CE791E00E94D8168CE7A1
:100F500091E00E944A27E12CF12C8C0125E630E03B
:100F600040E050E060E070E08CE791E00E944C16B9
:100F70008CE791E00E944A272AE030E0B9010E9404
:100F800078326B01C401B9010E9478322B01E6016D
:100F9000AA24A394B12CC60106973C014A145B0411
:100FA0000CF44DC093E0A916B1046CF48CE791E009
:100FB0000E944A27AC014C1B5D0B4D5F5F4FE12C3B
:100FC000B8EFFB2E1FC0C5010397069770F48CE79E
:100FD00091E00E944A27AC014C1B5D0B4D5F5F4FB7
:100FE000A0EEEA2EFF24FA940DC08CE791E00E9457
:100FF0004A27AC014C1B5D0B4D5F5F4FF0EEEF2EAF
:10100000F7E0FF2E83012EE530E063E070E08CE72F
:1010100091E00E944C168CE791E00E9446278C01DB
:101020008CE791E00E944A27980126563109AC01CD
:101030004C1B5D0BEE24EA94E7E0FE2E28C08CE703
:1010400091E00E944A27AC014C1B5D0B4D5F5F4F46
:1010500067EFE62E6DEBF62E83012EE530E063E0C0
:1010600070E08CE791E00E944C168CE791E00E94C2
:1010700046278C018CE791E00E944A27980126566A
:101080003109AC014C1B5D0BEE24EA94FE2C860169
:1010900065E670E08CE791E00E944C168FEFA81A8D
:1010A000B80ACC0DDD1D9BE0A916B10409F076CF7E
:1010B0004AE550E06FE670E08CE791E00E94092776
:1010C00062E08CE791E00E940F276FE071E08CE70F
:1010D00091E00E94FA304BEE50E06BE770E08CE755
:1010E00091E00E94092761E08CE791E00E940F27C0
:1010F00065E171E08CE791E00E94FA30A12CB12CFF
:1011000084E68816910474F43AE0C32ED12C44E6A8
:10111000E42EF12C0EE610E02EE630E042E050E046
:10112000B4010EC097E0C92ED12C20E5E22EF12C9F
:1011300008E710E022E530E043E050E064E670E0CC
:101140008CE791E00E94A22CDF91CF911F910F912B
:10115000FF90EF90DF90CF90BF90AF909F908F90D7
:101160007F906F905F904F9008954F925F926F9233
:101170007F92AF92BF92CF92DF92EF92FF920F9346
:101180001F93CF93DF9364EF71E080E090E00E94C3
:101190009E2D809176018F5F80937601843109F0D6
:1011A000B7C061E08AE00E94512E60E083E10E94B6
:1011B000512E61E08AE00E948A2E68EE73E080E0A2
:1011C00090E00E949E2D1092780110927901109269
:1011D0007A0110927B01C5E0D0E0409078015090F8
:1011E000790160907A0170907B0183E10E940B2E5F
:1011F000BC01882777FD8095982F0E94DC319B01E8
:10120000AC01C301B2010E94453160937801709333
:10121000790180937A0190937B0162E370E080E032
:1012200090E00E949E2D2197C1F660917801709107
:10123000790180917A0190917B010E94A931CB01C3
:1012400065E070E00E9478322B01662457FC6094C0
:10125000762CC301B2010E94DC3160937801709357
:10126000790180937A0190937B011F921F921F92C4
:10127000CAE0CF93A12CB12C650114E8E12E13E054
:10128000F12E00E010E024E630E040E050E0C30141
:10129000B2010E94FC3070930D0160930C01C69F57
:1012A0009001C79F300D112430930B0120930A0148
:1012B0000F900F900F900F90809174019091750195
:1012C0002817390759F0C9010E94900780910A0137
:1012D00090910B01909375018093740160E08AE016
:1012E0000E948A2E60E08AE00E94512E61E083E134
:1012F0000E94512E61E083E10E948A2E64E175E034
:1013000080E090E00E949E2D60E083E10E948A2EA2
:10131000809176018C33F9F480910C0190910D014C
:1013200002970797C0F0809177018823A1F061E0D0
:101330008BE00E948A2E68EE73E080E090E00E94CD
:101340009E2D60E08BE00E948A2E68EE73E080E0C4
:1013500090E00E949E2D80917601883779F5109259
:10136000760180910C0190910D010397059730F162
:1013700080917701882311F161E08BE00E948A2E31
:1013800068EE73E080E090E00E949E2D60E08BE0CC
:101390000E948A2E68EE73E080E090E0DF91CF91AA
:1013A0001F910F91FF90EF90DF90CF90BF90AF9083
:1013B0007F906F905F904F900C949E2DDF91CF9116
:1013C0001F910F91FF90EF90DF90CF90BF90AF9063
:1013D0007F906F905F904F900895FC018AB18C6F61
:1013E0008AB984B1836084B9158A158614861786F4
:1013F000168681E0848B8FEF9FEF918B808B80EF3F
:1014000090E09187808780E491E0938782870895B8
:101410009F92AF92BF92CF92DF92EF92FF920F9383
:101420001F93CF93DF93EC01A62EF42EB22E902EB5
:1014300040E451E060EF70E00E94892288E391E08F
:1014400099838883EBA66A2D70E0FB01EA5CF14F7B
:10145000E491F0E0EE0FFF1FE65BF14FA591B49130
:10146000BC8FAB8F4F2D50E0FA01EA5CF14FE49155
:10147000F0E0EE0FFF1FE65BF14F859194919E8F98
:101480008D8F2B2D30E0F901EA5CF14FE491F0E013
:10149000EE0FFF1FE65BF14F8591949198A38F8F1C
:1014A00010E0F801EA5CF14FE491F0E0EE0FFF1F6D
:1014B000E65BF14FC590D490DAA2C9A2FB01EE5DC4
:1014C000F14F64916BA3FA01EE5DF14F44914CA38F
:1014D000F901EE5DF14F24912DA3F801EE5DF14F7E
:1014E00004910EA39BA1892F80958FA38CA1809539
:1014F00088A78DA1809589A700950AA78C91892B33
:101500008C93ED8DFE8D80819CA1892B8083EF8D46
:10151000F8A180819DA1892B8083E9A1FAA1808116
:101520009EA1892B808361E08A2D0E94512E61E06B
:101530008F2D0E94512E61E08B2D0E94512E61E073
:10154000892D0E94512EEE2041F061E08E2D0E94E7
:101550008A2E61E08E2D0E94512ECE01DF91CF9117
:101560001F910F91FF90EF90DF90CF90BF90AF90C1
:101570009F900C94ED09CF93DF93EC01EB8DFC8DE4
:1015800080819BA1892B8083EF8DF8A180819DA113
:10159000892B8083E9A1FAA180819EA1892B808378
:1015A0008BA5882369F060E00E948A2E62E070E0DB
:1015B00080E090E00E949E2D61E08BA50E948A2E23
:1015C000EB8DFC8D80819FA189238083ED8DFE8D25
:1015D000808198A5892380838BB183708BB985B175
:1015E0008C7F85B9EF8DF8A1808199A589238083AF
:1015F000EF8DF8A180819DA1892B808383E0EF8D01
:10160000F8A1908129A592239083EF8DF8A1908174
:101610002DA1922B9083815091F7EB8DFC8D8081D1
:101620009BA1892B808364EF71E080E090E0DF91E3
:10163000CF910C949E2DFC01A38DB48D8C9197A11C
:1016400089238C9380859185A58DB68D2C9130A5AD
:1016500023232C932BB1237024602BB925B12C7F2D
:1016600025B9A78DB0A12C9131A523232C93A78D4B
:10167000B0A12C9135A1232B2C93A58DB68D2C9147
:1016800034A1232B2C934BB19C0121503109932F72
:101690009C7F4370942B9BB925B1932F93702C7F23
:1016A000922B95B9A78DB0A19C9121A592239C93D3
:1016B000A78DB0A19C9125A1922B9C93A58DB68D51
:1016C0009C9120A592239C939BB1937094609BB9AD
:1016D00095B19C7F916095B9A78DB0A19C9121A5F2
:1016E00092239C93A78DB0A19C9125A1922B9C93B2
:1016F000A58DB68D9C9124A1922B9C932BB18150EA
:10170000982F9C7F2370922B9BB995B183709C7FFF
:10171000892B85B9A78DB0A18C9191A589238C9334
:10172000A78DB0A18C9195A1892B8C9382859385EF
:10173000A58DB68D2C9130A523232C932BB123702E
:1017400028602BB925B12C7F25B9A78DB0A12C918C
:1017500031A523232C93A78DB0A12C9135A1232B48
:101760002C93A58DB68D2C9134A1232B2C934BB1AA
:101770009C0121503109932F9C7F4370942B9BB97E
:1017800025B1932F93702C7F922B95B9A78DB0A183
:101790009C9121A592239C93A78DB0A19C9125A1FA
:1017A000922B9C93A58DB68D9C9120A592239C9302
:1017B0009BB1937098609BB995B19C7F916095B9EE
:1017C000A78DB0A19C9121A592239C93A78DB0A138
:1017D0009C9125A1922B9C93A58DB68D9C9124A1C3
:1017E000922B9C932BB18150982F9C7F2370922B2E
:1017F0009BB995B183709C7F892B85B9A78DB0A1CA
:101800008C9191A589238C93A78DB0A18C9195A1E2
:10181000892B8C93A38DB48D8C9193A1892B8C9360
:101820000895DF92EF92FF920F931F93CF93DF9370
:10183000FC01CB01A38DB48D6C9177A167236C93D0
:10184000A58DB68D6C9170A567236C93628D623007
:10185000B9F0611113C06BB163706BB965B16C7F86
:1018600065B9A78DB0A16C9171A567236C93A78D05
:10187000B0A16C9175A1672B6C9309C0633039F4EA
:101880006BB163706C626BB965B16C7F07C06BB193
:10189000637060626BB965B16C7F626065B9A78D7A
:1018A000B0A16C9171A567236C93A78DB0A16C91C9
:1018B00075A1672B6C93A58DB68D6C9174A1672B68
:1018C0006C936BB1C92FCC7F63706C2B6BB965B116
:1018D000D92FD3706C7F6D2B65B9A78DB0A16C919A
:1018E00071A567236C93A78DB0A16C9175A1672B2F
:1018F0006C936BB1782F7C7FF72E6370672B6BB97D
:1019000065B1782F7370E72E6C7F672B65B9A78D53
:10191000B0A16C9171A567236C93A78DB0A16C9158
:1019200075A1672B6C93BA01A90141505109610956
:1019300071098A019B0156E0369527951795079501
:101940005A95D1F7981719F080E090E03AC180E0FD
:1019500090E00817190709F466C020E1A78DB0A12F
:101960003C91C1A53C233C93A78DB0A13C91C5A15E
:101970003C2B3C93A78DB0A13C91C1A53C233C934B
:10198000A78DB0A13C91C5A13C2B3C93A78DB0A1E4
:101990003C91C1A53C233C93A78DB0A13C91C5A12E
:1019A0003C2B3C93A78DB0A13C91C1A53C233C931B
:1019B000A78DB0A13C91C5A13C2B3C93A78DB0A1B4
:1019C0003C91C1A53C233C93A78DB0A13C91C5A1FE
:1019D0003C2B3C93A78DB0A13C91C1A53C233C93EB
:1019E000A78DB0A13C91C5A13C2B3C93A78DB0A184
:1019F0003C91C1A53C233C93A78DB0A13C91C5A1CE
:101A00003C2B3C93A78DB0A13C91C1A53C233C93BA
:101A1000A78DB0A13C91C5A13C2B3C93215009F06E
:101A20009DCF019696CF4F734150C8F0A78DB0A1BE
:101A30008C9191A589238C93A78DB0A18C9195A1B0
:101A4000892B8C93A78DB0A18C9191A589238C9320
:101A5000A78DB0A18C9195A1892B8C93E5CFA38DF7
:101A6000B48D8C9193A1892B8C93DF91CF911F9191
:101A70000F91FF90EF90DF9008953BB133703C2BB6
:101A80003BB935B13C7F3D2B35B9A78DB0A13C9119
:101A9000D1A43D213C93A78DB0A13C91D5A03D2977
:101AA0003C933BB133703F293BB935B13C7F3E2974
:101AB00035B9A78DB0A13C91D1A43D213C93A78D10
:101AC000B0A13C91D5A03D293C933BB133703C2B58
:101AD0003BB935B13C7F3D2B35B9A78DB0A13C91C9
:101AE000D1A43D213C93A78DB0A13C91D5A03D2927
:101AF0003C933BB133703F293BB935B13C7F3E2924
:101B000035B9A78DB0A13C91D1A43D213C93A78DBF
:101B1000B0A13C91D5A03D293C933BB133703C2B07
:101B20003BB935B13C7F3D2B35B9A78DB0A13C9178
:101B3000D1A43D213C93A78DB0A13C91D5A03D29D6
:101B40003C933BB133703F293BB935B13C7F3E29D3
:101B500035B9A78DB0A13C91D1A43D213C93A78D6F
:101B6000B0A13C91D5A03D293C933BB133703C2BB7
:101B70003BB935B13C7F3D2B35B9A78DB0A13C9128
:101B8000D1A43D213C93A78DB0A13C91D5A03D2986
:101B90003C933BB133703F293BB935B13C7F3E2983
:101BA00035B9A78DB0A13C91D1A43D213C93A78D1F
:101BB000B0A13C91D5A03D293C93215009F05DCFC7
:101BC00001960817190711F020E157CF4F734150C4
:101BD00008F445CF8BB183708C2B8BB985B18C7F8A
:101BE0008D2B85B9A78DB0A18C9191A589238C935C
:101BF000A78DB0A18C9195A1892B8C938BB183700B
:101C00008F298BB985B18C7F8E2985B9A78DB0A11D
:101C10008C9191A589238C93A78DB0A18C9195A1CE
:101C2000892B8C93D4CFFC01A1A1B2A18C9192A558
:101C300089238C9300C000C000C0000089B193B11B
:101C4000A1A1B2A12C9136A1232B2C9393708C7F50
:101C5000892B0895CF92DF92EF92FF92CF93DF937B
:101C6000EC01EB8DFC8D80819FA189238083ED8D1C
:101C7000FE8D808198A5892380839BB1862F8C7FE0
:101C80009370892B8BB985B163708C7F682B65B994
:101C9000EF8DF8A1808199A589238083EF8DF8A12C
:101CA00080819DA1892B80838AB183708AB984B198
:101CB0008C7F84B9ED8DFE8D80819CA1892B8083E2
:101CC00082E390E00E94C62DCE010E94130EC82E22
:101CD000D12CE12CF12CFE2CED2CDC2CCC24CE01D3
:101CE0000E94130EC82AFE2CED2CDC2CCC24CE0135
:101CF0000E94130EC82AFE2CED2CDC2CCC24CE0125
:101D00000E94130EEB8DFC8D90812BA1922B908362
:101D10009AB19C6F9AB994B1936094B9A701960156
:101D2000282BCA01B901DF91CF91FF90EF90DF908E
:101D3000CF9008950F931F93CF93DF9300D000D0DF
:101D4000CDB7DEB78C01DC015B96ED91FC915C9721
:101D5000808197969C919797892380835D96ED91DA
:101D6000FC915E97808198969C91989789238083B7
:101D70009BB1862F8C7F9370892B8BB985B1637053
:101D80008C7F682B65B95F96ED91FC91909780816F
:101D900099969C919997892380835F96ED91FC9108
:101DA0009097808195969C919597892B80835D96DD
:101DB000ED91FC915E97808194969C91892B808314
:101DC0008AE090E029833A834B835C830E94C62D8E
:101DD0007BB129813A814B815C81CA01AA27BB274B
:101DE000682F6C7F7370672B6BB965B183706C7FE4
:101DF000862B85B9D8015F96ED91FC9190978081F3
:101E000099969C919997892380835F96ED91FC9197
:101E10009097808195969C91892B80838AE090E0B1
:101E200029833A834B835C830E94C62DFBB12981B1
:101E30003A814B815C81BB27A52F942F832FE82FFC
:101E4000EC7FF370EF2BEBB9E5B1682F6370EC7F9B
:101E50006E2B65B9D8015F96ED91FC9190978081CA
:101E600099969C919997892380835F96ED91FC9137
:101E70009097808195969C91892B80838AE090E051
:101E800029833A834B835C830E94C62D9BB12981B1
:101E9000822F8C7F9370892B8BB985B123708C7FB7
:101EA000282B25B9D8015F96ED91FC919097808100
:101EB00099969C919997892380835F96ED91FC91E7
:101EC0009097808195969C919597892B80835B96BE
:101ED000ED91FC915C97808193969C91892B8083F6
:101EE0000F900F900F900F90DF91CF911F910F9156
:101EF00008951F93CF93DF93EC0164E00E942A0EB4
:101F0000611570488105910509F457C063EDCE0154
:101F10000E942A0E6134734909F46AC0EB8DFC8D6E
:101F200080819FA189238083ED8DFE8D808198A57E
:101F3000892380838BB183708BB985B18C7F85B900
:101F4000EF8DF8A1808199A589238083EF8DF8A179
:101F500080819DA1892B8083EF8DF8A1808199A537
:101F600089238083EF8DF8A180819DA1892B8083B7
:101F70008AB183708AB984B18C7F84B9ED8DFE8D6E
:101F800080819CA1892B8083CE010E94130E182F83
:101F9000CE010E94130E9AB19C6F9AB994B19360CE
:101FA00094B9EB8DFC8D90812BA1922B9083212FE6
:101FB00030E0322F2227282B1DC027E533E84FEFD2
:101FC00050E069EBCE010E949A0E6CE271E080E075
:101FD00090E00E949E2D60EDCE010E942A0E6115B8
:101FE00071058949910509F091CF27E533E802C0D1
:101FF00021E433E9C901DF91CF911F9108950F9337
:102000001F93CF93DF9300D000D0CDB7DEB78C0104
:10201000DC015B96ED91FC915C97808197969C9199
:102020009797892380835D96ED91FC915E978081DF
:1020300098969C919897892380839BB1862F8C7F5B
:102040009370892B8BB985B163708C7F682B65B9D0
:102050005F96ED91FC919097808199969C919997CC
:10206000892380835F96ED91FC919097808195966E
:102070009C919597892B80835D96ED91FC915E975D
:10208000808194969C91892B80838AE090E02983BB
:102090003A834B835C830E94C62D7BB129813A81B0
:1020A0004B815C81852F9927AA27BB27682F6C7FDE
:1020B0007370672B6BB965B183706C7F862B85B9A4
:1020C000D8015F96ED91FC919097808199969C91B3
:1020D0009997892380835F96ED91FC9190978081F9
:1020E00095969C91892B80838AE090E029833A839E
:1020F0004B835C830E94C62D7BB129813A814B8141
:102100005C81CA01AA27BB27682F6C7F7370672B7D
:102110006BB965B183706C7F862B85B9D8015F96EA
:10212000ED91FC919097808199969C919997892344
:1021300080835F96ED91FC919097808195969C911C
:10214000892B80838AE090E029833A834B835C83E8
:102150000E94C62DFBB129813A814B815C81BB274E
:10216000A52F942F832FE82FEC7FF370EF2BEBB983
:10217000E5B1682F6370EC7F6E2B65B9D8015F966F
:10218000ED91FC919097808199969C9199978923E4
:1021900080835F96ED91FC919097808195969C91BC
:1021A000892B80838AE090E029833A834B835C8388
:1021B0000E94C62D9BB12981822F8C7F9370892B21
:1021C0008BB985B123708C7F282B25B9D8015F96F8
:1021D000ED91FC919097808199969C919997892394
:1021E00080835F96ED91FC919097808195969C916C
:1021F0009597892B80835B96ED91FC915C9780810C
:1022000093969C91892B80830F900F900F900F9045
:10221000DF91CF911F910F910895EF92FF920F934D
:102220001F93CF93DF93EC017A01C901EB8DFC8DF5
:1022300020813FA1232320832A8D21116DC22D8966
:10224000223081F0233019F1213079F52FEE30E082
:10225000F901E01BF10B241B350BAB01D9018C01FB
:10226000C90112C02FEE30E0F901E81BF90BC901DA
:10227000861B970B2FE331E0B901601B710B8901BD
:10228000041B150BA801DC017B01BF010FC02FE36C
:1022900031E0F901E81BF90B261B370BA901D70127
:1022A000C8018901B7017F0101C0DB01ED8DFE8D01
:1022B000208138A5232320832BB123702BB925B18E
:1022C0002C7F25B9EF8DF8A1208139A52323208308
:1022D000EF8DF8A120813DA1232B20832BB123700A
:1022E00020652BB925B12C7F25B9EF8DF8A1208170
:1022F00039A523232083EF8DF8A120813DA1232B35
:102300002083ED8DFE8D20813CA1232B20833BB1CA
:10231000272F2C7F3370232B2BB935B1272F237018
:102320003C7F232B25B9EF8DF8A1208139A52323EC
:102330002083EF8DF8A120813DA1232B20833BB189
:10234000262F2C7F3370232B2BB925B163702C7F64
:10235000622B65B9EF8DF8A1208139A52323208355
:10236000EF8DF8A120813DA1232B2083ED8DFE8DE3
:10237000208138A5232320832BB123702BB925B1CD
:102380002C7F25B9EF8DF8A1208139A52323208347
:10239000EF8DF8A120813DA1232B20832BB1237049
:1023A00020652BB925B12C7F216025B9EF8DF8A1CF
:1023B000208139A523232083EF8DF8A120813DA121
:1023C000232B2083ED8DFE8D20813CA1232B2083A8
:1023D0003BB1292F2C7F3370232B2BB925B1937060
:1023E0002C7F922B95B9EF8DF8A1908129A592238E
:1023F0009083EF8DF8A190812DA1922B90832BB12A
:10240000982F9C7F2370922B9BB995B183709C7FF2
:10241000892B85B9EF8DF8A1808199A589238083C7
:10242000EF8DF8A180819DA1892B8083ED8DFE8D9C
:10243000808198A5892380838BB183708BB985B106
:102440008C7F85B9EF8DF8A1808199A58923808340
:10245000EF8DF8A180819DA1892B80838BB1837042
:1024600080658BB985B18C7F826085B9EF8DF8A1CD
:10247000808199A589238083EF8DF8A180819DA11A
:10248000892B8083ED8DFE8D80819CA1892B80839B
:102490009BB18F2D8C7F9370892B8BB995B18F2D2C
:1024A00083709C7F892B85B9EF8DF8A1808199A5D8
:1024B00089238083EF8DF8A180819DA1892B808362
:1024C0009BB18E2D8C7F9370892B8BB985B12E2D6E
:1024D00023708C7F282B25B9EF8DF8A1808199A5D9
:1024E00089238083EF8DF8A180819DA1892B808332
:1024F000ED8DFE8D808198A5892380838BB18370BB
:102500008BB985B18C7F85B9EF8DF8A1808199A5B4
:1025100089238083EF8DF8A180819DA1892B808301
:102520008BB1837080658BB985B1836085B9EF8D80
:10253000F8A1808199A589238083EF8DF8A18081FE
:102540009DA1892B8083ED8DFE8D80819CA1892B9F
:1025500080839BB1812F8C7F9370892B8BB995B130
:10256000812F83709C7F892B85B9EF8DF8A18081A5
:1025700099A589238083EF8DF8A180819DA1892B66
:1025800080839BB1802F8C7F9370892B8BB985B111
:1025900003708C7F082B05B9EF8DF8A1808199A578
:1025A00089238083EF8DF8A180819DA1892B808371
:1025B000ED8DFE8D808198A5892380838BB18370FA
:1025C0008BB985B18C7F85B9EF8DF8A1808199A5F4
:1025D00089238083EF8DF8A180819DA1892B808341
:1025E0008BB1837080628BB985B18C7F85B9EF8D9B
:1025F000F8A1808199A589238083EF8DF8A180813E
:102600009DA1892B8083ED8DFE8D80819CA1892BDE
:1026100080839BB18B2F8C7F9370892B8BB985B175
:10262000B3708C7FB82BB5B9EF8DF8A1808199A5D7
:1026300089238083EF8DF8A180819DA1892B8083E0
:102640009BB18A2F8C7F9370892B8BB985B1A37036
:102650008C7FA82BA5B9EF8DF8A1808199A589233E
:102660008083EF8DF8A180819DA1892B8083ED8DE2
:10267000FE8D808198A5892380838BB183708BB96F
:1026800085B18C7F85B9EF8DF8A1808199A58923CB
:102690008083EF8DF8A180819DA1892B80838BB1F0
:1026A000837080628BB985B18C7F816085B9EF8D35
:1026B000F8A1808199A589238083EF8DF8A180817D
:1026C0009DA1892B8083ED8DFE8D80819CA1892B1E
:1026D00080839BB1852F8C7F9370892B8BB985B1BB
:1026E00053708C7F582B55B9EF8DF8A1808199A537
:1026F00089238083EF8DF8A180819DA1892B808320
:102700009BB1842F8C7F9370892B8BB985B14370DB
:102710008C7F482B45B9ADC1213009F0B7C1ED8D93
:10272000FE8D208138A5232320832BB123702BB964
:1027300025B12C7F226025B9EF8DF8A1208139A524
:1027400023232083EF8DF8A120813DA1232B20831B
:10275000ED8DFE8D20813CA1232B20833BB1272FC3
:102760002C7F3370232B2BB935B1272F23703C7F5F
:10277000232B25B9EF8DF8A1208139A523232083B0
:10278000EF8DF8A120813DA1232B2083ED8DFE8DBF
:10279000208138A5232320832BB123702BB925B1A9
:1027A000236025B9EF8DF8A1208139A5232320834B
:1027B000EF8DF8A120813DA1232B2083ED8DFE8D8F
:1027C00020813CA1232B20833BB1262F2C7F33700B
:1027D000232B2BB925B163702C7F622B65B9EF8D4C
:1027E000F8A1208139A523232083EF8DF8A1208132
:1027F0003DA1232B2083ED8DFE8D208138A5232341
:1028000020832BB1237024602BB925B12C7F22604B
:1028100025B9EF8DF8A1208139A523232083EF8DE1
:10282000F8A120813DA1232B2083ED8DFE8D2081F9
:102830003CA1232B20833BB12F2D2C7F3370232BE6
:102840002BB935B12F2D23703C7F232B25B9EF8D6C
:10285000F8A1208139A523232083EF8DF8A12081C1
:102860003DA1232B2083ED8DFE8D208138A52323D0
:1028700020832BB1237024602BB925B1236025B9A7
:10288000EF8DF8A1208139A523232083EF8DF8A1B6
:1028900020813DA1232B2083ED8DFE8D20813CA145
:1028A000232B20833BB1242F2C7F3370232B2BB978
:1028B00035B1242F23703C7F232B25B9EF8DF8A150
:1028C000208139A523232083EF8DF8A120813DA10C
:1028D000232B2083ED8DFE8D208138A5232320839B
:1028E0002BB1237024602BB925B12C7F25B9EF8D36
:1028F000F8A1208139A523232083EF8DF8A1208121
:102900003DA1232B2083ED8DFE8D20813CA1232B27
:1029100020833BB1292F2C7F3370232B2BB925B17A
:1029200093702C7F922B95B9EF8DF8A1908129A5FA
:1029300092239083EF8DF8A190812DA1922B90830B
:10294000ED8DFE8D908128A5922390839BB193708D
:1029500094609BB995B19C7F916095B9EF8DF8A17A
:10296000908129A592239083EF8DF8A190812DA1CC
:10297000922B9083ED8DFE8D90812CA1922B9083D4
:102980002BB1982F9C7F2370922B9BB995B18370AC
:102990009C7F892B85B9EF8DF8A1808199A589232A
:1029A0008083EF8DF8A180819DA1892B8083ED8D9F
:1029B000FE8D808198A5892380838BB18370886088
:1029C0008BB985B18C7F85B9EF8DF8A1808199A5F0
:1029D00089238083EF8DF8A180819DA1892B80833D
:1029E000ED8DFE8D80819CA1892B80839BB1812FF1
:1029F0008C7F9370892B8BB995B1812F83709C7FCD
:102A0000892B85B9EF8DF8A1808199A589238083D1
:102A1000EF8DF8A180819DA1892B8083ED8DFE8DA6
:102A2000808198A5892380838BB1837088608BB95E
:102A300085B18C7F816085B9EF8DF8A1808199A5E2
:102A400089238083EF8DF8A180819DA1892B8083CC
:102A5000ED8DFE8D80819CA1892B80839BB1802F81
:102A60008C7F9370892B8BB985B103708C7F082B79
:102A700005B9EF8DF8A1808199A589238083EF8D19
:102A8000F8A180819DA1892B80832BC02250223008
:102A900040F5AB01662757FD6095762F3327222737
:102AA000AA2797FDA095BA2F282B392B4A2B5B2BF1
:102AB0006AE2CE010E94FF0FC701AA2797FDA095E9
:102AC000BA2FAC0133272227C801AA2797FDA0956A
:102AD000BA2F282B392B4A2B5B2B6BE2CE010E949D
:102AE000FF0FEB8DFC8D80819BA1892B8083DF9173
:102AF000CF911F910F91FF90EF900895CF92DF92A9
:102B0000EF92FF920F931F93CF93DF93EC01690134
:102B10007801121613060CF04FC057FD4DC08A8580
:102B20009B85481759070CF047C088859985681719
:102B300079070CF041C0FB01E20FF31F9F01215008
:102B4000310937FD39C077FF03C06F0160E070E0E5
:102B50002817390734F09C01215031096C01C61A3D
:102B6000D70A8A01CE010E940D119601442737FD34
:102B70004095542FB701CE010E94110C8A8D81110E
:102B800010C00A851B8501501109288539852150FF
:102B9000310940E050E060E070E0CE010E940D118C
:102BA0000BC0CE01DF91CF911F910F91FF90EF905D
:102BB000DF90CF900C941B0BDF91CF911F910F9161
:102BC000FF90EF90DF90CF900895CF92DF92EF9239
:102BD000FF920F931F93CF93DF93EC01690178016C
:102BE000121613060CF04FC077FD4DC088859985ED
:102BF000681779070CF047C08A859B8548175907E5
:102C00000CF041C09A012C0D3D1D890101501109A4
:102C100017FD39C057FF03C0690140E050E00817B5
:102C2000190734F08C01015011096C01C41AD50A3E
:102C30009B01CE010E940D119601442737FD40955E
:102C4000542FB701CE010E94110C8A8D811110C042
:102C50000A851B85015011092885398521503109C4
:102C600040E050E060E070E0CE010E940D110BC02A
:102C7000CE01DF91CF911F910F91FF90EF90DF90E8
:102C8000CF900C941B0BDF91CF911F910F91FF9070
:102C9000EF90DF90CF9008958F929F92AF92BF9266
:102CA000CF92DF92EF92FF920F931F93CF93DF9318
:102CB000EC01590168014701121613060CF06BC0B4
:102CC000101611060CF067C088859985681779077A
:102CD0000CF061C0EA84FB844E155F050CF05BC00C
:102CE000FB01E20FF31F9F012150310937FD53C053
:102CF000DA01A00FB11F8D010150110917FD4BC062
:102D000077FF03C05F0160E070E057FF03C06D0113
:102D100040E050E02817390734F09C012150310978
:102D20005C01A61AB70A0E151F0534F08701015081
:102D300011096701C41AD50ACE010E940D1196012E
:102D4000D5010E94D3329B01AC01B401CE010E9497
:102D5000110C8A8D811110C00A851B850150110943
:102D6000288539852150310940E050E060E070E06D
:102D7000CE010E940D110FC0CE01DF91CF911F91A6
:102D80000F91FF90EF90DF90CF90BF90AF909F900A
:102D90008F900C941B0BDF91CF911F910F91FF909F
:102DA000EF90DF90CF90BF90AF909F908F9008955D
:102DB000EF92FF920F931F93CF93DF93EC017B0170
:102DC0008A8D8111D2C0ED89E150E33060F4F0E0EA
:102DD000DF01AF5CBE4F8C91EE0FFF1FE55DFE4F34
:102DE0002081318104C020E030E080E090E0EB8D74
:102DF000FC8D90814FA194239083ED8DFE8D908169
:102E000048A5942390839BB193709BB995B19C7F07
:102E100095B9EF8DF8A1908149A594239083EF8D0A
:102E2000F8A190814DA1942B90839BB193709062F7
:102E30009BB995B19C7F95B9EF8DF8A1908149A57B
:102E400094239083EF8DF8A190814DA1942B9083D2
:102E5000ED8DFE8D90814CA1942B90839BB193704E
:102E60009BB995B19C7F95B9EF8DF8A1908149A54B
:102E700094239083EF8DF8A190814DA1942B9083A2
:102E80004BB1982F9C7F4370942B9BB995B1837065
:102E90009C7F892B85B9EF8DF8A1808199A5892325
:102EA0008083EF8DF8A180819DA1892B8083ED8D9A
:102EB000FE8D808198A5892380838BB183708BB927
:102EC00085B18C7F85B9EF8DF8A1808199A5892383
:102ED0008083EF8DF8A180819DA1892B80838BB1A8
:102EE000837080628BB985B18C7F816085B9EF8DED
:102EF000F8A1808199A589238083EF8DF8A1808135
:102F00009DA1892B8083ED8DFE8D80819CA1892BD5
:102F100080838BB183708BB985B133708C7F382BF4
:102F200035B9EF8DF8A1808199A589238083EF8D34
:102F3000F8A180819DA1892B80839BB1822F8C7FFA
:102F40009370892B8BB985B123708C7F282B25B981
:102F5000EF8DF8A1808199A589238083EF8DF8A159
:102F600080819DA1892B808312C08150833078F4A9
:102F70000A851B85015011092885398521503109A1
:102F800040E050E060E070E0CE010E940D1120E0D2
:102F90003CE241E050E0B701CE01DF91CF911F91BB
:102FA0000F91FF90EF900C94110CEF92FF920F9302
:102FB0001F93CF93DF93EC01F22EE32E77FDA5C292
:102FC00057FDA3C288859985681779070CF09DC2C3
:102FD0008A859B85481759070CF097C2EB8DFC8DAD
:102FE00080819FA1892380838A8D8111FAC08D8978
:102FF000823059F08330B1F08130D1F48FEE90E01F
:10300000841B950BAB01BC0113C08FEE90E09C01BB
:10301000261B370BB9018FE391E09C01241B350B74
:10302000A90106C08FE391E0861B970BBA01AC01A2
:10303000ED8DFE8D808198A5892380838BB183706F
:103040008BB985B18C7F85B9EF8DF8A1808199A569
:1030500089238083EF8DF8A180819DA1892B8083B6
:103060008BB1837080628BB985B18C7F85B9EF8D10
:10307000F8A1808199A589238083EF8DF8A18081B3
:103080009DA1892B8083ED8DFE8D80819CA1892B54
:1030900080839BB1872F8C7F9370892B8BB995B1DF
:1030A000872F83709C7F892B85B9EF8DF8A1808154
:1030B00099A589238083EF8DF8A180819DA1892B1B
:1030C00080839BB1862F8C7F9370892B8BB985B1C0
:1030D00063708C7F682B65B9EF8DF8A1808199A50D
:1030E00089238083EF8DF8A180819DA1892B808326
:1030F000ED8DFE8D808198A5892380838BB18370AF
:103100008BB985B18C7F85B9EF8DF8A1808199A5A8
:1031100089238083EF8DF8A180819DA1892B8083F5
:103120008BB1837080628BB985B18C7F816085B9EA
:10313000EF8DF8A1808199A589238083EF8DF8A177
:1031400080819DA1892B8083ED8DFE8D80819CA146
:10315000892B80839BB1852F8C7F9370892B8BB9B2
:1031600095B1852F83709C7F892B85B9EF8DF8A150
:10317000808199A589238083EF8DF8A180819DA10D
:10318000892B80839BB1842F8C7F9370892B8BB983
:1031900085B143708C7F482B45B9EF8DF8A18081B4
:1031A00099A589238083EF8DF8A180819DA1892B2A
:1031B0008083ED8DFE8D808198A5892380838BB1DE
:1031C00083708BB985B18C7F85B9EF8DF8A1808133
:1031D00099A589238083EF8DF8A180819DA1892BFA
:1031E00021C1813009F027C1ED89E150E33028F495
:1031F000F0E0E85DFE4F208101C020E0ED8DFE8D06
:10320000908188A5982390838BB1837084618BB95A
:1032100085B18C7F826085B9EF8DF8A1908189A5F9
:1032200098239083EF8DF8A190818DA1982B9083A6
:10323000ED8DFE8D90818CA1982B90839BB1822F78
:103240008C7F9370892B8BB985B18C7F85B9EF8D7D
:10325000F8A1808199A589238083EF8DF8A18081D1
:103260009DA1892B8083ED8DFE8D808198A589237A
:1032700080838BB183708BB985B18C7F826085B977
:10328000EF8DF8A1808199A589238083EF8DF8A126
:1032900080819DA1892B8083ED8DFE8D80819CA1F5
:1032A000892B80839BB1872F8C7F9370892B8BB95F
:1032B00095B1872F83709C7F892B85B9EF8DF8A1FD
:1032C000808199A589238083EF8DF8A180819DA1BC
:1032D000892B8083ED8DFE8D808198A58923808345
:1032E0008BB183708BB985B1836085B9EF8DF8A1FF
:1032F000808199A589238083EF8DF8A180819DA18C
:10330000892B8083ED8DFE8D80819CA1892B80830C
:103310009BB1862F8C7F9370892B8BB985B163709D
:103320008C7F682B65B9EF8DF8A1808199A58923E1
:103330008083EF8DF8A180819DA1892B8083ED8D05
:10334000FE8D808198A5892380838BB183708460F2
:103350008BB985B18C7F826085B9EF8DF8A18081B2
:1033600099A589238083EF8DF8A180819DA1892B68
:103370008083ED8DFE8D80819CA1892B80839BB104
:10338000852F8C7F9370892B8BB995B1852F837096
:103390009C7F892B85B9EF8DF8A1808199A5892320
:1033A0008083EF8DF8A180819DA1892B8083ED8D95
:1033B000FE8D808198A5892380838BB18370846082
:1033C0008BB985B1836085B9EF8DF8A1808199A50E
:1033D00089238083EF8DF8A180819DA1892B808333
:1033E000ED8DFE8D80819CA1892B80839BB1842FE4
:1033F0008C7F9370892B8BB985B143708C7F482B60
:1034000045B9EF8DF8A1808199A589238083EF8D3F
:10341000F8A180819DA1892B8083ED8DFE8D808117
:1034200098A5892380838BB1837080628BB985B125
:103430008C7F826021C08250823008F060C00A8593
:103440001B85015011092885398521503109CE018C
:103450000E940D11EB8DFC8D80819FA189238083BB
:10346000ED8DFE8D808198A5892380838BB183703B
:103470008C628BB985B18C7F85B9EF8DF8A1808185
:1034800099A589238083EF8DF8A180819DA1892B47
:103490008083ED8DFE8D80819CA1892B80839BB1E3
:1034A0008E2D8C7F9370892B8BB995B18E2D837067
:1034B0009C7F892B85B9EF8DF8A1808199A58923FF
:1034C0008083EF8DF8A180819DA1892B80839BB1A2
:1034D0008F2D8C7F9370892B8BB995B18F2D837035
:1034E0009C7F892B85B9EF8DF8A1808199A58923CF
:1034F0008083EF8DF8A180819DA1892B8083EB8D46
:10350000FC8D80819BA1892B8083DF91CF911F91BE
:103510000F91FF90EF900895CF92DF92FF920F935B
:103520001F93CF93DF931F92CDB7DEB76C010E943C
:103530001B27D6015B96ED91FC915C978081979655
:103540009C919797892380835A968C915A978111E1
:10355000A1C05596EC91E150E33038F4F0E0EE0F65
:10356000FF1FEE5DFE4F208101C020E3D6015D9676
:10357000ED91FC915E97808198969C919897892314
:1035800080838BB183708BB985B18C7F85B95F9651
:10359000ED91FC919097808199969C9199978923C0
:1035A00080835F96ED91FC919097808195969C9198
:1035B0009597892B80838BB183708BB995B193607C
:1035C00095B95F96ED91FC919097908199968C9129
:1035D0009997982390835F96ED91FC9190979081B5
:1035E00095968C919597982B90835D96ED91FC9193
:1035F0005E97908194968C919497982B90838BB141
:10360000837080618BB995B19C7F95B95F96ED9180
:10361000FC919097908199968C919997982390839B
:103620005F96ED91FC919097908195968C919597EE
:10363000982B90839BB1822F8C7F9370892B8BB9B1
:1036400085B18C7F85B95F96ED91FC9190978081D3
:1036500099969C919997892380835F96ED91FC912F
:103660009097808195969C919597892B80831A9647
:103670000D911C911B970150110918962D913C91A9
:1036800019972150310940E050E060E070E0C60138
:103690000E940D11F601828D813009F05AC0E58932
:1036A000E150E33028F4F0E0E15EFE4F208101C0FC
:1036B00020E0D6015D96ED91FC915E979081989601
:1036C0008C919897982390838BB1837084618BB988
:1036D00085B18C7F826085B95F96ED91FC91909762
:1036E000908199968C919997982390835F96ED910C
:1036F000FC919097908195968C919597982B9083BB
:103700005D96ED91FC915E97908194968C91949743
:10371000982B90839BB1822F8C7F9370892B8BB9D0
:1037200085B18C7F85B95F96ED91FC9190978081F2
:1037300099969C919997892380835F96ED91FC914E
:103740009097808195969C91892B8083C6010E94D9
:103750001B0BF601828D823009F074C0858981309F
:1037600059F038F0823059F0833059F4F8E2F98397
:1037700008C088E8898305C0A8EEA98302C0B8E420
:10378000B983D6015D96ED91FC915E978081989604
:103790009C919897892380838BB1837084638BB9C4
:1037A00085B18C7F826085B95F96ED91FC91909791
:1037B000808199969C919997892380835F96ED915A
:1037C000FC919097808195969C919597892B808309
:1037D0005D96ED91FC915E97808194969C91949773
:1037E000892B80839BB189818C7F9370892B8BB9C6
:1037F00085B18C7F85B95F96ED91FC919097808122
:1038000099969C919997892380835F96ED91FC917D
:103810009097808195969C919597892B80831A9695
:103820000D911C911B970150110918962D913C91F7
:1038300019972150310940E050E060E070E0C60186
:103840000E940D11F601828D833009F073C08589C5
:10385000813059F038F0823059F0833051F460E60D
:10386000F62E07C050ECF52E04C040EAF42E01C03D
:10387000F12CD6015D96ED91FC915E978081989632
:103880009C919897892380838BB1837084638BB9D3
:1038900085B18C7F826085B95F96ED91FC919097A0
:1038A000808199969C919997892380835F96ED9169
:1038B000FC919097808195969C919597892B808318
:1038C0005D96ED91FC915E97808194969C91949782
:1038D000892B80839BB18F2D8C7F9370892B8BB923
:1038E00085B18C7F85B95F96ED91FC919097808131
:1038F00099969C919997892380835F96ED91FC918D
:103900009097808195969C919597892B80831A96A4
:103910000D911C911B970150110918962D913C9106
:1039200019972150310940E050E060E070E0C60195
:103930000E940D110F90DF91CF911F910F91FF9079
:10394000DF90CF9008950F931F93CF93DF93EC01F7
:103950008B010E94BB0A68EC70E080E090E00E945E
:103960009E2D053283E9180729F00832E3E91E0786
:1039700009F08DC01A8EEB8DFC8D80819FA189236B
:10398000808306EA17E0F80185919491F801329658
:10399000659174918F3F910529F480E090E00E9439
:1039A0009E2D69C0ED8DFE8D208138A523232083B7
:1039B0003BB1292F2C7F3370232B2BB925B193706A
:1039C0002C7F922B95B9EF8DF8A1908129A5922398
:1039D0009083EF8DF8A190812DA1922B90832BB134
:1039E000982F9C7F2370922B9BB995B183709C7FFD
:1039F000892B85B9EF8DF8A1808199A589238083D2
:103A0000EF8DF8A180819DA1892B8083ED8DFE8DA6
:103A100080819CA1892B80839BB1872F8C7F9370A1
:103A2000892B8BB995B1872F83709C7F892B85B9A2
:103A3000EF8DF8A1808199A589238083EF8DF8A16E
:103A400080819DA1892B80839BB1862F8C7F937071
:103A5000892B8BB985B163708C7F682B65B9EF8D2D
:103A6000F8A1808199A589238083EF8DF8A18081B9
:103A70009DA1892B80830C5F1F4FF8E002371F0741
:103A800009F081CF6D89CE010E948C1AC4C2013425
:103A900083E9180709F0CBC282E08A8FEB8DFC8D99
:103AA00080819FA189238083ED8DFE8D808198A5E3
:103AB000892380838BB183708BB985B18C7F8160C2
:103AC00085B9EF8DF8A1808199A589238083EF8D39
:103AD000F8A180819DA1892B8083ED8DFE8D808151
:103AE0009CA1892B80838BB183708BB985B18C7F2E
:103AF00085B9EF8DF8A1808199A589238083EF8D09
:103B0000F8A180819DA1892B808362E370E080E031
:103B100090E00E949E2DED8DFE8D808198A58923D9
:103B200080838BB1837088628BB985B18C7F85B9B6
:103B3000EF8DF8A1808199A589238083EF8DF8A16D
:103B400080819DA1892B8083ED8DFE8D80819CA13C
:103B5000892B80838BB183708BB985B18C7F85B9BC
:103B6000EF8DF8A1808199A589238083EF8DF8A13D
:103B700080819DA1892B8083ED8DFE8D808198A50C
:103B8000892380838BB18370806C8BB985B18C7FE6
:103B900085B9EF8DF8A1808199A589238083EF8D68
:103BA000F8A180819DA1892B8083ED8DFE8D808180
:103BB0009CA1892B80838BB1837080628BB985B186
:103BC000836085B9EF8DF8A1808199A589238083D1
:103BD000EF8DF8A180819DA1892B8083ED8DFE8DD5
:103BE000808198A5892380838BB18370806C8BB989
:103BF00085B18C7F816085B9EF8DF8A1808199A511
:103C000089238083EF8DF8A180819DA1892B8083FA
:103C1000ED8DFE8D80819CA1892B80838BB183707B
:103C200080618BB985B18C7F85B9EF8DF8A18081DA
:103C300099A589238083EF8DF8A180819DA1892B8F
:103C40008083ED8DFE8D808198A5892380838BB143
:103C500083708BB985B18C7F85B9EF8DF8A1808198
:103C600099A589238083EF8DF8A180819DA1892B5F
:103C700080838BB18370846C8BB985B18C7F8160BC
:103C800085B9EF8DF8A1808199A589238083EF8D77
:103C9000F8A180819DA1892B8083ED8DFE8D80818F
:103CA0009CA1892B80838BB1837088628BB985B18D
:103CB000836085B9EF8DF8A1808199A589238083E0
:103CC000EF8DF8A180819DA1892B80838BB18370BA
:103CD00088628BB985B1836085B9EF8DF8A1808149
:103CE00099A589238083EF8DF8A180819DA1892BDF
:103CF0008083ED8DFE8D808198A5892380838BB193
:103D00008370846C8BB985B1836085B9EF8DF8A120
:103D1000808199A589238083EF8DF8A180819DA161
:103D2000892B8083ED8DFE8D80819CA1892B8083E2
:103D30008BB18370806C8BB985B18C7F85B9EF8D29
:103D4000F8A1808199A589238083EF8DF8A18081D6
:103D50009DA1892B8083ED8DFE8D808198A589237F
:103D600080838BB1837084638BB985B18C7F8260D3
:103D700085B9EF8DF8A1808199A589238083EF8D86
:103D8000F8A180819DA1892B8083ED8DFE8D80819E
:103D90009CA1892B80838BB1837088688BB985B196
:103DA0008C7F85B9EF8DF8A1808199A589238083C7
:103DB000EF8DF8A180819DA1892B8083ED8DFE8DF3
:103DC000808198A5892380838BB1837088638BB9A8
:103DD00085B18C7F826085B9EF8DF8A1808199A52E
:103DE00089238083EF8DF8A180819DA1892B808319
:103DF000ED8DFE8D80819CA1892B80838BB183709A
:103E000084658BB985B18C7F816085B9EF8DF8A110
:103E1000808199A589238083EF8DF8A180819DA160
:103E2000892B8083ED8DFE8D808198A589238083E9
:103E30008BB183708BB985B18C7F85B9EF8DF8A17B
:103E4000808199A589238083EF8DF8A180819DA130
:103E5000892B80838BB18370806B8BB985B18C7F0C
:103E6000816085B9EF8DF8A1808199A58923808330
:103E7000EF8DF8A180819DA1892B8083ED8DFE8D32
:103E800080819CA1892B80838BB183708BB985B194
:103E90008C7F85B9EF8DF8A1808199A589238083D6
:103EA000EF8DF8A180819DA1892B80838BB18370D8
:103EB00088618BB985B1836085B9EF8DF8A1808168
:103EC00099A589238083EF8DF8A180819DA1892BFD
:103ED0008083ED8DFE8D808198A5892380838BB1B1
:103EE0008370846B8BB985B1836085B9EF8DF8A140
:103EF000808199A589238083EF8DF8A180819DA180
:103F0000892B8083ED8DFE8D80819CA1892B808300
:103F10008BB1837084608BB985B1836085B9EF8D77
:103F2000F8A1808199A589238083EF8DF8A18081F4
:103F30009DA1892B8083ED8DFE8D808198A589239D
:103F400080838BB1837080618BB985B18C7F8160F8
:103F500085B9EF8DF8A1808199A589238083EF8DA4
:103F6000F8A180819DA1892B8083ED8DFE8D8081BC
:103F70009CA1892B80838BB183708BB985B18C7F99
:103F800085B9EF8DF8A1808199A589238083EF8D74
:103F9000F8A180819DA1892B808366E970E080E093
:103FA00090E00E949E2DED8DFE8D808198A5892345
:103FB00080838BB1837088628BB985B18C7F81607F
:103FC00085B9EF8DF8A1808199A589238083EF8D34
:103FD000F8A180819DA1892B8083ED8DFE8D80814C
:103FE0009CA1892B80838BB183708BB985B18C7F29
:103FF00085B9EF8DF8A1808199A589238083EF8D04
:10400000F8A180819DA1892B808364EF71E080E01D
:1040100090E00E949E2D0FE311E02FEE30E040E093
:1040200050E060E070E0CE010E940D11E6C007355F
:10403000E3E81E0709F078C083E08A8FEB8DFC8DE2
:1040400080819FA18923808380E0E82FF0E0EE58F3
:10405000F74F949112E0180F61E0680FE62FF0E03F
:10406000EE58F74F64919F3F31F470E080E090E0AC
:104070000E949E2D54C0AB8DBC8D2C913FA123235B
:104080002C93AD8DBE8D2C9138A523232C933BB161
:10409000292F2C7F3370232B2BB925B193702C7FC4
:1040A000922B95B9EF8DF8A1908129A59223908349
:1040B000EF8DF8A190812DA1922B9083ED8DFE8D37
:1040C00090812CA1922B9083860F8E5FE12FE817B1
:1040D000F9F031E03E0FF0E0EE58F74FE4912BB1EC
:1040E0009E2F9C7F2370922B9BB995B1E3709C7F90
:1040F000E92BE5B9EF8DF8A1908129A59223908352
:10410000EF8DF8A190812DA1922B9083E32FDFCF2B
:10411000160FEB8DFC8D80819BA1892B808316343B
:1041200008F06BC0812F91CF0537154709F063C0A8
:1041300081E08A8FEB8DFC8D80819FA18923808314
:1041400008EB18E0F8018491319664918F3F31F4C7
:1041500070E080E090E00E949E2D3BC0AD8DBE8D52
:104160009C9128A592239C932BB1982F9C7F237020
:10417000922B9BB995B183709C7F892B85B9AF8DAC
:10418000B8A18C9199A589238C93AF8DB8A18C91FE
:104190009DA1892B8C93AD8DBE8D8C919CA1892B7B
:1041A0008C939BB1862F8C7F9370892B8BB995B1A3
:1041B000862F83709C7F892B85B9EF8DF8A1808134
:1041C00099A589238083EF8DF8A180819DA1892BFA
:1041D00080830E5F1F4FF9E00E301F0709F0B2CF4A
:1041E0006D89CE010E948C1ACE01DF91CF911F9173
:1041F0000F910C941B0B8FEF8A8FDF91CF911F9142
:104200000F9108952F923F924F925F926F927F92FB
:104210008F929F92AF92BF92CF92DF92EF92FF92D6
:104220000F931F93CF93DF9300D000D0CDB7DEB7AD
:104230004C017C836B836A015901C8018701AC0181
:104240004C195D0957FF03C05195419551099501DE
:104250006B817C81261B370B37FF03C0319521957D
:10426000310922242394312C2417350714F0212CF2
:10427000312C2114310459F03A2D2B2D5C01832F60
:10428000922F3B812C81DC82CB82C32ED22EAB813C
:10429000BC81AA16BB065CF43C2D2D2D6C01832F2E
:1042A000922F3B812C81BC82AB82A32EB22E2501A2
:1042B000EB81FC814E1A5F0A3C016C187D0877FE89
:1042C00003C0719461947108720157FE03C0FFEF3F
:1042D000EF1AFF0AF594E794C816D9062CF421E0EA
:1042E00030E03A83298324C06FEF7FEF7A836983BC
:1042F0001FC0D401ED91FC910480F581E02D98015F
:1043000021143104D9F04B815C81B601C4010995B7
:10431000E618F708F7FE06C0E981FA81CE0EDF1E27
:10432000E40CF51C2B813C812F5F3F4F3C832B839A
:104330006B817C81A616B706E4F604C0A6016B81EA
:104340007C81E4CF0F900F900F900F90DF91CF9171
:104350001F910F91FF90EF90DF90CF90BF90AF90A3
:104360009F908F907F906F905F904F903F902F9095
:1043700008956F927F928F929F92AF92BF92CF9249
:10438000DF92EF92FF920F931F93CF93DF93EC0195
:104390005B016A0139014801E881F9810284F385F2
:1043A000E02D87010995E881F981A601480D591D85
:1043B000415051090284F385E02D9301B501CE01EE
:1043C0000995E881F9810084F185E02D9401A60129
:1043D000B501CE010995E881F981B501660D771D1A
:1043E000615071090084F185E02D9401A601CE0190
:1043F0000995DF91CF911F910F91FF90EF90DF9082
:10440000CF90BF90AF909F908F907F906F900895C6
:10441000EF92FF920F931F93DC01ED91FC91240F1B
:10442000351F215031090680F781E02D780189017F
:104430009B0109951F910F91FF90EF900895EF92C6
:10444000FF920F931F93DC01ED91FC91260F371F14
:10445000215031090680F781E02D78018A01099504
:104460001F910F91FF90EF9008956F927F928F921E
:104470009F92AF92BF92CF92DF92EF92FF920F93F3
:104480001F93CF93DF935C014A0169013801EB016F
:10449000C60ED71ECC15DD0574F4D501ED91FC9147
:1044A0000084F185E02D87019301A401BE01C501BF
:1044B00009952196EFCFDF91CF911F910F91FF903A
:1044C000EF90DF90CF90BF90AF909F908F907F90B4
:1044D0006F900895EF92FF920F931F93DC01ED917F
:1044E000FC9111971A960D911C911B9718962D917E
:1044F0003C9119970684F785E02D7B0140E050E060
:1045000060E070E009951F910F91FF90EF90089582
:104510000895FC011382128280E591E091838083EB
:104520007583648357834683718760875387428787
:10453000158A158614861786168621E0248B8FEF40
:104540009FEF938B828B918B808B268B178A118E9A
:10455000108E08952F923F924F925F926F927F92AA
:104560008F929F92AF92BF92CF92DF92EF92FF9283
:104570000F931F93CF93DF93CDB7DEB7AE970FB6F0
:10458000F894DEBF0FBECDBF98878F834B013A01F1
:1045900029011EA70DA7B701DA82C982BE8AAD8A9A
:1045A000041715074CF4872D38014DA78EA7982DB9
:1045B000892D4901492E582E2DA53EA549815A81A4
:1045C000421753075CF49DA58EA55EA74DA799835E
:1045D0008A83942D852D2B01692F782F8DA59EA57B
:1045E000861597055CF4962D872D6DA47EA49DA756
:1045F0008EA7982D892D4201492E582EA981BA8166
:104600006A167B0619F5481459042CF0942D852D53
:104610002401892E982E641575052CF086169706B0
:104620000CF44B01B201AF81B885ED91FC9111976B
:104630009401261B370B2F5F3F4F0284F385E02D3B
:104640000D891E89A301CD01099552C1C2018819A6
:1046500099092DA53EA526193709FB01E819F90985
:10466000FA87E98749815A81461957095E874D873C
:10467000DB01A419B509BA8BA98BE981FA814DA593
:104680005EA5E41BF50BF88FEF8B69817A814617E5
:10469000570729F0415051095C8F4B8F04C0ADA5DD
:1046A000BEA5BC8FAB8F1301A12CB12C65011B8261
:1046B0001C821D821E82A901662757FD6095762FF8
:1046C0004D8F5E8F6F8F78A32D853E85442737FDF4
:1046D0004095542F29A33AA34BA35CA3AC016627B2
:1046E00057FD6095762F4DA35EA36FA378A76985CC
:1046F0007A85882777FD8095982F69A77AA78BA759
:104700009CA7EB8DFC8DE215F3050CF44EC06B817C
:104710007C818D819E812D8D3E8D4F8D58A10E9473
:10472000AE327401E20EF31EC601B50129A13AA111
:104730004BA15CA10E94AE32B401620F731F8B814A
:104740009C81AD81BE812DA13EA14FA158A5820FB4
:10475000931FA41FB51F8B839C83AD83BE8389A544
:104760009AA5ABA5BCA5A80EB91ECA1EDB1E6E1568
:104770007F052CF0962F872FB701E92EF82EAF81F9
:10478000B885ED91FC9111979701261B370B2F5F90
:104790003F4F0284F385E02D0D891E89A101CD01D3
:1047A0000995BFEF2B1A3B0AACCF91014DA55EA531
:1047B000241B350B69897A89629FC001639F900D24
:1047C000729F900D11249C01442737FD4095542F72
:1047D0002B833C834D835E83C101861997094985EC
:1047E0005A85489F6001499FD00C589FD00C1124D6
:1047F000EE24D7FCE094FE2C6F89788D882777FD16
:104800008095982F6F8B788F898F9A8F8D859E8555
:10481000AA2797FDA095BA2F8D879E87AF87B88B63
:1048200029893A89442737FD4095542F298B3A8BA3
:104830004B8B5C8B49855A85662757FD6095762F93
:1048400049875A876B877C87E981FA81E215F305EE
:104850000CF44EC06B817C818D819E812F89388DB7
:10486000498D5A8D0E94AE325201A20EB31EC7016D
:10487000B6012D853E854F8558890E94AE32B40120
:10488000620F731F8B819C81AD81BE8129893A891A
:104890004B895C89820F931FA41FB51F8B839C8358
:1048A000AD83BE8389859A85AB85BC85C80ED91E2C
:1048B000EA1EFB1E6A157B052CF0962F872FB5018B
:1048C000A92EB82EAF81B885ED91FC911197950175
:1048D000261B370B2F5F3F4F0284F385E02D0D8998
:1048E0001E89A101CD010995BFEF2B1A3B0AACCF60
:1048F000AE960FB6F894DEBF0FBECDBFDF91CF915D
:104900001F910F91FF90EF90DF90CF90BF90AF90ED
:104910009F908F907F906F905F904F903F902F90DF
:1049200008952F923F924F925F926F927F928F9253
:104930009F92AF92BF92CF92DF92EF92FF920F932E
:104940001F93CF93DF93CDB7DEB76A970FB6F89476
:10495000DEBF0FBECDBF1C0158874F831C870B875E
:10496000FA86E986CC82DC0158964D915C91599784
:104970004115510509F0A6C018968D919C91199783
:10498000681779070CF056C11A968D919C911B9768
:10499000EF81F885E817F9070CF04CC1D12CCB0159
:1049A0003C81F6E03F9F800D911D112418161906D9
:1049B0000CF040C1C60103E0880F991F0A95E1F78A
:1049C0004F815885840F951F181619060CF032C1B7
:1049D00057968C91811103C0203B08F02F5F7E8792
:1049E0006D874B0119821EE0A12E19E0B12EA61A87
:1049F000B70A55E0259FA00CB11C11248981853090
:104A000039F0ED85FE85EA0DFB1D94919A8301C076
:104A10001A826F8078842301A8E0AD83BA81B0FF49
:104A200012C0D101ED91FC91BC81B13031F4048010
:104A3000F581E02D2B853C8518C00684F785E02D97
:104A4000EB84FC841DC0E985FA852B853C85E21743
:104A5000F307E1F0D101ED91FC91BC81B13059F443
:104A60000480F581E02D29853A85A2016D857E853A
:104A7000C10109950BC00684F785E02DE984FA840D
:104A800086019601A301B401C1010995EA81E69569
:104A9000EA83FD81F150FD836C0C7D1C2FEF421ADF
:104AA000520AF111BBCF39813F5F39838C0C9D1CB9
:104AB0004D855E854F5F5F4F5E874D87363009F0CD
:104AC0009DCFB8C0FA013496349132978591949174
:104AD000231BA7E02A9F800D911D1124FA01259127
:104AE0003491398B288BFC01459154915A8F498F11
:104AF000FC013296549159873196A491AF87319633
:104B0000E491FC013596249131968491BC81B230B8
:104B100050F0622E772467FC7094E82FFF27E7FDA2
:104B2000F095FE87ED87FC81CF2ED12C6C9C400147
:104B30006D9C900C7C9C900C1124860E971EA12CD1
:104B40001982DE8ACD8AAB01420F511D27FD5A958D
:104B50005E834D83AF81B885A80FB11D87FDBA95DF
:104B6000B88FAF8B59818F85581708F063C0852F98
:104B700090E02D853E85280F391F2C9DD0012D9D5D
:104B8000B00D3C9DB00D1124EF81F885EA0FFB1F9D
:104B9000FB83EA836D807E802401FA2D2D81F21B38
:104BA000FA8B4F89588D480F591F5C8B4B8B9A8914
:104BB000960D862D2D81821B39858317B0F5977050
:104BC00061F4898D9A8D0196E889F989298D3A8D4C
:104BD000E20FF31FB4909A8F898FB7FE1DC0D101E9
:104BE000ED91FC91BC81B13059F40480F581E02D48
:104BF0002B853C854B895C89B301C10109950CC0AB
:104C00000684F785E02DEB84FC84860196014A81B9
:104C10005B81B201C1010995BB0CED89FE894E0E85
:104C20005F1EFFEF6F1A7F0AC2CFA30E49814F5F4D
:104C3000498398CF6A960FB6F894DEBF0FBECDBFFA
:104C4000DF91CF911F910F91FF90EF90DF90CF9068
:104C5000BF90AF909F908F907F906F905F904F909C
:104C60003F902F900895AF92BF92CF92EF92FF9214
:104C70000F931F93CF93DF93EC01262F888D998D8F
:104C8000009709F042C06A3069F42C898E859F85AF
:104C900038E0239F800D911D11249F878E871D86EC
:104CA0001C86ABC06D3009F4A8C08E898823C1F082
:104CB0003C898C859D8546E0349F800D911D112493
:104CC00048855985841795075CF01D861C868E855E
:104CD0009F85E8E03E9F800D911D11249F878E8760
:104CE000EA88FB88088919894E855F856C857D85F2
:104CF000CC88CE010E9491242C898C859D85F6E07C
:104D00002F9F800D911D112441C06A3079F41D86BA
:104D10001C864C89FC01369684912E853F85489FE0
:104D2000200D311D11243F872E8767C06D3009F497
:104D300064C0AC014C5F5F4FFA013491631708F413
:104D40005CC03196E491E61708F457C0FA0144912B
:104D5000362F341BFC013296A590B490F7E03F9FAC
:104D6000A00CB11C1124F5013296A4913196E49166
:104D7000AA2311F0E1110DC0F5013496A4902C89FD
:104D80008C859D85A29E800D911D11249D878C8709
:104D900034C0F5013596E4913E89332309F13C890D
:104DA000B0E0AE0FB11DE7FDBA953A9FA0013B9F61
:104DB000500D11246C857D85460F571F68857985B8
:104DC000461757076CF01D861C86FC0136968491A9
:104DD0004E855F85389F400D511D11245F874E879A
:104DE000EA88FB88088919894E855F856C857D85F1
:104DF000CC88CE010E949124BFCF81E090E0DF916A
:104E0000CF911F910F91FF90EF90CF90BF90AF90F7
:104E10000895FC0175876487578746870895611157
:104E200001C061E0FC01648B0895FC01738B628B0F
:104E3000718B608B0895FC016370658B8481958113
:104E400026813781613039F0633029F0918780877E
:104E50003387228708953187208793878287089533
:104E6000FC01808D918D6115710531F0892B59F40C
:104E700086859785069605C0892B29F086859785B6
:104E8000069797878687718F608F0895FC018085CC
:104E900091850895FC018285938508952F923F9214
:104EA0004F925F926F927F928F929F92AF92BF923A
:104EB000CF92DF92EF92FF920F931F93CF93DF93E6
:104EC00000D000D000D0CDB7DEB72C01FB013A01F5
:104ED0001E830D83FA82E982C80117FD039695951A
:104EE000879595958795490137FF03C02FEF821A63
:104EF000920A959487942D813E81220F331F821A46
:104F0000930A9C01220F331F821A930ABC016E0F71
:104F10007F1F2D803E80260E371E4D815E81460DFF
:104F2000571D5C834B83A980BA806A01710183019C
:104F30009101A301C2010E94AA225FEF851A950A7E
:104F4000D201ED91FC910D811E810F5F1F4F0684F0
:104F5000F785E02DE980FA809401A301B101C20137
:104F60000995B101680D791D2D813E81260F371FEE
:104F7000A980BA80CB80DC807B018301A301C201C0
:104F80000E94AA2226960FB6F894DEBF0FBECDBFB0
:104F9000DF91CF911F910F91FF90EF90DF90CF9015
:104FA000BF90AF909F908F907F906F905F904F9049
:104FB0003F902F9008952F923F924F925F926F9261
:104FC0007F928F929F92AF92BF92CF92DF92EF9299
:104FD000FF920F931F93CF93DF93CDB7DEB72A973E
:104FE0000FB6F894DEBF0FBECDBF9C838B83480104
:104FF000F886EF82C80117FD0396DC01B595A795E9
:10500000B595A795BA83A9831D01319421943108E0
:10501000220C331C290137FF03C0BFEF4B1A5B0A78
:1050200055944794C401880F991F481A590A420C95
:10503000531CE981FA81EE0FFF1FE60FF71FC40131
:10504000880F991FE80FF91FE40DF51DFA87E9870E
:1050500029813A81420F531F3A01680C791CE819E3
:10506000F909FE83ED83AF80B88463017F0183017A
:1050700029853A85B9018B819C810E94AA223FEF44
:10508000431A530A89819A81480E591EAB81BC810B
:10509000ED91FC91119794012F5F3F4F0684F785A6
:1050A000E02DEF80F8848201A3016D817E81CD0126
:1050B0000995A301440D551D6A01C80CD91CC20CE9
:1050C000D31CAF80B884E984FA848A0197016D818A
:1050D0007E818B819C810E94AA222A960FB6F89429
:1050E000DEBF0FBECDBFDF91CF911F910F91FF901B
:1050F000EF90DF90CF90BF90AF909F908F907F9078
:105100006F905F904F903F902F9008952F923F9215
:105110004F925F926F927F928F929F92AF92BF92C7
:10512000CF92DF92EF92FF920F931F93CF93DF9373
:10513000CDB7DEB728970FB6F894DEBF0FBECDBF50
:105140009A838983FA014801FE82ED82C80117FD26
:1051500003962C0155944794559447948827992792
:1051600084199509880F991F390137FF03C02FEF64
:10517000621A720A759467949401220F331F621A9F
:10518000730A680E791E9401220F331FA201440F87
:10519000551FDB01A40FB51FA20FB31FA60DB71D2E
:1051A000B887AF83440D551D4E0F5F1F420F531F2D
:1051B000460D571D1A01280C391C280E391EA81936
:1051C000B909BC83AB83AD80BE8061017D018101E3
:1051D0002F813885B90189819A810E94AA22BFEF67
:1051E0006B1A7B0A640C751CA981BA81ED91FC9144
:1051F000119794012F5F3F4F0684F785E02DED80D6
:10520000FE808301A1016B817C81CD010995A10103
:10521000460D571D6A01C80CD91CAD80BE80EF80B9
:10522000F8848A0197016B817C8189819A810E942F
:10523000AA2228960FB6F894DEBF0FBECDBFDF912D
:10524000CF911F910F91FF90EF90DF90CF90BF9083
:10525000AF909F908F907F906F905F904F903F9016
:105260002F9008952F923F924F925F926F927F926C
:105270008F929F92AF92BF92CF92DF92EF92FF9266
:105280000F931F93CF93DF9300D000D000D0CDB702
:10529000DEB73C014801FC82EB82C80117FD039692
:1052A0009595879595958795290137FF03C02FEF31
:1052B000421A520A559447949401220F331F421AFE
:1052C000530A9C01220F331F421A530A680F791F99
:1052D000D901A80FB91FA40FB51FC401880F991FCA
:1052E000880F991FA80FB91FC201880F991FA80F17
:1052F000B91FBE83AD831B01280C391CA819B9093D
:10530000BA83A983AB80BC806D0171010D811E81C0
:105310009101A801C3010E94AA22BFEF4B1A5B0AA8
:10532000D301ED91FC9184010F5F1F4F0684F78537
:10533000E02DEB80FC80920149815A81B101C301CB
:105340000995B101640D751D7B01E80CF91CAB805A
:10535000BC80CD80DE8086019B0149815A81C301DA
:105360000E94AA2226960FB6F894DEBF0FBECDBFCC
:10537000DF91CF911F910F91FF90EF90DF90CF9031
:10538000BF90AF909F908F907F906F905F904F9065
:105390003F902F9008952F923F924F925F926F927D
:1053A0007F928F929F92AF92BF92CF92DF92EF92B5
:1053B000FF920F931F93CF93DF93CDB7DEB728975C
:1053C0000FB6F894DEBF0FBECDBF9A8389834B0121
:1053D00018870F83FC82EB82C80117FD03963C01FE
:1053E000759467947594679466277727661977098B
:1053F000660F771F290137FF03C02FEF421A520AA9
:10540000559447948F819885880F991F481A590A97
:10541000460E571EC301880F991F860D971D840FD6
:10542000951F2F813885220F331F820F931F840D04
:10543000951D2F803884280E391E260E371E6F8149
:105440007885680D791D7E836D83AB80BC8061019A
:105450007B0181019401AC01B40189819A810E9490
:10546000AA227FEF471A570A460C571CA981BA8116
:10547000ED91FC9111972F8138852F5F3F4F068466
:10548000F785E02DEB80FC808201A101B401CD0104
:105490000995A101440D551DCF80D884C40ED51E99
:1054A000AB80BC8074018A012D813E81B401898169
:1054B0009A810E94AA2228960FB6F894DEBF0FBEEA
:1054C000CDBFDF91CF911F910F91FF90EF90DF90B3
:1054D000CF90BF90AF909F908F907F906F905F9094
:1054E0004F903F902F9008952F923F924F925F924E
:1054F0006F927F928F929F92AF92BF92CF92DF92E4
:10550000EF92FF920F931F93CF93DF93CDB7DEB748
:105510002A970FB6F894DEBF0FBECDBF9A8389835A
:105520003B014801FE82ED82C80117FD0396BC01D4
:1055300075956795759567957C836B831B01319491
:1055400021943108220C331CC90137FD0196DC017E
:10555000B595A795C401880F991FA81BB90BA20D7B
:10556000B31DBA87A987EB81FC814E0F5F1F2A010B
:10557000480C591C9301280D391D38872F83AD80A5
:10558000BE806201790182019301B30189819A8110
:105590000E94AA2269857A856F5F7F4F8B819C81EB
:1055A000680F791F7A876987A981BA81ED91FC918B
:1055B000119794012F5F3F4F0684F785E02DED8012
:1055C000FE808B01A201B301CD01099549855A8561
:1055D000440D551D6A01C80CD91CC20CD31CAD80EA
:1055E000BE8073018A012F813885B30189819A8138
:1055F0000E94AA222A960FB6F894DEBF0FBECDBF36
:10560000DF91CF911F910F91FF90EF90DF90CF909E
:10561000BF90AF909F908F907F906F905F904F90D2
:105620003F902F9008952F923F924F925F926F92EA
:105630007F928F929F92AF92BF92CF92DF92EF9222
:10564000FF920F931F93CF93DF93CDB7DEB72897C9
:105650000FB6F894DEBF0FBECDBF9A83898318873B
:105660000F83FE82ED82F80117FD3396F595E795DD
:10567000F595E795490137FF03C02FEF821A920A8B
:10568000959487948F819885880F991F881A990A15
:10569000CF01880F991F881A990A6E0F7F1FCA01C0
:1056A0008E0F9F1F2F813885220F331F820F931F6C
:1056B000880D991DAF01F7FF02C04F5F5F4F5595F1
:1056C0004795480F591F6F807884660E771E8F812B
:1056D000988597FD01961C01359427943194219467
:1056E00031082A01420C531C8F819885840D951D29
:1056F0009C838B83AD80BE806C017301820193011A
:1057000089819A810E94AA229FEF891A990AA98108
:10571000BA81ED91FC9111970F8118850F5F1F4F92
:105720000684F785E02DED80FE809401A201B3018F
:10573000CD010995B301680D791DCB80DC80C20CC9
:10574000D31CEF80F884E60EF71EAD80BE800B817F
:105750001C819B01A20189819A810E94AA2228961C
:105760000FB6F894DEBF0FBECDBFDF91CF911F9172
:105770000F91FF90EF90DF90CF90BF90AF909F90F0
:105780008F907F906F905F904F903F902F900895F3
:105790004F925F926F927F928F929F92AF92BF9241
:1057A000CF92DF92EF92FF920F931F93CF93DF93ED
:1057B000EC012A015901480137016A30710508F0EE
:1057C00091C0FB01EC5CFF4F760183019401A501C0
:1057D000B2010C94CD320E944E279401A501B20172
:1057E000CE010E94742A9401A501B201CE010E944B
:1057F000DB279401A501B201CE010E94CB299401BF
:10580000A501B201CE010E9486289401A501B20132
:10581000CE010E94322985C00E944E279401A50125
:10582000B201CE010E94DB276AC00E944E274DC004
:105830000E94742A9401A501B201CE010E94DB27C7
:105840009401A501B201CE010E94862864C00E9485
:105850004E279401A501B201CE010E94742A3BC0DB
:105860000E944E279401A501B201CE010E94742A24
:105870001DC00E944E279401A501B201CE010E94D5
:10588000DB279401A501B201CE010E94862849C000
:105890000E944E279401A501B201CE010E94742AF4
:1058A0009401A501B201CE010E94DB279401A5015C
:1058B000B201CE010E94CB290EC00E944E27940156
:1058C000A501B201CE010E94742A9401A501B20182
:1058D000CE010E94DB279401A501B201CE010E94F6
:1058E000862813C0760183019401A501B2010E94AC
:1058F0004E279401A501B201CE010E94742A9401A1
:10590000A501B201CE010E94CB299401A501B201EB
:10591000CE010E9432299401A501B201CE010E945C
:10592000132BDF91CF911F910F91FF90EF90DF909C
:10593000CF90BF90AF909F908F907F906F905F902F
:105940004F9008952F923F924F925F926F927F9265
:105950008F929F92AF92BF92CF92DF92EF92FF927F
:105960000F931F93CF93DF93CDB7DEB72C970FB66E
:10597000F894DEBF0FBECDBF9E838D831B014A010D
:10598000290118870F833701DC82CB82BA86A9866A
:10599000CA0121E030E03C872B872AE08230910564
:1059A0005CF06B857C85269FA001279F500D1124FC
:1059B0005C874B870197F2CFC30177FC01965C01AE
:1059C000B594A7948B819C81880F991FA80EB91E4E
:1059D000181419046CF5C1016B857C850E9478321E
:1059E0007A836983C984DA84EB80FC8083012F8108
:1059F0003885A2018D819E810E94C82BE981FA81A0
:105A00002B853C85E29FC001E39F900DF29F900D96
:105A10001124281A390AC9016AE070E00E9478321C
:105A20007C876B874A0C5B1C31E0831A9108D0CFCE
:105A30002C960FB6F894DEBF0FBECDBFDF91CF918D
:105A40001F910F91FF90EF90DF90CF90BF90AF909C
:105A50009F908F907F906F905F904F903F902F908E
:105A600008951F920F920FB60F9211242F933F9318
:105A70008F939F93AF93BF938091A9019091AA01B7
:105A8000A091AB01B091AC013091A80123E0230FAC
:105A90002D3720F40196A11DB11D05C026E8230F66
:105AA0000296A11DB11D2093A8018093A901909396
:105AB000AA01A093AB01B093AC018091AD0190918C
:105AC000AE01A091AF01B091B0010196A11DB11D31
:105AD0008093AD019093AE01A093AF01B093B0015C
