:100000000C949C030C94C4030C94C4030C94C4037C
:100010000C94C4030C94C4030C94C4030C94C40344
:100020000C94C4030C94C4030C94C4030C94C40334
:100030000C94C4030C94C4030C94C4030C94C40324
:100040000C9480300C94C4030C9456330C94883375
:100050000C94C4030C94C4030C94C4030C94C40304
:100060000C94C4030C94C403A32DF72DC42DCD2DE3
:10007000D02DDF2DE82DF12D002E152E00000100D2
:10008000FF003200010000010200000703003010F1
:100090000400000008000202090000000A0000003D
:1000A0000C0000000D0000000F0000001000000018
:1000B000110007001200000013000000FF00C8003C
:1000C0001000901611002702FF00320012001A00E3
:1000D000FF0032001300001829002A00FF00320040
:1000E0003000000031000000320000003500060240
:1000F0003600080837000700380001023900000008
:100100003C0000003D000000200000002100000035
:10011000500000005100EF005200000053003F016A
:10012000600000A7610003006A000000900010005A
:10013000920000009300030095000011970000005A
:1001400098000000070033010100B903FF8357FF47
:10015000FAB30400000606B60125B00168CC01051B
:10016000B10600151C1C83AAC0065050013C1E0895
:10017000B4070240002A2A0D783A01553601C035ED
:100180000100440200021100FF962900FF322E896F
:10019000298F2B02E200E401E510E601E710E87088
:1001A000F200EA00EB20EC3CEDC8E938F1011B1A43
:1001B0001A022461255C183619011F88FF051F806B
:1001C000FF051F90FF051FD4FF05170536092838C6
:1001D000FF28283C02000300040005EF060007008A
:1001E0000801093F00000000003E5B4F5B3E3E6B94
:1001F0004F6B3E1C3E7C3E1C183C7E3C181C577DC1
:10020000571C1C5E7F5E1C00183C1800FFE7C3E70C
:10021000FF0018241800FFE7DBE7FF30483A060E1E
:100220002629792926407F050507407F05253F5A65
:100230003CE73C5A7F3E1C1C08081C1C3E7F1422D5
:100240007F22145F5F005F5F06097F017F00668980
:10025000956A606060606094A2FFA29408047E04C6
:100260000810207E201008082A1C08081C2A0808EC
:100270001E101010100C1E0C1E0C30383E383006AC
:100280000E3E0E06000000000000005F00000007A8
:10029000000700147F147F14242A7F2A12231308D6
:1002A000646236495620500008070300001C2241B2
:1002B000000041221C002A1C7F1C2A08083E080856
:1002C0000080703000080808080800006060002006
:1002D000100804023E5149453E00427F40007249E9
:1002E0004949462141494D331814127F102745458D
:1002F00045393C4A494931412111090736494949A3
:1003000036464949291E0000140000004034000010
:100310000008142241141414141400412214080279
:10032000015909063E415D594E7C1211127C7F49EC
:100330004949363E414141227F4141413E7F494941
:1003400049417F090909013E414151737F0808086D
:100350007F00417F41002040413F017F081422413E
:100360007F404040407F021C027F7F0408107F3E98
:100370004141413E7F090909063E4151215E7F0905
:10038000192946264949493203017F01033F40406C
:10039000403F1F2040201F3F4038403F6314081457
:1003A0006303047804036159494D43007F4141418F
:1003B0000204081020004141417F04020102044070
:1003C00040404040000307080020545478407F28F4
:1003D0004444383844444428384444287F385454EA
:1003E000541800087E090218A4A49C787F0804040D
:1003F0007800447D40002040403D007F10284400AC
:1004000000417F40007C047804787C08040478383C
:1004100044444438FC1824241818242418FC7C086C
:10042000040408485454542404043F44243C4040E9
:10043000207C1C2040201C3C4030403C442810289C
:10044000444C9090907C4464544C440008364100E5
:100450000000770000004136080002010204023C5F
:100460002623263C1EA1A161123A4040207A38542E
:1004700054555921555579412254547842215554A7
:10048000784020545579400C1E52721239555555FA
:1004900059395454545939555454580000457C41E5
:1004A0000002457D420001457C407D1211127DF025
:1004B000282528F07C545545002054547C547C0A4F
:1004C000097F4932494949323A4444443A324A4818
:1004D00048303A4141217A3A42402078009DA0A01C
:1004E0007D3D4242423D3D4040403D3C24FF24246E
:1004F000487E4943662B2FFC2F2BFF0929F620C08D
:10050000887E090320545479410000447D413048DD
:10051000484A32384040227A007A0A0A727D0D1920
:10052000317D2629292F28262929292630484D4082
:1005300020380808080808080808382F10C8ACBA7E
:100540002F102834FA00007B000008142A142222FD
:10055000142A14085500550055AA55AA55AAFF5546
:10056000FF55FF000000FF00101010FF00141414CE
:10057000FF001010FF00FF1010F010F0141414FC16
:10058000001414F700FF0000FF00FF1414F404FC33
:10059000141417101F10101F101F1414141F001014
:1005A0001010F0000000001F101010101F1010108D
:1005B00010F010000000FF1010101010101010109C
:1005C000FF10000000FF140000FF00FF00001F10DC
:1005D000170000FC04F414141710171414F404F496
:1005E0000000FF00F714141414141414F700F71487
:1005F0001414171410101F101F141414F4141010D6
:10060000F010F000001F101F0000001F1400000079
:10061000FC140000F010F01010FF10FF141414FF71
:10062000141010101F00000000F010FFFFFFFFFF6C
:10063000F0F0F0F0F0FFFFFF0000000000FFFF0F00
:100640000F0F0F0F3844443844FC4A4A4A347E02A4
:10065000020606027E027E02635549416338444425
:100660003C04407E201E2006027E020299A5E7A5DA
:10067000991C2A492A1C4C7201724C304A4D4D304B
:100680003048784830BC625A463D3E494949007E70
:100690000101017E2A2A2A2A2A44445F4444405107
:1006A0004A444040444A51400000FF0103E080FFBB
:1006B000000008086B6B083612362436060F090F47
:1006C00006000018180000001010003040FF010163
:1006D000001F01011E00191D1712003C3C3C3C008C
:1006E00000000000000000080002010000030407F1
:1006F00000000000000000000102040810204080FB
:10070000010204081020010204081020040404045B
:1007100004040404020202020202030303030303AB
:1007200000000000250028002B000000000024002D
:1007300027002A00C603B83311241FBECFEFD8E02C
:10074000DEBFCDBF11E0A0E0B1E0E0E8FEE602C010
:1007500005900D92A836B107D9F722E0A8E6B1E0DE
:1007600001C01D92AC38B207E1F717E0C8E3D7E04B
:1007700004C02297FE010E94E936C433D107C9F7AD
:100780000E94FC330C943E370C940000EF92FF92D1
:100790000F938CE2E82EFF24F39409E020E141E17D
:1007A00068E08EED91E00E946E3092E1E92E0EE05D
:1007B0002FE040E161E182EB91E00E945F068CEA6C
:1007C00091E00E94EE2E8CE891E00E94D4278CE606
:1007D00091E00F91FF90EF900C94D4278F929F920D
:1007E000AF92BF92CF92DF92EF92FF920F931F933F
:1007F000CF93DF9326E040E855E260E070E08FEEB3
:1008000091E00E94F43282EB91E00E94120782EBA9
:1008100091E00E94D00BEC0161E08DE00E94A031DC
:10082000BE0182EB91E00E94FA186FEF7FEF82EB3E
:1008300091E00E942F13C2E0CF938BE091E09F9351
:100840008F9388248A94982C37EFA32E3DEBB32EF8
:10085000C12CD12C42E3E42E02E32EE130E04DE73F
:1008600050E062EB71E08CE891E00E94D82741E013
:1008700060E08CE891E00E94172882EB91E00E94F2
:10088000D0279C012E513109CF934FE051E05F9367
:100890004F934DE750E062EB71E08CE691E00E94EF
:1008A000D82741E060E08CE691E00E941728609133
:1008B0006A0170916B015FE1A52EB12CE8E0CE2EAC
:1008C000D12CF0E5EF2EF12C04E610E026E430E028
:1008D00042E050E082EB91E00E945A2E8FEF9FEFB2
:1008E0009093AD018093AC019093AF018093AE01E2
:1008F0009093B1018093B001109268011092690148
:100900000F900F900F900F900F900F90DF91CF915D
:100910001F910F91FF90EF90DF90CF90BF90AF901D
:100920009F908F900895AF92BF92CF92DF92EF92F7
:10093000FF920F931F93CF93DF9361E08DE00E94AE
:10094000D9318EED91E00E94F42E2093AC013093CA
:10095000AD014093AE015093AF016093B00170932D
:10096000B10160E08DE00E94D93161E080E10E9438
:10097000A03161E081E10E94A0318091B0019091AD
:10098000B101855691098338934008F066C081E033
:10099000809369011092680182EB91E00E94CC275C
:1009A000EC0182EB91E00E94CC275C01CC24B7FCE7
:1009B000C094DC2C6091AC017091AD01882777FD6B
:1009C0008095982F1F921F921F921F9218E9E12E77
:1009D00013E0F12E00E010E026E930E040E050E0C6
:1009E0000E944B34C61BD70BD093AD01C093AC0112
:1009F00082EB91E00E94D027EC0182EB91E00E9413
:100A0000D0275C01CC24B7FCC094DC2C6091AE01F3
:100A10007091AF01882777FD8095982F1F921F92C4
:100A20001F921F921CEAE12E13E0F12E00E010E06D
:100A300028E730E040E050E00E944B34C61BD70B63
:100A4000D093AF01C093AE018DB79EB708960FB695
:100A5000F8949EBF0FBE8DBF2FC08091690188237F
:100A600059F1809168018F5F80936801833324F18D
:100A70008FEF9FEF9093AD018093AC019093AF0106
:100A80008093AE019093B1018093B0011092680100
:100A90001092690180918C01882329F061E08CE833
:100AA00091E00E94FA2880916C01882329F061E08E
:100AB0008CE691E00E94FA2880916901882309F46C
:100AC000D8C080918C01811154C04091AE015091E9
:100AD000AF016091AC017091AD018CE891E00E9492
:100AE000D428882309F456C041E061E08CE891E005
:100AF0000E94172881E080938C0110928E01109241
:100B00008D0180916A0190916B0101968436910567
:100B100029F090936B0180936A0104C010926B01DD
:100B200010926A01EE24EA94FE2C08E710E028EC0B
:100B300030E04FE550E060E070E082EB91E00E9431
:100B4000A31260916A0170916B010FE1A02EB12C8C
:100B500088E0C82ED12C90E5E92EF12C04E610E0B7
:100B600026E430E042E050E082EB91E00E945A2E11
:100B700011C080918D0190918E01019690938E010C
:100B800080938D01853F91402CF061E08CE891E0ED
:100B90000E94FA2880916C01811150C04091AE01F1
:100BA0005091AF016091AC017091AD018CE691E084
:100BB0000E94D428882309F45CC041E061E08CE6FF
:100BC00091E00E94172881E080936C0110926E01E1
:100BD00010926D0180916A0190916B01019797FFCE
:100BE00002C083E690E090936B0180936A01EE244B
:100BF000EA94FE2C08E710E028EC30E04FE550E0E6
:100C000060E070E082EB91E00E94A31260916A01C3
:100C100070916B01BFE1AB2EB12CC8E0CC2ED12C72
:100C2000D0E5ED2EF12C04E610E026E430E042E0C1
:100C300050E082EB91E00E945A2E1BC080916D0122
:100C400090916E01019690936E0180936D01853FA6
:100C500091407CF061E08CE691E0DF91CF911F91B3
:100C60000F91FF90EF90DF90CF90BF90AF900C94DA
:100C7000FA28DF91CF911F910F91FF90EF90DF90B5
:100C8000CF90BF90AF900895FC018AB18C6F8AB964
:100C900084B1836084B9158A1586148617861686F2
:100CA00081E0848B8FEF9FEF918B808B80EF90E0C2
:100CB0009187808780E491E09387828708959F924F
:100CC000AF92BF92CF92DF92EF92FF920F931F935A
:100CD000CF93DF93EC01A62EF42EB22E902E40E49B
:100CE00051E060EF70E00E94E01E8CE291E0998399
:100CF0008883EBA66A2D70E0FB01E45FF84FE49176
:100D0000F0E0EE0FFF1FE05EF84FA591B491BC8FAD
:100D1000AB8F4F2D50E0FA01E45FF84FE491F0E023
:100D2000EE0FFF1FE05EF84F859194919E8F8D8F9F
:100D30002B2D30E0F901E45FF84FE491F0E0EE0F85
:100D4000FF1FE05EF84F8591949198A38F8F10E07C
:100D5000F801E45FF84FE491F0E0EE0FFF1FE05E72
:100D6000F84FC590D490DAA2C9A2FB01E850F94F20
:100D700064916BA3FA01E850F94F44914CA3F90137
:100D8000E850F94F24912DA3F801E850F94F049150
:100D90000EA39BA1892F80958FA38CA1809588A7F6
:100DA0008DA1809589A700950AA78C91892B8C939A
:100DB000ED8DFE8D80819CA1892B8083EF8DF8A124
:100DC00080819DA1892B8083E9A1FAA180819EA1C8
:100DD000892B808361E08A2D0E94A03161E08F2DF4
:100DE0000E94A03161E08B2D0E94A03161E0892D2D
:100DF0000E94A031EE2041F061E08E2D0E94D93199
:100E000061E08E2D0E94A031CE01DF91CF911F9124
:100E10000F91FF90EF90DF90CF90BF90AF909F9099
:100E20000C944406CF93DF93EC01EB8DFC8D808115
:100E30009BA1892B8083EF8DF8A180819DA1892BB7
:100E40008083E9A1FAA180819EA1892B80838BA553
:100E5000882369F060E00E94D93162E070E080E0B0
:100E600090E00E94ED3061E08BA50E94D931EB8DBE
:100E7000FC8D80819FA189238083ED8DFE8D8081F3
:100E800098A5892380838BB183708BB985B18C7FC2
:100E900085B9EF8DF8A1808199A589238083EF8D95
:100EA000F8A180819DA1892B808383E0EF8DF8A13B
:100EB000908129A592239083EF8DF8A190812DA197
:100EC000922B9083815091F7EB8DFC8D80819BA1BB
:100ED000892B808364EF71E080E090E0DF91CF9117
:100EE0000C94ED30FC01A38DB48D8C9197A18923D6
:100EF0008C9380859185A58DB68D2C9130A523236B
:100F00002C932BB1237024602BB925B12C7F25B9EC
:100F1000A78DB0A12C9131A523232C93A78DB0A12F
:100F20002C9135A1232B2C93A58DB68D2C9134A11A
:100F3000232B2C934BB19C0121503109932F9C7F83
:100F40004370942B9BB925B1932F93702C7F922BD8
:100F500095B9A78DB0A19C9121A592239C93A78DB3
:100F6000B0A19C9125A1922B9C93A58DB68D9C91AF
:100F700020A592239C939BB1937094609BB995B1EB
:100F80009C7F916095B9A78DB0A19C9121A59223DA
:100F90009C93A78DB0A19C9125A1922B9C93A58D8C
:100FA000B68D9C9124A1922B9C932BB18150982FAC
:100FB0009C7F2370922B9BB995B183709C7F892B6A
:100FC00085B9A78DB0A18C9191A589238C93A78D0C
:100FD000B0A18C9195A1892B8C9382859385A58D49
:100FE000B68D2C9130A523232C932BB12370286030
:100FF0002BB925B12C7F25B9A78DB0A12C9131A596
:1010000023232C93A78DB0A12C9135A1232B2C93B6
:10101000A58DB68D2C9134A1232B2C934BB19C0123
:1010200021503109932F9C7F4370942B9BB925B19C
:10103000932F93702C7F922B95B9A78DB0A19C9183
:1010400021A592239C93A78DB0A19C9125A1922BC1
:101050009C93A58DB68D9C9120A592239C939BB1CA
:10106000937098609BB995B19C7F916095B9A78D5D
:10107000B0A19C9121A592239C93A78DB0A19C9196
:1010800025A1922B9C93A58DB68D9C9124A1922B8A
:101090009C932BB18150982F9C7F2370922B9BB9EE
:1010A00095B183709C7F892B85B9A78DB0A18C9158
:1010B00091A589238C93A78DB0A18C9195A1892BA3
:1010C0008C93A38DB48D8C9193A1892B8C930895CF
:1010D000DF92EF92FF920F931F93CF93DF93FC0168
:1010E000CB01A38DB48D6C9177A167236C93A58DF3
:1010F000B68D6C9170A567236C93628D6230B9F0E8
:10110000611113C06BB163706BB965B16C7F65B968
:10111000A78DB0A16C9171A567236C93A78DB0A129
:101120006C9175A1672B6C9309C0633039F46BB176
:1011300063706C626BB965B16C7F07C06BB1637033
:1011400060626BB965B16C7F626065B9A78DB0A153
:101150006C9171A567236C93A78DB0A16C9175A15B
:10116000672B6C93A58DB68D6C9174A1672B6C93D6
:101170006BB1C92FCC7F63706C2B6BB965B1D92F64
:10118000D3706C7F6D2B65B9A78DB0A16C9171A5E3
:1011900067236C93A78DB0A16C9175A1672B6C939D
:1011A0006BB1782F7C7FF72E6370672B6BB965B1BD
:1011B000782F7370E72E6C7F672B65B9A78DB0A170
:1011C0006C9171A567236C93A78DB0A16C9175A1EB
:1011D000672B6C93BA01A90141505109610971094A
:1011E0008A019B0156E036952795179507955A95E4
:1011F000D1F7981719F080E090E03AC180E090E0D4
:101200000817190709F466C020E1A78DB0A13C9129
:10121000C1A53C233C93A78DB0A13C91C5A13C2B1B
:101220003C93A78DB0A13C91C1A53C233C93A78DD5
:10123000B0A13C91C5A13C2B3C93A78DB0A13C91A2
:10124000C1A53C233C93A78DB0A13C91C5A13C2BEB
:101250003C93A78DB0A13C91C1A53C233C93A78DA5
:10126000B0A13C91C5A13C2B3C93A78DB0A13C9172
:10127000C1A53C233C93A78DB0A13C91C5A13C2BBB
:101280003C93A78DB0A13C91C1A53C233C93A78D75
:10129000B0A13C91C5A13C2B3C93A78DB0A13C9142
:1012A000C1A53C233C93A78DB0A13C91C5A13C2B8B
:1012B0003C93A78DB0A13C91C1A53C233C93A78D45
:1012C000B0A13C91C5A13C2B3C93215009F09DCF8E
:1012D000019696CF4F734150C8F0A78DB0A18C9165
:1012E00091A589238C93A78DB0A18C9195A1892B71
:1012F0008C93A78DB0A18C9191A589238C93A78DF8
:10130000B0A18C9195A1892B8C93E5CFA38DB48D41
:101310008C9193A1892B8C93DF91CF911F910F9189
:10132000FF90EF90DF9008953BB133703C2B3BB9B9
:1013300035B13C7F3D2B35B9A78DB0A13C91D1A4EF
:101340003D213C93A78DB0A13C91D5A03D293C9374
:101350003BB133703F293BB935B13C7F3E2935B9AC
:10136000A78DB0A13C91D1A43D213C93A78DB0A104
:101370003C91D5A03D293C933BB133703C2B3BB90C
:1013800035B13C7F3D2B35B9A78DB0A13C91D1A49F
:101390003D213C93A78DB0A13C91D5A03D293C9324
:1013A0003BB133703F293BB935B13C7F3E2935B95C
:1013B000A78DB0A13C91D1A43D213C93A78DB0A1B4
:1013C0003C91D5A03D293C933BB133703C2B3BB9BC
:1013D00035B13C7F3D2B35B9A78DB0A13C91D1A44F
:1013E0003D213C93A78DB0A13C91D5A03D293C93D4
:1013F0003BB133703F293BB935B13C7F3E2935B90C
:10140000A78DB0A13C91D1A43D213C93A78DB0A163
:101410003C91D5A03D293C933BB133703C2B3BB96B
:1014200035B13C7F3D2B35B9A78DB0A13C91D1A4FE
:101430003D213C93A78DB0A13C91D5A03D293C9383
:101440003BB133703F293BB935B13C7F3E2935B9BB
:10145000A78DB0A13C91D1A43D213C93A78DB0A113
:101460003C91D5A03D293C93215009F05DCF0196D8
:101470000817190711F020E157CF4F73415008F4B6
:1014800045CF8BB183708C2B8BB985B18C7F8D2B25
:1014900085B9A78DB0A18C9191A589238C93A78D37
:1014A000B0A18C9195A1892B8C938BB183708F29DE
:1014B0008BB985B18C7F8E2985B9A78DB0A18C9110
:1014C00091A589238C93A78DB0A18C9195A1892B8F
:1014D0008C93D4CFFC01A1A1B2A18C9192A58923B8
:1014E0008C9300C000C000C0000089B193B1A1A1DD
:1014F000B2A12C9136A1232B2C9393708C7F892B36
:101500000895CF92DF92EF92FF92CF93DF93EC0199
:10151000EB8DFC8D80819FA189238083ED8DFE8DD5
:10152000808198A5892380839BB1862F8C7F9370BF
:10153000892B8BB985B163708C7F682B65B9EF8D72
:10154000F8A1808199A589238083EF8DF8A18081FE
:101550009DA1892B80838AB183708AB984B18C7FE5
:1015600084B9ED8DFE8D80819CA1892B808382E3DF
:1015700090E00E941531CE010E946A0AC82ED12C3B
:10158000E12CF12CFE2CED2CDC2CCC24CE010E9485
:101590006A0AC82AFE2CED2CDC2CCC24CE010E9439
:1015A0006A0AC82AFE2CED2CDC2CCC24CE010E9429
:1015B0006A0AEB8DFC8D90812BA1922B90839AB1BE
:1015C0009C6F9AB994B1936094B9A7019601282BA6
:1015D000CA01B901DF91CF91FF90EF90DF90CF90DA
:1015E00008950F931F93CF93DF9300D000D0CDB712
:1015F000DEB78C01DC015B96ED91FC915C978081FC
:1016000097969C919797892380835D96ED91FC91A5
:101610005E97808198969C919897892380839BB14F
:10162000862F8C7F9370892B8BB985B163708C7FEB
:10163000682B65B95F96ED91FC91909780819996A2
:101640009C919997892380835F96ED91FC91909767
:10165000808195969C919597892B80835D96ED91DD
:10166000FC915E97808194969C91892B80838AE07F
:1016700090E029833A834B835C830E9415317BB1D0
:1016800029813A814B815C81CA01AA27BB27682F37
:101690006C7F7370672B6BB965B183706C7F862B21
:1016A00085B9D8015F96ED91FC91909780819996CC
:1016B0009C919997892380835F96ED91FC919097F7
:1016C000808195969C91892B80838AE090E0298384
:1016D0003A834B835C830E941531FBB129813A81A7
:1016E0004B815C81BB27A52F942F832FE82FEC7FA4
:1016F000F370EF2BEBB9E5B1682F6370EC7F6E2BC5
:1017000065B9D8015F96ED91FC919097808199968B
:101710009C919997892380835F96ED91FC91909796
:10172000808195969C91892B80838AE090E0298323
:101730003A834B835C830E9415319BB12981822FB0
:101740008C7F9370892B8BB985B123708C7F282B6C
:1017500025B9D8015F96ED91FC919097808199967B
:101760009C919997892380835F96ED91FC91909746
:10177000808195969C919597892B80835B96ED91BE
:10178000FC915C97808193969C91892B80830F902C
:101790000F900F900F90DF91CF911F910F910895AF
:1017A0001F93CF93DF93EC0164E00E94810A6115DF
:1017B00070488105910509F457C063EDCE010E9480
:1017C000810A6134734909F46AC0EB8DFC8D808114
:1017D0009FA189238083ED8DFE8D808198A589232B
:1017E00080838BB183708BB985B18C7F85B9EF8D88
:1017F000F8A1808199A589238083EF8DF8A180814C
:101800009DA1892B8083EF8DF8A1808199A58923E3
:101810008083EF8DF8A180819DA1892B80838AB17F
:1018200083708AB984B18C7F84B9ED8DFE8D8081FF
:101830009CA1892B8083CE010E946A0A182FCE01B9
:101840000E946A0A9AB19C6F9AB994B1936094B954
:10185000EB8DFC8D90812BA1922B9083212F30E07A
:10186000322F2227282B1DC027E533E84FEF50E009
:1018700069EBCE010E94F10A6CE271E080E090E039
:101880000E94ED3060EDCE010E94810A6115710564
:101890008949910509F091CF27E533E802C021E499
:1018A00033E9C901DF91CF911F9108950F931F93E1
:1018B000CF93DF9300D000D0CDB7DEB78C01DC0131
:1018C0005B96ED91FC915C97808197969C919797A0
:1018D000892380835D96ED91FC915E978081989637
:1018E0009C919897892380839BB1862F8C7F9370DE
:1018F000892B8BB985B163708C7F682B65B95F9636
:10190000ED91FC919097808199969C91999789236C
:1019100080835F96ED91FC919097808195969C9144
:101920009597892B80835D96ED91FC915E978081E0
:1019300094969C91892B80838AE090E029833A8356
:101940004B835C830E9415317BB129813A814B81A5
:101950005C81852F9927AA27BB27682F6C7F73701E
:10196000672B6BB965B183706C7F862B85B9D80105
:101970005F96ED91FC919097808199969C919997B3
:10198000892380835F96ED91FC9190978081959655
:101990009C91892B80838AE090E029833A834B8352
:1019A0005C830E9415317BB129813A814B815C8136
:1019B000CA01AA27BB27682F6C7F7370672B6BB98E
:1019C00065B183706C7F862B85B9D8015F96ED91E8
:1019D000FC919097808199969C9199978923808317
:1019E0005F96ED91FC919097808195969C91892BC3
:1019F00080838AE090E029833A834B835C830E9452
:101A00001531FBB129813A814B815C81BB27A52F20
:101A1000942F832FE82FEC7FF370EF2BEBB9E5B118
:101A2000682F6370EC7F6E2B65B9D8015F96ED91DE
:101A3000FC919097808199969C91999789238083B6
:101A40005F96ED91FC919097808195969C91892B62
:101A500080838AE090E029833A834B835C830E94F1
:101A600015319BB12981822F8C7F9370892B8BB983
:101A700085B123708C7F282B25B9D8015F96ED9115
:101A8000FC919097808199969C9199978923808366
:101A90005F96ED91FC919097808195969C9195979A
:101AA000892B80835B96ED91FC915C978081939666
:101AB0009C91892B80830F900F900F900F90DF9156
:101AC000CF911F910F910895EF92FF920F931F9363
:101AD000CF93DF93EC017A01C901EB8DFC8D20815E
:101AE0003FA1232320832A8D21116DC22D8922300D
:101AF00081F0233019F1213079F52FEE30E0F90132
:101B0000E01BF10B241B350BAB01D9018C01C90182
:101B100012C02FEE30E0F901E81BF90BC901861B5A
:101B2000970B2FE331E0B901601B710B8901041B96
:101B3000150BA801DC017B01BF010FC02FE331E0D1
:101B4000F901E81BF90B261B370BA901D701C801C6
:101B50008901B7017F0101C0DB01ED8DFE8D208180
:101B600038A5232320832BB123702BB925B12C7FDB
:101B700025B9EF8DF8A1208139A523232083EF8D8E
:101B8000F8A120813DA1232B20832BB12370206558
:101B90002BB925B12C7F25B9EF8DF8A1208139A56E
:101BA00023232083EF8DF8A120813DA1232B2083C7
:101BB000ED8DFE8D20813CA1232B20833BB1272F6F
:101BC0002C7F3370232B2BB935B1272F23703C7F0B
:101BD000232B25B9EF8DF8A1208139A5232320835C
:101BE000EF8DF8A120813DA1232B20833BB1262F2F
:101BF0002C7F3370232B2BB925B163702C7F622B84
:101C000065B9EF8DF8A1208139A523232083EF8DBD
:101C1000F8A120813DA1232B2083ED8DFE8D208115
:101C200038A5232320832BB123702BB925B12C7F1A
:101C300025B9EF8DF8A1208139A523232083EF8DCD
:101C4000F8A120813DA1232B20832BB12370206597
:101C50002BB925B12C7F216025B9EF8DF8A120810A
:101C600039A523232083EF8DF8A120813DA1232BCB
:101C70002083ED8DFE8D20813CA1232B20833BB161
:101C8000292F2C7F3370232B2BB925B193702C7FF8
:101C9000922B95B9EF8DF8A1908129A5922390837D
:101CA000EF8DF8A190812DA1922B90832BB1982FCD
:101CB0009C7F2370922B9BB995B183709C7F892B5D
:101CC00085B9EF8DF8A1808199A589238083EF8D57
:101CD000F8A180819DA1892B8083ED8DFE8D80816F
:101CE00098A5892380838BB183708BB985B18C7F54
:101CF00085B9EF8DF8A1808199A589238083EF8D27
:101D0000F8A180819DA1892B80838BB18370806530
:101D10008BB985B18C7F826085B9EF8DF8A1808108
:101D200099A589238083EF8DF8A180819DA1892BBE
:101D30008083ED8DFE8D80819CA1892B80839BB15A
:101D40008F2D8C7F9370892B8BB995B18F2D8370DC
:101D50009C7F892B85B9EF8DF8A1808199A5892376
:101D60008083EF8DF8A180819DA1892B80839BB119
:101D70008E2D8C7F9370892B8BB985B12E2D23707E
:101D80008C7F282B25B9EF8DF8A1808199A5892317
:101D90008083EF8DF8A180819DA1892B8083ED8DBB
:101DA000FE8D808198A5892380838BB183708BB948
:101DB00085B18C7F85B9EF8DF8A1808199A58923A4
:101DC0008083EF8DF8A180819DA1892B80838BB1C9
:101DD000837080658BB985B1836085B9EF8DF8A17B
:101DE000808199A589238083EF8DF8A180819DA1B1
:101DF000892B8083ED8DFE8D80819CA1892B808332
:101E00009BB1812F8C7F9370892B8BB995B1812FDA
:101E100083709C7F892B85B9EF8DF8A1808199A56E
:101E200089238083EF8DF8A180819DA1892B8083F8
:101E30009BB1802F8C7F9370892B8BB985B10370F8
:101E40008C7F082B05B9EF8DF8A1808199A5892396
:101E50008083EF8DF8A180819DA1892B8083ED8DFA
:101E6000FE8D808198A5892380838BB183708BB987
:101E700085B18C7F85B9EF8DF8A1808199A58923E3
:101E80008083EF8DF8A180819DA1892B80838BB108
:101E9000837080628BB985B18C7F85B9EF8DF8A195
:101EA000808199A589238083EF8DF8A180819DA1F0
:101EB000892B8083ED8DFE8D80819CA1892B808371
:101EC0009BB18B2F8C7F9370892B8BB985B1B370AD
:101ED0008C7FB82BB5B9EF8DF8A1808199A58923A6
:101EE0008083EF8DF8A180819DA1892B80839BB198
:101EF0008A2F8C7F9370892B8BB985B1A3708C7FCF
:101F0000A82BA5B9EF8DF8A1808199A5892380839D
:101F1000EF8DF8A180819DA1892B8083ED8DFE8DB1
:101F2000808198A5892380838BB183708BB985B11B
:101F30008C7F85B9EF8DF8A1808199A58923808355
:101F4000EF8DF8A180819DA1892B80838BB1837057
:101F500080628BB985B18C7F816085B9EF8DF8A1E6
:101F6000808199A589238083EF8DF8A180819DA12F
:101F7000892B8083ED8DFE8D80819CA1892B8083B0
:101F80009BB1852F8C7F9370892B8BB985B1537052
:101F90008C7F582B55B9EF8DF8A1808199A58923A5
:101FA0008083EF8DF8A180819DA1892B80839BB1D7
:101FB000842F8C7F9370892B8BB985B143708C7F74
:101FC000482B45B9ADC1213009F0B7C1ED8DFE8D6B
:101FD000208138A5232320832BB123702BB925B171
:101FE0002C7F226025B9EF8DF8A1208139A523230C
:101FF0002083EF8DF8A120813DA1232B2083ED8D3F
:10200000FE8D20813CA1232B20833BB1272F2C7FE9
:102010003370232B2BB935B1272F23703C7F232B13
:1020200025B9EF8DF8A1208139A523232083EF8DD9
:10203000F8A120813DA1232B2083ED8DFE8D2081F1
:1020400038A5232320832BB123702BB925B123601E
:1020500025B9EF8DF8A1208139A523232083EF8DA9
:10206000F8A120813DA1232B2083ED8DFE8D2081C1
:102070003CA1232B20833BB1262F2C7F3370232BB5
:102080002BB925B163702C7F622B65B9EF8DF8A158
:10209000208139A523232083EF8DF8A120813DA144
:1020A000232B2083ED8DFE8D208138A523232083D3
:1020B0002BB1237024602BB925B12C7F226025B968
:1020C000EF8DF8A1208139A523232083EF8DF8A17E
:1020D00020813DA1232B2083ED8DFE8D20813CA10D
:1020E000232B20833BB12F2D2C7F3370232B2BB937
:1020F00035B12F2D23703C7F232B25B9EF8DF8A10F
:10210000208139A523232083EF8DF8A120813DA1D3
:10211000232B2083ED8DFE8D208138A52323208362
:102120002BB1237024602BB925B1236025B9EF8D25
:10213000F8A1208139A523232083EF8DF8A12081E8
:102140003DA1232B2083ED8DFE8D20813CA1232BEF
:1021500020833BB1242F2C7F3370232B2BB935B137
:10216000242F23703C7F232B25B9EF8DF8A12081EC
:1021700039A523232083EF8DF8A120813DA1232BB6
:102180002083ED8DFE8D208138A5232320832BB164
:10219000237024602BB925B12C7F25B9EF8DF8A1D0
:1021A000208139A523232083EF8DF8A120813DA133
:1021B000232B2083ED8DFE8D20813CA1232B2083BA
:1021C0003BB1292F2C7F3370232B2BB925B1937072
:1021D0002C7F922B95B9EF8DF8A1908129A59223A0
:1021E0009083EF8DF8A190812DA1922B9083ED8D9E
:1021F000FE8D908128A5922390839BB1937094606B
:102200009BB995B19C7F916095B9EF8DF8A19081B4
:1022100029A592239083EF8DF8A190812DA1922B77
:102220009083ED8DFE8D90812CA1922B90832BB10C
:10223000982F9C7F2370922B9BB995B183709C7FC4
:10224000892B85B9EF8DF8A1808199A58923808399
:10225000EF8DF8A180819DA1892B8083ED8DFE8D6E
:10226000808198A5892380838BB1837088608BB926
:1022700085B18C7F85B9EF8DF8A1808199A58923DF
:102280008083EF8DF8A180819DA1892B8083ED8DC6
:10229000FE8D80819CA1892B80839BB1812F8C7FB7
:1022A0009370892B8BB995B1812F83709C7F892B7B
:1022B00085B9EF8DF8A1808199A589238083EF8D61
:1022C000F8A180819DA1892B8083ED8DFE8D808179
:1022D00098A5892380838BB1837088608BB985B181
:1022E0008C7F816085B9EF8DF8A1808199A58923C4
:1022F0008083EF8DF8A180819DA1892B8083ED8D56
:10230000FE8D80819CA1892B80839BB1802F8C7F47
:102310009370892B8BB985B103708C7F082B05B91D
:10232000EF8DF8A1808199A589238083EF8DF8A195
:1023300080819DA1892B80832BC02250223040F5C3
:10234000AB01662757FD6095762F33272227AA27F2
:1023500097FDA095BA2F282B392B4A2B5B2B6AE2CD
:10236000CE010E94560CC701AA2797FDA095BA2F4F
:10237000AC0133272227C801AA2797FDA095BA2FC1
:10238000282B392B4A2B5B2B6BE2CE010E94560C7B
:10239000EB8DFC8D80819BA1892B8083DF91CF9178
:1023A0001F910F91FF90EF900895CF92DF92EF92DF
:1023B000FF920F931F93CF93DF93EC016901780194
:1023C000121613060CF04FC057FD4DC08A859B8531
:1023D000481759070CF047C0888599856817790711
:1023E0000CF041C0FB01E20FF31F9F0121503109A6
:1023F00037FD39C077FF03C06F0160E070E0281738
:10240000390734F09C01215031096C01C61AD70AF2
:102410008A01CE010E94640D9601442737FD409544
:10242000542FB701CE010E9468088A8D811110C017
:102430000A851B85015011092885398521503109EC
:1024400040E050E060E070E0CE010E94640D0BC0FF
:10245000CE01DF91CF911F910F91FF90EF90DF9010
:10246000CF900C947207DF91CF911F910F91FF9045
:10247000EF90DF90CF900895CF92DF92EF92FF928E
:102480000F931F93CF93DF93EC016901780112162C
:1024900013060CF04FC077FD4DC0888599856817ED
:1024A00079070CF047C08A859B85481759070CF0BF
:1024B00041C09A012C0D3D1D89010150110917FDE4
:1024C00039C057FF03C0690140E050E00817190701
:1024D00034F08C01015011096C01C41AD50A9B011A
:1024E000CE010E94640D9601442737FD4095542F7C
:1024F000B701CE010E9468088A8D811110C00A853B
:102500001B8501501109288539852150310940E08A
:1025100050E060E070E0CE010E94640D0BC0CE017F
:10252000DF91CF911F910F91FF90EF90DF90CF90AF
:102530000C947207DF91CF911F910F91FF90EF9054
:10254000DF90CF9008958F929F92AF92BF92CF92DB
:10255000DF92EF92FF920F931F93CF93DF93EC01E3
:10256000590168014701121613060CF06BC01016D2
:1025700011060CF067C088859985681779070CF0FB
:1025800061C0EA84FB844E155F050CF05BC0FB0163
:10259000E20FF31F9F012150310937FD53C0DA01CB
:1025A000A00FB11F8D010150110917FD4BC077FF1E
:1025B00003C05F0160E070E057FF03C06D0140E0C1
:1025C00050E02817390734F09C01215031095C0193
:1025D000A61AB70A0E151F0534F08701015011091C
:1025E0006701C41AD50ACE010E94640D9601D50177
:1025F0000E94ED369B01AC01B401CE010E94680837
:102600008A8D811110C00A851B850150110928850A
:1026100039852150310940E050E060E070E0CE01A2
:102620000E94640D0FC0CE01DF91CF911F910F91D9
:10263000FF90EF90DF90CF90BF90AF909F908F90E2
:102640000C947207DF91CF911F910F91FF90EF9043
:10265000DF90CF90BF90AF909F908F900895EF92B2
:10266000FF920F931F93CF93DF93EC017B018A8D31
:102670008111D2C0ED89E150E33060F4F0E0DF0178
:10268000AB5DBE4F8C91EE0FFF1FE15EFE4F2081D0
:10269000318104C020E030E080E090E0EB8DFC8DE3
:1026A00090814FA194239083ED8DFE8D908148A55C
:1026B000942390839BB193709BB995B19C7F95B9FE
:1026C000EF8DF8A1908149A594239083EF8DF8A117
:1026D00090814DA1942B90839BB1937090629BB994
:1026E00095B19C7F95B9EF8DF8A1908149A5942370
:1026F0009083EF8DF8A190814DA1942B9083ED8D67
:10270000FE8D90814CA1942B90839BB193709BB9CB
:1027100095B19C7F95B9EF8DF8A1908149A594233F
:102720009083EF8DF8A190814DA1942B90834BB1B4
:10273000982F9C7F4370942B9BB995B183709C7F9D
:10274000892B85B9EF8DF8A1808199A58923808394
:10275000EF8DF8A180819DA1892B8083ED8DFE8D69
:10276000808198A5892380838BB183708BB985B1D3
:102770008C7F85B9EF8DF8A1808199A5892380830D
:10278000EF8DF8A180819DA1892B80838BB183700F
:1027900080628BB985B18C7F816085B9EF8DF8A19E
:1027A000808199A589238083EF8DF8A180819DA1E7
:1027B000892B8083ED8DFE8D80819CA1892B808368
:1027C0008BB183708BB985B133708C7F382B35B961
:1027D000EF8DF8A1808199A589238083EF8DF8A1E1
:1027E00080819DA1892B80839BB1822F8C7F9370E8
:1027F000892B8BB985B123708C7F282B25B9EF8D60
:10280000F8A1808199A589238083EF8DF8A180812B
:102810009DA1892B808312C08150833078F40A8572
:102820001B8501501109288539852150310940E067
:1028300050E060E070E0CE010E94640D20E03CE2D8
:1028400041E050E0B701CE01DF91CF911F910F9190
:10285000FF90EF900C946808EF92FF920F931F93F4
:10286000CF93DF93EC01F22EE32E77FDA5C257FD47
:10287000A3C288859985681779070CF09DC28A855F
:102880009B85481759070CF097C2EB8DFC8D808112
:102890009FA1892380838A8D8111FAC08D8982301E
:1028A00059F08330B1F08130D1F48FEE90E0841B89
:1028B000950BAB01BC0113C08FEE90E09C01261B71
:1028C000370BB9018FE391E09C01241B350BA90163
:1028D00006C08FE391E0861B970BBA01AC01ED8D2A
:1028E000FE8D808198A5892380838BB183708BB9FD
:1028F00085B18C7F85B9EF8DF8A1808199A5892359
:102900008083EF8DF8A180819DA1892B80838BB17D
:10291000837080628BB985B18C7F85B9EF8DF8A10A
:10292000808199A589238083EF8DF8A180819DA165
:10293000892B8083ED8DFE8D80819CA1892B8083E6
:102940009BB1872F8C7F9370892B8BB995B1872F83
:1029500083709C7F892B85B9EF8DF8A1808199A523
:1029600089238083EF8DF8A180819DA1892B8083AD
:102970009BB1862F8C7F9370892B8BB985B1637047
:102980008C7F682B65B9EF8DF8A1808199A589238B
:102990008083EF8DF8A180819DA1892B8083ED8DAF
:1029A000FE8D808198A5892380838BB183708BB93C
:1029B00085B18C7F85B9EF8DF8A1808199A5892398
:1029C0008083EF8DF8A180819DA1892B80838BB1BD
:1029D000837080628BB985B18C7F816085B9EF8D02
:1029E000F8A1808199A589238083EF8DF8A180814A
:1029F0009DA1892B8083ED8DFE8D80819CA1892BEB
:102A000080839BB1852F8C7F9370892B8BB995B177
:102A1000852F83709C7F892B85B9EF8DF8A18081EC
:102A200099A589238083EF8DF8A180819DA1892BB1
:102A300080839BB1842F8C7F9370892B8BB985B158
:102A400043708C7F482B45B9EF8DF8A1808199A503
:102A500089238083EF8DF8A180819DA1892B8083BC
:102A6000ED8DFE8D808198A5892380838BB1837045
:102A70008BB985B18C7F85B9EF8DF8A1808199A53F
:102A800089238083EF8DF8A180819DA1892B21C1AD
:102A9000813009F027C1ED89E150E33028F4F0E0FE
:102AA000E45EFE4F208101C020E0ED8DFE8D90811F
:102AB00088A5982390838BB1837084618BB985B18D
:102AC0008C7F826085B9EF8DF8A1908189A59823CC
:102AD0009083EF8DF8A190818DA1982B9083ED8D3F
:102AE000FE8D90818CA1982B90839BB1822F8C7F3F
:102AF0009370892B8BB985B18C7F85B9EF8DF8A147
:102B0000808199A589238083EF8DF8A180819DA183
:102B1000892B8083ED8DFE8D808198A5892380830C
:102B20008BB183708BB985B18C7F826085B9EF8D55
:102B3000F8A1808199A589238083EF8DF8A18081F8
:102B40009DA1892B8083ED8DFE8D80819CA1892B99
:102B500080839BB1872F8C7F9370892B8BB995B124
:102B6000872F83709C7F892B85B9EF8DF8A1808199
:102B700099A589238083EF8DF8A180819DA1892B60
:102B80008083ED8DFE8D808198A5892380838BB114
:102B900083708BB985B1836085B9EF8DF8A1808191
:102BA00099A589238083EF8DF8A180819DA1892B30
:102BB0008083ED8DFE8D80819CA1892B80839BB1CC
:102BC000862F8C7F9370892B8BB985B163708C7F36
:102BD000682B65B9EF8DF8A1808199A58923808341
:102BE000EF8DF8A180819DA1892B8083ED8DFE8DD5
:102BF000808198A5892380838BB1837084608BB991
:102C000085B18C7F826085B9EF8DF8A1808199A50F
:102C100089238083EF8DF8A180819DA1892B8083FA
:102C2000ED8DFE8D80819CA1892B80839BB1852FAA
:102C30008C7F9370892B8BB995B1852F83709C7F86
:102C4000892B85B9EF8DF8A1808199A5892380838F
:102C5000EF8DF8A180819DA1892B8083ED8DFE8D64
:102C6000808198A5892380838BB1837084608BB920
:102C700085B1836085B9EF8DF8A1808199A58923FD
:102C80008083EF8DF8A180819DA1892B8083ED8DBC
:102C9000FE8D80819CA1892B80839BB1842F8C7FAA
:102CA0009370892B8BB985B143708C7F482B45B9C4
:102CB000EF8DF8A1808199A589238083EF8DF8A1FC
:102CC00080819DA1892B8083ED8DFE8D808198A5CB
:102CD000892380838BB1837080628BB985B18C7FAF
:102CE000826021C08250823008F060C00A851B8556
:102CF000015011092885398521503109CE010E94E2
:102D0000640DEB8DFC8D80819FA189238083ED8DE7
:102D1000FE8D808198A5892380838BB183708C621E
:102D20008BB985B18C7F85B9EF8DF8A1808199A58C
:102D300089238083EF8DF8A180819DA1892B8083D9
:102D4000ED8DFE8D80819CA1892B80839BB18E2D82
:102D50008C7F9370892B8BB995B18E2D83709C7F5E
:102D6000892B85B9EF8DF8A1808199A5892380836E
:102D7000EF8DF8A180819DA1892B80839BB18F2D40
:102D80008C7F9370892B8BB995B18F2D83709C7F2D
:102D9000892B85B9EF8DF8A1808199A5892380833E
:102DA000EF8DF8A180819DA1892B8083EB8DFC8D17
:102DB00080819BA1892B8083DF91CF911F910F91FF
:102DC000FF90EF900895CF92DF92FF920F931F93A1
:102DD000CF93DF931F92CDB7DEB76C010E94B72768
:102DE000D6015B96ED91FC915C97808197969C91C2
:102DF0009797892380835A968C915A978111A1C005
:102E00005596EC91E150E33038F4F0E0EE0FFF1FFF
:102E1000EA5EFE4F208101C020E3D6015D96ED9170
:102E2000FC915E97808198969C91989789238083E6
:102E30008BB183708BB985B18C7F85B95F96ED912D
:102E4000FC919097808199969C9199978923808392
:102E50005F96ED91FC919097808195969C919597C6
:102E6000892B80838BB183708BB995B1936095B9B1
:102E70005F96ED91FC919097908199968C9199979E
:102E8000982390835F96ED91FC9190979081959611
:102E90008C919597982B90835D96ED91FC915E9720
:102EA000908194968C919497982B90838BB183709A
:102EB00080618BB995B19C7F95B95F96ED91FC913E
:102EC0009097908199968C919997982390835F968B
:102ED000ED91FC919097908195968C919597982B78
:102EE00090839BB1822F8C7F9370892B8BB985B196
:102EF0008C7F85B95F96ED91FC9190978081999632
:102F00009C919997892380835F96ED91FC9190978E
:102F1000808195969C919597892B80831A960D9127
:102F20001C911B970150110918962D913C911997EE
:102F30002150310940E050E060E070E0C6010E949D
:102F4000640DF601828D813009F05AC0E589E150A7
:102F5000E33028F4F0E0ED5EFE4F208101C020E078
:102F6000D6015D96ED91FC915E97908198968C913B
:102F70009897982390838BB1837084618BB985B1C6
:102F80008C7F826085B95F96ED91FC9190979081DE
:102F900099968C919997982390835F96ED91FC91E7
:102FA0009097908195968C919597982B90835D96AC
:102FB000ED91FC915E97908194968C919497982BCB
:102FC00090839BB1822F8C7F9370892B8BB985B1B5
:102FD0008C7F85B95F96ED91FC9190978081999651
:102FE0009C919997892380835F96ED91FC919097AE
:102FF000808195969C91892B8083C6010E947207DF
:10300000F601828D823009F074C08589813059F0D3
:1030100038F0823059F0833059F4F8E2F98308C06F
:1030200088E8898305C0A8EEA98302C0B8E4B98303
:10303000D6015D96ED91FC915E97808198969C916A
:103040009897892380838BB1837084638BB985B112
:103050008C7F826085B95F96ED91FC91909780811D
:1030600099969C919997892380835F96ED91FC9125
:103070009097808195969C919597892B80835D96FA
:10308000ED91FC915E97808194969C919497892B09
:1030900080839BB189818C7F9370892B8BB985B19B
:1030A0008C7F85B95F96ED91FC9190978081999680
:1030B0009C919997892380835F96ED91FC919097DD
:1030C000808195969C919597892B80831A960D9176
:1030D0001C911B970150110918962D913C9119973D
:1030E0002150310940E050E060E070E0C6010E94EC
:1030F000640DF601828D833009F073C085898130BB
:1031000059F038F0823059F0833051F460E6F62EF1
:1031100007C050ECF52E04C040EAF42E01C0F12C9B
:10312000D6015D96ED91FC915E97808198969C9179
:103130009897892380838BB1837084638BB985B121
:103140008C7F826085B95F96ED91FC91909780812C
:1031500099969C919997892380835F96ED91FC9134
:103160009097808195969C919597892B80835D9609
:10317000ED91FC915E97808194969C919497892B18
:1031800080839BB18F2D8C7F9370892B8BB985B1F8
:103190008C7F85B95F96ED91FC919097808199968F
:1031A0009C919997892380835F96ED91FC919097EC
:1031B000808195969C919597892B80831A960D9185
:1031C0001C911B970150110918962D913C9119974C
:1031D0002150310940E050E060E070E0C6010E94FB
:1031E000640D0F90DF91CF911F910F91FF90DF90B1
:1031F000CF9008950F931F93CF93DF93EC018B0132
:103200000E94120768EC70E080E090E00E94ED30D0
:10321000053283E9180729F00832E3E91E0709F0AF
:103220008DC01A8EEB8DFC8D80819FA189238083B8
:103230000CE710E0F80185919491F80132966591C0
:1032400074918F3F910529F480E090E00E94ED3069
:1032500069C0ED8DFE8D208138A5232320833BB1ED
:10326000292F2C7F3370232B2BB925B193702C7F02
:10327000922B95B9EF8DF8A1908129A59223908387
:10328000EF8DF8A190812DA1922B90832BB1982FD7
:103290009C7F2370922B9BB995B183709C7F892B67
:1032A00085B9EF8DF8A1808199A589238083EF8D61
:1032B000F8A180819DA1892B8083ED8DFE8D808179
:1032C0009CA1892B80839BB1872F8C7F9370892B46
:1032D0008BB995B1872F83709C7F892B85B9EF8D32
:1032E000F8A1808199A589238083EF8DF8A1808141
:1032F0009DA1892B80839BB1862F8C7F9370892B16
:103300008BB985B163708C7F682B65B9EF8DF8A19F
:10331000808199A589238083EF8DF8A180819DA16B
:10332000892B80830C5F1F4FF1E008341F0709F0E1
:1033300081CF6D89CE010E94E316C4C2013483E9B6
:10334000180709F0CBC282E08A8FEB8DFC8D80815B
:103350009FA189238083ED8DFE8D808198A589238F
:1033600080838BB183708BB985B18C7F816085B987
:10337000EF8DF8A1808199A589238083EF8DF8A135
:1033800080819DA1892B8083ED8DFE8D80819CA104
:10339000892B80838BB183708BB985B18C7F85B984
:1033A000EF8DF8A1808199A589238083EF8DF8A105
:1033B00080819DA1892B808362E370E080E090E0B2
:1033C0000E94ED30ED8DFE8D808198A5892380834C
:1033D0008BB1837088628BB985B18C7F85B9EF8D95
:1033E000F8A1808199A589238083EF8DF8A1808140
:1033F0009DA1892B8083ED8DFE8D80819CA1892BE1
:1034000080838BB183708BB985B18C7F85B9EF8D4B
:10341000F8A1808199A589238083EF8DF8A180810F
:103420009DA1892B8083ED8DFE8D808198A58923B8
:1034300080838BB18370806C8BB985B18C7F85B9AB
:10344000EF8DF8A1808199A589238083EF8DF8A164
:1034500080819DA1892B8083ED8DFE8D80819CA133
:10346000892B80838BB1837080628BB985B1836037
:1034700085B9EF8DF8A1808199A589238083EF8D8F
:10348000F8A180819DA1892B8083ED8DFE8D8081A7
:1034900098A5892380838BB18370806C8BB985B1AB
:1034A0008C7F816085B9EF8DF8A1808199A58923F2
:1034B0008083EF8DF8A180819DA1892B8083ED8D84
:1034C000FE8D80819CA1892B80838BB1837080616C
:1034D0008BB985B18C7F85B9EF8DF8A1808199A5D5
:1034E00089238083EF8DF8A180819DA1892B808322
:1034F000ED8DFE8D808198A5892380838BB18370AB
:103500008BB985B18C7F85B9EF8DF8A1808199A5A4
:1035100089238083EF8DF8A180819DA1892B8083F1
:103520008BB18370846C8BB985B18C7F816085B9D8
:10353000EF8DF8A1808199A589238083EF8DF8A173
:1035400080819DA1892B8083ED8DFE8D80819CA142
:10355000892B80838BB1837088628BB985B183603E
:1035600085B9EF8DF8A1808199A589238083EF8D9E
:10357000F8A180819DA1892B80838BB183708862A3
:103580008BB985B1836085B9EF8DF8A1808199A54C
:1035900089238083EF8DF8A180819DA1892B808371
:1035A000ED8DFE8D808198A5892380838BB18370FA
:1035B000846C8BB985B1836085B9EF8DF8A180816A
:1035C00099A589238083EF8DF8A180819DA1892B06
:1035D0008083ED8DFE8D80819CA1892B80838BB1B2
:1035E0008370806C8BB985B18C7F85B9EF8DF8A124
:1035F000808199A589238083EF8DF8A180819DA189
:10360000892B8083ED8DFE8D808198A58923808311
:103610008BB1837084638BB985B18C7F826085B9EF
:10362000EF8DF8A1808199A589238083EF8DF8A182
:1036300080819DA1892B8083ED8DFE8D80819CA151
:10364000892B80838BB1837088688BB985B18C7F1F
:1036500085B9EF8DF8A1808199A589238083EF8DAD
:10366000F8A180819DA1892B8083ED8DFE8D8081C5
:1036700098A5892380838BB1837088638BB985B1CA
:103680008C7F826085B9EF8DF8A1808199A589230F
:103690008083EF8DF8A180819DA1892B8083ED8DA2
:1036A000FE8D80819CA1892B80838BB18370846582
:1036B0008BB985B18C7F816085B9EF8DF8A1808150
:1036C00099A589238083EF8DF8A180819DA1892B05
:1036D0008083ED8DFE8D808198A5892380838BB1B9
:1036E00083708BB985B18C7F85B9EF8DF8A180810E
:1036F00099A589238083EF8DF8A180819DA1892BD5
:1037000080838BB18370806B8BB985B18C7F816036
:1037100085B9EF8DF8A1808199A589238083EF8DEC
:10372000F8A180819DA1892B8083ED8DFE8D808104
:103730009CA1892B80838BB183708BB985B18C7FE1
:1037400085B9EF8DF8A1808199A589238083EF8DBC
:10375000F8A180819DA1892B80838BB183708861C2
:103760008BB985B1836085B9EF8DF8A1808199A56A
:1037700089238083EF8DF8A180819DA1892B80838F
:10378000ED8DFE8D808198A5892380838BB1837018
:10379000846B8BB985B1836085B9EF8DF8A1808189
:1037A00099A589238083EF8DF8A180819DA1892B24
:1037B0008083ED8DFE8D80819CA1892B80838BB1D0
:1037C000837084608BB985B1836085B9EF8DF8A172
:1037D000808199A589238083EF8DF8A180819DA1A7
:1037E000892B8083ED8DFE8D808198A58923808330
:1037F0008BB1837080618BB985B18C7F816085B915
:10380000EF8DF8A1808199A589238083EF8DF8A1A0
:1038100080819DA1892B8083ED8DFE8D80819CA16F
:10382000892B80838BB183708BB985B18C7F85B9EF
:10383000EF8DF8A1808199A589238083EF8DF8A170
:1038400080819DA1892B808366E970E080E090E013
:103850000E94ED30ED8DFE8D808198A589238083B7
:103860008BB1837088628BB985B18C7F816085B99B
:10387000EF8DF8A1808199A589238083EF8DF8A130
:1038800080819DA1892B8083ED8DFE8D80819CA1FF
:10389000892B80838BB183708BB985B18C7F85B97F
:1038A000EF8DF8A1808199A589238083EF8DF8A100
:1038B00080819DA1892B808364EF71E080E090E09E
:1038C0000E94ED300FE311E02FEE30E040E050E0D9
:1038D00060E070E0CE010E94640DE6C00735E3E8C9
:1038E0001E0709F078C083E08A8FEB8DFC8D808104
:1038F0009FA18923808380E0E82FF0E0E85BFE4F02
:10390000949112E0180F61E0680FE62FF0E0E85B99
:10391000FE4F64919F3F31F470E080E090E00E94A0
:10392000ED3054C0AB8DBC8D2C913FA123232C9343
:10393000AD8DBE8D2C9138A523232C933BB1292F1F
:103940002C7F3370232B2BB925B193702C7F922BB6
:1039500095B9EF8DF8A1908129A592239083EF8DE1
:10396000F8A190812DA1922B9083ED8DFE8D9081F9
:103970002CA1922B9083860F8E5FE12FE817F9F030
:1039800031E03E0FF0E0E85BFE4FE4912BB19E2F5B
:103990009C7F2370922B9BB995B1E3709C7FE92BA0
:1039A000E5B9EF8DF8A1908129A592239083EF8D41
:1039B000F8A190812DA1922B9083E32FDFCF160FDA
:1039C000EB8DFC8D80819BA1892B8083163408F0C0
:1039D0006BC0812F91CF0537154709F063C081E097
:1039E0008A8FEB8DFC8D80819FA1892380830EE8D7
:1039F00011E0F8018491319664918F3F31F470E0C9
:103A000080E090E00E94ED303BC0AD8DBE8D9C917A
:103A100028A592239C932BB1982F9C7F2370922BE7
:103A20009BB995B183709C7F892B85B9AF8DB8A167
:103A30008C9199A589238C93AF8DB8A18C919DA170
:103A4000892B8C93AD8DBE8D8C919CA1892B8C93F1
:103A50009BB1862F8C7F9370892B8BB995B1862F64
:103A600083709C7F892B85B9EF8DF8A1808199A502
:103A700089238083EF8DF8A180819DA1892B80838C
:103A80000E5F1F4FF1E0043E1F0709F0B2CF6D89B2
:103A9000CE010E94E316CE01DF91CF911F910F91CD
:103AA0000C9472078FEF8A8FDF91CF911F910F9146
:103AB00008952F923F924F925F926F927F928F92D2
:103AC0009F92AF92BF92CF92DF92EF92FF920F93AD
:103AD0001F93CF93DF9300D000D0CDB7DEB74C015A
:103AE0007C836B836A015901C8018701AC014C19C1
:103AF0005D0957FF03C051954195510995016B81AF
:103B00007C81261B370B37FF03C031952195310986
:103B100022242394312C2417350714F0212C312C26
:103B20002114310459F03A2D2B2D5C01832F922F53
:103B30003B812C81DC82CB82C32ED22EAB81BC8117
:103B4000AA16BB065CF43C2D2D2D6C01832F922F01
:103B50003B812C81BC82AB82A32EB22E2501EB814E
:103B6000FC814E1A5F0A3C016C187D0877FE03C089
:103B7000719461947108720157FE03C0FFEFEF1A50
:103B8000FF0AF594E794C816D9062CF421E030E03A
:103B90003A83298324C06FEF7FEF7A8369831FC044
:103BA000D401ED91FC910480F581E02D9801211460
:103BB0003104D9F04B815C81B601C4010995E61846
:103BC000F708F7FE06C0E981FA81CE0EDF1EE40C8D
:103BD000F51C2B813C812F5F3F4F3C832B836B81F6
:103BE0007C81A616B706E4F604C0A6016B817C8131
:103BF000E4CF0F900F900F900F90DF91CF911F9116
:103C00000F91FF90EF90DF90CF90BF90AF909F907B
:103C10008F907F906F905F904F903F902F9008957E
:103C20006F927F928F929F92AF92BF92CF92DF92CC
:103C3000EF92FF920F931F93CF93DF93EC015B0101
:103C40006A0139014801E881F9810284F385E02D98
:103C500087010995E881F981A601480D591D415058
:103C600051090284F385E02D9301B501CE01099538
:103C7000E881F9810084F185E02D9401A601B50168
:103C8000CE010995E881F981B501660D771D615076
:103C900071090084F185E02D9401A601CE010995FA
:103CA000DF91CF911F910F91FF90EF90DF90CF9018
:103CB000BF90AF909F908F907F906F900895EF92FC
:103CC000FF920F931F93DC01ED91FC91240F351FA0
:103CD000215031090680F781E02D780189019B018F
:103CE00009951F910F91FF90EF900895EF92FF9229
:103CF0000F931F93DC01ED91FC91260F371F21508C
:103D000031090680F781E02D78018A0109951F911C
:103D10000F91FF90EF9008956F927F928F929F92F4
:103D2000AF92BF92CF92DF92EF92FF920F931F93C9
:103D3000CF93DF935C014A0169013801EB01C60EA4
:103D4000D71ECC15DD0574F4D501ED91FC910084EE
:103D5000F185E02D87019301A401BE01C5010995FC
:103D60002196EFCFDF91CF911F910F91FF90EF90B0
:103D7000DF90CF90BF90AF909F908F907F906F908B
:103D80000895EF92FF920F931F93DC01ED91FC9148
:103D900011971A960D911C911B9718962D913C9195
:103DA00019970684F785E02D7B0140E050E060E044
:103DB00070E009951F910F91FF90EF90089508957D
:103DC000FC011382128284E491E0918380837583E5
:103DD0006483578346837187608753874287158A38
:103DE000158614861786168621E0248B8FEF9FEFA9
:103DF000938B828B918B808B268B178A118E108EE2
:103E000008952F923F924F925F926F927F928F927E
:103E10009F92AF92BF92CF92DF92EF92FF920F9359
:103E20001F93CF93DF9300D000D000D0CDB7DEB783
:103E30009E838D836B015A01790166246394712CF2
:103E4000621A730A44245524421A530A440C551C1E
:103E5000DC01ED91FC91420F531F0480F581E02DB0
:103E600098010995AD81BE81ED91FC911197A50155
:103E70004E195F090480F581E02D9801B601CD014E
:103E80000995AD81BE81ED91FC911197B6016E0D42
:103E90007F1D0480F581E02D9801A501CD010995D4
:103EA000AD81BE81ED91FC911197B6016E197F092C
:103EB0000480F581E02D9801A501CD010995812CA3
:103EC000912C8E149F040CF0A1C077FC08C0B1E0C7
:103ED000EB1AF108E2E04E0E511C640C751CFFEF6A
:103EE0008F1A9F0AC401880F991F0196680E791EC8
:103EF000C4018C0D9D1D9C838B83AD81BE81ED9192
:103F0000FC9111970480F581E02D980115012E0C8C
:103F10003F1CA101BC01CD010995F601E819F90981
:103F2000FA83E983AD81BE81ED91FC911197048004
:103F3000F581E02D9801A10169817A81CD01099572
:103F4000AD81BE81ED91FC9111970480F581E02D4A
:103F5000980115012E183F08A1016B817C81CD01CC
:103F60000995AD81BE81ED91FC9111970480F58199
:103F7000E02D9801A10169817A81CD010995140193
:103F80002A0C3B1CAD81BE81ED91FC911197048000
:103F9000F581E02D9801A101C6018E0D9F1D9C8326
:103FA0008B83BC01CD010995AD81BE81ED91FC9162
:103FB00011970480F581E02D9801A101C6018E19A9
:103FC0009F099A838983BC01CD01099515012818A1
:103FD0003908AD81BE81ED91FC9111970480F58186
:103FE000E02D9801A1016B817C81CD010995AD8106
:103FF000BE81ED91FC9111970480F581E02D98012F
:10400000A10169817A81CD0109955BCF26960FB612
:10401000F894DEBF0FBECDBFDF91CF911F910F91FE
:10402000FF90EF90DF90CF90BF90AF909F908F90D8
:104030007F906F905F904F903F902F9008952F92B8
:104040003F924F925F926F927F928F929F92AF9228
:10405000BF92CF92DF92EF92FF920F931F93CF9375
:10406000DF9300D000D000D0CDB7DEB79E838D8324
:104070004B013A016901802F44244394512C421A88
:10408000530A22243324221A330A220C331CAA2472
:10409000A394B12C01E010E0982F94709983A82F7D
:1040A000A270AA83B82FB870BB8381708C83C501BE
:1040B00001978C159D050CF0A6C057FC08C0E1E0E7
:1040C000CE1AD108F2E02F0E311C420C531C0E5FA9
:1040D0001F4F400E511E8981882311F1AD81BE8191
:1040E000ED91FC9111970480F581E02D9701A301DA
:1040F0004C0D5D1DB501680D791DCD010995AD8192
:10410000BE81ED91FC9111970480F581E02D97011E
:10411000A501460D571DB4016C0D7D1DCD010995FE
:10412000BA81BB2311F1AD81BE81ED91FC91119754
:104130000480F581E02D9701A3014C195D09B501BB
:10414000680D791DCD010995AD81BE81ED91FC9180
:1041500011970480F581E02D9701A3014A195B09AD
:10416000B4016C0D7D1DCD010995BB81BB2311F1FF
:10417000AD81BE81ED91FC9111970480F581E02D18
:104180009701A501460D571DB4016C197D09CD019C
:104190000995AD81BE81ED91FC9111970480F58167
:1041A000E02D9701A3014C0D5D1DB4016A197B0937
:1041B000CD010995BC81BB2311F1AD81BE81ED918B
:1041C000FC9111970480F581E02D9701A3014A1914
:1041D0005B09B4016C197D09CD010995AD81BE81E2
:1041E000ED91FC9111970480F581E02D9701A301D9
:1041F0004C195D09B4016A197B09CD010995BFEF1E
:10420000AB1ABB0A54CF26960FB6F894DEBF0FBE8A
:10421000CDBFDF91CF911F910F91FF90EF90DF9075
:10422000CF90BF90AF909F908F907F906F905F9056
:104230004F903F902F9008952F923F924F925F9210
:104240006F927F928F929F92AF92BF92CF92DF92A6
:10425000EF92FF920F931F93CF93DF93CDB7DEB70B
:1042600028970FB6F894DEBF0FBECDBF5C011B01CF
:104270005A83498338872F83FC82EB828824839476
:10428000912C821A930A3901719461947108660C19
:10429000771C270123E0420E511CEE24E394F12CFD
:1042A000302F31703D8302700E83C7010197EF817B
:1042B000F8858E179F070CF07BC097FC0AC08F8192
:1042C0009885019798878F8392E0690E711C860C00
:1042D000971CC201AB81BC818A1B9B0B880E991E67
:1042E000BD81BB2369F1D501ED91FC912F8138850A
:1042F000220F331F2F5F3F4F8B819C81280F391F67
:104300000084F185E02D860149815A81AF81B8850D
:104310004A1B5B0BB701620D731DC5010995D501E1
:10432000ED91FC910084F185E02D920149815A8143
:104330004E195F096F817885620D731DC50109955E
:10434000BE81BB2371F1D501ED91FC912F813885A0
:10435000220F331F2F5F3F4F8B819C81280F391F06
:104360000084F185E02D860149815A81AF81B885AD
:104370004A1B5B0BB1016E197F09C5010995D50177
:10438000ED91FC910084F185E02D920149815A81E3
:104390004E195F09B1018F819885681B790BC501A2
:1043A00009959FEFE91AF90AA2E04A0E511C7DCF48
:1043B00028960FB6F894DEBF0FBECDBFDF91CF9128
:1043C0001F910F91FF90EF90DF90CF90BF90AF9033
:1043D0009F908F907F906F905F904F903F902F9025
:1043E00008956F927F928F929F92AF92BF92CF92D9
:1043F000DF92EF92FF920F931F93CF93DF93EC0125
:104400004B013A0159016801E881F981220F331FFC
:104410002F5F3F4F4A195B090084F185E02D099514
:10442000E12CF12C03E09501A301B401CE010E941F
:104430001C21DF91CF911F910F91FF90EF90DF90A2
:10444000CF90BF90AF909F908F907F906F90089586
:104450002F923F924F925F926F927F928F929F9294
:10446000AF92BF92CF92DF92EF92FF920F931F9382
:10447000CF93DF93CDB7DEB728970FB6F894DEBFA2
:104480000FBECDBF98878F833B014A013C832B83AE
:104490001E830D835701EE24FF24EA18FB08EE0C5F
:1044A000FF1CC9018E0D9F1D9A8389832B014A0C25
:1044B0005B1CAF81B885ED91FC9111970284F38567
:1044C000E02D86019C01B201CD0109952D803E8031
:1044D000280C391CAF81B885ED91FC911197A10191
:1044E000415051090284F385E02D29813A81B201BE
:1044F000CD010995ED81FE81EE0EFF1E8A0C9B1CFD
:10450000AF81B885ED91FC9111970084F185E02D84
:104510009701A401B301CD010995EB81FC816E0ED9
:104520007F1EAF81B885ED91FC911197B301615069
:1045300071090084F185E02D9701A401CD01099551
:10454000760101E09501A401B2018F8198850E9456
:104550001F206A187B08B1E06B1A710802E0950110
:10456000A401B3018F8198850E941F2041018A1800
:104570009B08E1E08E1A910804E09501A401B301C3
:104580008F8198850E941F2008E09501A401B20147
:104590008F8198850E941F2028960FB6F894DEBF61
:1045A0000FBECDBFDF91CF911F910F91FF90EF9084
:1045B000DF90CF90BF90AF909F908F907F906F9043
:1045C0005F904F903F902F9008952F923F924F927F
:1045D0005F926F927F928F929F92AF92BF92CF9293
:1045E000DF92EF92FF920F931F93CF93DF9300D050
:1045F00000D000D0CDB7DEB75C017A8369833A0181
:104600003C832B834801FE82ED8226016701D19411
:10461000C194D108CC0CDD1C1B012E0C3F1CD50114
:10462000ED91FC912C0D3D1D0684F785E02D720166
:104630008401B101C50109958C0C9D1CB1E08B1A58
:104640009108ED81FE816E0E7F1E69817A818B81DA
:104650009C81680F791F6E1B7F0B6150710962018D
:10466000740101E09F01A301C5010E941C2102E029
:104670002D813E81A301B101C5010E941C21269616
:104680000FB6F894DEBF0FBECDBFDF91CF911F9163
:104690000F91FF90EF90DF90CF90BF90AF909F90E1
:1046A0008F907F906F905F904F903F902F900895E4
:1046B0002F923F924F925F926F927F928F929F9232
:1046C000AF92BF92CF92DF92EF92FF920F931F9320
:1046D000CF93DF93CDB7DEB7AE970FB6F894DEBFBA
:1046E0000FBECDBF98878F834B013A0129011EA7CA
:1046F0000DA7B701DA82C982BE8AAD8A04171507F1
:104700004CF4872D38014DA78EA7982D892D49018E
:10471000492E582E2DA53EA549815A81421753078F
:104720005CF49DA58EA55EA74DA799838A83942DE1
:10473000852D2B01692F782F8DA59EA586159705B0
:104740005CF4962D872D6DA47EA49DA78EA7982D31
:10475000892D4201492E582EA981BA816A167B06FD
:1047600019F5481459042CF0942D852D2401892E17
:10477000982E641575052CF0861697060CF44B01DF
:10478000B201AF81B885ED91FC9111979401261B80
:10479000370B2F5F3F4F0284F385E02D0D891E8973
:1047A000A301CD01099552C1C201881999092DA50E
:1047B0003EA526193709FB01E819F909FA87E987A7
:1047C00049815A81461957095E874D87DB01A41933
:1047D000B509BA8BA98BE981FA814DA55EA5E41BC9
:1047E000F50BF88FEF8B69817A814617570729F00F
:1047F000415051095C8F4B8F04C0ADA5BEA5BC8F45
:10480000AB8F1301A12CB12C65011B821C821D8270
:104810001E82A901662757FD6095762F4D8F5E8F0A
:104820006F8F78A32D853E85442737FD4095542F03
:1048300029A33AA34BA35CA3AC01662757FD60955F
:10484000762F4DA35EA36FA378A769857A85882705
:1048500077FD8095982F69A77AA78BA79CA7EB8DEA
:10486000FC8DE215F3050CF44EC06B817C818D81CB
:104870009E812D8D3E8D4F8D58A10E94C8367401AA
:10488000E20EF31EC601B50129A13AA14BA15CA11C
:104890000E94C836B401620F731F8B819C81AD8169
:1048A000BE812DA13EA14FA158A5820F931FA41F29
:1048B000B51F8B839C83AD83BE8389A59AA5ABA5C9
:1048C000BCA5A80EB91ECA1EDB1E6E157F052CF0F6
:1048D000962F872FB701E92EF82EAF81B885ED917D
:1048E000FC9111979701261B370B2F5F3F4F0284D6
:1048F000F385E02D0D891E89A101CD010995BFEF3A
:104900002B1A3B0AACCF91014DA55EA5241B350B9C
:1049100069897A89629FC001639F900D729F900D93
:1049200011249C01442737FD4095542F2B833C8351
:104930004D835E83C1018619970949855A85489F31
:104940006001499FD00C589FD00C1124EE24D7FC55
:10495000E094FE2C6F89788D882777FD8095982FBD
:104960006F8B788F898F9A8F8D859E85AA2797FD6B
:10497000A095BA2F8D879E87AF87B88B29893A89F2
:10498000442737FD4095542F298B3A8B4B8B5C8BFA
:1049900049855A85662757FD6095762F49875A873E
:1049A0006B877C87E981FA81E215F3050CF44EC030
:1049B0006B817C818D819E812F89388D498D5A8DA7
:1049C0000E94C8365201A20EB31EC701B6012D8542
:1049D0003E854F8558890E94C836B401620F731F07
:1049E0008B819C81AD81BE8129893A894B895C8903
:1049F000820F931FA41FB51F8B839C83AD83BE833F
:104A000089859A85AB85BC85C80ED91EEA1EFB1E1A
:104A10006A157B052CF0962F872FB501A92EB82E8D
:104A2000AF81B885ED91FC9111979501261B370B4D
:104A30002F5F3F4F0284F385E02D0D891E89A10170
:104A4000CD010995BFEF2B1A3B0AACCFAE960FB63E
:104A5000F894DEBF0FBECDBFDF91CF911F910F91B4
:104A6000FF90EF90DF90CF90BF90AF909F908F908E
:104A70007F906F905F904F903F902F9008952F926E
:104A80003F924F925F926F927F928F929F92AF92DE
:104A9000BF92CF92DF92EF92FF920F931F93CF932B
:104AA000DF93CDB7DEB76A970FB6F894DEBF0FBEBF
:104AB000CDBF1C0158874F831C870B87FA86E98678
:104AC000CC82DC0158964D915C9159974115510566
:104AD00009F0A6C018968D919C91199768177907CF
:104AE0000CF056C11A968D919C911B97EF81F88519
:104AF000E817F9070CF04CC1D12CCB013C81F6E052
:104B00003F9F800D911D1124181619060CF040C10D
:104B1000C60103E0880F991F0A95E1F74F81588578
:104B2000840F951F181619060CF032C157968C91F8
:104B3000811103C0203B08F02F5F7E876D874B01FA
:104B4000198214EEA12E11E0B12EA61AB70A55E073
:104B5000259FA00CB11C11248981853039F0ED8589
:104B6000FE85EA0DFB1D94919A8301C01A826F8025
:104B700078842301A8E0AD83BA81B0FF12C0D101CF
:104B8000ED91FC91BC81B13031F40480F581E02DD0
:104B90002B853C8518C00684F785E02DEB84FC84CA
:104BA0001DC0E985FA852B853C85E217F307E1F006
:104BB000D101ED91FC91BC81B13059F40480F581B3
:104BC000E02D29853A85A2016D857E85C101099573
:104BD0000BC00684F785E02DE984FA8486019601EE
:104BE000A301B401C1010995EA81E695EA83FD813B
:104BF000F150FD836C0C7D1C2FEF421A520AF1110B
:104C0000BBCF39813F5F39838C0C9D1C4D855E8500
:104C10004F5F5F4F5E874D87363009F09DCFB8C03C
:104C2000FA0134963491329785919491231BA7E031
:104C30002A9F800D911D1124FA0125913491398B01
:104C4000288BFC01459154915A8F498FFC01329673
:104C5000549159873196A491AF873196E491FC0124
:104C60003596249131968491BC81B23050F0622EF9
:104C7000772467FC7094E82FFF27E7FDF095FE8707
:104C8000ED87FC81CF2ED12C6C9C40016D9C900C4B
:104C90007C9C900C1124860E971EA12C1982DE8A12
:104CA000CD8AAB01420F511D27FD5A955E834D837E
:104CB000AF81B885A80FB11D87FDBA95B88FAF8BAE
:104CC00059818F85581708F063C0852F90E02D8596
:104CD0003E85280F391F2C9DD0012D9DB00D3C9D88
:104CE000B00D1124EF81F885EA0FFB1FFB83EA83E7
:104CF0006D807E802401FA2D2D81F21BFA8B4F8965
:104D0000588D480F591F5C8B4B8B9A89960D862DB9
:104D10002D81821B39858317B0F5977061F4898DD9
:104D20009A8D0196E889F989298D3A8DE20FF31F52
:104D3000B4909A8F898FB7FE1DC0D101ED91FC917F
:104D4000BC81B13059F40480F581E02D2B853C8580
:104D50004B895C89B301C10109950CC00684F785B4
:104D6000E02DEB84FC84860196014A815B81B201CF
:104D7000C1010995BB0CED89FE894E0E5F1EFFEF48
:104D80006F1A7F0AC2CFA30E49814F5F498398CF24
:104D90006A960FB6F894DEBF0FBECDBFDF91CF91FC
:104DA0001F910F91FF90EF90DF90CF90BF90AF9049
:104DB0009F908F907F906F905F904F903F902F903B
:104DC0000895AF92BF92CF92EF92FF920F931F93ED
:104DD000CF93DF93EC01262F888D998D009709F0F2
:104DE00042C06A3069F42C898E859F8538E0239F04
:104DF000800D911D11249F878E871D861C86ABC058
:104E00006D3009F4A8C08E898823C1F03C898C8557
:104E10009D8546E0349F800D911D1124488559855C
:104E2000841795075CF01D861C868E859F85E8E0BB
:104E30003E9F800D911D11249F878E87EA88FB88F5
:104E4000088919894E855F856C857D85CC88CE0162
:104E50000E943F252C898C859D85F6E02F9F800D33
:104E6000911D112441C06A3079F41D861C864C893D
:104E7000FC01369684912E853F85489F200D311D7B
:104E800011243F872E8767C06D3009F464C0AC01E0
:104E90004C5F5F4FFA013491631708F45CC03196A0
:104EA000E491E61708F457C0FA014491362F341BF9
:104EB000FC013296A590B490F7E03F9FA00CB11C86
:104EC0001124F5013296A4913196E491AA2311F0B0
:104ED000E1110DC0F5013496A4902C898C859D8537
:104EE000A29E800D911D11249D878C8734C0F501F1
:104EF0003596E4913E89332309F13C89B0E0AE0F49
:104F0000B11DE7FDBA953A9FA0013B9F500D1124BA
:104F10006C857D85460F571F68857985461757072D
:104F20006CF01D861C86FC01369684914E855F854B
:104F3000389F400D511D11245F874E87EA88FB88FA
:104F4000088919894E855F856C857D85CC88CE0161
:104F50000E943F25BFCF81E090E0DF91CF911F916C
:104F60000F91FF90EF90CF90BF90AF900895FC010C
:104F70006370658B8481958126813781613039F03A
:104F8000633029F09187808733872287089531879E
:104F90002087938782870895FC01808591850895F5
:104FA000FC01828593850895FC0114821382089583
:104FB0006F927F928F929F92AF92BF92CF92DF9229
:104FC000EF92FF920F931F93CF93DF93CDB7DEB78E
:104FD0003C01FC01568345833087278310E012870C
:104FE0000187F12CF486E386D786C686B18AA08A2B
:104FF000938A828A8B8985877483638349E050E032
:1050000069897A89C30144960E942F37F301158E6E
:10501000DF91CF911F910F91FF90EF90DF90CF9094
:10502000BF90AF909F908F907F906F9008958F92D8
:105030009F92AF92BF92CF92DF92EF92FF920F9327
:105040001F93CF93DF93EC01A42F98898989AE84B5
:10505000BF849A888B88611103C0092F182F03C061
:10506000092D182D4C0129853A85EB85FC854F814A
:1050700058856D817E818B819C81A1113AC02E174C
:105080003F0710F4790101C07F01F694E794F6948C
:10509000E794DF01B695A7954A1B5B0BD901B6953E
:1050A000A7956A1B7B0B68018F010E94E522298569
:1050B0003A850B851C852017310710F4790101C052
:1050C0007801F694E794F694E794C801969587954D
:1050D0004F815885481B590BC901969587956D815D
:1050E0007E81681B790B65018B819C810E9428223F
:1050F0001BC0E217F30708F09F01369527950E9421
:10510000F12129853A858B859C858217930708F0C4
:105110009C01369527954F8158856D817E8185014B
:105120008B819C810E94011F2D858F81988534E0A1
:10513000239F801991091124BE016C5E7F4FDB0112
:105140000D900020E9F71197A61BB70BEB81FC81AE
:1051500043E0249F900111242A9FA0012B9F500D12
:105160003A9F500D11242D813E81241B350B35872C
:10517000248797878687928A838A908A818A8D85F9
:10518000811101C081E0848B8B819C81DF91CF9163
:105190001F910F91FF90EF90DF90CF90BF90AF9055
:1051A0009F908F900C944934FC0125813681818534
:1051B000928596958795D901A81BB90B6A177B072D
:1051C000B8F0820F931F8617970790F027813085DC
:1051D0008385948596958795B901681B790B461749
:1051E000570730F0280F391F81E02417350708F4DE
:1051F00080E00895FC01128211821082611102C0C8
:1052000040E002C041E060E00C9417282F923F92EA
:105210004F925F926F927F928F929F92AF92BF92C6
:10522000CF92DF92EF92FF920F931F93CF93DF9372
:1052300000D000D000D0CDB7DEB72C01FB013A0181
:105240001E830D83FA82E982C80117FD03969595A6
:10525000879595958795490137FF03C02FEF821AEF
:10526000920A959487942D813E81220F331F821AD2
:10527000930A9C01220F331F821A930ABC016E0FFE
:105280007F1F2D803E80260E371E4D815E81460D8C
:10529000571D5C834B83A980BA806A017101830129
:1052A0009101A301C2010E9458235FEF851A950A5C
:1052B000D201ED91FC910D811E810F5F1F4F06847D
:1052C000F785E02DE980FA809401A301B101C201C4
:1052D0000995B101680D791D2D813E81260F371F7B
:1052E000A980BA80CB80DC807B018301A301C2014D
:1052F0000E94582326960FB6F894DEBF0FBECDBF8E
:10530000DF91CF911F910F91FF90EF90DF90CF90A1
:10531000BF90AF909F908F907F906F905F904F90D5
:105320003F902F9008952F923F924F925F926F92ED
:105330007F928F929F92AF92BF92CF92DF92EF9225
:10534000FF920F931F93CF93DF93CDB7DEB72A97CA
:105350000FB6F894DEBF0FBECDBF9C838B83480190
:10536000F886EF82C80117FD0396DC01B595A79575
:10537000B595A795BA83A9831D013194219431086D
:10538000220C331C290137FF03C0BFEF4B1A5B0A05
:1053900055944794C401880F991F481A590A420C22
:1053A000531CE981FA81EE0FFF1FE60FF71FC401BE
:1053B000880F991FE80FF91FE40DF51DFA87E9879B
:1053C00029813A81420F531F3A01680C791CE81970
:1053D000F909FE83ED83AF80B88463017F01830107
:1053E00029853A85B9018B819C810E9458233FEF22
:1053F000431A530A89819A81480E591EAB81BC8198
:10540000ED91FC91119794012F5F3F4F0684F78532
:10541000E02DEF80F8848201A3016D817E81CD01B2
:105420000995A301440D551D6A01C80CD91CC20C75
:10543000D31CAF80B884E984FA848A0197016D8116
:105440007E818B819C810E9458232A960FB6F89406
:10545000DEBF0FBECDBFDF91CF911F910F91FF90A7
:10546000EF90DF90CF90BF90AF909F908F907F9004
:105470006F905F904F903F902F9008952F923F92A2
:105480004F925F926F927F928F929F92AF92BF9254
:10549000CF92DF92EF92FF920F931F93CF93DF9300
:1054A000CDB7DEB728970FB6F894DEBF0FBECDBFDD
:1054B0009A838983FA014801FE82ED82C80117FDB3
:1054C00003962C015594479455944794882799271F
:1054D00084199509880F991F390137FF03C02FEFF1
:1054E000621A720A759467949401220F331F621A2C
:1054F000730A680E791E9401220F331FA201440F14
:10550000551FDB01A40FB51FA20FB31FA60DB71DBA
:10551000B887AF83440D551D4E0F5F1F420F531FB9
:10552000460D571D1A01280C391C280E391EA819C2
:10553000B909BC83AB83AD80BE8061017D0181016F
:105540002F813885B90189819A810E945823BFEF44
:105550006B1A7B0A640C751CA981BA81ED91FC91D0
:10556000119794012F5F3F4F0684F785E02DED8062
:10557000FE808301A1016B817C81CD010995A10190
:10558000460D571D6A01C80CD91CAD80BE80EF8046
:10559000F8848A0197016B817C8189819A810E94BC
:1055A000582328960FB6F894DEBF0FBECDBFDF910B
:1055B000CF911F910F91FF90EF90DF90CF90BF9010
:1055C000AF909F908F907F906F905F904F903F90A3
:1055D0002F9008952F923F924F925F926F927F92F9
:1055E0008F929F92AF92BF92CF92DF92EF92FF92F3
:1055F0000F931F93CF93DF9300D000D000D0CDB78F
:10560000DEB73C014801FC82EB82C80117FD03961E
:105610009595879595958795290137FF03C02FEFBD
:10562000421A520A559447949401220F331F421A8A
:10563000530A9C01220F331F421A530A680F791F25
:10564000D901A80FB91FA40FB51FC401880F991F56
:10565000880F991FA80FB91FC201880F991FA80FA3
:10566000B91FBE83AD831B01280C391CA819B909C9
:10567000BA83A983AB80BC806D0171010D811E814D
:105680009101A801C3010E945823BFEF4B1A5B0A86
:10569000D301ED91FC9184010F5F1F4F0684F785C4
:1056A000E02DEB80FC80920149815A81B101C30158
:1056B0000995B101640D751D7B01E80CF91CAB80E7
:1056C000BC80CD80DE8086019B0149815A81C30167
:1056D0000E94582326960FB6F894DEBF0FBECDBFAA
:1056E000DF91CF911F910F91FF90EF90DF90CF90BE
:1056F000BF90AF909F908F907F906F905F904F90F2
:105700003F902F9008952F923F924F925F926F9209
:105710007F928F929F92AF92BF92CF92DF92EF9241
:10572000FF920F931F93CF93DF93CDB7DEB72897E8
:105730000FB6F894DEBF0FBECDBF9A8389834B01AD
:1057400018870F83FC82EB82C80117FD03963C018A
:105750007594679475946794662777276619770917
:10576000660F771F290137FF03C02FEF421A520A35
:10577000559447948F819885880F991F481A590A24
:10578000460E571EC301880F991F860D971D840F63
:10579000951F2F813885220F331F820F931F840D91
:1057A000951D2F803884280E391E260E371E6F81D6
:1057B0007885680D791D7E836D83AB80BC80610127
:1057C0007B0181019401AC01B40189819A810E941D
:1057D00058237FEF471A570A460C571CA981BA81F4
:1057E000ED91FC9111972F8138852F5F3F4F0684F3
:1057F000F785E02DEB80FC808201A101B401CD0191
:105800000995A101440D551DCF80D884C40ED51E25
:10581000AB80BC8074018A012D813E81B4018981F5
:105820009A810E94582328960FB6F894DEBF0FBEC7
:10583000CDBFDF91CF911F910F91FF90EF90DF903F
:10584000CF90BF90AF909F908F907F906F905F9020
:105850004F903F902F9008952F923F924F925F92DA
:105860006F927F928F929F92AF92BF92CF92DF9270
:10587000EF92FF920F931F93CF93DF93CDB7DEB7D5
:105880002A970FB6F894DEBF0FBECDBF9A838983E7
:105890003B014801FE82ED82C80117FD0396BC0161
:1058A00075956795759567957C836B831B0131941E
:1058B00021943108220C331CC90137FD0196DC010B
:1058C000B595A795C401880F991FA81BB90BA20D08
:1058D000B31DBA87A987EB81FC814E0F5F1F2A0198
:1058E000480C591C9301280D391D38872F83AD8032
:1058F000BE806201790182019301B30189819A819D
:105900000E94582369857A856F5F7F4F8B819C81C8
:10591000680F791F7A876987A981BA81ED91FC9117
:10592000119794012F5F3F4F0684F785E02DED809E
:10593000FE808B01A201B301CD01099549855A85ED
:10594000440D551D6A01C80CD91CC20CD31CAD8076
:10595000BE8073018A012F813885B30189819A81C4
:105960000E9458232A960FB6F894DEBF0FBECDBF13
:10597000DF91CF911F910F91FF90EF90DF90CF902B
:10598000BF90AF909F908F907F906F905F904F905F
:105990003F902F9008952F923F924F925F926F9277
:1059A0007F928F929F92AF92BF92CF92DF92EF92AF
:1059B000FF920F931F93CF93DF93CDB7DEB7289756
:1059C0000FB6F894DEBF0FBECDBF9A8389831887C8
:1059D0000F83FE82ED82F80117FD3396F595E7956A
:1059E000F595E795490137FF03C02FEF821A920A18
:1059F000959487948F819885880F991F881A990AA2
:105A0000CF01880F991F881A990A6E0F7F1FCA014C
:105A10008E0F9F1F2F813885220F331F820F931FF8
:105A2000880D991DAF01F7FF02C04F5F5F4F55957D
:105A30004795480F591F6F807884660E771E8F81B7
:105A4000988597FD01961C013594279431942194F3
:105A500031082A01420C531C8F819885840D951DB5
:105A60009C838B83AD80BE806C01730182019301A6
:105A700089819A810E9458239FEF891A990AA981E6
:105A8000BA81ED91FC9111970F8118850F5F1F4F1F
:105A90000684F785E02DED80FE809401A201B3011C
:105AA000CD010995B301680D791DCB80DC80C20C56
:105AB000D31CEF80F884E60EF71EAD80BE800B810C
:105AC0001C819B01A20189819A810E9458232896FA
:105AD0000FB6F894DEBF0FBECDBFDF91CF911F91FF
