:100000000C946A020C9492020C9492020C9489163D
:100010000C9489160C9489160C9492020C949202FA
:100020000C9492020C9492020C9492020C94920200
:100030000C9492020C9492020C9492020C949202F0
:100040000C941A180C9492020C94191B0C944B1BD0
:100050000C9492020C9492020C9492020C949202D0
:100060000C9492020C949202D110E810FF10161119
:100070002D1144115B110E12131218121D122212AF
:1000800027122C1244524956455220495320494EBA
:100090002050414E49432E20004143434944454EA0
:1000A00054204F434355525245442E200049676E19
:1000B0006974696F6E2044657465637465642E2E7F
:1000C0002E21004D6F76656D656E742044657465F4
:1000D000637465642E2E2E2100496E76616C69640E
:1000E00020534D53004D41503D2000535441545531
:1000F000533D004143434944454E5420472D464F0C
:100100005243452050455243454E54414745203DBA
:1001100000564942524154494F4E2053454E53498F
:1001200054495649545920534554203D00534D538A
:1001300020414C455254204953204F46462E2E2EE6
:1001400000534D5320414C455254204953204F4EAB
:100150002E2E2E0056454849434C452049532054E5
:1001600055524E4544204F46462E2E2E00564548A9
:1001700049434C4520495320554E4C4F434B454431
:100180000056454849434C45204953204C4F434B6A
:100190004544005345434F4E44415259204E554D1E
:1001A0004245522053455420544F203D005052495F
:1001B0004D415259204E554D4245522053455420F1
:1001C000544F203D00534D53205265636569766559
:1001D000642066726F6D207365636F6E64617279FF
:1001E0002E2E2E00534D532052656365697665644B
:1001F0002066726F6D207072696D6172792E2E2E7D
:10020000002D2D2D2D2D2D2D2D2D2D2D2D2D2D2D4B
:100210002D2D2D2D2D2D2D2D2D2D2D2D2D2D2D2D0E
:100220002D2D2D2D2D2D002D2D2D2D2D2D2D2D2D2B
:100230002D2D2D2D2D2D2D2D2D2D2D2D2D2D2D2DEE
:100240002D2D2D2D2D2D2D2D2D2D2D2D0049444CB9
:10025000450052454144590047534D20746573741D
:10026000696E672E0041542B435041530041542B7B
:10027000434950534855540041542B435042533D39
:1002800022534D220041542B434D47463D310041FE
:10029000542B434D45453D300041542B434C495070
:1002A0003D310041542B4950523D004552524F526E
:1002B0003A2053494D39303020646F65736E27748E
:1002C00020616E737765722E20436865636B2070C2
:1002D0006F77657220616E642073657269616C204E
:1002E00070696E7320696E2047534D2E63707000E5
:1002F00041542B4950523D393630300D00313135A3
:100300003230300041542B4950523D393630300D97
:100310000035373630300041542B4950523D393684
:1003200030300D0033383430300041542B495052B6
:100330003D393630300D0031393230300041542BE8
:100340004950523D393630300D0039363030004199
:10035000542B4950523D393630300D00343830304E
:100360000041542B4950523D393630300D00323463
:1003700030300041542B4950523D393630300D0059
:100380003132303000547279696E6720746F2066A4
:100390006F7263652074686520626175642D726197
:1003A000746520746F20393630300A0041542B496F
:1003B00050523D0044423A464F554E44205052451B
:1003C000562042520044423A4155544F2042415532
:1003D0004420524154450044423A434F525245430F
:1003E000542042520041542B434D47443D00415458
:1003F0002B434D47523D0041542B434D474C3D222A
:10040000414C4C220041542B434D474C3D22524518
:10041000432052454144220041542B434D474C3D1B
:100420002252454320554E52454144220041542B0F
:10043000434D47533D2200446F6E27742073656E11
:1004400064206D657373616765206C6F6E6765729C
:10045000207468616E203136302063686172616398
:1004600074657273000000000800020100000304BC
:1004700007000000000000000001020408102040F6
:100480008001020408102001020408102004040462
:10049000040404040402020202020203030303032D
:1004A00003000000002300260029000000000025B2
:1004B0000028002B0000000000240027002A000074
:1004C000A20B8D0C930C8A129012841381157B1B46
:1004D000C30B8E1311241FBECFEFD8E0DEBFCDBFFC
:1004E00014E0A0E0B1E0E4EAFAE402C005900D9265
:1004F000A633B107D9F727E0A6E3B4E001C01D9207
:10050000AF33B207E1F714E0C0EDD4E004C02297A6
:10051000FE010E94CF21C03CD107C9F70E94BF1B3A
:100520000C9445250C94000087E394E00E94551D2F
:100530008DE394E00E94551D89E195E00C9403172A
:10054000CF93DF93EC01FB01248135810E94A01F32
:10055000CE01DF91CF9108951F93CF93DF9361E098
:100560008DE00E943C1960E08DE00E94751960E00A
:100570008EE00E943C1960E08FE00E943C1960E030
:1005800081E10E943C1960E086E00E943C1966E02F
:1005900070E089E095E00E94D10B65E070E089E0B1
:1005A00095E00E94F70B60E085E00E943C1965E051
:1005B00070E081E195E00E94D10B65E070E081E19F
:1005C00095E00E94F70B40E855E260E070E089E1B9
:1005D00095E00E948C1726E040E855E260E070E06C
:1005E0008EE996E00E94B71A60E070E08CE395E037
:1005F0000E944B0C803549F061E070E08CE395E09F
:100600000E944B0C833519F52DC0EEE0F1E01192FC
:1006100081E0E232F807D9F712E0C12FDD27C7FDEC
:10062000D095BE018CE395E00E944B0C833221F300
:10063000BE018CE395E00E944B0CC45FDE4F8883C3
:10064000682F8EE996E00E94411C1F5FE6CF62E3AF
:1006500070E08CE395E00E944B0C813029F580938B
:10066000480424C0E9E4F4E0119284E0ED35F80791
:10067000D9F715E1C12FDD27C7FDD095BE018CE369
:1006800095E00E944B0C833211F3BE018CE395E0A0
:100690000E944B0CCC5CDB4F8883682F8EE996E080
:1006A0000E94411C1F5FE6CF1092480463E370E094
:1006B0008CE395E00E944B0C813011F461E001C0A5
:1006C00060E08DE00E94751964E370E08CE395E0D2
:1006D0000E944B0C813019F48093470402C01092A1
:1006E000470465E370E08CE395E00E944B0C90E0DA
:1006F00090930D0180930C0166E370E08CE395E02C
:100700000E944B0C90E090930B0180930A0164E6E9
:1007100070E00E947821CB01660F771F680F791F68
:10072000882777FD8095982F0E94C420609306014A
:1007300070930701809308019093090168E572E0C6
:100740008EE996E00E945C1C40E855E260E070E0B3
:1007500087E495E00E94A30F892B51F062E572E0D7
:100760008EE996E00E945C1C81E08093080506C03B
:100770006DE472E08EE996E00E945C1C80910805B1
:10078000882349F0C1E06C2F89E395E00E944F1562
:10079000CF5FC531C1F7DF91CF911F9108951F93AE
:1007A000CF93DF93CDB7DEB762970FB6F894DEBF75
:1007B0000FBECDBF68E574E0CE010D960E94C31D4B
:1007C0006EE071E0CE0107960E94C31D69E474E0FB
:1007D000CE0101960E94C31D67E272E08EE996E0A9
:1007E0000E945C1C68E574E08EE996E00E94801C23
:1007F0006EE071E08EE996E00E94801C69E474E08E
:100800008EE996E00E94801C61E072E08EE996E03D
:100810000E945C1C40E050E0BE01695F7F4FCE014A
:100820000D960E944A1F97FD0AC064EE71E08EE9A2
:1008300096E00E945C1C81E08093360413C040E087
:1008400050E0BE016F5F7F4FCE010D960E944A1FA0
:1008500097FD0AC065EC71E08EE996E00E945C1C91
:100860001092360411E001C010E0CE0101960E9402
:10087000551DCE0107960E94551DCE010D960E9472
:10088000551D812F62960FB6F894DEBF0FBECDBF07
:10089000DF91CF911F910895EF92FF920F931F93D5
:1008A000CF93DF93CDB7DEB7A5970FB6F894DEBF31
:1008B0000FBECDBF68E674E0CE014F960E94C31D07
:1008C00069E573E0CE0149960E94C31D69E573E0B6
:1008D000CE0143960E94C31D69E573E0CE010D96DB
:1008E0000E94C31D23E030E040E050E0BE01615EA5
:1008F0007F4FCE0101960E94A01FBE016F5F7F4F08
:10090000CE0143960E94FA1DCE0101960E94551D0C
:10091000BE016D5E7F4F8EE996E00E946E1C6EE117
:1009200071E0CE0143960E94EE1E882309F475C043
:10093000EEE0F1E0119281E0E232F807D9F76DE3E1
:10094000CE014F960E94991FAC014F5F5F4FBE01D1
:10095000615E7F4FCE0101960E94A00220E030E050
:1009600044E150E06EE071E0CE0101960E94201F4C
:10097000CE0101960E94551D6EE071E0CE014996B0
:100980000E941A1EED8C40E560E070E08CE395E07B
:100990000E944E0CF12C0F2D112707FD1095B80168
:1009A000FE1474F4CE0149960E941E1FB8016E5FBA
:1009B0007F4F482F8CE395E00E944E0CF394EBCFD1
:1009C0006E5F7F4F43E28CE395E00E944E0C6DEA30
:1009D00071E0CE010D960E94321E6EE071E0CE01F4
:1009E0000D960E947F1E20E030E040EA50E068E66D
:1009F00074E0CE010D960E94201F8091360448E6D7
:100A000054E0882319F06EE071E002C069E474E0FC
:100A100089E395E00E94CD1359C262E271E0CE01F4
:100A200043960E94EE1E882309F45AC0E9E4F4E0DC
:100A3000119284E0ED35F807D9F76DE3CE014F96BA
:100A40000E94991FAC014F5F5F4FBE01615E7F4FF7
:100A5000CE0101960E94A00220E030E044E150E087
:100A600069E474E0CE0101960E94201FCE01019638
:100A70000E94551D69E474E0CE0149960E941A1E39
:100A8000FD8C43E561E070E08CE395E00E944E0C44
:100A900000E010E0602F0F1584F4B801CE014996F4
:100AA0000E941E1FB8016B5E7F4F482F8CE395E0BC
:100AB0000E944E0C0F5F1F4FEDCF772767FD70959B
:100AC0006B5E7F4F43E28CE395E00E944E0C63E93E
:100AD00071E0CE010D960E94321E69E474E07FCF72
:100AE00066E271E0CE0143960E94EE1E882369F013
:100AF00081E08093480441E062E370E08CE395E09C
:100B00000E944E0C61E871E06DC06AE271E0CE01B6
:100B100043960E94EE1E882361F01092480440E044
:100B200062E370E08CE395E00E944E0C6DE671E0AC
:100B300059C06EE271E0CE0143960E94EE1E8823FA
:100B400071F061E08DE00E94751941E063E370E0AF
:100B50008CE395E00E944E0C64E571E043C062E3D3
:100B600071E0CE0143960E94EE1E882309F43FC037
:100B70006DE3CE014F960E94991FAC014F5F5F4F0E
:100B8000BE01615E7F4FCE0101960E94A002BE01B0
:100B90006F5F7F4FCE0143960E94FA1DCE010196F2
:100BA0000E94551D66E371E0CE0143960E94EE1E41
:100BB000882369F081E08093470441E064E370E0BA
:100BC0008CE395E00E944E0C61E471E00BC0109242
:100BD000470440E064E370E08CE395E00E944E0C33
:100BE0006DE271E0CE010D960E94321EFCCE68E3EC
:100BF00071E0CE0143960E94EE1E8823A1F16DE3C1
:100C0000CE014F960E94991FAC014F5F5F4FBE010E
:100C1000615E7F4FCE0101960E94A002BE016F5F10
:100C20007F4FCE0143960E94FA1DCE0101960E948D
:100C3000551DCE0143960E94E51F462F60930C017F
:100C400070930D0165E370E08CE395E00E944E0C1B
:100C500061E171E0CE010D960E94321E60910C019F
:100C600070910D01B3C06CE371E0CE0143960E9418
:100C7000EE1E882309F44BC06DE3CE014F960E940F
:100C8000991FAC014F5F5F4FBE01615E7F4FCE0188
:100C900001960E94A002BE016F5F7F4FCE01439676
:100CA0000E94FA1DCE0101960E94551DCE01439669
:100CB0000E94E51F462F862F972F60930A0170939D
:100CC0000B0164E670E00E947821CB01660F771F6C
:100CD000680F791F882777FD8095982F4DA30E9474
:100CE000C4206093060170930701809308019093DC
:100CF00009014DA166E370E08CE395E00E944E0C83
:100D000063EF70E0CE010D960E94321E5BC060E47E
:100D100071E0CE0143960E94EE1E882309F45BC069
:100D20006BEE70E0CE010D960E94321E8091480459
:100D3000882319F066E471E002C064E471E0CE013A
:100D40000D960E947F1E6DE471E0CE010D960E940B
:100D50007F1E6EE071E0CE010D960E947F1E64E55D
:100D600071E0CE010D960E947F1E69E474E0CE0111
:100D70000D960E947F1E6BE571E0CE010D960E94DC
:100D80007F1E80914704882319F062E671E002C05B
:100D90006EE271E0CE010D960E947F1E65E671E065
:100DA000CE010D960E947F1E60910C0170910D0185
:100DB000CE010D960E948F1E6CE671E0CE010D965D
:100DC0000E947F1E60910A0170910B01CE010D9669
:100DD0000E948F1E08CE63E771E0CE0143960E9409
:100DE000EE1E882309F46CC065EE70E0CE010D960E
:100DF0000E94321E67E771E0CE0101960E94C31D7A
:100E00006DE374E0CE0101960E94C11E6BEA73E0AF
:100E10000E94D41E67E374E00E94C11E66E971E07F
:100E20000E94D41E6DE374E00E94C11E6BEA73E061
:100E30000E94D41E67E374E00E94C11E6BE971E05A
:100E40000E94D41EBC01CE0107960E94111ECE0145
:100E500001960E94551DBE01635F7F4FCE01019632
:100E60000E94111EBE01695F7F4FCE0101960E9454
:100E7000C11EBC01CE010D960E94FA1DCE01019645
:100E80000E94551D20E030E040EA50E068E674E042
:100E9000CE010D960E94201F8091360448E654E052
:100EA000882319F06EE071E002C069E474E089E320
:100EB00095E00E94CD13CE0107960E94551D06C0F5
:100EC00069ED70E08EE996E00E945C1CCE010D9603
:100ED0000E94551DCE0143960E94551DCE01499694
:100EE0000E94551DCE014F960E94551DA5960FB626
:100EF000F894DEBF0FBECDBFDF91CF911F910F9150
:100F0000FF90EF9008950F9360E089E395E00E94D1
:100F10003A14809367048823B1F000EA28E634E0AD
:100F200048E554E0682F89E395E00E9496140E94FA
:100F3000CF0381110E944C046091670489E395E01E
:100F40000F910C944F150F910895CF9388E395E07E
:100F50000E94520CC82F813009F05FC048E56EE056
:100F600071E085E495E00E940613882311F18091D9
:100F70004804882351F01092480468E97AE380E03D
:100F800090E00E94931840E009C0C093480468E8CC
:100F900073E180E090E00E94931841E062E370E02A
:100FA0008CE395E00E944E0C48EA51E66EE071E059
:100FB0002AC048E569E474E085E495E00E940613E0
:100FC000882331F180914804882351F0109248041D
:100FD00068E97AE380E090E00E94931840E009C05D
:100FE000C093480468E873E180E090E00E949318A1
:100FF00041E062E370E08CE395E00E944E0C48EA29
:1010000051E669E474E085E495E0CF910C943813DF
:1010100085E495E0CF910C947113CF910895CF930F
:10102000DF9300D000D000D0CDB7DEB769E573E024
:10103000CE0101960E94C31D63EC70E0CE010196C3
:101040000E94321E20E030E040EA50E068E674E0A2
:10105000CE0101960E94201F80914704882341F011
:1010600048E654E06EE071E089E395E00E94CD131C
:1010700068E873E180E090E00E94931848EA51E646
:101080006EE071E085E495E00E94381368E873E152
:1010900080E090E00E94931880914704882341F0FB
:1010A00048E654E069E474E089E395E00E94CD13DA
:1010B00068E873E180E090E00E94931848EA51E606
:1010C00069E474E085E495E00E94381368E873E110
:1010D00080E090E00E949318CE0101960E94551D79
:1010E00026960FB6F894DEBF0FBECDBFDF91CF912D
:1010F0000895CF93DF9300D000D000D0CDB7DEB7F6
:1011000069E573E0CE0101960E94C31D6DEA70E0AF
:10111000CE0101960E94321E20E030E040EA50E00D
:1011200068E674E0CE0101960E94201F809147047A
:10113000882341F048E654E06EE071E089E395E0F1
:101140000E94CD1368E873E180E090E00E9493185C
:1011500048EA51E66EE071E085E495E00E943813BC
:1011600068E873E180E090E00E9493188091470462
:10117000882341F048E654E069E474E089E395E0AF
:101180000E94CD1368E873E180E090E00E9493181C
:1011900048EA51E669E474E085E495E00E9438137A
:1011A00068E873E180E090E00E949318CE01019618
:1011B0000E94551D26960FB6F894DEBF0FBECDBF18
:1011C000DF91CF910895CF93DF93CDB7DEB76297CC
:1011D0000FB6F894DEBF0FBECDBF182F69E573E0E0
:1011E000CE010D960E94C31D112319F069E970E02C
:1011F00002C064E870E0CE010D960E94321E20E02D
:1012000030E0A90160914304709144048091450449
:10121000909146040E945620811143C020E030E0A6
:1012200040EA50E068E674E0CE010D960E94201F6F
:1012300048E654E06EE071E089E395E00E94CD134A
:1012400068EE73E080E090E00E94931848E654E076
:1012500069E474E089E395E00E94CD1368EE73E0E1
:1012600080E090E00E94931848EA51E66EE071E059
:1012700085E495E00E94381368E873E180E090E02F
:101280000E94931848EA51E669E474E085E495E029
:101290000E94381368E873E180E090E00E949318A0
:1012A000A4C0BE01635F7F4FCE0101960E94111E54
:1012B00061EA71E0CE0101960E94D41EBC01CE010C
:1012C0000D960E94FA1DCE0101960E94551D67E7FA
:1012D00071E0CE0101960E94C31D6DE374E0CE0162
:1012E00001960E94C11E6BEA73E00E94D41E67E360
:1012F00074E00E94C11E66E971E00E94D41E6DE395
:1013000074E00E94C11E6BEA73E00E94D41E67E382
:1013100074E00E94C11E6BE971E00E94D41EBC0102
:10132000CE0107960E94111ECE0101960E94551D06
:10133000BE01635F7F4FCE0101960E94111EBE0168
:10134000695F7F4FCE0101960E94C11EBC01CE0194
:101350000D960E94FA1DCE0101960E94551D20E0B7
:1013600030E040EA50E068E674E0CE010D960E945D
:10137000201F48E654E06EE071E089E395E00E94AA
:10138000CD1368EE73E080E090E00E94931848E689
:1013900054E069E474E089E395E00E94CD1368EEBF
:1013A00073E080E090E00E94931848EA51E66EE016
:1013B00071E085E495E00E94381368E873E180E00D
:1013C00090E00E94931848EA51E669E474E085E4ED
:1013D00095E00E94381368E873E180E090E00E9495
:1013E0009318CE0107960E94551D80E0E82FFF2735
:1013F000E7FDF095E859FB4F10828F5FF7CF4F92D2
:101400005F926F927F928F929F92AF92BF92CF9294
:10141000DF92EF92FF921F93CF93DF9300D000D023
:10142000CDB7DEB78EE00E94F6185C0161E070E097
:1014300080E090E00E9493188FE00E94F6186C0103
:1014400061E070E080E090E00E94931881E10E94EA
:10145000F6187C01B501882777FD8095982F0E94AA
:10146000C42020E030E040E054E40E94F11F2AE96B
:1014700039E94CEC52E40E945A202B013C01B601A0
:10148000882777FD8095982F0E94C42020E030E0C7
:1014900040E054E40E94F11F2AE939E94CEC52E49F
:1014A0000E945A204B015C01B701882777FD809587
:1014B000982F0E94C42020E030E040E054E40E94D5
:1014C000F11F2AE939E94CEC52E40E945A206B01E1
:1014D0007C0120E030E0A901C301B2010E94562046
:1014E00087FF04C077FA709477F8709420E030E0BA
:1014F000A901C501B4010E94562087FF04C0B7FAB4
:10150000B094B7F8B09420E030E0A901C701B6016B
:101510000E94562087FF04C0F7FAF094F7F8F09481
:101520008091060190910701A0910801B0910901F5
:1015300089839A83AB83BC839C01AD01C301B20153
:101540000E9474211816C4F029813A814B815C8174
:10155000C501B4010E947421181674F011E02981AC
:101560003A814B815C81C701B6010E947421181633
:101570000CF010E0812F01C081E00F900F900F90D0
:101580000F90DF91CF911F91FF90EF90DF90CF9060
:10159000BF90AF909F908F907F906F905F904F9093
:1015A000089581E195E00E94FB0B81E195E00C94A8
:1015B000470C6F927F928F929F92AF92BF92CF9281
:1015C000DF92EF92FF920F931F93CF93DF9355E03B
:1015D000652E44E1742EA12CB12CC12CD12CE12C10
:1015E000F12C8EE00E94F6188C0161E070E080E042
:1015F00090E00E9493188FE00E94F618EC0161E0E1
:1016000070E080E090E00E94931881E10E94F6185B
:101610004C0162E370E080E090E00E9493188EE05D
:101620000E94F618801B910B8C010E0D1F1D61E0AE
:1016300070E080E090E00E9493188FE00E94F6181E
:101640008C1B9D0BEC01CC0DDD1D61E070E080E09A
:1016500090E00E94931881E10E94F6188819990978
:101660008A0D9B1D17FF03C0119501951109780183
:10167000AE01D7FF03C05195419551096A019C0104
:1016800097FF03C031952195310959017A9409F0EA
:10169000A8CF80910C0190910D010817190734F41F
:1016A000481759071CF4281739075CF062E370E00B
:1016B00080E090E00E9493186A9409F08ACF81E05C
:1016C00001C080E0DF91CF911F910F91FF90EF90CB
:1016D000DF90CF90BF90AF909F908F907F906F9052
:1016E000089589E095E00E94FB0B89E095E00C9459
:1016F000470C0E94710B90914804882399F0911136
:101700000DC00E94FF09882311F081E005C00E94EE
:10171000D10A8823B1F080E00E94E3080E94790892
:101720000C948307992329F00E94D90A81110E9401
:101730000F080E94D10A8111EECF0E9483070C94FA
:10174000A507089563E070E08AE395E00E94961291
:1017500020E04BE06AE089E195E00E945C1781E1BE
:1017600095E00E94C50B89E095E00E94C50B6EEBE9
:1017700071E08DE394E00E94C31D6EEB71E087E39E
:1017800094E00C94C31D0C949402FC01108211820D
:10179000128213828AE090E09583848316821782F6
:1017A00008950F931F93CF93DF931F92CDB7DEB7AA
:1017B0008C01FC016783862F69830E94AB19F801B5
:1017C00016826981862F0E94AB19892B19F083E05C
:1017D000F80186830E946418F80160837183828314
:1017E00093830F90DF91CF911F910F910895FC018A
:1017F000758364830895FF920F931F93CF93DF93B4
:10180000EC018F810E94AB19FF24F394892B09F41A
:10181000F12C8E81982F977F9E8386958170F81684
:1018200051F00E946418688379838A839B838E8138
:1018300092E0892721C00E946418088119812A81B9
:101840003B81601B710B820B930B0C811D8120E08F
:1018500030E0601771078207930778F08E818170FE
:101860008F1559F00E946418688379838A839B835B
:101870008E8191E0892788608E838E8183FB882703
:1018800080F9DF91CF911F910F91FF900895FC0196
:10189000868181700895CB010C94E824CB01642FDC
:1018A0000C94F02480911406811135C081E080935E
:1018B000140665E672E085E495E00E94EC1242E3CE
:1018C00050E068E873E187E495E00E94300E8430D0
:1018D000E1F061EC71E087E495E00E94BE0C8823A2
:1018E00011F080E015C06AEC71E087E495E00E9499
:1018F000BE0C81110CC063ED71E087E495E00E949D
:10190000BE0C882371F382E003C089E001C081E04E
:101910001092140608958AE0089563E070E08DE364
:1019200095E00C94961263E070E08FE395E00C94E0
:1019300096120F931F93CF93DF93EC018BE493E008
:1019400099838883FE01E553FF4F81E090E0918306
:1019500080838E0104521F4F20E043E062E0C80103
:101960000E945C174AE050E0B801CE0185509F4FBD
:10197000DF91CF911F910F910C9487150F931F93B7
:10198000CF93DF938C01EB01FC01EF52FF4F80817D
:101990006EE672E08823F1F08EE996E00E943F1C2B
:1019A000BE018EE996E00E94801C64E772E08EE939
:1019B00096E00E943F1C0E5F1F4FB8018EE996E033
:1019C0000E94801CBE01C8010E94812421E0892B55
:1019D00089F40FC08EE996E00E943F1CBE018EE99B
:1019E00096E00E94801C6AE772E08EE996E00E9411
:1019F0003F1C20E0822FDF91CF911F910F9108951E
:101A0000FF920F931F93CF93DF93F62E21E02617BB
:101A100008F18C0103531F4FF8012083EC01C452DD
:101A2000DF4F6EE872E0CE010E943F1C6F2D70E028
:101A30004AE050E0CE010E94351D62E972E0CE011D
:101A40000E943F1C64EF71E080E090E00E949318D8
:101A5000F8011082DF91CF911F910F91FF900895AF
:101A60006F927F928F929F92AF92BF92CF92DF92AE
:101A7000EF92FF920F931F93CF93DF93EC018C01B2
:101A80000E521F4FF8018081811133C0CE01845264
:101A90009F4F0E9423169E0129523F4F7901892BA7
:101AA000F1F40E946418F701C080D180E280F380D5
:101AB0006C197D098E099F093497C080D180E12C73
:101AC000F12C6C157D058E059F0598F0329780816D
:101AD000FE01E80FF11D128284E0782E0BC00E94F7
:101AE0006418F701608371838283938381E0F80136
:101AF0008083712CF8018081813009F05EC07E0105
:101B0000FCEDEF0EF11CC7010E942316682E8823FE
:101B100049F00E946418FE01E952FF4F608371830F
:101B20008283938300E010E06E0121EDC20ED11C90
:101B30005E013FECA30EB11C601609F1F601808135
:101B4000883CB8F4F50180809180C7010E94961509
:101B5000F4018083F50180819181019691838083D6
:101B6000F60180818F5F8083FE01E80FF11D1282F4
:101B700003C0C7010E9496150F5F1F4FDDCF0E9463
:101B80006418FE01E952FF4F0081118122813381E7
:101B9000601B710B820B930B32970081118120E047
:101BA00030E0601771078207930738F0349780811F
:101BB000C80FD11D1A8277247394872DDF91CF919E
:101BC0001F910F91FF90EF90DF90CF90BF90AF905B
:101BD0009F908F907F906F900895CF93DF93EC014B
:101BE000FC01EE52FF4F1082319671836083329672
:101BF000518340830E946418FE01E952FF4F6083C5
:101C00007183828393831A823897CE0102969183DF
:101C100080833296108286529F4FDF91CF910C9431
:101C20003B160F931F93CF93DF93EC0189010E9422
:101C3000ED0DCE010E94300D8823D9F3813041F49F
:101C4000B801CE010E94BE0C882321F082E003C0BF
:101C500084E001C083E0DF91CF911F910F9108953F
:101C6000CF93DF93EC010E94ED0DCE010E94300D69
:101C70008823D9F3DF91CF9108954F925F926F92AD
:101C80007F928F929F92AF92BF92CF92DF92EF920C
:101C9000FF920F931F93CF93DF931F92CDB7DEB7C1
:101CA0002C016B015A014901F12C2FEF3C018CED05
:101CB000680E711CFE14F9F0FF2031F064EF71E042
:101CC00080E090E00E949318B601C3010E94801C3E
:101CD000A401B501C2010E94300E813041F4B80167
:101CE000C2010E94BE0C811105C020E001C02FEF8F
:101CF000F394E0CF21E048E853E168EE73E0C201DD
:101D000029830E94300E2981822F0F90DF91CF917D
:101D10001F910F91FF90EF90DF90CF90BF90AF9009
:101D20009F908F907F906F905F904F900895CF928B
:101D3000DF92EF920F931F93CF93DF936C01EC012F
:101D4000C353DF4F8881811122C081E0888392E0F4
:101D5000E92E03EC12E022E330E048EE53E064E9C0
:101D600072E0C6010E943D0E2AE0E22E00EA12E077
:101D700028EE33E048EE53E067EA72E0C6010E94C5
:101D80003D0E91E0813009F090E0188201C09FEF94
:101D9000892FDF91CF911F910F91EF90DF90CF901E
:101DA00008956F927F928F929F92AF92BF92CF923F
:101DB000DF92EF92FF920F931F93CF93DF93EC018B
:101DC0006B015A014901F12C8FEF3E019CED690E28
:101DD000711CFE14F1F0FF2031F064EF71E080E03F
:101DE00090E00E949318B601C3010E945C1CA401FC
:101DF000B501CE010E94300E813039F4B801CE0118
:101E00000E94BE0C882311F003C08FEFF394E1CF42
:101E100081E0DF91CF911F910F91FF90EF90DF90C4
:101E2000CF90BF90AF909F908F907F906F900895CC
:101E3000CF92DF92EF920F931F93CF93DF93EC013A
:101E40006C018DECC80ED11C81E0F601808335E079
:101E5000E32E03EC12E022E330E044EF51E069E9C5
:101E600072E0CE010E94D10E22E330E044EF51E057
:101E70006FE872E0CE010E94D10E22E330E044EF21
:101E800051E065E872E0CE010E94D10EF6011082A9
:101E9000CE010E94970E22E330E048EE53E068E75F
:101EA00072E0CE010E94D10E0EEB12E022E330E090
:101EB00044EF51E06DE672E0CE010E94D10EDF9159
:101EC000CF911F910F91EF90DF90CF900895CF9217
:101ED000DF92EF920F931F93CF93DF93EC01662372
:101EE00059F0613041F5DF91CF911F910F91EF9043
:101EF000DF90CF900C94180F6C018DECC80ED11CA4
:101F000081E0F601808345E0E42E03EC12E022E359
:101F100030E048EE53E066EC72E0CE010E943D0EE8
:101F200022E330E044EF51E06BEC72E0CE010E941E
:101F30003D0EF6011082DF91CF911F910F91EF902E
:101F4000DF90CF9008952F923F924F925F926F92C1
:101F50007F928F929F92AF92BF92CF92DF92EF9239
:101F6000FF920F931F93CF93DF93CDB7DEB72797E1
:101F70000FB6F894DEBF0FBECDBF6C012A013B0146
:101F8000411582EC580781E06807710561F460ED46
:101F900072E08EE996E00E94801CB0E84B2EB5E21C
:101FA0005B2E612C712C46019DEC890E911C81E009
:101FB000F4018083C60184529F4F9F838E83B301B7
:101FC000A2010E948C17160192E0290E311CF60125
:101FD000E153FF4FFB83EA8331822082C6018553A0
:101FE0009F4F9D838C8381E090E0EC81FD81918304
:101FF0008083A3E0AA2EB12CF5E0EF2E03EC12E0D3
:1020000024E630E044EF51E06FE173E0C6010E9446
:102010003D0E8F3FD9F464E373E08EE996E00E94B1
:10202000801C61E088E00E94751960EB74E080E03C
:1020300090E00E94931860E088E00E94751960E1CA
:1020400077E280E090E00E94931806C06FE373E0AF
:102050008EE996E00E94801C48EE53E068EE73E043
:10206000C6010E94300EF1E0AF1AB10829F6E5E092
:10207000EE2E03EC12E024E630E044EF51E06FE195
:1020800073E0C6010E943D0E813051F467ED73E0AC
:102090008EE996E00E945C1CFF24F394198203C031
:1020A000F12C81E0898375E0E72E03EC12E024E651
:1020B00030E044EF51E06FE173E0C6010E943D0E55
:1020C000811141C0F11062C165EC73E08EE996E0C8
:1020D0000E945C1CA12CB12CF5013197E730F10571
:1020E00008F498C140EB54E060E070E08E819F817D
:1020F0000E948C1764E670E080E090E00E949318E4
:1021000065E0E62E03EC12E024E630E044EF51E017
:102110006FE173E0C6010E943D0E813009F4A1C158
:102120006BE273E08EE996E00E94801C9FEFA91A93
:10213000B90AE8E0AE16B10479F6F4011082EA813A
:10214000FB8131822082F981FF2309F41FC1F11044
:102150001DC165E873E08EE996E00E945C1CA12C2D
:10216000B12CF5013197E730F10520F4EC5CFF4F1D
:102170000C94CD2140EB54E060E070E08E819F81B3
:102180000E948C1768EE73E080E090E00E94931844
:1021900060E873E08EE996E00E945C1C63E773E000
:1021A000A0C040E659E060E070E08E819F810E940F
:1021B0008C1768EE73E080E090E00E9493186EE662
:1021C00073E08EE996E00E945C1C61E673E089C0D2
:1021D00040EC52E160E070E08E819F810E948C179C
:1021E00068EE73E080E090E00E9493186CE573E085
:1021F0008EE996E00E945C1C6FE473E072C040E8D8
:1022000055E260E070E08E819F810E948C1768EE3D
:1022100073E080E090E00E9493186AE473E08EE936
:1022200096E00E945C1C6DE373E05BC040E05BE401
:1022300060E070E08E819F810E948C1768EE73E0F1
:1022400080E090E00E94931867E373E08EE996E0E7
:102250000E945C1C6AE273E044C040E056E960E022
:1022600070E08E819F810E948C1768EE73E080E0A1
:1022700090E00E94931864E273E08EE996E00E9479
:102280005C1C67E173E02DC040E051EE60E070E05F
:102290008E819F810E948C1768EE73E080E090E051
:1022A0000E94931861E173E08EE996E00E945C1C45
:1022B00064E073E016C040E052EC61E070E08E81B3
:1022C0009F810E948C1768EE73E080E090E00E948E
:1022D00093186DEF72E08EE996E00E945C1C60EF4F
:1022E00072E08E819F810E940C1C68EE73E080E09A
:1022F00090E00E94931840E855E260E070E08E8123
:102300009F810E948C1768EE73E080E090E00E944D
:10231000931855E0E52E03EC12E024E630E044EF9C
:1023200051E06FE173E0C6010E943D0E68EE73E07C
:1023300080E090E00E94931848EE53E068EE73E06E
:10234000C6010E94300E8FEFA81AB80A98E0A916AD
:10235000B10409F006CF6BEA72E08EE996E00E94C4
:102360005C1C61E088E00E94751960EB74E080E01D
:1023700090E00E94931860E088E00E94751960E187
:1023800077E280E090E00E94931841C0F40110824F
:10239000FF20D9F042E350E062E370E0C6010E9402
:1023A000300E60E0C6010E94670FC6010E94180F40
:1023B00060E0C6010E94000D82E090E0EC81FD81AA
:1023C0009183808381E090E08CC040E052EC61E03A
:1023D00070E08E819F810E948C1768EE73E080E030
:1023E00090E00E94931863EA72E08E819F810E94C0
:1023F0000C1C2AE030E0B301A2018E819F810E9473
:10240000EB1C62E972E08E819F810E943F1C80E09C
:1024100090E067C0E55CFF4F0C94CD2140E659E0A9
:1024200060E070E063CE40EC52E160E070E05ECED0
:1024300040E855E260E070E059CE40E05BE460E0E7
:1024400070E054CE40E056E960E070E04FCE40E0EE
:1024500051EE60E070E04ACE40E052EC61E070E0A6
:1024600045CE64EB73E08EE996E00E945C1C6CEA5A
:1024700073E08E819F810E940C1C2AE030E0B30142
:10248000A2018E819F810E94EB1C62E972E08E8125
:102490009F810E943F1C64EF71E080E090E00E9409
:1024A0009318B301A2018E819F810E948C1764E66C
:1024B00070E080E090E00E94931824E630E044EF62
:1024C00051E06FE173E0C6010E943D0E813031F4AE
:1024D00062E273E08EE996E00E94801CFF24F39490
:1024E0002CCE27960FB6F894DEBF0FBECDBFDF917E
:1024F000CF911F910F91FF90EF90DF90CF90BF9001
:10250000AF909F908F907F906F905F904F903F9093
:102510002F90089563E070E081E495E00C949612AA
:1025200063E070E083E495E00C949612FC01718303
:1025300060830895CF93DF93EC0102960E94990C7B
:1025400081EC93E0998388838BEC93E09B838A836F
:10255000DF91CF91089521EC33E0FC01318320839A
:102560002BE433E03383228382529F4F0C94031772
:10257000DC01ED91FC91369720813181280F391FC4
:10258000C90184529F4F0C943F1CDC01ED91FC91DA
:10259000369720813181280F391FC90184529F4FFE
:1025A0000C943F1CDC01ED91FC9136972081318128
:1025B000280F391FC90184529F4F0C940C1CDC0159
:1025C000ED91FC91369720813181280F391FC90187
:1025D00084529F4F0C94801CDC01ED91FC91369746
:1025E00020813181280F391FC90184529F4F0C94DB
:1025F0005C1CDC01ED91FC91369720813181280F24
:10260000391FC90184529F4F0C94801C1F93CF9394
:10261000DF93EC019B01142FE881F98136978081CB
:1026200091818C0F9D1FFC01E553FF4F80819181AB
:10263000019711F480E018C042E350E068E873E1CC
:1026400087E495E00E94110E8230A1F7183559F405
:102650006FE472E0CE010E94F91268EE73E080E050
:1026600090E00E94931881E0DF91CF911F9108952F
:10267000EF92FF920F931F93CF93DF93EC018B01A7
:102680007A01E881F9813697808191818C0F9D1FB5
:10269000FC01E553FF4F808191810197D1F062E603
:1026A00073E0CE010E94C512B801CE010E94B8129B
:1026B00066E673E0CE010E94F912B70180E090E077
:1026C0000E9493186FE472E0CE010E94F91281E03B
:1026D00001C080E0DF91CF911F910F91FF90EF90AB
:1026E00008956FE472E00C94F912DC01ED91FC9115
:1026F000369720813181280F391F4AE050E0C90107
:1027000084529F4F0C943D1D63E070E08DE496E091
:102710000E94961285E495E00C949A1285E495E067
:102720000C94AB12DC01ED91FC9136972081318144
:10273000280F391FC90184529F4F0E949615089592
:10274000DF92EF92FF920F931F93CF93DF937B0162
:102750008A01C0E0D0E0C017D10794F485E495E089
:102760000E949213D82E18164CF4682F8EE996E02A
:102770000E94411CF701EC0FFD1FD0822196EBCF88
:10278000C80117FF02C080E090E0DF91CF911F9158
:102790000F91FF90EF90DF900895EF92FF920F93CB
:1027A0001F93CF93DF9300D0CDB7DEB77B018A01B3
:1027B000FA0101900020E9F73197E41BF50BE03AAC
:1027C000F10530F067E374E08EE996E00E945C1C4E
:1027D0008AE189831A826DE274E085E495E00E94C3
:1027E000D212B70185E495E00E94B81260E773E069
:1027F00085E495E00E94F9126DEC73E08EE996E0B5
:102800000E94801C22EE33E044EF51E068EE73E05A
:1028100087E495E00E94110E823011F08FEF1FC007
:102820006CED73E08EE996E00E94801CB80185E4AF
:1028300095E00E94B812BE016F5F7F4F85E495E07E
:102840000E94DF1224EE33E048E853E168E57BE1C3
:1028500087E495E00E94110E823001F781E010922A
:1028600014060F900F90DF91CF911F910F91FF9061
:10287000EF900895CF9380911406811154C081E0A8
:1028800080931406613049F028F0623061F467EFFC
:1028900073E005C068E174E002C065E074E085E4BF
:1028A00095E00E94EC124CED55E068E873E187E496
:1028B00095E00E94ED0D63EC72E087E495E00E94E4
:1028C000BE0C81110CC087E495E00E94300D882376
:1028D00091F3813021F0843009F1C0E020C06AEE2C
:1028E00073E087E495E00E94BE0C882369F06AE3F8
:1028F00070E089E495E00E944C24009729F001964D
:102900000E94EE23C82F01C0C0E044E150E064E122
:1029100070E087E495E00E94300E01C0CEEF109287
:1029200014068C2F01C08FEFCF9108959F92AF9224
:10293000BF92CF92DF92EF92FF920F931F93CF93AC
:10294000DF93C62F6A017901662309F499C080914B
:102950001406811197C081E080931406FA01108259
:102960006EEE73E085E495E00E94D2126C2F70E069
:1029700085E495E00E94751321EF33E044E650E0D2
:1029800068E873E187E495E00E94110E833039F026
:10299000843009F46DC0823009F06DC00FC063EC63
:1029A00072E087E495E00E94BE0C811164C067EF7D
:1029B00073E087E495E00E94BE0C5DC06DEF73E0AC
:1029C00087E495E00E94BE0C81110BC06AE074E0C0
:1029D00087E495E00E94BE0C882331F022E0922E1D
:1029E00005C09924939402C093E0992E6CE270E0A4
:1029F00089E495E00E944C2402965C0162E270E05A
:102A00000E944C24EC01009729F01882B501C60100
:102A10000E9460246AE070E0CE0101960E944C247E
:102A2000009751F1EC0121966DE070E0CE010E941B
:102A30004C24009711F0FC011082FE01019000204F
:102A4000E9F73197EC1BFD0BE01728F4BE01C70135
:102A50000E94602411C010E0A80141505109BE013C
:102A6000C7010E944324F701E00FF11F108204C048
:102A70008EEF982E01C0912C10921406892D03C060
:102A80008DEF01C08FEFDF91CF911F910F91FF90DC
:102A9000EF90DF90CF90BF90AF909F900895CF932D
:102AA000C62F662349F180911406811127C081E069
:102AB0008093140665EE73E085E495E00E94D212DF
:102AC0006C2F70E085E495E00E94751323EC32E0F2
:102AD00042E350E068E873E187E495E00E94110E5C
:102AE000823021F0843021F080E003C081E001C019
:102AF0008EEF1092140603C08DEF01C08FEFCF91BF
:102B0000089563E070E08FE496E00C949612FC0167
:102B10007183608328EE33E0DA010E94D32162835F
:102B200073838483958381E082870895209193063F
:102B30003091940628173907B9F490915106809185
:102B40005206981789F0E0915106F0E0ED5AF94FDE
:102B500080812091510630E02F5F3F4F2F73332744
:102B60002093510690E008958FEF9FEF08951F93F3
:102B7000CF93DF93DC015C968D919C915D970097DC
:102B800049F481E090E013969C938E93129780E035
:102B900090E03BC05196ED91FC91529750962C914C
:102BA0005097322F30951FB75E964C915E9741FB40
:102BB000772770F941FD6095F8944081772311F0F3
:102BC000422B01C043234083EC012197F1F748E0F9
:102BD000508160FF02C0522B01C053235083EC018F
:102BE0002197F1F76695415099F78081772311F08D
:102BF000832301C0822B80831FBF5C968D919C91A3
:102C00005D970197F1F781E090E0DF91CF911F91FF
:102C1000089520919306309194062817390781F47E
:102C20009091510680915206981751F0E09151060B
:102C3000F0E0ED5AF94F8081992787FD909508952E
:102C40008FEF9FEF089520919306309194062817F7
:102C5000390771F4809152062091510690E0805C12
:102C60009F4F821B910960E470E00E9478210895D3
:102C700080E090E008952091930630919406281703
:102C8000390739F48FB7F894109252061092510612
:102C90008FBF0895E0919306F0919406E817F90725
:102CA00069F4A389B4899C918589809589238C9343
:102CB000109294061092930681E0089580E00895A2
:102CC000CF93DF93EC018A8D9B8D892BF1F080915E
:102CD0009306909194068C179D07B9F0009711F018
:102CE0000E944A168E8D8E7F8E8F10925206109201
:102CF0005106D0939406C0939306EB89FC8980819A
:102D00009D89892B808381E001C080E0DF91CF9194
:102D100008951F920F920FB60F9211242F933F9395
:102D20004F935F936F937F938F939F93AF93BF93D3
:102D3000EF93FF93E0919306F0919406309709F496
:102D400051C0868DA685B785958581FF04C08C917D
:102D5000892329F447C08C91892309F043C0A389B2
:102D6000B4899C918589809589238C9386899789DC
:102D70000197F1F7208D318DA685B785758558E0CF
:102D800040E0C9010197F1F7842F90E09595879570
:102D9000482F6C91672309F04068515091F7868D58
:102DA00081FD40958091520690E001968F7399279E
:102DB00020915106281749F0A0915206B0E0AD5A73
:102DC000B94F4C938093520603C0868D8160868FE5
:102DD000828D938D0197F1F7A389B4898C919589A0
:102DE000892B8C93FF91EF91BF91AF919F918F9120
:102DF0007F916F915F914F913F912F910F900FBEF7
:102E00000F901F90189529E134E0FC013183208355
:102E10000C944A161F93CF93DF93EC01162F6E8DFF
:102E20006695617081E06827812F0E94751961E0C5
:102E3000812F0E943C19812F90E0FC01E758FB4F45
:102E4000E491E88BFC01E357FB4FE491F0E0EE0FD7
:102E5000FF1FE555FB4F859194919A8B898BDF91EC
:102E6000CF911F9108951F93CF93DF93EC01162FFD
:102E700060E0812F0E943C198E8D81FD04C061E0CD
:102E8000812F0E9475191C87812F90E0FC01E75863
:102E9000FB4FE491ED87FC01E357FB4FE491F0E039
:102EA000EE0FFF1FEF55FB4F859194919F878E8703
:102EB000DF91CF911F910895FF920F931F93CF93AE
:102EC000DF93EC01F62E522F1B821A8208EE13E0DC
:102ED00020E030E00C831D832E833F8389E194E062
:102EE000998388831F8A1E8A198E188E1B8E1A8ECC
:102EF0001D8E1C8E8E8D8E7F50FB81F98E8F642FE0
:102F0000CE010E940A176F2DCE01DF91CF911F9144
:102F10000F91FF900C943317CF93DF93EC019A013C
:102F2000AB011B8E1A8E198E188E1F8A1E8A60E0C6
:102F300079E08DE390E00E94AE21C9012430310593
:102F400020F0B9016350710902C061E070E07D8F2B
:102F50006C8FEC85E63108F068C0B901769567950D
:102F60006431710518F06351710902C061E070E0CD
:102F70007F8B6E8B069718F0C901059702C081E020
:102F800090E0998F888FC901880F991F820F931F36
:102F900096958795969587958D30910510F00C97AD
:102FA00002C081E090E09B8F8A8F20916800E8301A
:102FB00050F091E0EE3008F490E081E001C0880F1D
:102FC0009A95EAF701C084E0822B809368002C85F3
:102FD000283038F02E3040F0263148F48CE690E06E
:102FE00008C08DE690E005C08BE690E002C080E06E
:102FF00090E09C8B8B8B283030F481E001C0880FEF
:103000002A95EAF70DC0822F90E02E3010F4089731
:1030100001C00E9791E001C0990F8A95EAF7892FB8
:103020008D8B8C8D9D8D0197F1F7CE01DF91CF9126
:103030000C9460161F920F920FB60F9211242F93CB
:103040003F938F939F93AF93BF93809196069091F8
:103050009706A0919806B09199063091950623E0C5
:10306000230F2D3720F40196A11DB11D05C026E8C0
:10307000230F0296A11DB11D2093950680939606FD
:1030800090939706A0939806B093990680919A061C
:1030900090919B06A0919C06B0919D060196A11D62
:1030A000B11D80939A0690939B06A0939C06B093C3
:1030B0009D06BF91AF919F918F913F912F910F905E
:1030C0000FBE0F901F9018952FB7F8946091960639
:1030D0007091970680919806909199062FBF089558
:1030E0003FB7F89480919A0690919B06A0919C0618
:1030F000B0919D0626B5A89B05C02F3F19F00196FB
:10310000A11DB11D3FBF6627782F892F9A2F620F0F
:10311000711D811D911D42E0660F771F881F991F49
:103120004A95D1F70895CF92DF92EF92FF92CF9315
:10313000DF936B017C010E947018EB01C114D10474
:10314000E104F10489F00E94F01F0E9470186C1BCA
:103150007D0B683E734090F381E0C81AD108E10806
:10316000F108C851DC4FEACFDF91CF91FF90EF908B
:10317000DF90CF900895789484B5826084BD84B543
:10318000816084BD85B5826085BD85B5816085BD62
:10319000EEE6F0E0808181608083E1E8F0E010827B
:1031A000808182608083808181608083E0E8F0E0BC
:1031B000808181608083E1EBF0E0808184608083A6
:1031C000E0EBF0E0808181608083EAE7F0E08081DD
:1031D000846080838081826080838081816080833D
:1031E0008081806880831092C10008958E3008F03D
:1031F0008E50877020911D0190E4299F9001112429
:10320000822B80937C0080917A00806480937A0086
:1032100080917A0086FDFCCF809178002091790022
:1032200090E0922B0895833081F028F4813099F05A
:103230008230A1F008958730A9F08830B9F0843049
:10324000D1F4809180008F7D03C0809180008F77C2
:1032500080938000089584B58F7702C084B58F7DF8
:1032600084BD08958091B0008F7703C08091B00035
:103270008F7D8093B0000895CF93DF9390E0FC01A1
:10328000E758FB4F2491FC01E357FB4F84918823BF
:1032900049F190E0880F991FFC01EB54FB4FA59179
:1032A000B49185559B4FFC01C591D4919FB7611195
:1032B00008C0F8948C91209582238C938881822376
:1032C0000AC0623051F4F8948C91322F30958323E8
:1032D0008C938881822B888304C0F8948C91822BF4
:1032E0008C939FBFDF91CF9108950F931F93CF933E
:1032F000DF931F92CDB7DEB7282F30E0F901EB59ED
:10330000FB4F8491F901E758FB4F1491F901E35702
:10331000FB4F04910023C9F0882321F069830E94A8
:1033200013196981E02FF0E0EE0FFF1FE555FB4F09
:10333000A591B4919FB7F8948C91611103C0109539
:10334000812301C0812B8C939FBF0F90DF91CF9180
:103350001F910F910895CF93DF93282F30E0F9014B
:10336000EB59FB4F8491F901E758FB4FD491F901D8
:10337000E357FB4FC491CC2391F081110E941319A4
:10338000EC2FF0E0EE0FFF1FEF55FB4FA591B4912E
:103390002C912D2381E090E021F480E002C080E0B8
:1033A00090E0DF91CF910895FC01818D228D90E016
:1033B000805C9F4F821B91098F7399270895FC01B0
:1033C000918D828D981731F0828DE80FF11D858DDA
:1033D00090E008958FEF9FEF0895FC01918D828D0D
:1033E000981761F0828DDF01A80FB11D5D968C9159
:1033F000928D9F5F9F73928F90E008958FEF9FEF64
:10340000089581E79BE1892B49F080E090E0892BCA
:1034100029F00E94711B81110C9400000895FC0199
:10342000848DDF01A80FB11DA35ABF4F2C91848D4D
:1034300090E001968F739927848FA689B7892C9382
:10344000A089B1898C9180648C93938D848D98131D
:1034500006C00288F389E02D80818F7D80830895E6
:10346000CF93DF93EC01888D8823C9F0EA89FB892B
:10347000808185FD05C0A889B9898C9186FD0FC022
:103480000FB607FCF5CF808185FFF2CFA889B989F7
:103490008C9185FFEDCFCE010E940F1AE7CFDF910F
:1034A000CF910895CF92DF92FF920F931F93CF9306
:1034B000DF931F92CDB7DEB76C01DC015B969C9168
:1034C0005B975C968C915C97981307C05096ED9132
:1034D000FC915197808185FD32C0F601038D10E08B
:1034E0000F5F1F4F0F731127F02EF601848DF81216
:1034F00011C00FB607FCF9CFD6015096ED91FC91A3
:103500005197808185FFF1CFC60169830E940F1A10
:103510006981EBCF838DE80FF11DE35AFF4F608384
:10352000D6015B960C935B975296ED91FC91539765
:1035300080818062808381E058968C930DC0D60193
:103540005696ED91FC91579760835096ED91FC91C2
:10355000519780818064808381E090E00F90DF91BB
:10356000CF911F910F91FF90DF90CF900895BF9260
:10357000CF92DF92EF92FF92CF93DF93EC016A013B
:103580007B01B22EE889F98982E08083411581EEC2
:10359000580761057105A1F060E079E08DE390E0E6
:1035A000A70196010E948C2121503109410951093E
:1035B0005695479537952795211580E1380798F05E
:1035C000E889F989108260E874E88EE190E0A7014B
:1035D00096010E948C2121503109410951095695CB
:1035E000479537952795EC85FD853083EE85FF85DA
:1035F0002083188EEC89FD89B082EA89FB8980815D
:1036000080618083EA89FB89808188608083EA8980
:10361000FB89808180688083EA89FB8980818F7D36
:103620008083DF91CF91FF90EF90DF90CF90BF909C
:1036300008951F920F920FB60F9211242F938F931C
:103640009F93EF93FF93E091AE06F091AF068081D8
:10365000E091B406F091B50682FD12C09081809190
:10366000B7068F5F8F732091B806821751F0E091F3
:10367000B706F0E0E256F94F958F8093B70601C088
:103680008081FF91EF919F918F912F910F900FBEAD
:103690000F901F9018951F920F920FB60F92112442
:1036A0002F933F934F935F936F937F938F939F934A
:1036B000AF93BF93EF93FF938EE996E00E940F1AAA
:1036C000FF91EF91BF91AF919F918F917F916F91FA
:1036D0005F914F913F912F910F900FBE0F901F90D0
:1036E00018958EE996E00E94D41921E0892B09F4FF
:1036F00020E0822F08951092A1061092A00688EE75
:1037000093E0A0E0B0E08093A2069093A306A0937C
:10371000A406B093A50689E294E090939F06809357
:103720009E0685EC90E09093AB068093AA0684EC0D
:1037300090E09093AD068093AC0680EC90E090937F
:10374000AF068093AE0681EC90E09093B106809333
:10375000B00682EC90E09093B3068093B20686ECBC
:1037600090E09093B5068093B4061092B70610923D
:10377000B8061092B9061092BA06089508950E94EC
:10378000BB180E94BE1B0E94AC02C1E0DAE10E949D
:10379000790B2097E1F30E94011AF9CFCF92DF92C3
:1037A000EF92FF920F931F93CF93DF936C017A01F7
:1037B000EB01E60EF71E00E010E0CE15DF0561F02C
:1037C0006991D601ED91FC910190F081E02DC60147
:1037D0000995080F191FF1CFC801DF91CF911F91F3
:1037E0000F91FF90EF90DF90CF90089561157105D4
:1037F00081F0DB010D900020E9F7AD014150510946
:10380000461B570BDC01ED91FC910280F381E02D0A
:10381000099480E090E00895EF92FF920F931F9338
:10382000CF93DF938C01FB01C0E0D0E064917F0176
:103830008FEFE81AF80A662361F0D801ED91FC9148
:103840000190F081E02DC8010995C80FD91FF7013B
:10385000EDCFCE01DF91CF911F910F91FF90EF90AF
:103860000895DC01ED91FC91DB0114964D915C9182
:1038700015976D917C910280F381E02D09940C9451
:10388000F61BDC01ED91FC910190F081E02D099493
:103890000F931F93CF93DF93EC016DE00E94411CC7
:1038A0008C016AE0CE010E94411C800F911FDF91C4
:1038B000CF911F910F9108950F931F93CF93DF9393
:1038C000EC010E940C1C8C01CE010E94481C800F50
:1038D000911FDF91CF911F910F9108950F931F9327
:1038E000CF93DF93EC010E94311C8C01CE010E942A
:1038F000481C800F911FDF91CF911F910F91089568
:103900000F931F93CF93DF93EC010E94F61B8C0162
:10391000CE010E94481C800F911FDF91CF911F9113
:103920000F9108958F929F92AF92BF92CF92DF92A4
:10393000EF92FF920F931F93CF93DF93CDB7DEB734
:10394000A1970FB6F894DEBF0FBECDBF7C01C42E89
:10395000E52FCB01D22E19A221E02D1510F02AE07F
:10396000D22E8E010F5D1F4F8D2C912CA12CB12CCE
:103970006C2D7E2FA50194010E948C218C2DD29E4E
:1039800080191124015011098A3014F4805D01C09E
:10399000895CF8018083211531054105510521F02D
:1039A000C22EE32FCA01E4CFB801C7010E94F61B63
:1039B000A1960FB6F894DEBF0FBECDBFDF91CF91B9
:1039C0001F910F91FF90EF90DF90CF90BF90AF903D
:1039D0009F908F900895CF92DF92EF92FF920F9376
:1039E0001F93CF93DF93EC016A017B012115310511
:1039F00079F4E881F9810190F081E02D642FDF9165
:103A0000CF911F910F91FF90EF90DF90CF9009948D
:103A10002A303105E9F477FF1AC06DE20E94411C9B
:103A20008C0144275527BA014C195D096E097F099D
:103A30002AE0CE010E94921C800F911FDF91CF914E
:103A40001F910F91FF90EF90DF90CF9008952AE0A3
:103A5000B701A601CE01DF91CF911F910F91FF9089
:103A6000EF90DF90CF900C94921C9A01AB016627E7
:103A700057FD6095762F0C94EB1C0F931F93CF93FB
:103A8000DF93EC019A01AB01662757FD6095762F15
:103A90000E94EB1C8C01CE010E94481C800F911FDC
:103AA000DF91CF911F910F910895FC018081918149
:103AB0000C949522CF93DF93EC0188819981009734
:103AC00011F00E949522198218821D821C821B828D
:103AD0001A82DF91CF9108950F931F93CF93DF93B5
:103AE000EC018B016F5F7F4F888199810E942423B5
:103AF000009731F0998388831B830A8381E001C09A
:103B000080E0DF91CF911F910F910895CF93DF93C4
:103B1000EC0188819981892B29F08A819B81861704
:103B2000970760F4CE010E946C1D882341F08C81C0
:103B30009D81892B19F4E881F981108281E0DF9160
:103B4000CF910895EF92FF920F931F93CF93DF933E
:103B5000EC017B018A01BA010E94861D811104C01B
:103B6000CE010E945A1D07C01D830C83B7018881B6
:103B700099810E946024CE01DF91CF911F910F9116
:103B8000FF90EF900895FC0111821082138212823F
:103B9000158214826115710559F0FB010190002016
:103BA000E9F7AF0141505109461B570B0C94A21D78
:103BB0000895EF92FF920F931F93CF93DF93EC0141
:103BC0007B018A01BA010E94861D811104C0CE01C9
:103BD0000E945A1D07C01D830C83B70188819981FB
:103BE0000E943324CE01DF91CF911F910F91FF905E
:103BF000EF900895CF93DF93EC01FB0186179707B1
:103C000061F0608171816115710529F044815581F0
:103C10000E94A21D02C00E945A1DCE01DF91CF91C9
:103C20000895FC011182108213821282158214827F
:103C30000C94FA1DCF93DF93EC016115710561F0CF
:103C4000FB0101900020E9F7AF0141505109461BEB
:103C5000570B0E94A21D02C00E945A1DCE01DF9187
:103C6000CF9108950F931F93CF93DF9300D0CDB7DB
:103C7000DEB78C016115710561F0CB0169837A8330
:103C80000E943A24AC0169817A81C8010E94D91D41
:103C900002C00E945A1DC8010F900F90DF91CF9172
:103CA0001F910F910895EF92FF920F931F93CF935F
:103CB000DF93EC017B010C811D816115710511F40D
:103CC00080E016C04115510591F0040F151FB80191
:103CD0000E94861D8823A1F3288139818C819D81D2
:103CE000B701820F931F0E9460241D830C8381E023
:103CF000DF91CF911F910F91FF90EF900895611583
:103D0000710559F0FB0101900020E9F7AF01415026
:103D10005109461B570B0C94531E80E00895EF92F7
:103D2000FF920F931F93CF93DF93CDB7DEB7289702
:103D30000FB6F894DEBF0FBECDBF7C01CB014AE0C9
:103D400050E08E010F5F1F4FB8010E949B24F801C5
:103D500001900020E9F7AF0141505109401B510B80
:103D6000B801C7010E94531E28960FB6F894DEBF13
:103D70000FBECDBFDF91CF911F910F91FF90EF90BC
:103D80000895CF93DF93EC01FB014481558160815D
:103D900071810E94531E811103C0CE010E945A1DE1
:103DA000CE01DF91CF910895CF93DF93EC016115A0
:103DB000710569F0FB0101900020E9F7AF01415066
:103DC0005109461B570B0E94531E811103C0CE019F
:103DD0000E945A1DCE01DF91CF910895FC012481EC
:103DE0003581232B31F421E061157105A1F0FB0130
:103DF00008C0FC01808191816115710531F421E0D9
:103E0000FC018081882339F005C00E94572421E0FD
:103E1000892B09F020E0822F0895FC01248135814F
:103E20006217730748F480819181009729F0FC01A3
:103E3000E60FF71F8081089580E008950C940D1F10
:103E40000F931F93CF93DF93EB0141155105E9F0D9
:103E50002097D9F0FC016481758126173707A0F4FB
:103E6000621B730B8A01015011096017710708F476
:103E70008B01FC0160817181620F731FA801CE016B
:103E80000E946724C00FD11F1882DF91CF911F912C
:103E90000F910895CF93DF93FC018481958148179A
:103EA000590778F4C081D181FB0160817181CE0115
:103EB000840F951F0E948124009719F08C1B9D0B85
:103EC00002C08FEF9FEFDF91CF910895DF92EF92C5
:103ED000FF920F931F93CF93DF93EC018C819D8111
:103EE0004817590718F08FEF9FEF1BC08A010F5F2B
:103EF0001F4FE881F981E00FF11FD0801082E88028
:103F0000F980772767FD7095C7010E947624F70135
:103F1000E00FF11FD082009731F328813981821B95
:103F2000930BDF91CF911F910F91FF90EF90DF9056
:103F30000895FC0144815581415051090C94661F3C
:103F4000BF92CF92DF92EF92FF920F931F93CF9386
:103F5000DF936C017B01EA0189012417350720F406
:103F60008D2FE901042F182F69E573E0C6010E9427
:103F7000C31DD70114968D919C911597C817D90729
:103F8000C8F48017910708F48C01D701ED91FC91DA
:103F90001197E00FF11FB08010826D917C916C0F32
:103FA0007D1FC6010E941A1ED701ED91FC91E00F02
:103FB000F11FB082C601DF91CF911F910F91FF9049
:103FC000EF90DF90CF90BF900895FC0180819181A8
:103FD000009711F00C940C2460E070E0CB01089580
:103FE00008955058BB27AA270ED044C135D130F0D0
:103FF0003AD120F031F49F3F11F41EF42AC10EF49F
:10400000E095E7FB20C1E92F46D180F3BA1762079C
:1040100073078407950718F071F49EF55EC10EF4DE
:10402000E0950B2EBA2FA02D0B01B90190010C01C8
:10403000CA01A0011124FF27591B99F0593F50F4E0
:10404000503E68F11A16F040A22F232F342F442738
:10405000585FF3CF469537952795A795F040539530
:10406000C9F77EF41F16BA0B620B730B840BBAF000
:104070009150A1F0FF0FBB1F661F771F881FC2F76B
:104080000EC0BA0F621F731F841F48F4879577957F
:104090006795B795F7959E3F08F0B3CF9395880F36
:1040A00008F09927EE0F979587950895A8D008F402
:1040B00081E008950CD0DEC0D6D040F0CDD030F0F5
:1040C00021F45F3F19F0BFC0511108C1C2C0E3D055
:1040D00098F39923C9F35523B1F3951B550BBB27CF
:1040E000AA2762177307840738F09F5F5F4F220F7C
:1040F000331F441FAA1FA9F333D00E2E3AF0E0E875
:1041000030D091505040E695001CCAF729D0FE2FC0
:1041100027D0660F771F881FBB1F26173707480752
:10412000AB07B0E809F0BB0B802DBF01FF27935808
:104130005F4F2AF09E3F510568F085C0CFC05F3FBA
:10414000ECF3983EDCF3869577956795B795F795F0
:104150009F5FC9F7880F911D9695879597F90895E8
:10416000E1E0660F771F881FBB1F62177307840784
:10417000BA0720F0621B730B840BBA0BEE1F88F793
:10418000E0950895E89409C097FB3EF490958095DA
:10419000709561957F4F8F4F9F4F9923A9F0F92F0D
:1041A00096E9BB279395F695879577956795B7958B
:1041B000F111F8CFFAF4BB0F11F460FF1BC06F5F71
:1041C0007F4F8F4F9F4F16C0882311F096E911C083
:1041D000772321F09EE8872F762F05C0662371F0A4
:1041E00096E8862F70E060E02AF09A95660F771FB8
:1041F000881FDAF7880F9695879597F90895990F94
:104200000008550FAA0BE0E8FEEF16161706E807A0
:10421000F907C0F012161306E407F50798F0621BC1
:10422000730B840B950B39F40A2661F0232B242B96
:10423000252B21F408950A2609F4A140A6958FEFB5
:10424000811D811D089597F99F6780E870E060E007
:1042500008959FEF80EC089500240A94161617061F
:1042600018060906089500240A9412161306140667
:1042700005060895092E0394000C11F4882352F0CA
:10428000BB0F40F4BF2B11F460FF04C06F5F7F4F82
:104290008F4F9F4F089557FD9058440F551F59F069
:1042A0005F3F71F04795880F97FB991F61F09F3F23
:1042B00079F087950895121613061406551FF2CF4C
:1042C0004695F1DF08C0161617061806991FF1CF9C
:1042D00086957105610508940895E894BB276627C3
:1042E0007727CB0197F908958ADF08F48FEF0895B7
:1042F00097FB072E16F4009407D077FD09D00E9493
:10430000DA2107FC05D03EF4909581959F4F0895E2
:10431000709561957F4F0895A1E21A2EAA1BBB1BD1
:10432000FD010DC0AA1FBB1FEE1FFF1FA217B30781
:10433000E407F50720F0A21BB30BE40BF50B661F97
:10434000771F881F991F1A9469F76095709580955B
:1043500090959B01AC01BD01CF010895052E97FBFF
:104360001EF400940E94C52157FD07D00E948C21A5
:1043700007FC03D04EF40C94C52150954095309520
:1043800021953F4F4F4F5F4F0895909580957095C1
:1043900061957F4F8F4F9F4F0895EE0FFF1F059040
:1043A000F491E02D09940E94EE21B7FF0895821B3D
:1043B000930B0895AA1BBB1B51E107C0AA1FBB1F8B
:1043C000A617B70710F0A61BB70B881F991F5A95A1
:1043D000A9F780959095BC01CD010895A29FB001E9
:1043E000B39FC001A39F700D811D1124911DB29F29
:1043F000700D811D1124911D0895CF93DF9382309C
:10440000910510F482E090E0E0913D07F0913E07C5
:1044100020E030E0A0E0B0E0309739F140815181F8
:1044200048175907B8F04817590771F482819381EA
:10443000109729F013969C938E9312972CC090930B
:104440003E0780933D0727C02115310531F0421703
:10445000530718F0A901DB0101C0EF019A01BD016A
:10446000DF010280F381E02DD7CF21153105F9F06E
:10447000281B390B2430310580F48A819B8161151A
:10448000710521F0FB019383828304C090933E0762
:1044900080933D07FE01329644C0FE01E20FF31FF8
:1044A0008193919322503109398328833AC0209116
:1044B0003B0730913C07232B41F4209102013091BE
:1044C000030130933C0720933B072091000130917A
:1044D00001012115310541F42DB73EB7409104018A
:1044E00050910501241B350BE0913B07F0913C07EF
:1044F000E217F307A0F42E1B3F0B2817390778F0BB
:10450000AC014E5F5F4F2417350748F04E0F5F1F19
:1045100050933C0740933B078193919302C0E0E0A6
:10452000F0E0CF01DF91CF910895CF93DF93009713
:1045300009F487C0FC01329713821282C0913D07B3
:10454000D0913E07209781F420813181280F391FB7
:1045500080913B0790913C078217930779F5F09380
:104560003C07E0933B076DC0DE0120E030E0AE1772
:10457000BF0750F412964D915C9113979D01411520
:10458000510509F1DA01F3CFB383A2834081518150
:10459000840F951F8A179B0771F48D919C91119739
:1045A000840F951F02969183808312968D919C9122
:1045B0001397938382832115310529F4F0933E07E5
:1045C000E0933D073EC0D9011396FC93EE931297FA
:1045D0004D915D91A40FB51FEA17FB0779F4808117
:1045E0009181840F951F0296D90111969C938E9309
:1045F0008281938113969C938E931297E0E0F0E072
:104600008A819B81009719F0FE01EC01F9CFCE0160
:10461000029628813981820F931F20913B073091A8
:104620003C072817390769F4309729F410923E07A0
:1046300010923D0702C013821282D0933C07C093B0
:104640003B07DF91CF910895A0E0B0E0EAE2F3E20A
:104650000C941225EC01CB01209719F40E94FD2146
:10466000B8C0FE01E60FF71F9E0122503109E21784
:10467000F30708F4ACC0D9010D911C9111970617EE
:104680001707B8F00530110508F49FC0A801445081
:1046900051094617570708F498C002501109061B24
:1046A000170B019311936D937C93CF010E94952278
:1046B0008CC05B01A01AB10A4E01800E911EA09120
:1046C0003D07B0913E07612C712C60E070E01097BF
:1046D00009F449C0A815B905C9F5ED90FC901197EA
:1046E000670142E0C40ED11CCA14DB0478F1470113
:1046F0008A189B08640142E0C40ED11C1296BC903B
:1047000012971396AC91B5E0CB16D10440F0B2826B
:10471000A38391828082D9018D939C9309C00E5FFF
:104720001F4F0E0D1F1DF90111830083EB2DFA2F72
:104730006115710531F0DB011396FC93EE9312972E
:1047400044C0F0933E07E0933D073FC06D917C91DC
:1047500011976616770608F43B01BD0112960D907D
:10476000BC91A02DB4CF60913B0770913C076815B8
:104770007905E9F468167906D0F44091000150916A
:1047800001014115510541F44DB75EB76091040137
:1047900070910501461B570BE417F507C0F4F09321
:1047A0003C07E0933B07F901918380830EC00E9490
:1047B000FD217C01009759F0A801BE010E9443240D
:1047C000CE010E949522C70104C0CE0102C080E044
:1047D00090E0CDB7DEB7EEE00C942E25FC018827E3
:1047E0009927E89421912032E9F3293010F02E30F6
:1047F000C8F32B3241F02D3239F4689404C00E9482
:10480000C624820F911D219120532A30C0F31EF43B
:10481000909581959F4F08951F93FC0199278827B4
:10482000BC01E89411911032E9F3193010F01E30F8
:10483000C8F31B3251F01D3249F4689406C00E943F
:10484000B124610F711D811D911D119110531A30FA
:10485000B0F33EF490958095709561957F4F8F4FA2
:104860009F4F1F910895FB01DC0105900D920020E0
:10487000E1F70895FC0105900020E9F780959095F7
:104880008E0F9F1F0895FB01DC0102C001900D9265
:1048900041505040D8F70895FC018191861721F0CE
:1048A0008823D9F7992708953197CF010895FB01FF
:1048B000DC018D91019080190110D9F3990B0895B5
:1048C000FB01DC0101900D920020E1F70895FB014E
:1048D000DC014150504048F001900D920020C9F792
:1048E00001C01D9241505040E0F70895FC0181E065
:1048F00090E00190061609F4CF010020D1F701974E
:104900000895FB0151915523A9F0BF01DC014D91A0
:1049100045174111E1F759F4CD010190002049F00C
:104920004D9140154111C9F3FB014111EFCF81E0D9
:1049300090E0019708954532510520F4423010F07F
:104940000C94A624FB011082CB010895BB274A30AA
:1049500031F4992322F4BDE2909581959F4F0C94F8
:10496000CF24592F482F372F262F660F771F881FE8
:10497000991F660F771F881F991F620F731F841F6F
:10498000951F660F771F881F991F08957AE0979FDC
:10499000902D879F802D910D11240895BB27FB0139
:1049A0005527AA27880F991FAA1FA41710F0A41B28
:1049B00083955051B9F7A05DAA3308F0A95DA19382
:1049C000009779F7B111B1931192CB010C94FE24A9
:1049D000F999FECF92BD81BDF89A992780B50895C7
:1049E000262FF999FECF1FBA92BD81BD20BD0FB60B
:1049F000F894FA9AF99A0FBE01960895DC01FC0129
:104A0000672F71917723E1F7329704C07C916D9302
:104A100070836291AE17BF07C8F308952F923F923B
:104A20004F925F926F927F928F929F92AF92BF92BE
:104A3000CF92DF92EF92FF920F931F93CF93DF936A
:104A4000CDB7DEB7CA1BDB0B0FB6F894DEBF0FBEC7
:104A5000CDBF09942A88398848885F846E847D8414
:104A60008C849B84AA84B984C884DF80EE80FD8016
:104A70000C811B81AA81B981CE0FD11D0FB6F8948C
:104A8000DEBF0FBECDBFED01089514E0C0EDD4E050
:104A900004C0FE010E94CF212296C43DD107C9F770
:044AA000F894FFCFB8
:104AA40000003F07800052B8FE3F420014002B393B
:104AB4003137353838303933313035000001505210
:104AC4004900534543004C4F4300554E4C004F465C
:104AD4004600534D53005900564942004143430098
:104AE40047455400554E4C4F434B4544002C2050F1
:104AF40052493D002C205345433D002C20534D5337
:104B04003D004F4E002C205649423D002C2041438D
:104B1400433D004D415000687474703A2F2F6D610D
:104B240070732E676F6F676C652E636F6D2F6D6189
:104B340070733F713D00266C6C3D00267A3D313721
:104B440000434C49434B204C494E4B20544F204783
:104B54004554204C4F434154494F4E2D20004E4163
:104B6400002B435041533A2030002B435041533AD9
:104B74002033002B435041533A2034004F4B0D0A4D
:104B8400002B434C43433A20312C312C342C302C11
:104B940030002B434C43433A20312C312C342C31FC
:104BA4002C30002B434C43433A20312C302C302CF6
:104BB400302C30002B434C43433A20312C312C30E1
:104BC4002C302C30002B434C43433A20312C312CD5
:104BD400302C312C30002B434C43433A0041545485
:104BE40045534F3A20004E554C4C0041544100412E
:104BF40054480041542B444445543D310041542B06
:104C0400444445543D30002B44544D463A004154ED
:104C1400543A20005249433A20005249433A204E24
:104C24004F20535452494E47205243564400415456
:104C340045000D0041542B434E4D493D322C30006C
:104C44002B43504D533A0041542B43504D533D2276
:104C5400534D222C22534D222C22534D22005348D3
:104C64005554204F4B0041542646004154453000D2
:104C7400446F6E2774207573652062617564726178
:104C840074652031313532303020776974682053AF
:104C94006F6674776172652053657269616C2E0A60
:104CA4004175746F6D61746963616C6C79206368BC
:104CB400616E67656420617420393630302E00419E
:104CC400540044423A4F4B2042520044423A4E4F21
:104CD4002042520044423A4E4F2052455350004421
:104CE400423A454C53450000000000A30F41542BA9
:104CF40051434349440D0D0D0A002B434C49503A8E
:104D04002000415444003B002B434D474C00222CCF
:104D140022002B435245473A20302C31002B43527A
:104D240045473A20302C35002B435042520043482B
:104D340049414D414E5445200053414C5641544F36
:104D440020002B43475245473A20302C002B514535
:104D54004E47002B4F4B00C103CB03020000000061
:104D640000A01392130000FEFF0000A30F4445426D
:104D740055473A534D5320544553540044454255E6
:104D8400473A3E002B434D4753002B434D474C3A83
:104D9400002B434D4752004552524F520022524578
:104DA4004320554E5245414422002252454320524D
:104DB400454144220000000000B715CE1B2316967F
:104DC4001509163B1600000000521ACE1BD419ED2B
:064DD40019DF19301A007E
:00000001FF
