:100000000C9464000C94DB070C9408080C948C008E
:100010000C948C000C948C000C948C000C948C0030
:100020000C948C000C948C000C948C000C948C0020
:100030000C948C000C948C000C948C000C948C0010
:100040000C9435080C948C000C94210B0C94530BDD
:100050000C948C000C948C000C948C000C948C00F0
:100060000C948C000C948C0000000008000201002D
:100070000003040700000000000000000102040863
:100080001020408001020408102001020408102002
:10009000040404040404040402020202020203032E
:1000A00003030303000000002300260029000000D2
:1000B0000000250028002B0000000000240027007D
:1000C0002A001B02830B3B0211241FBECFEFD8E096
:1000D000DEBFCDBF12E0A0E0B1E0E0EFF1E202C090
:1000E00005900D92A032B107D9F723E0A0E2B2E06B
:1000F00001C01D92AC30B207E1F710E0C6ECD0E0D1
:1001000004C02297FE010E94520EC23CD107C9F7DB
:100110000E94C70B0C94EB100C94000061E08FE080
:100120000E947D0960E177E280E090E00E94AE08E5
:1001300060E08FE00E947D0968EE73E080E090E06F
:100140000C94AE0861E080E10E947D0960E177E2F5
:1001500080E090E00E94AE0860E080E10E947D09AE
:1001600068EE73E080E090E00C94AE0885E492E0E5
:100170000E94790640E060E085E492E00E948006FB
:100180006AE171E085E492E00E94140C41E060E0D5
:1001900085E492E00E9480066FE271E085E492E0DF
:1001A0000E94140C42E060E085E492E00E94800628
:1001B00064E471E085E492E00E94140C43E060E0A6
:1001C00085E492E00E9480066AE171E085E492E0B5
:1001D0000E94140C1092220210922102809121029E
:1001E000909122020597F4F461E089E00E947D0974
:1001F00068EE73E080E090E00E94AE0860E089E085
:100200000E947D0968EE73E080E090E00E94AE08F5
:100210008091210290912202019690932202809374
:100220002102DCCF109222021092210285E492E09A
:100230000E94790668EE73E080E090E00E94AE08CC
:1002400040E060E085E492E00E9480066AE171E0AF
:1002500085E492E00E94140C41E060E085E492E0C5
:100260000E94800669E571E085E492E00E94140C2A
:1002700042E060E085E492E00E9480066EE671E074
:1002800085E492E00E94140C43E060E085E492E093
:100290000E9480066AE171E085E492E00E94140CFD
:1002A00060E47FE180E090E00E94AE0885E492E0A7
:1002B0000E94790668EE73E080E090E00C94AE084E
:1002C000CF9360E083E00E94440960E084E00E94F4
:1002D000440961E089E00E94440960E08BE00E94EB
:1002E000440960E08DE00E94440960E081E10E94E1
:1002F000440961E08FE00E94440961E080E10E94CE
:10030000440963E070E08DE392E00E944F0565E0F0
:1003100070E08DE392E00E94750564E070E085E393
:1003200092E00E944F0565E070E085E392E00E9454
:10033000750560E08FE00E947D0960E080E10E9429
:100340007D0920E044E064E185E492E00E949A06A1
:100350000E94B6004EE051E060E085E492E00E9429
:100360007B0746E051E061E085E492E00E947B0774
:1003700026E040E855E260E070E08BE692E00E9403
:10038000BF0A64E170E08FE292E00E94F90C60E045
:1003900070E08DE592E00E94C905813019F48093E8
:1003A0002D0202C010922D0261E070E08DE592E016
:1003B0000E94C905813019F48093250202C0109271
:1003C000250280912502882371F162E070E08DE5BD
:1003D00092E00E94C905C82F63E070E08DE592E0CD
:1003E0000E94C905282F30E0322F22272C0F311D03
:1003F000309319012093180164E070E08DE592E0DC
:100400000E94C905C82F65E070E08DE592E00E946A
:10041000C905282F30E0322F22272C0F311D3093B1
:1004200017012093160143E050E06EEC74E080E089
:10043000CF910C94BB07CF92EF920F9328E0C22E7E
:1004400037E0E32E06E025E04AE06CE085E492E048
:100450000E9455078DE392E00E94430585E392E0F8
:100460000E94430563E471E08FE292E00F91EF9008
:10047000CF900C94360D8FE292E00C94C80CCF9381
:10048000DF93D1E08BE692E00E94DC09892BA1F09A
:100490008BE692E00E94F509C82F682F8FE292E068
:1004A0000E94900DC33271F76AE08FE292E00E94E1
:1004B000900DD0932E02E6CFDF91CF91089585E481
:1004C00092E00E94790640E060E085E492E00E94BC
:1004D000800663E871E085E492E00E94140C80914C
:1004E0002B02882311F060E001C061E085E492E016
:1004F0000E94B50763E971E085E492E00E94140C64
:1005000080912A02882311F060E001C061E085E457
:1005100092E00E94B50741E060E085E492E00E942D
:10052000800667E971E085E492E00E94140C8091F6
:100530002902882311F060E001C061E085E492E0C7
:100540000E94B50763E971E085E492E00E94140C13
:1005500080912802882311F060E001C061E085E409
:1005600092E00E94B50742E060E085E492E00E94DC
:10057000800680912C0290912D02882399F0992376
:1005800009F45BC080912502882309F456C067EA0C
:1005900071E085E492E00E94140C60911601709164
:1005A000170111C0809125029923E1F0882309F4F5
:1005B00044C06AEB71E085E492E00E94140C609103
:1005C0001801709119018091230290912402681BF7
:1005D000790B4AE050E085E492E00E94C00C65EBA4
:1005E00071E02DC0882349F167EC71E085E492E069
:1005F0000E94140C60911801709119014AE050E0BA
:1006000085E492E00E94C00C6DEC71E085E492E01C
:100610000E94140C61ED71E085E492E00E94140CDC
:1006200060911601709117014AE050E085E492E074
:100630000E94C00C68ED71E002C06BED71E085E4D2
:1006400092E00E94140C43E060E085E492E00E9496
:10065000800669EE71E085E492E00E94140C8091BE
:100660002C02882319F060EF71E002C064EF71E0A2
:1006700085E492E00E94140C69EF71E085E492E059
:100680000E94140C80912602882319F060E072E029
:1006900002C063E072E085E492E00C94140C0F93C6
:1006A0001F93CF93DF9300D000D000D0CDB7DEB73B
:1006B00080912E02882309F483C064E28FE292E0E5
:1006C0000E94D60D9C0141E050E06FE272E0CE0145
:1006D00001960E94DD0DCE0101960E94220E7093BC
:1006E000190160931801CE0101960E94C80C63E2C3
:1006F0008FE292E00E94D60D8C0164E28FE292E0DC
:100700000E94D60DAC014F5F5F4F98016FE272E01F
:10071000CE0101960E94DD0DCE0101960E94220EAF
:100720007093170160931601CE0101960E94C80CC8
:100730008091180190911901892B79F1809116010E
:1007400090911701892B49F181E08093250241E0C6
:1007500061E070E08DE592E00E94CC0540911801C7
:100760001091190162E070E08DE592E00E94CC05E5
:10077000412F63E070E08DE592E00E94CC0540914E
:1007800016011091170164E070E08DE592E00E947F
:10079000CC05412F65E070E005C01092250240E0D5
:1007A00061E070E08DE592E00E94CC0563E471E0C9
:1007B0008FE292E00E944C0D10922E020E945F0286
:1007C00080912D0290912B02882341F0809120028C
:1007D0008F5F80932002911113C00AC0911110C045
:1007E00080912A0281110CC080912902882341F056
:1007F00080912802882321F081E08093270202C0A3
:10080000109227028BE00E94B309019709F0C3C040
:100810008DE00E94B309019709F0BDC081E10E94FB
:10082000B309019709F0B7C081E080932602909147
:10083000270280912C02992329F190912602992375
:1008400009F1909120029A31E8F481112CC00E94A4
:100850008E0081E080932C0280932D0241E060E0C5
:1008600070E08DE592E00E94CC05809125028823FE
:10087000C1F01092240210922302109222021092D0
:1008800021020FC0882379F00E94A20010922C024E
:1008900010922D0240E060E070E08DE592E00E9451
:1008A000CC050E945F0280912502882309F460C074
:1008B00080912C02882309F45BC02091230230919F
:1008C0002402809118019091190128173907DCF151
:1008D0000E94A20010922C020E945F021092240239
:1008E000109223022091230230912402809116015C
:1008F0009091170182179307DCF110922202109257
:1009000021028091210290912202069794F460E1E5
:1009100077E280E090E00E94AE080E945F02809142
:10092000210290912202019690932202809321024B
:10093000E8CF8091230290912402019690932402A3
:1009400080932302CFCF80912102909122020196C1
:100950009093220280932102069754F02F5F3F4F1D
:10096000309324022093230210922202109221023B
:100970000E945F0260E177E280E090E00E94AE08B2
:1009800026960FB6F894DEBF0FBECDBFDF91CF9194
:100990001F910F9108951092260249CF8091200255
:1009A000823020F48F5F80932002089582E080934C
:1009B000200285E392E00E94790585E392E00E949F
:1009C000C505882321F081E080932A0202C010929D
:1009D0002A028DE392E00E9479058DE392E00E9465
:1009E000C505882331F081E080932B0280932A0291
:1009F00002C010922B0260E082E10E94440961E093
:100A00008EE00E94440961E08EE00E947D0968EE5C
:100A100073E080E090E00E94AE0882E10E94B3099A
:100A2000019721F481E08093290202C010922902EB
:100A300060E08EE00E94440961E082E10E94440986
:100A400061E082E10E947D0968EE73E080E090E061
:100A50000E94AE088EE00E94B309019721F481E064
:100A60008093280202C01092280261E08EE00E946A
:100A7000440960E08EE00E947D0960E082E10E940E
:100A80007D090C945F02FC01108211821282138294
:100A90008AE090E0958384831682178208950F93ED
:100AA0001F93CF93DF931F92CDB7DEB78C01FC016C
:100AB0006783862F69830E94B309F80116826981D2
:100AC000862F0E94B309892B19F083E0F8018683F1
:100AD0000E947F08F80160837183828393830F9063
:100AE000DF91CF911F910F910895FC01758364836D
:100AF0000895FF920F931F93CF93DF93EC018F81A3
:100B00000E94B309FF24F394892B09F4F12C8E8100
:100B1000982F977F9E8386958170F81651F00E94DA
:100B20007F08688379838A839B838E8192E08927FB
:100B300021C00E947F08088119812A813B81601BA6
:100B4000710B820B930B0C811D8120E030E060174C
:100B500071078207930778F08E8181708F1559F0A5
:100B60000E947F08688379838A839B838E8191E0CA
:100B7000892788608E838E8183FB882780F9DF91A7
:100B8000CF911F910F91FF900895FC018681817094
:100B90000895CB010C949E10CB01642F0C94A610E9
:100BA000CF93DF93EC0160E08E810E947D0981E0AC
:100BB00090E00E94D60861E08E810E947D0981E06C
:100BC00090E00E94D60860E08E810E947D0984E654
:100BD00090E0DF91CF910C94D608CF92DF92EF9204
:100BE000FF920F931F93CF93DF937C01C0E0D0E07F
:100BF000C62ED12C87010C0F1D1F61E0F8018781E3
:100C00000E944409B6010C2E02C0759567950A949E
:100C1000E2F76170F80187810E947D092196C43056
:100C2000D10541F7C701DF91CF911F910F91FF903F
:100C3000EF90DF90CF900C94D005CF92DF92EF929F
:100C4000FF920F931F93CF93DF937C01C0E0D0E01E
:100C5000C62ED12C87010C0F1D1F61E0F801878182
:100C60000E944409B6010C2E02C0759567950A943E
:100C7000E2F76170F80187810E947D092196C830F2
:100C8000D10541F7C701DF91CF911F910F91FF90DF
:100C9000EF90DF90CF900C94D0051F93CF93DF930C
:100CA000EC01162F642F8C810E947D098D818F3F6E
:100CB00019F060E00E947D098F85612F84FF06C0D6
:100CC000CE01DF91CF911F910C941D0670E084E05E
:100CD000759567958A95E1F7CE010E94ED05612F24
:100CE000CE01DF91CF911F910C94ED0540E00C9463
:100CF0004D0661E00E94760680ED97E00C94D608E0
:100D0000443008F043E0FC012389421710F04FEF14
:100D1000420FFC01E40FF11D2489260F2068622F89
:100D20000C947606FC016089262F2460208B6C6071
:100D30000C947606CF93DF93EC01423018F08F8548
:100D400088608F874B8B1C8A80E48D8B6E8B70E064
:100D5000605C7F4F6F8B222329F0413019F48F851F
:100D600084608F8780E593EC0E94D60860E08C81D8
:100D70000E947D0960E08E810E947D098D818F3FF8
:100D800019F060E00E947D096F8564FD1DC063E07D
:100D9000CE010E94ED0584E991E10E94D60863E04E
:100DA000CE010E94ED0584E991E10E94D60863E03E
:100DB000CE010E94ED0586E990E00E94D60862E02F
:100DC000CE010E94ED0516C06062CE010E9476063B
:100DD00084E991E10E94D6086F856062CE010E948D
:100DE000760686E990E00E94D6086F856062CE01A3
:100DF0000E9476066F856062CE010E94760684E0CE
:100E0000888BCE010E949206CE010E94790682E074
:100E1000898B66E0CE01DF91CF910C9476066F92BC
:100E20007F928F92AF92CF92EF920F931F93CF93B7
:100E3000DF93CDB7DEB73C01162F842F5D854E853D
:100E40003F859889F301848325830683E782C086E2
:100E5000A1868286538744873587968761E00E9402
:100E60004409F30185818F3F19F061E00E94440934
:100E700061E0F30186810E944409112319F0F30116
:100E8000178603C080E1F301878720E041E060E13D
:100E9000C301DF91CF911F910F91EF90CF90AF9051
:100EA0008F907F906F900C949A068F92AF92CF9212
:100EB000EF920F93DC0113961C921E921297ECE0B6
:100EC000F2E0ED93FC931F921F921F921F928C2CC5
:100ED000AE2CC02EE22E042F2FEF462F61E00E9491
:100EE0000F070F900F900F900F900F91EF90CF90F2
:100EF000AF908F900895CF92DF92EF92FF920F9371
:100F00001F93CF93DF9300D0CDB7DEB78C0167700E
:100F100088E0689FB00111246064C80149835A8346
:100F20000E9476064981C42E5A81D52EE12CF12CDF
:100F3000D6016D916D01D801ED91FC910190F08188
:100F4000E02DC8010995BFEFEB1AFB0AE8E0EE16A9
:100F5000F10471F70F900F90DF91CF911F910F91D6
:100F6000FF90EF90DF90CF90089541E00E944D06F2
:100F700081E090E008958230E8F4E82FF0E0EE0F91
:100F8000FF1FE25AFD4F71836083813041F08091F1
:100F900069008C7F842B80936900E89A0895809182
:100FA0006900440F551F440F551F837F842B809386
:100FB0006900E99A08951F920F920FB60F921124BB
:100FC0002F933F934F935F936F937F938F939F9351
:100FD000AF93BF93EF93FF9380915E0290915F0276
:100FE000892B29F0E0915E02F0915F020995FF9153
:100FF000EF91BF91AF919F918F917F916F915F9191
:101000004F913F912F910F900FBE0F901F90189509
:101010001F920F920FB60F9211242F933F934F936D
:101020005F936F937F938F939F93AF93BF93EF9350
:10103000FF938091600290916102892B29F0E091E9
:101040006002F09161020995FF91EF91BF91AF911C
:101050009F918F917F916F915F914F913F912F91D0
:101060000F900FBE0F901F9018951F920F920FB602
:101070000F9211242F933F938F939F93AF93BF931E
:101080008091630290916402A0916502B091660222
:101090003091620223E0230F2D3720F40196A11D29
:1010A000B11D05C026E8230F0296A11DB11D209396
:1010B00062028093630290936402A0936502B093EE
:1010C00066028091670290916802A0916902B091D6
:1010D0006A020196A11DB11D809367029093680278
:1010E000A0936902B0936A02BF91AF919F918F91D3
:1010F0003F912F910F900FBE0F901F9018952FB713
:10110000F8946091630270916402809165029091FD
:1011100066022FBF08953FB7F894809167029091BF
:101120006802A0916902B0916A0226B5A89B05C029
:101130002F3F19F00196A11DB11D3FBF6627782FE3
:10114000892F9A2F620F711D811D911D42E0660F3C
:10115000771F881F991F4A95D1F70895CF92DF9284
:10116000EF92FF92CF93DF936B017C010E948B087B
:10117000EB01C114D104E104F10489F00E942D0EA9
:101180000E948B086C1B7D0B683E734090F381E0DE
:10119000C81AD108E108F108C851DC4FEACFDF9145
:1011A000CF91FF90EF90DF90CF900895019739F0A5
:1011B000880F991F880F991F02970197F1F70895DB
:1011C000789484B5826084BD84B5816084BD85B522
:1011D000826085BD85B5816085BDEEE6F0E08081E9
:1011E00081608083E1E8F0E010828081826080830A
:1011F000808181608083E0E8F0E08081816080838D
:10120000E1EBF0E0808184608083E0EBF0E08081BE
:1012100081608083EAE7F0E0808184608083808160
:101220008260808380818160808380818068808308
:101230001092C1000895833081F028F4813099F034
:101240008230A1F008958730A9F08830B9F0843059
:10125000D1F4809180008F7D03C0809180008F77D2
:1012600080938000089584B58F7702C084B58F7D08
:1012700084BD08958091B0008F7703C08091B00045
:101280008F7D8093B0000895CF93DF9390E0FC01B1
:10129000E458FF4F2491FC01E057FF4F84918823CD
:1012A00049F190E0880F991FFC01E854FF4FA59188
:1012B000B49182559F4FFC01C591D4919FB76111A4
:1012C00008C0F8948C91209582238C938881822386
:1012D0000AC0623051F4F8948C91322F30958323F8
:1012E0008C938881822B888304C0F8948C91822B04
:1012F0008C939FBFDF91CF9108950F931F93CF934E
:10130000DF931F92CDB7DEB7282F30E0F901E859FF
:10131000FF4F8491F901E458FF4F1491F901E05710
:10132000FF4F04910023C9F0882321F069830E94B4
:101330001B096981E02FF0E0EE0FFF1FE255FF4F20
:10134000A591B4919FB7F8948C91611103C0109549
:10135000812301C0812B8C939FBF0F90DF91CF9190
:101360001F910F910895CF93DF93282F30E0F9015B
:10137000E859FF4F8491F901E458FF4FD491F901E6
:10138000E057FF4FC491CC2391F081110E941B09BB
:10139000EC2FF0E0EE0FFF1FEC55FF4FA591B4913D
:1013A0002C912D2381E090E021F480E002C080E0C8
:1013B00090E0DF91CF910895FC01818D228D90E026
:1013C000805C9F4F821B91098F7399270895FC01C0
:1013D000918D828D981731F0828DE80FF11D858DEA
:1013E00090E008958FEF9FEF0895FC01918D828D1D
:1013F000981761F0828DDF01A80FB11D5D968C9169
:10140000928D9F5F9F73928F90E008958FEF9FEF73
:10141000089589E79BE0892B49F08FE392E0892BBF
:1014200029F00E94790B81110C943F020895FC0170
:10143000848DDF01A80FB11DA35ABF4F2C91848D5D
:1014400090E001968F739927848FA689B7892C9392
:10145000A089B1898C9180648C93938D848D98132D
:1014600006C00288F389E02D80818F7D80830895F6
:10147000CF93DF93EC01888D8823C9F0EA89FB893B
:10148000808185FD05C0A889B9898C9186FD0FC032
:101490000FB607FCF5CF808185FFF2CFA889B98907
:1014A0008C9185FFEDCFCE010E94170AE7CFDF9127
:1014B000CF910895CF92DF92FF920F931F93CF9316
:1014C000DF931F92CDB7DEB76C01DC015B969C9178
:1014D0005B975C968C915C97981307C05096ED9142
:1014E000FC915197808185FD32C0F601038D10E09B
:1014F0000F5F1F4F0F731127F02EF601848DF81226
:1015000011C00FB607FCF9CFD6015096ED91FC91B2
:101510005197808185FFF1CFC60169830E94170A28
:101520006981EBCF838DE80FF11DE35AFF4F608394
:10153000D6015B960C935B975296ED91FC91539775
:1015400080818062808381E058968C930DC0D601A3
:101550005696ED91FC91579760835096ED91FC91D2
:10156000519780818064808381E090E00F90DF91CB
:10157000CF911F910F91FF90DF90CF900895BF9270
:10158000CF92DF92EF92FF92CF93DF93EC016A014B
:101590007B01B22EE889F98982E08083411581EED2
:1015A000580761057105A1F060E079E08DE390E0F6
:1015B000A70196010E942E0E2150310941095109BF
:1015C0005695479537952795211580E1380798F06E
:1015D000E889F989108260E874E88EE190E0A7015B
:1015E00096010E942E0E215031094109510956954C
:1015F000479537952795EC85FD853083EE85FF85EA
:101600002083188EEC89FD89B082EA89FB8980816C
:1016100080618083EA89FB89808188608083EA8990
:10162000FB89808180688083EA89FB8980818F7D46
:101630008083DF91CF91FF90EF90DF90CF90BF90AC
:1016400008951F920F920FB60F9211242F938F932C
:101650009F93EF93FF93E0917B02F0917C02808156
:10166000E0918102F091820282FD12C0908180910E
:1016700084028F5F8F7320918502821751F0E09171
:101680008402F0E0E559FD4F958F8093840201C0FC
:101690008081FF91EF919F918F912F910F900FBEBD
:1016A0000F901F9018951F920F920FB60F92112452
:1016B0002F933F934F935F936F937F938F939F935A
:1016C000AF93BF93EF93FF938BE692E00E94170ACC
:1016D000FF91EF91BF91AF919F918F917F916F910A
:1016E0005F914F913F912F910F900FBE0F901F90E0
:1016F00018958BE692E00E94DC0921E0892B09F421
:1017000020E0822F089510926E0210926D0288EEF2
:1017100093E0A0E0B0E080936F0290937002A093FA
:101720007102B093720284E192E090936C02809314
:101730006B0285EC90E0909378028093770284ECC2
:1017400090E090937A028093790280EC90E09093FD
:101750007C0280937B0281EC90E090937E028093E8
:101760007D0282EC90E09093800280937F0286EC71
:1017700090E09093820280938102109284021092F2
:1017800085021092860210928702089508950E94A1
:10179000E0080E94C60B0E946001C9E0DAE00E94E6
:1017A0004F032097E1F30E94090AF9CFCF92DF920D
:1017B000EF92FF920F931F93CF93DF936C017A0107
:1017C000EB01E60EF71E00E010E0CE15DF0561F03C
:1017D0006991D601ED91FC910190F081E02DC60157
:1017E0000995080F191FF1CFC801DF91CF911F9103
:1017F0000F91FF90EF90DF90CF90089561157105E4
:1018000081F0DB010D900020E9F7AD014150510955
:10181000461B570BDC01ED91FC910280F381E02D1A
:10182000099480E090E008950C94FE0BDC01ED91AA
:10183000FC910190F081E02D09948F929F92AF92DC
:10184000BF92CF92DF92EF92FF920F931F93CF93AD
:10185000DF93CDB7DEB7A1970FB6F894DEBF0FBE0A
:10186000CDBF7C01C42EE52FCB01D22E19A221E0E1
:101870002D1510F02AE0D22E8E010F5D1F4F8D2CFA
:10188000912CA12CB12C6C2D7E2FA50194010E94CE
:101890002E0E8C2DD29E80191124015011098A30F0
:1018A00014F4805D01C0895CF80180832115310545
:1018B0004105510521F0C22EE32FCA01E4CFB80142
:1018C000C7010E94FE0BA1960FB6F894DEBF0FBEB3
:1018D000CDBFDF91CF911F910F91FF90EF90DF90DF
:1018E000CF90BF90AF909F908F900895CF92DF924E
:1018F000EF92FF920F931F93CF93DF93EC016A0156
:101900007B012115310579F4E881F9810190F0819D
:10191000E02D642FDF91CF911F910F91FF90EF90F9
:10192000DF90CF9009942A303105E9F477FF1AC08F
:101930006DE20E94160C8C0144275527BA014C1900
:101940005D096E097F092AE0CE010E941D0C800FFF
:10195000911FDF91CF911F910F91FF90EF90DF903A
:10196000CF9008952AE0B701A601CE01DF91CF9173
:101970001F910F91FF90EF90DF90CF900C941D0C72
:101980009A01AB01662757FD6095762F0C94760C73
:10199000FC01808191810C94EE0ECF93DF93EC01DA
:1019A00088819981009711F00E94EE0E19821882A9
:1019B0001D821C821B821A82DF91CF9108950F93A2
:1019C0001F93CF93DF93EC018B016F5F7F4F888173
:1019D00099810E947D0F009731F0998388831B8342
:1019E0000A8381E001C080E0DF91CF911F910F91C8
:1019F0000895CF93DF93EC0188819981892B29F099
:101A00008A819B818617970760F4CE010E94DF0CC4
:101A1000882341F08C819D81892B19F4E881F9811B
:101A2000108281E0DF91CF910895EF92FF920F93A2
:101A30001F93CF93DF93EC017B018A01BA010E94CF
:101A4000F90C811104C0CE010E94CD0C07C01D838A
:101A50000C83B701888199810E947710CE01DF91B4
:101A6000CF911F910F91FF90EF900895FC0111828B
:101A7000108213821282158214826115710559F049
:101A8000FB0101900020E9F7AF0141505109461BCD
:101A9000570B0C94150D0895CF93DF93EC0161154E
:101AA000710561F0FB0101900020E9F7AF014150A1
:101AB0005109461B570B0E94150D02C00E94CD0C08
:101AC000CE01DF91CF910895EF92FF920F931F9374
:101AD000CF93DF93EC017B010C811D8161157105B2
:101AE00011F480E016C04115510591F0040F151F47
:101AF000B8010E94F90C8823A1F3288139818C81D7
:101B00009D81B701820F931F0E9477101D830C8364
:101B100081E0DF91CF911F910F91FF90EF90089599
:101B2000CF93DF9300D0CDB7DEB769831A8241E04F
:101B300050E0BE016F5F7F4F0E94640D0F900F90C9
:101B4000DF91CF910895DF92EF92FF920F931F9351
:101B5000CF93DF93EC018C819D814817590718F0D2
:101B60008FEF9FEF1BC08A010F5F1F4FE881F98144
:101B7000E00FF11FD0801082E880F980772767FDA1
:101B80007095C7010E947E10F701E00FF11FD0820F
:101B9000009731F328813981821B930BDF91CF911C
:101BA0001F910F91FF90EF90DF900895FC01448109
:101BB0005581415051090C94A30DBF92CF92DF92F1
:101BC000EF92FF920F931F93CF93DF936C017B01F2
:101BD000EA0189012417350720F48D2FE901042F2C
:101BE000182F63E471E0C6010E94360DD7011496E8
:101BF0008D919C911597C817D907C8F48017910744
:101C000008F48C01D701ED91FC911197E00FF11FC1
:101C1000B08010826D917C916C0F7D1FC6010E9477
:101C20004C0DD701ED91FC91E00FF11FB082C60180
:101C3000DF91CF911F910F91FF90EF90DF90CF90A8
:101C4000BF900895FC0180819181009711F00C9460
:101C5000471060E070E0CB0108950895A1E21A2ECC
:101C6000AA1BBB1BFD010DC0AA1FBB1FEE1FFF1F40
:101C7000A217B307E407F50720F0A21BB30BE40B90
:101C8000F50B661F771F881F991F1A9469F76095D7
:101C90007095809590959B01AC01BD01CF01089591
:101CA000EE0FFF1F0590F491E02D0994CF93DF9381
:101CB0008230910510F482E090E0E0910A03F09107
:101CC0000B0320E030E0A0E0B0E0309739F1408134
:101CD000518148175907B8F04817590771F48281A4
:101CE0009381109729F013969C938E9312972CC092
:101CF00090930B0380930A0327C02115310531F01F
:101D00004217530718F0A901DB0101C0EF019A0146
:101D1000BD01DF010280F381E02DD7CF2115310510
:101D2000F9F0281B390B2430310580F48A819B811E
:101D30006115710521F0FB019383828304C09093A8
:101D40000B0380930A03FE01329644C0FE01E20FAA
:101D5000F31F8193919322503109398328833AC02C
:101D60002091080330910903232B41F420910201B3
:101D7000309103013093090320930803209100015F
:101D8000309101012115310541F42DB73EB7409145
:101D9000040150910501241B350BE0910803F091DB
:101DA0000903E217F307A0F42E1B3F0B281739078E
:101DB00078F0AC014E5F5F4F2417350748F04E0FA7
:101DC0005F1F50930903409308038193919302C0CE
:101DD000E0E0F0E0CF01DF91CF910895CF93DF9362
:101DE000009709F487C0FC01329713821282C091D8
:101DF0000A03D0910B03209781F420813181280FB1
:101E0000391F80910803909109038217930779F590
:101E1000F0930903E09308036DC0DE0120E030E099
:101E2000AE17BF0750F412964D915C9113979D0128
:101E30004115510509F1DA01F3CFB383A283408143
:101E40005181840F951F8A179B0771F48D919C9186
:101E50001197840F951F02969183808312968D911E
:101E60009C911397938382832115310529F4F09374
:101E70000B03E0930A033EC0D9011396FC93EE9343
:101E800012974D915D91A40FB51FEA17FB0779F4E6
:101E900080819181840F951F0296D90111969C93A0
:101EA0008E938281938113969C938E931297E0E098
:101EB000F0E08A819B81009719F0FE01EC01F9CFD7
:101EC000CE01029628813981820F931F2091080349
:101ED000309109032817390769F4309729F41092D3
:101EE0000B0310920A0302C013821282D0930903DB
:101EF000C0930803DF91CF910895A0E0B0E0E3E83C
:101F0000FFE00C94B810EC01CB01209719F40E946B
:101F1000560EB8C0FE01E60FF71F9E012250310990
:101F2000E217F30708F4ACC0D9010D911C91119789
:101F300006171707B8F00530110508F49FC0A8016F
:101F4000445051094617570708F498C00250110928
:101F5000061B170B019311936D937C93CF010E9485
:101F6000EE0E8CC05B01A01AB10A4E01800E911ECC
:101F7000A0910A03B0910B03612C712C60E070E01A
:101F8000109709F449C0A815B905C9F5ED90FC9062
:101F90001197670142E0C40ED11CCA14DB0478F12A
:101FA00047018A189B08640142E0C40ED11C1296B6
:101FB000BC9012971396AC91B5E0CB16D10440F0CB
:101FC000B282A38391828082D9018D939C9309C0B0
:101FD0000E5F1F4F0E0D1F1DF90111830083EB2DA6
:101FE000FA2F6115710531F0DB011396FC93EE9326
:101FF000129744C0F0930B03E0930A033FC06D9126
:102000007C9111976616770608F43B01BD01129684
:102010000D90BC91A02DB4CF60910803709109037D
:1020200068157905E9F468167906D0F44091000145
:10203000509101014115510541F44DB75EB76091D2
:10204000040170910501461B570BE417F507C0F416
:10205000F0930903E0930803F901918380830EC094
:102060000E94560E7C01009759F0A801BE010E9403
:102070006E10CE010E94EE0EC70104C0CE0102C058
:1020800080E090E0CDB7DEB7EEE00C94D4101F9363
:10209000FC0199278827BC01E89411911032E9F3DB
:1020A000193010F01E30C8F31B3251F01D3249F4C4
:1020B000689406C00E948910610F711D811D911DD9
:1020C000119110531A30B0F33EF4909580957095AD
:1020D00061957F4F8F4F9F4F1F910895FB01DC014A
:1020E00002C001900D9241505040D8F70895FB0175
:1020F000DC0101900D920020E1F70895FC0181E0E0
:1021000090E00190061609F4CF010020D1F7019765
:102110000895592F482F372F262F660F771F881FB6
:10212000991F660F771F881F991F620F731F841FE7
:10213000951F660F771F881F991F0895F999FECF85
:1021400092BD81BDF89A992780B50895262FF999F7
:10215000FECF1FBA92BD81BD20BD0FB6F894FA9A8A
:10216000F99A0FBE019608952F923F924F925F9277
:102170006F927F928F929F92AF92BF92CF92DF9297
:10218000EF92FF920F931F93CF93DF93CDB7DEB7FC
:10219000CA1BDB0B0FB6F894DEBF0FBECDBF099490
:1021A0002A88398848885F846E847D848C849B84E7
:1021B000AA84B984C884DF80EE80FD800C811B81F5
:1021C000AA81B981CE0FD11D0FB6F894DEBF0FBE24
:1021D000CDBFED01089510E0C6ECD0E004C0FE01D3
:1021E0000E94520E2296C83CD107C9F7F894FFCF3F
:1021F00000000C038000001B0E040E1B00000001F9
:1022000003161C08000032000A002D2D2D2D2D2D47
:102210002D2D2D2D2D2D2D2D2D2D2D2D2D2D002028
:102220002020202020204541474C452020202020F0
:10223000202020002020434F4E54524F4C20535911
:102240005354454D5320202000202020574952450B
:102250004C45535320574154455220202000202004
:102260004C4556454C20434F4E54524F4C4C4552D2
:1022700020200055505045522054414E4B203D20C7
:102280004C3100204C32004C4F5745522054414EA7
:102290004B203D204C31004D4F544F52204F46466D
:1022A00020494E2000204D696E004D4F544F522062
:1022B0004F4E20494E20004F4E203D2000204D2FF4
:1022C000004F4646203D2000204D0054494D4552C8
:1022D000204F46462E2E2E21004D4F544F522000A7
:1022E0004F4E2F004F46462F00504F57455220006B
:1022F0004F4B004641494C0000000000B507D60B8B
:10230000000000005A0AD60BDC09F509E709380A73
:00000001FF
