:100000000C945D000C9485000C9485000C94850084
:100010000C9485000C9485000C9485000C9485004C
:100020000C9485000C9485000C9485000C9485003C
:100030000C9485000C9485000C9485000C9485002C
:100040000C9440040C9485000C945C030C948E0377
:100050000C9485000C9485000C9485000C9485000C
:100060000C9485000C94850000000008000201003B
:100070000003040700000000000000000102040863
:100080001020408001020408102001020408102002
:10009000040404040404040402020202020203032E
:1000A0000303030300000000250028002B000000CC
:1000B0000000240027002A00BE0311241FBECFEF3A
:1000C000D8E0DEBFCDBF11E0A0E0B1E0EEEDF9E099
:1000D00002C005900D92A031B107D9F721E0A0E14F
:1000E000B1E001C01D92A63BB207E1F710E0CAEBF8
:1000F000D0E004C02297FE010E94E904C83BD1076A
:10010000C9F70E9402040C94ED040C94000060E016
:1001100082E00E94E10160E083E00E94E10160E092
:1001200084E00E94E10160E085E00E94E10160E07E
:1001300086E00E94E10160E087E00E94E10160E06A
:1001400088E00E94E10160E089E00E94E10160E056
:100150008AE00E94E10160E08BE00E94E10160E042
:100160008CE00E94E10160E08EE00E94E10160E02D
:100170008FE00E94E10160E080E10E94E10160E027
:1001800081E10E94E10160E082E10C94E10161E023
:1001900082E00E94A80161E083E00E94A80161E082
:1001A00084E00E94A80161E085E00E94A80161E06E
:1001B00086E00E94A80161E087E00E94A80161E05A
:1001C00088E00E94A80161E089E00E94A80161E046
:1001D0008AE00E94A80161E08BE00E94A80161E032
:1001E0008CE00E94A80161E08EE00E94A80161E01D
:1001F0008FE00E94A80161E080E10E94A80161E017
:1002000081E10E94A80161E082E10E94A8010E94B0
:10021000870026E040E855E260E070E080E191E090
:100220000C94FA020895CF9380E191E00E941702A6
:10023000892B09F462C080E191E00E943002C82F4E
:10024000682F80E191E00E943904C83519F40E94BA
:100250008700EACFC13419F461E082E04BC0C234B8
:1002600019F461E083E046C0C33419F461E084E02E
:1002700041C0C43419F461E085E03CC0C53419F4D0
:1002800061E086E037C0C63419F461E087E032C02F
:10029000C73419F461E088E02DC0C83419F461E076
:1002A00089E028C0C93419F461E08AE023C0CA3467
:1002B00019F461E08BE01EC0CB3419F461E08CE0EE
:1002C00019C0CC3419F461E08EE014C0CD3419F4B7
:1002D00061E08FE00FC0CE3419F461E080E10AC024
:1002E000CF3419F461E081E105C0C03509F09CCF3D
:1002F00061E082E10E94E10197CFCF9108958330C0
:1003000081F028F4813099F08230A1F0089587308F
:10031000A9F08830B9F08430D1F4809180008F7DCD
:1003200003C0809180008F7780938000089584B50A
:100330008F7702C084B58F7D84BD08958091B00011
:100340008F7703C08091B0008F7D8093B0000895B7
:10035000CF93DF9390E0FC01E458FF4F2491FC0120
:10036000E057FF4F8491882349F190E0880F991F4F
:10037000FC01E255FF4FA591B4918C559F4FFC01B4
:10038000C591D4919FB7611108C0F8948C912095C4
:1003900082238C93888182230AC0623051F4F894BE
:1003A0008C91322F309583238C938881822B888384
:1003B00004C0F8948C91822B8C939FBFDF91CF91D6
:1003C00008950F931F93CF93DF931F92CDB7DEB79E
:1003D000282F30E0F901E859FF4F8491F901E458E2
:1003E000FF4F1491F901E057FF4F04910023C9F02A
:1003F000882321F069830E947F016981E02FF0E06A
:10040000EE0FFF1FEC55FF4FA591B4919FB7F894E5
:100410008C91611103C01095812301C0812B8C93B5
:100420009FBF0F90DF91CF911F910F910895FC0115
:10043000818D228D90E0805C9F4F821B91098F738C
:1004400099270895FC01918D828D981731F0828D46
:10045000E80FF11D858D90E008958FEF9FEF0895CF
:10046000FC01918D828D981761F0828DDF01A80FBC
:10047000B11D5D968C91928D9F5F9F73928F90E0DE
:1004800008958FEF9FEF089584EB93E0892B49F057
:1004900083E191E0892B29F00E94B40381110C942F
:1004A00013010895FC01848DDF01A80FB11DA35A2B
:1004B000BF4F2C91848D90E001968F739927848F84
:1004C000A689B7892C93A089B1898C9180648C937B
:1004D000938D848D981306C00288F389E02D808166
:1004E0008F7D80830895CF93DF93EC01888D8823DF
:1004F000C9F0EA89FB89808185FD05C0A889B98991
:100500008C9186FD0FC00FB607FCF5CF808185FF6B
:10051000F2CFA889B9898C9185FFEDCFCE010E94D9
:100520005202E7CFDF91CF910895CF92DF92FF92F1
:100530000F931F93CF93DF931F92CDB7DEB76C015C
:10054000DC015B969C915B975C968C915C97981311
:1005500007C05096ED91FC915197808185FD32C086
:10056000F601038D10E00F5F1F4F0F731127F02E60
:10057000F601848DF81211C00FB607FCF9CFD60131
:100580005096ED91FC915197808185FFF1CFC60186
:1005900069830E9452026981EBCF838DE80FF11DC0
:1005A000E35AFF4F6083D6015B960C935B9752969C
:1005B000ED91FC91539780818062808381E0589611
:1005C0008C930DC0D6015696ED91FC9157976083A0
:1005D0005096ED91FC91519780818064808381E0F9
:1005E00090E00F90DF91CF911F910F91FF90DF90DE
:1005F000CF900895BF92CF92DF92EF92FF92CF9368
:10060000DF93EC016A017B01B22EE889F98982E06F
:100610008083411581EE580761057105A1F060E006
:1006200079E08DE390E0A70196010E94C504215076
:100630003109410951095695479537952795211557
:1006400080E1380798F0E889F989108260E874E859
:100650008EE190E0A70196010E94C5042150310966
:10066000410951095695479537952795EC85FD85A4
:100670003083EE85FF852083188EEC89FD89B0825A
:10068000EA89FB89808180618083EA89FB89808196
:1006900088608083EA89FB89808180688083EA8919
:1006A000FB8980818F7D8083DF91CF91FF90EF90D8
:1006B000DF90CF90BF9008951F920F920FB60F92C8
:1006C00011242F938F939F93EF93FF93E091200139
:1006D000F09121018081E0912601F091270182FDB6
:1006E00012C09081809129018F5F8F7320912A0120
:1006F000821751F0E0912901F0E0E05FFE4F958F05
:100700008093290101C08081FF91EF919F918F918A
:100710002F910F900FBE0F901F9018951F920F9260
:100720000FB60F9211242F933F934F935F936F93C4
:100730007F938F939F93AF93BF93EF93FF9380E14A
:1007400091E00E945202FF91EF91BF91AF919F9172
:100750008F917F916F915F914F913F912F910F906A
:100760000FBE0F901F90189580E191E00E94170234
:1007700021E0892B09F420E0822F089510921301C3
:100780001092120188EE93E0A0E0B0E08093140193
:1007900090931501A0931601B093170184E091E0A6
:1007A000909311018093100185EC90E090931D01CE
:1007B00080931C0184EC90E090931F0180931E01B4
:1007C00080EC90E0909321018093200181EC90E0F7
:1007D000909323018093220182EC90E09093250175
:1007E0008093240186EC90E090932701809326016A
:1007F0001092290110922A0110922B0110922C01C3
:10080000089508950E948A040E9401040E94C7006E
:10081000C4E4D2E00E9412012097E1F30E94440256
:10082000F9CFCF92DF92EF92FF920F931F93CF9366
:10083000DF936C017A01EB01E60EF71E00E010E099
:10084000CE15DF0561F06991D601ED91FC91019023
:10085000F081E02DC6010995080F191FF1CFC801DD
:10086000DF91CF911F910F91FF90EF90DF90CF908C
:100870000895DC01ED91FC910190F081E02D099447
:100880001F920F920FB60F9211242F933F938F93C5
:100890009F93AF93BF938091AE019091AF01A091D0
:1008A000B001B091B1013091AD0123E0230F2D379C
:1008B00020F40196A11DB11D05C026E8230F029664
:1008C000A11DB11D2093AD018093AE019093AF01A6
:1008D000A093B001B093B1018091B2019091B301A6
:1008E000A091B401B091B5010196A11DB11D8093F5
:1008F000B2019093B301A093B401B093B501BF913D
:10090000AF919F918F913F912F910F900FBE0F90BC
:100910001F901895789484B5826084BD84B58160F9
:1009200084BD85B5826085BD85B5816085BDEEE6F7
:10093000F0E0808181608083E1E8F0E010828081D6
:1009400082608083808181608083E0E8F0E0808144
:1009500081608083E1EBF0E0808184608083E0EB64
:10096000F0E0808181608083EAE7F0E0808184604C
:1009700080838081826080838081816080838081A8
:10098000806880831092C1000895A1E21A2EAA1BEC
:10099000BB1BFD010DC0AA1FBB1FEE1FFF1FA2172F
:1009A000B307E407F50720F0A21BB30BE40BF50B2C
:1009B000661F771F881F991F1A9469F760957095B5
:1009C000809590959B01AC01BD01CF010895EE0F7C
:0E09D000FF1F0590F491E02D0994F894FFCFDD
:1009DE000000000095021104170230022202730279
:00000001FF
