:100000000C945D000C9485000C9485000C94850084
:100010000C9485000C9485000C9485000C9485004C
:100020000C9485000C9485000C9485000C9485003C
:100030000C9485000C9485000C9485000C9485002C
:100040000C9464020C9485000C942E050C946005AD
:100050000C9485000C9485000C9485000C9485000C
:100060000C9485000C94850000000008000201003B
:100070000003040700000000000000000102040863
:100080001020408001020408102001020408102002
:10009000040404040404040402020202020203032E
:1000A0000303030300000000250028002B000000CC
:1000B0000000240027002A00900511241FBECFEF66
:1000C000D8E0DEBFCDBF11E0A0E0B1E0E0EDF4E1AB
:1000D00002C005900D92AE32B107D9F721E0AEE231
:1000E000B1E001C01D92AC3DB207E1F710E0CAEBF0
:1000F000D0E004C02297FE010E94620AC83BD107EB
:10010000C9F70E94D4050C94660A0C94000026E0FE
:1001100040E855E260E070E08FE391E00E94CC049B
:1001200061E083E00E947A0361E084E00E947A0348
:1001300060E083E00E94B30360E084E00C94B303CA
:10014000CF92DF92EF92FF926B017C0120E030E0D2
:10015000A9010E94AB0987FD0DC024EA30E74DE7F5
:100160005FE3C701B6010E945C0887FF03C081E01E
:1001700090E0C9C024EA30E74DE75FE3C701B6016C
:100180000E94AB0987FD0DC023EC35EF48EA5FE321
:10019000C701B6010E945C0887FF03C082E090E0BF
:1001A000B2C023EC35EF48EA5FE3C701B6010E9415
:1001B000AB0987FD0DC02CEE31E548ED5FE3C701CB
:1001C000B6010E945C0887FF03C083E090E09BC0FB
:1001D0002CEE31E548ED5FE3C701B6010E94AB09A3
:1001E00087FD0DC028EB3EE145E050E4C701B601B4
:1001F0000E945C0887FF03C084E090E084C028EB85
:100200003EE145E050E4C701B6010E94AB0987FD1D
:100210000DC020E030E040E250E4C701B6010E948A
:100220005C0887FF03C085E090E06DC020E030E00F
:1002300040E250E4C701B6010E94AB0987FD0DC042
:100240002FE135E84BE350E4C701B6010E945C089A
:1002500087FF03C086E090E056C02FE135E84BE30E
:1002600050E4C701B6010E94AB0987FD0DC024E12F
:100270003EEA47E550E4C701B6010E945C0887FFEB
:1002800003C087E090E03FC024E13EEA47E550E448
:10029000C701B6010E94AB0987FD0DC021E73DE310
:1002A0004AE650E4C701B6010E945C0887FF03C01C
:1002B00088E090E028C021E73DE34AE650E4C7012A
:1002C000B6010E94AB0987FD0DC02EEA37E449E86C
:1002D00050E4C701B6010E945C0887FF03C089E0B3
:1002E00090E011C02EEA37E449E850E4C701B601B6
:1002F0000E94AB0987FF05C010922F0110922E01BA
:1003000006C08AE090E090932F0180932E01FF9029
:10031000EF90DF90CF900895CF93DF9361E083E07B
:100320000E94B30368EE73E080E090E00E94D10287
:10033000C0E0D0E080912E0190912F01C817D9071D
:10034000B4F461E084E00E94B30368EE73E080E0FF
:1003500090E00E94D10260E084E00E94B30368EE66
:1003600073E080E090E00E94D1022196E3CF60E04C
:1003700083E0DF91CF910C94B3030F931F93CF933E
:10038000DF9360E177E280E090E00E94D10261E0DB
:1003900082E10E947A0360E08EE00E947A0361E0CD
:1003A00082E10E94B30368EE73E080E090E00E9477
:1003B000D1021092350110923401C5E0D0E00091D5
:1003C0003401109135018EE00E943403800F911F9B
:1003D000909335018093340162E370E080E090E017
:1003E0000E94D102219759F760E082E10E94B30395
:1003F00060E082E10E947A0361E08EE00E947A036D
:1004000061E08EE00E94B30364E175E080E090E07B
:100410000E94D10260E08EE00E94B303809134011B
:100420009091350165E070E00E94160A60933401F6
:1004300070933501CB0177FF02C081509C4F892F0B
:10044000990F990B8595859525E0289FB001299FE7
:10045000700D1124882777FD8095982F0E94FB0846
:10046000AB01BC01409330015093310160933201E4
:100470007093330122E030E08FE391E00E94E407C3
:10048000609130017091310180913201909133017E
:100490000E94A00061E071E08FE391E00E943C06C1
:1004A00060912E0170912F014AE050E08FE391E0BE
:1004B0000E94F1068FE391E00E942806DF91CF9120
:1004C0001F910F910C948C011F920F920FB60F92F7
:1004D00011242F933F938F939F93AF93BF9380915A
:1004E000370190913801A0913901B0913A013091D2
:1004F000360123E0230F2D3720F40196A11DB11DF5
:1005000005C026E8230F0296A11DB11D20933601D8
:100510008093370190933801A0933901B0933A0149
:1005200080913B0190913C01A0913D01B0913E0131
:100530000196A11DB11D80933B0190933C01A093B6
:100540003D01B0933E01BF91AF919F918F913F913B
:100550002F910F900FBE0F901F9018953FB7F894F2
:1005600080913B0190913C01A0913D01B0913E01F1
:1005700026B5A89B05C02F3F19F00196A11DB11DFE
:100580003FBF6627782F892F9A2F620F711D811D1B
:10059000911D42E0660F771F881F991F4A95D1F77A
:1005A0000895CF92DF92EF92FF92CF93DF936B018A
:1005B0007C010E94AE02EB01C114D104E104F104FC
:1005C00089F00E94F6070E94AE026C1B7D0B683E0C
:1005D000734090F381E0C81AD108E108F108C851CE
:1005E000DC4FEACFDF91CF91FF90EF90DF90CF907B
:1005F0000895789484B5826084BD84B5816084BD9B
:1006000085B5826085BD85B5816085BDEEE6F0E08B
:10061000808181608083E1E8F0E0108280818260E7
:100620008083808181608083E0E8F0E08081816068
:100630008083E1EBF0E0808184608083E0EBF0E098
:10064000808181608083EAE7F0E08081846080833C
:1006500080818260808380818160808380818068E6
:1006600080831092C10008958E3008F08E508770FC
:100670002091000190E4299F90011124822B809306
:100680007C0080917A00806480937A0080917A0067
:1006900086FDFCCF809178002091790090E0922B2C
:1006A0000895833081F028F4813099F08230A1F0F0
:1006B00008958730A9F08830B9F08430D1F4809162
:1006C00080008F7D03C0809180008F7780938000B1
:1006D000089584B58F7702C084B58F7D84BD089559
:1006E0008091B0008F7703C08091B0008F7D8093A0
:1006F000B0000895CF93DF9390E0FC01E458FF4FE2
:100700002491FC01E057FF4F8491882349F190E048
:10071000880F991FFC01E255FF4FA591B4918C55AC
:100720009F4FFC01C591D4919FB7611108C0F89407
:100730008C91209582238C93888182230AC0623019
:1007400051F4F8948C91322F309583238C938881C7
:10075000822B888304C0F8948C91822B8C939FBF4A
:10076000DF91CF9108950F931F93CF93DF931F9243
:10077000CDB7DEB7282F30E0F901E859FF4F84915B
:10078000F901E458FF4F1491F901E057FF4F04912C
:100790000023C9F0882321F069830E9451036981F5
:1007A000E02FF0E0EE0FFF1FEC55FF4FA591B49145
:1007B0009FB7F8948C91611103C01095812301C0FB
:1007C000812B8C939FBF0F90DF91CF911F910F9141
:1007D0000895FC01818D228D90E0805C9F4F821BEB
:1007E00091098F7399270895FC01918D828D981737
:1007F00031F0828DE80FF11D858D90E008958FEF27
:100800009FEF0895FC01918D828D981761F0828D84
:10081000DF01A80FB11D5D968C91928D9F5F9F7334
:10082000928F90E008958FEF9FEF089586E895E00E
:10083000892B49F080E090E0892B29F00E94860501
:1008400081110C9400000895FC01848DDF01A80F34
:10085000B11DA35ABF4F2C91848D90E001968F73E8
:100860009927848FA689B7892C93A089B1898C9107
:1008700080648C93938D848D981306C00288F389CD
:10088000E02D80818F7D80830895CF93DF93EC01ED
:10089000888D8823C9F0EA89FB89808185FD05C0A0
:1008A000A889B9898C9186FD0FC00FB607FCF5CFDA
:1008B000808185FFF2CFA889B9898C9185FFEDCF22
:1008C000CE010E942404E7CFDF91CF910895CF920B
:1008D000DF92FF920F931F93CF93DF931F92CDB7B9
:1008E000DEB76C01DC015B969C915B975C968C910A
:1008F0005C97981307C05096ED91FC9151978081B9
:1009000085FD32C0F601038D10E00F5F1F4F0F739E
:100910001127F02EF601848DF81211C00FB607FCD6
:10092000F9CFD6015096ED91FC915197808185FFCA
:10093000F1CFC60169830E9424046981EBCF838DC6
:10094000E80FF11DE35AFF4F6083D6015B960C93CD
:100950005B975296ED91FC915397808180628083E2
:1009600081E058968C930DC0D6015696ED91FC917E
:10097000579760835096ED91FC91519780818064E8
:10098000808381E090E00F90DF91CF911F910F91D4
:10099000FF90DF90CF900895BF92CF92DF92EF92B9
:1009A000FF92CF93DF93EC016A017B01B22EE889BD
:1009B000F98982E08083411581EE58076105710550
:1009C000A1F060E079E08DE390E0A70196010E943C
:1009D0002A0A215031094109510956954795379501
:1009E0002795211580E1380798F0E889F989108268
:1009F00060E874E88EE190E0A70196010E942A0A5F
:100A00002150310941095109569547953795279548
:100A1000EC85FD853083EE85FF852083188EEC897B
:100A2000FD89B082EA89FB89808180618083EA89BF
:100A3000FB89808188608083EA89FB898081806866
:100A40008083EA89FB8980818F7D8083DF91CF91CC
:100A5000FF90EF90DF90CF90BF9008951F920F927C
:100A60000FB60F9211242F938F939F93EF93FF93C1
:100A7000E0914F01F09150018081E0915501F0919A
:100A8000560182FD12C09081809158018F5F8F7353
:100A900020915901821751F0E0915801F0E0E15C9A
:100AA000FE4F958F8093580101C08081FF91EF9197
:100AB0009F918F912F910F900FBE0F901F901895BF
:100AC0001F920F920FB60F9211242F933F934F93C3
:100AD0005F936F937F938F939F93AF93BF93EF93A6
:100AE000FF938FE391E00E942404FF91EF91BF9167
:100AF000AF919F918F917F916F915F914F913F91B6
:100B00002F910F900FBE0F901F9018958FE391E0DB
:100B10000E94E90321E0892B09F420E0822F089547
:100B2000109242011092410188EE93E0A0E0B0E003
:100B30008093430190934401A0934501B0934601F3
:100B400084E191E09093400180933F0185EC90E037
:100B500090934C0180934B0184EC90E090934E0174
:100B600080934D0180EC90E09093500180934F0171
:100B700081EC90E0909352018093510182EC90E0DF
:100B8000909354018093530186EC90E0909356012A
:100B900080935501109258011092590110925A01F8
:100BA00010925B01089508950E94F9020E94D305F6
:100BB0000E948700C6E1D4E00E94BD012097E1F3C6
:100BC0000E941604F9CFCF92DF92EF92FF920F931B
:100BD0001F93CF93DF936C017A01EB01E60EF71EB2
:100BE00000E010E0CE15DF0561F06991D601ED91CE
:100BF000FC910190F081E02DC6010995080F191FA5
:100C0000F1CFC801DF91CF911F910F91FF90EF902D
:100C1000DF90CF9008956115710581F0DB010D9093
:100C20000020E9F7AD0141505109461B570BDC018B
:100C3000ED91FC910280F381E02D099480E090E039
:100C40000895DC01ED91FC910190F081E02D099473
:100C50000F931F93CF93DF93EC016DE00E94210669
:100C60008C016AE0CE010E942106800F911FDF9166
:100C7000CF911F910F9108950F931F93CF93DF93FF
:100C8000EC010E940B068C01CE010E942806800F09
:100C9000911FDF91CF911F910F9108958F929F9295
:100CA000AF92BF92CF92DF92EF92FF920F931F937A
:100CB000CF93DF93CDB7DEB7A1970FB6F894DEBF21
:100CC0000FBECDBF7C01C42EE52FCB01D22E19A2C1
:100CD00021E02D1510F02AE0D22E8E010F5D1F4F5E
:100CE0008D2C912CA12CB12C6C2D7E2FA501940163
:100CF0000E942A0A8C2DD29E8019112401501109BC
:100D00008A3014F4805D01C0895CF801808321156C
:100D100031054105510521F0C22EE32FCA01E4CF70
:100D2000B801C7010E940B06A1960FB6F894DEBF6A
:100D30000FBECDBFDF91CF911F910F91FF90EF902C
:100D4000DF90CF90BF90AF909F908F900895CF92FB
:100D5000DF92EF92FF920F931F93CF93DF93EC01FB
:100D60006A017B012115310579F4E881F98101904F
:100D7000F081E02D642FDF91CF911F910F91FF90B3
:100D8000EF90DF90CF9009942A303105E9F477FF96
:100D90001AC06DE20E9421068C0144275527BA0132
:100DA0004C195D096E097F092AE0CE010E944E06AA
:100DB000800F911FDF91CF911F910F91FF90EF90C6
:100DC000DF90CF9008952AE0B701A601CE01DF9110
:100DD000CF911F910F91FF90EF90DF90CF900C94E7
:100DE0004E069A01AB01662757FD6095762F0C944D
:100DF000A7064F925F926F927F928F929F92AF92CF
:100E0000BF92CF92DF92EF92FF920F931F93CF93F7
:100E1000DF93EC016A017B01B22E9A01AB01C7019D
:100E2000B6010E94120A882319F060E271E027C01F
:100E300026013701E89477F82FEF3FEF4FE75FE7A0
:100E4000C301B2010E94120A81110DC02FEF3FEFC2
:100E50004FE75FE7C301B2010E945C0818161CF45B
:100E600064E271E00CC02FEF3FEF4FE75FE4C70192
:100E7000B6010E94AB091816ACF468E271E0CE012D
:100E8000DF91CF911F910F91FF90EF90DF90CF9066
:100E9000BF90AF909F908F907F906F905F904F909A
:100EA0000C940B062FEF3FEF4FE75FECC701B60145
:100EB0000E945C0887FDE1CF20E030E0A901C70176
:100EC000B6010E945C0887FF0AC06DE2CE010E9455
:100ED00021068C01F7FAF094F7F8F09402C000E0D4
:100EE00010E0A12C60E070E080E09FE3AB1441F0E3
:100EF00020E030E040E251E40E946008A394F6CF85
:100F00009B01AC01C701B6010E94F8076B017C018F
:100F10000E94CD082B013C010E94F9089B01AC0105
:100F2000C701B6010E94F7076B017C012AE0B301FB
:100F3000A201CE010E944E06080F191FBB2039F0F6
:100F40006CE271E0CE010E940B06080F191F7B2C8A
:100F5000772041F120E030E040E251E4C701B601E2
:100F60000E94AF096B017C010E94C8084B01AA24B2
:100F700097FCA094BA2C2AE030E0B501A401CE0180
:100F80000E94A706080F191FC501B4010E94FB08A3
:100F90009B01AC01C701B6010E94F7076B017C0100
:100FA0007A94D6CFC801DF91CF911F910F91FF9016
:100FB000EF90DF90CF90BF90AF909F908F907F90F9
:100FC0006F905F904F9008950F931F93CF93DF938F
:100FD000EC010E94F9068C01CE010E942806800FC8
:100FE000911FDF91CF911F910F910895089550584F
:100FF000BB27AA270ED075C166D130F06BD120F087
:1010000031F49F3F11F41EF45BC10EF4E095E7FB51
:1010100051C1E92F77D180F3BA17620773078407AC
:10102000950718F071F49EF58FC10EF4E0950B2E24
:10103000BA2FA02D0B01B90190010C01CA01A0012A
:101040001124FF27591B99F0593F50F4503E68F185
:101050001A16F040A22F232F342F4427585FF3CFC6
:10106000469537952795A795F0405395C9F77EF497
:101070001F16BA0B620B730B840BBAF09150A1F0E0
:10108000FF0FBB1F661F771F881FC2F70EC0BA0F66
:10109000621F731F841F48F4879577956795B795EE
:1010A000F7959E3F08F0B3CF9395880F08F09927E6
:1010B000EE0F979587950895D9D008F481E00895AB
:1010C0000CD00FC107D140F0FED030F021F45F3FCB
:1010D00019F0F0C0511139C1F3C014D198F399231C
:1010E000C9F35523B1F3951B550BBB27AA276217EC
:1010F0007307840738F09F5F5F4F220F331F441F31
:10110000AA1FA9F333D00E2E3AF0E0E830D0915068
:101110005040E695001CCAF729D0FE2F27D0660F55
:10112000771F881FBB1F261737074807AB07B0E894
:1011300009F0BB0B802DBF01FF2793585F4F2AF0AA
:101140009E3F510568F0B6C000C15F3FECF3983E8A
:10115000DCF3869577956795B795F7959F5FC9F707
:10116000880F911D9695879597F90895E1E0660F90
:10117000771F881FBB1F621773078407BA0720F009
:10118000621B730B840BBA0BEE1F88F7E095089572
:1011900004D06894B111D9C00895BCD088F09F578D
:1011A00090F0B92F9927B751A0F0D1F0660F771FB3
:1011B000881F991F1AF0BA95C9F712C0B13081F093
:1011C000C3D0B1E00895C0C0672F782F8827B85FDB
:1011D00039F0B93FCCF3869577956795B395D9F7F4
:1011E0003EF490958095709561957F4F8F4F9F4FFE
:1011F0000895E89409C097FB3EF49095809570950A
:1012000061957F4F8F4F9F4F9923A9F0F92F96E952
:10121000BB279395F695879577956795B795F111C7
:10122000F8CFFAF4BB0F11F460FF1BC06F5F7F4F64
:101230008F4F9F4F16C0882311F096E911C0772376
:1012400021F09EE8872F762F05C0662371F096E87F
:10125000862F70E060E02AF09A95660F771F881F4E
:10126000DAF7880F9695879597F90895990F0008F2
:10127000550FAA0BE0E8FEEF16161706E807F90768
:10128000C0F012161306E407F50798F0621B730B03
:10129000840B950B39F40A2661F0232B242B252B84
:1012A00021F408950A2609F4A140A6958FEF811D27
:1012B000811D089597F99F6780E870E060E00895C8
:1012C0009FEF80EC089500240A941616170618065E
:1012D0000906089500240A9412161306140605063A
:1012E0000895092E0394000C11F4882352F0BB0FCB
:1012F00040F4BF2B11F460FF04C06F5F7F4F8F4F2E
:101300009F4F089557FD9058440F551F59F05F3F68
:1013100071F04795880F97FB991F61F09F3F79F017
:1013200087950895121613061406551FF2CF469599
:10133000F1DF08C0161617061806991FF1CF86951B
:101340007105610508940895E894BB2766277727FF
:10135000CB0197F908958ADF08F48FEF08950BD039
:10136000C0CFB1DF28F0B6DF18F0952309F0A2CF87
:10137000A7CF1124EACFC6DFA0F3959FD1F3950F35
:1013800050E0551F629FF001729FBB27F00DB11D09
:10139000639FAA27F00DB11DAA1F649F6627B00D99
:1013A000A11D661F829F2227B00DA11D621F739F82
:1013B000B00DA11D621F839FA00D611D221F749F90
:1013C0003327A00D611D231F849F600D211D822FD7
:1013D000762F6A2F11249F5750408AF0E1F088231E
:1013E0004AF0EE0FFF1FBB1F661F771F881F91502B
:1013F0005040A9F79E3F510570F05CCFA6CF5F3FEC
:10140000ECF3983EDCF3869577956795B795F7955D
:10141000E7959F5FC1F7FE2B880F911D96958795E5
:1014200097F9089523DF880B990B089597FB072EF2
:1014300016F4009407D077FD09D00E944C0A07FCEF
:1014400005D03EF4909581959F4F089570956195D4
:101450007F4F0895A1E21A2EAA1BBB1BFD010DC0F0
:10146000AA1FBB1FEE1FFF1FA217B307E407F50754
:1014700020F0A21BB30BE40BF50B661F771F881F30
:10148000991F1A9469F760957095809590959B01C6
:10149000AC01BD01CF010895AA1BBB1B51E107C0E0
:1014A000AA1FBB1FA617B70710F0A61BB70B881FF4
:1014B000991F5A95A9F780959095BC01CD01089583
:1014C000EE0FFF1F0590F491E02D0994F894FFCFE3
:1014D000015761746572204C6576656C203D200073
:1014E000000000006704E305E9030204F403450477
:0E14F0006E616E00696E66006F7666002E00FB
:00000001FF
