:100000000C9462000C9484030C94B1030C948A0049
:100010000C948A000C948A000C948A000C948A0038
:100020000C948A000C948A000C948A000C948A0028
:100030000C948A000C948A000C948A000C948A0018
:100040000C94DE030C948A000C948A000C948A00B1
:100050000C948A000C948A000C948A000C948A00F8
:100060000C948A000C948A00000000080002010031
:100070000003040700000000000000000102040863
:100080001020408001020408102001020408102002
:10009000040404040404040402020202020203032E
:1000A00003030303000000002300260029000000D2
:1000B0000000250028002B0000000000240027007D
:1000C0002A00C60211241FBECFEFD8E0DEBFCDBF8D
:1000D00011E0A0E0B1E0ECEBFEE002C005900D9273
:1000E000A430B107D9F721E0A4E0B1E001C01D922E
:1000F000A134B207E1F710E0C4ECD0E004C02297CD
:10010000FE010E944207C23CD107C9F70E9499052F
:100110000C945C070C9400008CE291E00E941403A4
:1001200084E291E00E9414038CE191E00E941403A8
:1001300084E191E00E9414038CE091E00E9414039A
:100140008CE291E00E94600381111BC084E291E087
:100150000E9460038823A9F08CE191E00E94600373
:1001600081110FC08091000190910101029749F027
:100170008CE091E00E946003811103C083E090E075
:1001800036C08CE291E00E9460038823D9F084E2BB
:1001900091E00E946003811115C08CE191E00E9402
:1001A000600381110FC080910001909101010397BC
:1001B00049F084E191E00E946003811103C082E074
:1001C00090E015C08CE291E00E946003811113C0A1
:1001D00084E291E00E94600381110DC08CE191E006
:1001E0000E946003811101C0089584E090E0909323
:1001F00001018093000108950895CF92DF92EF925C
:10020000FF920F931F93CF93DF93CDB7DEB728975D
:100210000FB6F894DEBF0FBECDBF61E088E00E944C
:10022000390561E08AE00E94390584E191E00E948D
:100230001403C12CD12C760120E030E0A90184E127
:1002400091E02D833E834F8358870E9460032D8168
:100250003E814F81588581112AC08EE02D833E83D7
:100260004F8358870E94BA04AA2797FDA095BA2FFA
:10027000C80ED91EEA1EFB1E2D813E814F81588576
:100280002F5F3F4F4F4F5F4F6AEF70E080E090E08D
:100290002D833E834F8358870E94570484E191E069
:1002A0000E94140358854F813E812D81C8CF60E0A4
:1002B00088E00E94390560E08AE00E94390568E81C
:1002C00073E180E090E00E94570461E089E00E94C1
:1002D000390561E08BE00E9439058CE091E00E94D5
:1002E00014032D813E814F8158858CE091E02D8350
:1002F0003E834F8358870E9460032D813E814F814A
:10030000588581112AC08EE02D833E834F83588704
:100310000E94BA04AA2797FDA095BA2FC80ED91E2D
:10032000EA1EFB1E2D813E814F8158852F5F3F4F76
:100330004F4F5F4F6AEF70E080E090E02D833E8387
:100340004F8358870E9457048CE091E00E94140369
:1003500058854F813E812D81C8CF60E089E00E94A1
:10036000390560E08BE00E943905C701B6012D8197
:100370003E814F8158850E94FF06CA01B9010E9443
:1003800010066B017C0123E333E343E35FE30E9448
:100390009C069B01AC01C701B6010E94AA056983B6
:1003A0007A838B839C838E010F5F1F4FE12CF12C8E
:1003B000F80161918F01C7016D830E9446076D812D
:1003C000681719F0C7010E944E07FFEFEF1AFF0AE6
:1003D00084E0E816F10461F728960FB6F894DEBFC2
:1003E0000FBECDBFDF91CF911F910F91FF90EF9086
:1003F000DF90CF90089560E083E00E94000560E008
:1004000084E00E94000560E085E00E94000560E055
:1004100086E00E94000560E087E00E94000561E040
:1004200088E00E94000561E089E00E94000561E02B
:100430008AE00E94000561E08BE00E94000560E018
:100440008CE00E94000561E08DE00E94000560E004
:100450008EE00E94000563E070E08CE291E00E9473
:10046000EA0265E070E08CE291E00E94100364E033
:1004700070E084E291E00E94EA0265E070E084E2CC
:1004800091E00E94100365E070E08CE191E00E9431
:10049000EA0265E070E08CE191E00E94100366E002
:1004A00070E084E191E00E94EA0265E070E084E19E
:1004B00091E00E94100367E070E08CE091E00E9400
:1004C000EA0265E070E08CE091E00E9410036CE0CD
:1004D00070E084E091E00E94EA0265E070E084E070
:1004E00091E00E94100360E088E00E94390560E01E
:1004F00089E00E94390560E08AE00E94390560E0E9
:100500008BE00E94390584E091E00E9414038CE0A6
:1005100091E00E94140384E191E00E9414038CE0B6
:1005200091E00E946003882369F081E090E090935D
:1005300001018093000184E091E00E946003811139
:100540000E94FD0084E191E00E946003882321F075
:10055000109201011092000184E191E00E94600379
:10056000811106C08CE091E00E946003882339F07D
:1005700043E050E06CE870E080E00C94640382E0BB
:1005800090E09093010180930001F2CF8CE291E022
:100590000E94DE0284E291E00E94DE028CE191E0A2
:1005A0000E94DE0284E191E00E94DE028CE091E094
:1005B0000E94DE0284E091E00C94DE02FC011082D5
:1005C0001182128213828AE090E0958384831682DE
:1005D000178208950F931F93CF93DF931F92CDB788
:1005E000DEB78C01FC016783862F69830E946F054B
:1005F000F80116826981862F0E946F05892B19F0F8
:1006000083E0F80186830E942804F80160837183E7
:10061000828393830F90DF91CF911F910F91089563
:10062000FC01758364830895FF920F931F93CF930A
:10063000DF93EC018F810E946F05FF24F394892BD7
:1006400009F4F12C8E81982F977F9E838695817077
:10065000F81651F00E942804688379838A839B836B
:100660008E8192E0892721C00E9428040881198187
:100670002A813B81601B710B820B930B0C811D81C6
:1006800020E030E0601771078207930778F08E81D1
:1006900081708F1559F00E942804688379838A83BA
:1006A0009B838E8191E0892788608E838E8183FB76
:1006B000882780F9DF91CF911F910F91FF900895C6
:1006C000FC018681817008958230E8F4E82FF0E023
:1006D000EE0FFF1FEC5CFE4F71836083813041F0B1
:1006E000809169008C7F842B80936900E89A08953B
:1006F00080916900440F551F440F551F837F842B41
:1007000080936900E99A08951F920F920FB60F9295
:1007100011242F933F934F935F936F937F938F9306
:100720009F93AF93BF93EF93FF9380913401909188
:100730003501892B29F0E0913401F09135010995BB
:10074000FF91EF91BF91AF919F918F917F916F91A9
:100750005F914F913F912F910F900FBE0F901F907F
:1007600018951F920F920FB60F9211242F933F935B
:100770004F935F936F937F938F939F93AF93BF93A9
:10078000EF93FF938091360190913701892B29F0E7
:10079000E0913601F09137010995FF91EF91BF91FA
:1007A000AF919F918F917F916F915F914F913F9109
:1007B0002F910F900FBE0F901F9018951F920F92C0
:1007C0000FB60F9211242F933F938F939F93AF9364
:1007D000BF938091390190913A01A0913B01B09172
:1007E0003C013091380123E0230F2D3720F401968E
:1007F000A11DB11D05C026E8230F0296A11DB11D44
:10080000209338018093390190933A01A0933B01E2
:10081000B0933C0180913D0190913E01A0913F0138
:10082000B09140010196A11DB11D80933D019093AF
:100830003E01A0933F01B0934001BF91AF919F91C2
:100840008F913F912F910F900FBE0F901F90189591
:100850002FB7F8946091390170913A0180913B0172
:1008600090913C012FBF08953FB7F89480913D01CE
:1008700090913E01A0913F01B091400126B5A89B07
:1008800005C02F3F19F00196A11DB11D3FBF66277E
:10089000782F892F9A2F620F711D811D911D42E0C3
:1008A000660F771F881F991F4A95D1F70895CF9239
:1008B000DF92EF92FF92CF93DF936B017C010E9456
:1008C0003404EB01C114D104E104F10489F00E9465
:1008D000A8050E9434046C1B7D0B683E734090F3A6
:1008E00081E0C81AD108E108F108C851DC4FEACF0D
:1008F000DF91CF91FF90EF90DF90CF9008957894A3
:1009000084B5826084BD84B5816084BD85B5826014
:1009100085BD85B5816085BDEEE6F0E080818160B2
:100920008083E1E8F0E010828081826080838081B2
:1009300081608083E0E8F0E0808181608083E1EB8A
:10094000F0E0808184608083E0EBF0E08081816072
:100950008083EAE7F0E08081846080838081826028
:100960008083808181608083808180688083109211
:10097000C10008958E3008F08E50877020910201DA
:1009800090E4299F90011124822B80937C00809118
:100990007A00806480937A0080917A0086FDFCCF93
:1009A000809178002091790090E0922B0895833017
:1009B00081F028F4813099F08230A1F008958730D9
:1009C000A9F08830B9F08430D1F4809180008F7D17
:1009D00003C0809180008F7780938000089584B554
:1009E0008F7702C084B58F7D84BD08958091B0005B
:1009F0008F7703C08091B0008F7D8093B000089501
:100A0000CF93DF9390E0FC01E458FF4F2491FC0169
:100A1000E057FF4F8491882349F190E0880F991F98
:100A2000FC01E854FF4FA591B49182559F4FFC0102
:100A3000C591D4919FB7611108C0F8948C9120950D
:100A400082238C93888182230AC0623051F4F89407
:100A50008C91322F309583238C938881822B8883CD
:100A600004C0F8948C91822B8C939FBFDF91CF911F
:100A700008950F931F93CF93DF931F92CDB7DEB7E7
:100A8000282F30E0F901E859FF4F8491F901E4582B
:100A9000FF4F1491F901E057FF4F04910023C9F073
:100AA000882321F069830E94D7046981E02FF0E058
:100AB000EE0FFF1FE255FF4FA591B4919FB7F89439
:100AC0008C91611103C01095812301C0812B8C93FF
:100AD0009FBF0F90DF91CF911F910F910895CF93FA
:100AE000DF93282F30E0F901E859FF4F8491F90195
:100AF000E458FF4FD491F901E057FF4FC491CC2344
:100B000091F081110E94D704EC2FF0E0EE0FFF1F4F
:100B1000EC55FF4FA591B4912C912D2381E090E0ED
:100B200021F480E002C080E090E0DF91CF91089551
:100B300008950E947F040E9498050E94FB01C0E076
:100B4000D0E00E94FC002097E1F30E940000F9CF62
:100B500008955058BB27AA270ED0B4C0A5D030F0B6
:100B6000AAD020F031F49F3F11F41EF49AC00EF485
:100B7000E095E7FB90C0E92FB6D080F3BA17620783
:100B800073078407950718F071F49EF5CEC00EF434
:100B9000E0950B2EBA2FA02D0B01B90190010C018D
:100BA000CA01A0011124FF27591B99F0593F50F4A5
:100BB000503E68F11A16F040A22F232F342F4427FD
:100BC000585FF3CF469537952795A795F0405395F5
:100BD000C9F77EF41F16BA0B620B730B840BBAF0C5
:100BE0009150A1F0FF0FBB1F661F771F881FC2F730
:100BF0000EC0BA0F621F731F841F48F48795779544
:100C00006795B795F7959E3F08F0B3CF9395880FFA
:100C100008F09927EE0F979587950895E89409C0F5
:100C200097FB3EF490958095709561957F4F8F4F1F
:100C30009F4F9923A9F0F92F96E9BB279395F69535
:100C4000879577956795B795F111F8CFFAF4BB0FB3
:100C500011F460FF1BC06F5F7F4F8F4F9F4F16C017
:100C6000882311F096E911C0772321F09EE8872FA1
:100C7000762F05C0662371F096E8862F70E060E05D
:100C80002AF09A95660F771F881FDAF7880F9695D6
:100C9000879597F9089597F99F6780E870E060E07D
:100CA00008959FEF80EC089500240A941616170605
:100CB00018060906089500240A941216130614064D
:100CC00005060895092E0394000C11F4882352F0B0
:100CD000BB0F40F4BF2B11F460FF04C06F5F7F4F68
:100CE0008F4F9F4F089557FD9058440F551F59F04F
:100CF0005F3F71F04795880F97FB991F61F09F3F09
:100D000079F087950895121613061406551FF2CF31
:100D10004695F1DF08C0161617061806991FF1CF81
:100D200086957105610508940895E894BB276627A8
:100D30007727CB0197F908950BD0C4CFB5DF28F002
:100D4000BADF18F0952309F0A6CFABCF1124EECF70
:100D5000CADFA0F3959FD1F3950F50E0551F629F16
:100D6000F001729FBB27F00DB11D639FAA27F00D04
:100D7000B11DAA1F649F6627B00DA11D661F829F2B
:100D80002227B00DA11D621F739FB00DA11D621F10
:100D9000839FA00D611D221F749F3327A00D611D2D
:100DA000231F849F600D211D822F762F6A2F11240F
:100DB0009F5750408AF0E1F088234AF0EE0FFF1F62
:100DC000BB1F661F771F881F91505040A9F79E3F99
:100DD000510570F060CFAACF5F3FECF3983EDCF393
:100DE000869577956795B795F795E7959F5FC1F7D6
:100DF000FE2B880F911D9695879597F90895052EDE
:100E000097FB1EF400940E94160757FD07D00E941E
:100E10001E0707FC03D04EF40C941607509540951E
:100E2000309521953F4F4F4F5F4F08959095809596
:100E3000709561957F4F8F4F9F4F0895A1E21A2EB5
:100E4000AA1BBB1BFD010DC0AA1FBB1FEE1FFF1F6E
:100E5000A217B307E407F50720F0A21BB30BE40BBE
:100E6000F50B661F771F881F991F1A9469F7609505
:100E70007095809590959B01AC01BD01CF010895BF
:100E8000EE0FFF1F0590F491E02D0994F999FECF24
:100E900092BD81BDF89A992780B50895262FF999BA
:100EA000FECF1FBA92BD81BD20BD0FB6F894FA9A4D
:0C0EB000F99A0FBE01960895F894FFCF48
:040EBC00040001002D
:00000001FF
