:100000000C9489000C94B1000C94B1000C94B100D4
:100010000C94B1000C94B1000C94B1000C94B1009C
:100020000C94B1000C94B1000C94B1000C94B1008C
:100030000C94B1000C94B1000C94B1000C94B1007C
:100040000C94530E0C94B1000C943F110C9471114C
:100050000C94B1000C94B1000C94B1000C94B1005C
:100060000C94260D0C94B100B109C809C809C50942
:10007000C809AF09C809C809C809A309C809C80936
:10008000B809C309C109C809C809C809BF094F632C
:100090007420323120323031360031333A30353A43
:1000A0003030001F1C1F1E1F1E1F1F1E1F1E1F0083
:1000B0000000080002010000030407000000000027
:1000C0000000000102040810204080010204081012
:1000D000200102040810200404040404040404029F
:1000E00002020202020303030303030000000023D1
:1000F000002600290000000000250028002B000039
:10010000000000240027002A0000A106440CA111D1
:10011000CE0611241FBECFEFD8E0DEBFCDBF11E069
:10012000A0E0B1E0ECEDFFE202C005900D92AA3A2A
:10013000B107D9F723E0AAEAB1E001C01D92AF34BC
:10014000B207E1F711E0C0E1D1E004C02297FE015F
:100150000E94E514CA30D107C9F70E94E5110C943A
:10016000E1170C9400001F93CF93DF93CDB7DEB758
:1001700060970FB6F894DEBF0FBECDBF61E089E097
:100180000E94620F60E08BE00E94620F60E08DE0F1
:100190000E94620F60E081E10E94620F61E08FE0E7
:1001A0000E94620F61E080E10E94620F60E08FE0D8
:1001B0000E949B0F60E080E10E949B0F15E061E0D0
:1001C00089E00E949B0F68EE73E080E090E00E945F
:1001D000CC0E60E089E00E949B0F68EE73E080E047
:1001E00090E00E94CC0E115051F720E044E064E111
:1001F0008BEC91E00E94BC0726E040E855E260E00D
:1002000070E08EEA92E00E94DD1083EE91E00E94A1
:10021000470A811107C064E171E08BEC91E00E9414
:100220004012FFCF83EE91E00E94BD0A811118C0F9
:1002300065E271E08BEC91E00E94401268E873E1A6
:1002400080E090E00E94CC0E4AE950E06EE870E059
:10025000CE0101960E947509CE0101960E944D0AB9
:1002600064E170E085EC91E00E94431361E070E08E
:1002700084EE91E00E94A308813019F480930A0172
:1002800002C010920A0180910A01882309F443C038
:1002900062E070E084EE91E00E94A308182F63E012
:1002A00070E084EE91E00E94A308482F50E060E0E7
:1002B00070E0762F652F542F4427410F511D611D8B
:1002C000711D4093100150931101609312017093BE
:1002D000130164E070E084EE91E00E94A308182FFF
:1002E00065E070E084EE91E00E94A308482F50E0A2
:1002F00060E070E0762F652F542F4427410F511D89
:10030000611D711D40930C0150930D0160930E010E
:1003100070930F0118C08AE090E0A0E0B0E08093F5
:10032000100190931101A0931201B09313018CE37B
:1003300090E0A0E0B0E080930C0190930D01A093B9
:100340000E01B0930F0120911001309111014091E5
:10035000120150911301ACE3B0E00E94F8146093D5
:100360001001709311018093120190931301409139
:100370000C0150910D0160910E0170910F01CE01A1
:100380000D960E94410ACE0107960E94E60AAE0130
:10039000435F5F4FBE01695F7F4FCE0101960E94B0
:1003A000240A86E0FE013196A0EBB1E001900D92A7
:1003B0008A95E1F720910C0130910D0140910E01D9
:1003C00050910F01ACE3B0E00E94F81460930C016F
:1003D00070930D0180930E0190930F0140911001D5
:1003E000509111016091120170911301CE01079695
:1003F0000E94410AAE01495F5F4F60EB71E0CE01A0
:1004000001960E94240A86E0FE013196AAEAB1E034
:1004100001900D928A95E1F760960FB6F894DEBFD1
:100420000FBECDBFDF91CF911F910895FC01DB017D
:1004300080812C91821320C0818111962C9111977B
:1004400082131AC0828112962C911297821314C0C3
:10045000838113962C91139782130EC08481149676
:100460002C911497821308C0858115962C918213C4
:1004700003C080E090E0089590E0821B9109089508
:100480008BE00E94D10F019741F48DE00E94D10FC3
:10049000019719F481E10E94D10F81E0089561E094
:1004A0008FE00E949B0F60E177E280E090E00E9485
:1004B000CC0E60E08FE00E949B0F68EE73E080E05E
:1004C00090E00C94CC0E61E080E10E949B0F60E113
:1004D00077E280E090E00E94CC0E60E080E10E9434
:1004E0009B0F68EE73E080E090E00C94CC0ECF930D
:1004F000DF93CDB7DEB72C970FB6F894DEBF0FBEF3
:10050000CDBF8BEC91E00E949B0766E471E0CE01C9
:1005100007960E94801340E060E08BEC91E00E941F
:10052000A2076FE371E0CE0107960E94DA13CE01B5
:1005300001960E94E60A6C81CE0107960E94FD1387
:1005400069E371E0CE0107960E94DA13CE010196AD
:100550000E94E60A6D81CE0107960E94FD1369E3B1
:1005600071E0CE0107960E94DA13CE0101960E9437
:10057000E60A6E81CE0107960E94FD13BE01695FF7
:100580007F4F8BEC91E00E94321241E060E08BECF7
:1005900091E00E94A20766E471E0CE0107960E94F6
:1005A000961380910B01882309F16BE371E0CE0172
:1005B00007960E94DA136091AD01CE0107960E9462
:1005C000FD1369E371E0CE0107960E94DA13609192
:1005D000AE01CE0107960E94FD1369E371E0CE01E2
:1005E00007960E94DA136091AF0120C067E471E0C2
:1005F000CE0107960E94DA136091B301CE010796EF
:100600000E94FD1369E371E0CE0107960E94DA13A0
:100610006091B401CE0107960E94FD1369E371E079
:10062000CE0107960E94DA136091B501CE010796BC
:100630000E94FD13BE01695F7F4F8BEC91E00E9429
:10064000321242E060E08BEC91E00E94A20766E487
:1006500071E0CE0107960E94961362E571E0CE012B
:1006600007960E94DA138BE00E94D10F019719F4CC
:1006700060E871E002C06EE571E0CE0107960E946D
:10068000DA1360E671E0CE0107960E94DA138DE07E
:100690000E94D10F019719F460E871E002C06EE585
:1006A00071E0CE0107960E94DA1364E671E0CE0194
:1006B00007960E94DA1381E10E94D10F019719F485
:1006C00060E871E002C06EE571E0CE0107960E941D
:1006D000DA13BE01695F7F4F8BEC91E00E9432120A
:1006E00043E060E08BEC91E00E94A20766E471E0D9
:1006F000CE0107960E94961368E671E0CE01079638
:100700000E94DA1380910B01882319F068E771E0E9
:1007100002C06BE771E0CE0107960E94DA13BE01BA
:10072000695F7F4F8BEC91E00E943212CE010796F9
:100730000E9412132C960FB6F894DEBF0FBECDBFE9
:10074000DF91CF9108957F928F929F92AF92BF9247
:10075000CF92DF92EF92FF920F931F93CF93DF938D
:10076000CDB7DEB768970FB6F894DEBF0FBECDBF2A
:100770000E949D0E7093C1016093C0012091BC0145
:100780003091BD01AB01421B530B2091060130910A
:1007900007014217530734F07093BD016093BC0109
:1007A0000E9477028091C401882309F411C28091CC
:1007B000C201882309F4C3C06DE485EC91E00E9476
:1007C0005D147C0169E585EC91E00E945D14AC014B
:1007D0004F5F5F4F970165EC71E0CE0101960E947B
:1007E0006414CE0101960E94A9144B015C01CE0154
:1007F00001960E94121364E485EC91E00E945D145E
:100800007C016DE485EC91E00E945D14AC014F5FCA
:100810005F4F970165EC71E0CE0101960E94641470
:10082000CE0101960E94A914162FCE0101960E94B6
:10083000121368E485EC91E00E945D147C0164E48D
:1008400085EC91E00E945D14AC014F5F5F4F970112
:1008500065EC71E0CE0101960E946414CE01019610
:100860000E94A914762ECE0101960E9412136EE406
:1008700085EC91E00E945D147C0168E485EC91E0D8
:100880000E945D14AC014F5F5F4F970165EC71E012
:10089000CE0101960E946414CE0101960E94A91413
:1008A000062FCE0101960E94121363E585EC91E0BC
:1008B0000E945D147C016EE485EC91E00E945D1461
:1008C000AC014F5F5F4F970165EC71E0CE0101967F
:1008D0000E946414CE0101960E94A914E62ECE0156
:1008E00001960E94121363E285EC91E00E945D1470
:1008F0006C0163E585EC91E00E945D14AC014F5FF3
:100900005F4F960165EC71E0CE0101960E94641480
:10091000CE0101960E94A914C62ECE0101960E9416
:100920001213272D412FB401CE0101960E944909CF
:10093000CE0101960E944D0A1092C20141C164E2AB
:1009400085EC91E00E945D149C0140E050E065EC74
:1009500071E0CE0101960E946414CE0101960E94BE
:10096000A914609310017093110180931201909368
:100970001301CE0101960E94121363E285EC91E00F
:100980000E945D147C0164E285EC91E00E945D149C
:10099000AC014F5F5F4F970165EC71E0CE010196AE
:1009A0000E946414CE0101960E94A91460930C0168
:1009B00070930D0180930E0190930F01CE0101966B
:1009C0000E9412138091100190911101A0911201C7
:1009D000B0911301892B8A2B8B2B09F449C080918C
:1009E0000C0190910D01A0910E01B0910F01892B86
:1009F0008A2B8B2BE9F181E080930A0141E061E0D1
:100A000070E084EE91E00E94A608C0901001D090A2
:100A10001101E0901201F09013014C2D62E070E0A2
:100A200084EE91E00E94A6087727F7FC7A956F2D57
:100A30005E2D4D2D63E070E084EE91E00E94A608EB
:100A4000C0900C01D0900D01E0900E01F0900F01CC
:100A50004C2D64E070E084EE91E00E94A6087727B8
:100A6000F7FC7A956F2D5E2D4D2D65E070E005C089
:100A700010920A0140E061E070E084EE91E00E9493
:100A8000A60820911001309111014091120150915E
:100A90001301ACE3B0E00E94F8146B017C01609399
:100AA0001001709311018093120190931301209112
:100AB0000C0130910D0140910E0150910F010E94E7
:100AC000F81460930C0170930D0180930E019093C4
:100AD0000F012AE030E0B701A6018EEA92E00E9401
:100AE000001340910C0150910D0160910E01709125
:100AF0000F012AE030E08EEA92E00E94001340915C
:100B000010015091110160911201709113018091B7
:100B10000C0190910D01A0910E01B0910F01480FB1
:100B2000591F6A1F7B1F2AE030E08EEA92E00E9484
:100B300000136FE771E08EEA92E00E94401240914C
:100B40000C0150910D0160910E0170910F01CE01C9
:100B50000D960E94410ACE0107960E94E60AAE0158
:100B6000435F5F4FBE01695F7F4FCE0101960E94D8
:100B7000240A86E0FE013196A0EBB1E001900D92CF
:100B80008A95E1F740911001509111016091120195
:100B900070911301CE0107960E94410AAE01495F90
:100BA0005F4F60EB71E0CE0101960E94240A86E05F
:100BB000FE013196AAEAB1E001900D928A95E1F723
:100BC00066E471E085EC91E00E9496131092C401F6
:100BD00060EB71E0CE010D960E945D09CE01439657
:100BE0000E94E60ABE01635F7F4FCE0143960E94DA
:100BF000160297FD18C06AEA71E0CE0101960E94C4
:100C00005D09CE0107960E94E60ABE016F5F7F4F25
:100C1000CE0107960E9416021816190624F081E0EC
:100C200080930B014CC080910B01882309F447C0CD
:100C30000E9463021092C30110920B0140910C01BB
:100C400050910D0160910E0170910F01CE010D9632
:100C50000E94410ACE0107960E94E60AAE01435F58
:100C60005F4FBE01695F7F4FCE0101960E94240A4B
:100C700086E0FE013196A0EBB1E001900D928A95DD
:100C8000E1F74091100150911101609112017091B2
:100C90001301CE0107960E94410AAE01495F5F4FE2
:100CA00060EB71E0CE0101960E94240A86E0FE010D
:100CB0003196AAEAB1E001900D928A95E1F7809110
:100CC0000B01882351F18091C0019091C1012091C5
:100CD000BE013091BF01AC01421B530B20910801B2
:100CE0003091090142175307C4F09093BF018093DC
:100CF000BE010E9440029091C301882341F09111EE
:100D00000CC00E944F0281E08093C30106C099236A
:100D100021F00E9463021092C30168960FB6F89406
:100D2000DEBF0FBECDBFDF91CF911F910F91FF901E
:100D3000EF90DF90CF90BF90AF909F908F907F907B
:100D40000895CF92EF920F9348E0C42E57E0E52E1E
:100D500006E025E04AE06CE08BEC91E00E94770829
:100D600066E471E085EC91E00E94801340E050E081
:100D7000BA0186EB91E00E94EB0840E050E0BA0136
:100D800080EB91E00E94EB0840E050E0BA018AEA73
:100D900091E00F91EF90CF900C94EB0885EC91E0EF
:100DA0000C941213CF93DF93D1E08EEA92E00E946D
:100DB000FA0F892BA1F08EEA92E00E941310C82F3F
:100DC000682F85EC91E00E94EA13C33219F4D093A6
:100DD000C401EBCFC53549F7D093C201E6CFDF910F
:100DE000CF910895CF93DF93EC0160E08E810E9454
:100DF0009B0F81E090E00E94F40E61E08E810E94E2
:100E00009B0F81E090E00E94F40E60E08E810E94D2
:100E10009B0F84E690E0DF91CF910C94F40ECF927B
:100E2000DF92EF92FF920F931F93CF93DF937C019A
:100E3000C0E0D0E0C62ED12C87010C0F1D1F61E051
:100E4000F80187810E94620FB6010C2E02C07595D1
:100E500067950A94E2F76170F80187810E949B0F01
:100E60002196C430D10541F7C701DF91CF911F9181
:100E70000F91FF90EF90DF90CF900C94F206CF92FD
:100E8000DF92EF92FF920F931F93CF93DF937C013A
:100E9000C0E0D0E0C62ED12C87010C0F1D1F61E0F1
:100EA000F80187810E94620FB6010C2E02C0759571
:100EB00067950A94E2F76170F80187810E949B0FA1
:100EC0002196C830D10541F7C701DF91CF911F911D
:100ED0000F91FF90EF90DF90CF900C94F2061F934C
:100EE000CF93DF93EC01162F642F8C810E949B0F10
:100EF0008D818F3F19F060E00E949B0F8F85612FDD
:100F000084FF06C0CE01DF91CF911F910C943F0763
:100F100070E084E0759567958A95E1F7CE010E94AF
:100F20000F07612FCE01DF91CF911F910C940F0716
:100F300040E00C946F0761E00E94980780ED97E015
:100F40000C94F40E443008F043E0FC01238942176E
:100F500010F04FEF420FFC01E40FF11D2489260F22
:100F60002068622F0C949807FC016089262F24606A
:100F7000208B6C600C949807CF93DF93EC01423088
:100F800018F08F8588608F874B8B1C8A80E48D8B4F
:100F90006E8B70E0605C7F4F6F8B222329F04130B5
:100FA00019F48F8584608F8780E593EC0E94F40E9E
:100FB00060E08C810E949B0F60E08E810E949B0FFD
:100FC0008D818F3F19F060E00E949B0F6F8564FD5B
:100FD0001DC063E0CE010E940F0784E991E10E94E9
:100FE000F40E63E0CE010E940F0784E991E10E94B4
:100FF000F40E63E0CE010E940F0786E990E00E94A4
:10100000F40E62E0CE010E940F0716C06062CE01AE
:101010000E94980784E991E10E94F40E6F85606256
:10102000CE010E94980786E990E00E94F40E6F8539
:101030006062CE010E9498076F856062CE010E94B7
:10104000980784E0888BCE010E94B407CE010E94ED
:101050009B0782E0898B66E0CE01DF91CF910C94F3
:1010600098076F927F928F92AF92CF92EF920F93E9
:101070001F93CF93DF93CDB7DEB73C01162F842F9C
:101080005D854E853F859889F3018483258306839A
:10109000E782C086A18682865387448735879687F4
:1010A00061E00E94620FF30185818F3F19F061E0DA
:1010B0000E94620F61E0F30186810E94620F11239A
:1010C00019F0F301178603C080E1F301878720E060
:1010D00041E060E1C301DF91CF911F910F91EF904B
:1010E000CF90AF908F907F906F900C94BC078F92B1
:1010F000AF92CF92EF920F93DC0113961C921E9247
:101100001297E6E8F1E0ED93FC931F921F921F9275
:101110001F928C2CAE2CC02EE22E042F2FEF462FC8
:1011200061E00E9431080F900F900F900F900F9187
:10113000EF90CF90AF908F90089541E00E946F079D
:1011400081E090E00895CB010C948417CB01642FCB
:101150000C948C17803D27E0920710F0805D97403B
:1011600050E0E3EAF0E021E02E1B322F3E0F36176D
:1011700028F43491430F511D3196F7CF633038F086
:101180009C0123703327232B11F44F5F5F4F6DE6D3
:1011900071E0869F9001879F300D969F300D11243E
:1011A0002150310903969695879596958795280F36
:1011B000391FC901840F951F0895FC012081205318
:1011C0002A3008F020E0FC0181818053FAE02F9F53
:1011D000800D11240895CF92DF92EF92FF92CF936A
:1011E000DF93EC01405853446D467843ECE3CE2E38
:1011F000D12CE12CF12CCB01BA01A70196010E9460
:10120000C1146D83CA01B901A70196010E94C114DE
:101210006C83CA01B90128E130E040E050E00E944F
:10122000C1146B83188243E95EEFE8818E2F8370CF
:10123000A1E009F0A0E08A2F90E0BC0163597E4F45
:101240002617370740F0BA01681B790B260F371FA6
:10125000EF5FE883EACF81E089838981E82FF0E0BE
:10126000EE55FF4FE491AA2319F0823009F4EF5FA5
:10127000F0E02E173F0720F02E1B3F0B8F5FECCFC7
:101280002F5F2A83DF91CF91FF90EF90DF90CF9077
:101290000895CF92EF920F93FC01603D87E07807AD
:1012A00010F0605D77406083418322830383E48292
:1012B000C5820F91EF90CF900895FC01DB018C91D6
:1012C000808311968C911197818312968C9112973D
:1012D000828313968C911397838314968C91149721
:1012E000848315968C9185830895CF92DF92EF9237
:1012F000FF920F931F93CF93DF93CDB7DEB72B975A
:101300000FB6F894DEBF0FBECDBF7C016A014BE083
:1013100050E0CE0101960E941B17CE010A960E9452
:10132000DD08F70180830981112707FD1095212F22
:10133000312FF801E154F109E331F10548F5EC5C96
:10134000FF4F0C94E3148A81813639F08B818E36FD
:1013500011F486E01BC087E019C081E017C082E06D
:1013600015C08B81823711F484E010C088E00EC074
:101370008B81823711F483E009C085E007C089E0E2
:1013800005C08AE003C08BE001C08CE0F7018183D7
:10139000CE0105960E94DD08F701828348E050E007
:1013A000B601CE0101960E941B17CE0101960E9444
:1013B000DD08F7018383CE0104960E94DD08F70162
:1013C0008483CE0107960E94DD08F70185832B9662
:1013D0000FB6F894DEBF0FBECDBFDF91CF911F9146
:1013E0000F91FF90EF90DF90CF900895CF93DF9310
:1013F000EC0188814A81698190E00E94AA089C01E1
:10140000A8E1B0E00E94E9149B01AC018B81280F98
:10141000311D411D511DACE3B0E00E94F8149B0149
:10142000AC018C81280F311D411D511D0E94F81403
:101430002D81620F711D811D911D60587C4B824969
:10144000974CDF91CF9108950F931F93CF93DF9324
:10145000EC01CB018A010E94F609AB01BC01F80145
:1014600080819181A281B381480F591F6A1F7B1F20
:10147000CE010E94EB08CE01DF91CF911F910F9119
:101480000895FC014083518362837383089585EE40
:1014900091E00E94080C81E008951F93CF93DF93A1
:1014A000EC0168E670E085EE91E00E942C0C60E0B3
:1014B00085EE91E00E94C90B2D811AE0822F612FE9
:1014C0000E94B514682F660F680F660F620F85EED5
:1014D00091E00E94C90B2C81822F612F0E94B514CC
:1014E000682F660F680F660F620F85EE91E00E940D
:1014F000C90B2B81822F612F0E94B514682F660FB4
:10150000680F660F620F85EE91E00E94C90B60E0E4
:1015100085EE91E00E94C90B2A81822F612F0E94E3
:10152000B514682F660F680F660F620F85EE91E0A5
:101530000E94C90B2981822F612F0E94B514682F48
:10154000660F680F660F620F85EE91E00E94C90B6F
:101550002881822F612F0E94B514682F660F680FB3
:10156000660F620F85EE91E00E94C90B85EE91E057
:10157000DF91CF911F910C94410CCF93DF9368E6DC
:1015800070E085EE91E00E942C0C60E085EE91E029
:101590000E94C90B85EE91E00E94410C41E050E0B1
:1015A00068E670E085EE91E00E941F0C85EE91E008
:1015B0000E94790B87FB882780F9C82F80E0D82FFD
:1015C00081E0C8278C2FDF91CF910895CF92DF92D1
:1015D000EF92FF920F931F93CF93DF93EC0168E696
:1015E00070E085EE91E00E942C0C60E085EE91E0C9
:1015F0000E94C90B85EE91E00E94410C47E050E04B
:1016000068E670E085EE91E00E941F0C85EE91E0A7
:101610000E94790B8F77982F92959F701AEF082F61
:10162000919F000D112485EE91E00E94790B9C01A1
:101630003327A4E035952795AA95E1F7F82E129F58
:10164000F00C112485EE91E00E94790B9C01332768
:10165000B4E035952795BA95E1F7E82E129FE00C96
:10166000112485EE91E00E94790B85EE91E00E94B5
:10167000790B9C01332794E0359527959A95E1F7EE
:10168000D82E129FD00C112485EE91E00E94790B88
:101690009C01332744E0359527954A95E1F7C82EFC
:1016A000129FC00C112485EE91E00E94790B9C01E1
:1016B000332754E0359527955A95E1F7129F800D11
:1016C00011248883C982DA82EB82FC820D83CE01E9
:1016D000DF91CF911F910F91FF90EF90DF90CF900E
:1016E00008958091150290E020911602821B9109C5
:1016F00008952091160280911502281750F4E22FC8
:10170000F0E0E95EFD4F808190E02F5F20931602AC
:1017100008958FEF9FEF0895E091160280911502D2
:10172000E81730F4F0E0E95EFD4F808190E0089525
:101730008FEF9FEF08950895CF92DF92EF92FF927F
:101740000F931F93CF93DF937C01CB018A012091EC
:10175000F101222389F0EB016B01C40ED51ECC15DB
:10176000DD0569F06991D701ED91FC910190F0815F
:10177000E02DC7010995F3CF642F0E94FD0CC8012D
:10178000DF91CF911F910F91FF90EF90DF90CF905D
:101790000895CF93DF931F92CDB7DEB76983209171
:1017A000F1012223D1F02091F201203240F021E01A
:1017B00030E0FC013383228380E090E015C080910B
:1017C000F301E82FF0E0EC50FE4F998190838F5F9A
:1017D0008093F3018093F20105C061E0CE01019690
:1017E0000E94FD0C81E090E00F90DF91CF91089571
:1017F000FC011382128248EE53E060E070E0448303
:101800005583668377838EE891E091838083089582
:1018100010921602109215021092F3011092F2012A
:101820000C94480C862F413208F040E267E172E0E8
:101830000E94660C1092160280931502089521E012
:101840000C94120C81E08093F101609314021092C9
:10185000F3011092F20108950C94220C0F93062FBD
:1018600021E04091F20164EF71E0809114020E9446
:10187000AA0C1092F3011092F2011092F1010F9153
:10188000089561E00C942E0C85EE91E00C94F80B19
:101890001092A40281E08093A2021092A10261E062
:1018A00082E10E949B0F61E083E10E949B0FE9EBC4
:1018B000F0E080818E7F808380818D7F808380E2D5
:1018C0008093B80085E48093BC000895413208F00D
:1018D0003FC09091A4029111FCCF91E09093A4029B
:1018E0002093A2022FEF2093370210927C02240F44
:1018F00020937B029093A3029091A302880F892BDF
:101900008093A3028091A102813041F41092A10240
:101910008091A3028093BB0085EC01C085EE80938B
:10192000BC008091A4028130E1F380917C02841795
:1019300010F440917C022DE732E0FB01D9018A2F9F
:10194000821B841718F48D918193F9CF842F089509
:1019500080E008950F93413208F046C09091A402B0
:101960009111FCCF92E09093A4020093A2029FEF0A
:101970009093370210927C0240937B02FB016DE74B
:1019800072E0DB019A2F961B941718F491919D93A6
:10199000F9CF1092A3029091A302880F892B809314
:1019A000A3028091A102813041F41092A1028091A2
:1019B000A3028093BB0085EC01C085EE8093BC0040
:1019C000222321F08091A4028230E1F3809137023A
:1019D0008F3F61F080913702803251F08091370261
:1019E000803341F483E007C081E005C080E003C09C
:1019F00082E001C084E00F910895613298F4209153
:101A0000A402243089F460935902FC018BE592E032
:101A1000DC012A2F281B261718F421912D93F9CFCA
:101A200080E0089581E0089582E0089585ED809337
:101A3000BC008091BC0084FDFCCF1092A4020895EC
:101A400085EC8093BC001092A40208951F920F921F
:101A50000FB60F9211242F933F934F935F936F9381
:101A60007F938F939F93AF93BF93EF93FF93809157
:101A7000B900887F803609F49CC068F5883209F483
:101A80005BC090F4803109F454C038F4882309F421
:101A9000F5C0883009F44DC0F5C0883109F44CC058
:101AA000803209F45DC0EEC0803409F468C048F4A7
:101AB000803309F455C0883309F0E4C080933702BD
:101AC000A8C0803509F44FC0883509F45DC088345A
:101AD00009F0D8C0D5C0883909F4C6C0A8F4883741
:101AE00009F467C038F4883609F463C0803709F414
:101AF00060C0C8C0883809F4B7C0803909F45FC035
:101B0000803809F0BFC05BC0803B09F485C038F461
:101B1000803A09F466C0883A09F47EC0B3C0803CBC
:101B200009F4A6C0883C09F4A3C0883B09F489C025
:101B3000A9C08091A30210C090917C0280917B0289
:101B4000981770F5E0917C0281E08E0F80937C0203
:101B5000F0E0E358FD4F80818093BB0085EC85C0A9
:101B6000809337028DC0E0917C0281E08E0F8093DC
:101B70007C028091BB00F0E0E358FD4F80839091A0
:101B80007C0280917B026DC0E0917C0281E08E0F2F
:101B900080937C028091BB00F0E0E358FD4F80838E
:101BA0008091A20281116CC081E08093A10284EA3D
:101BB00060C083E08093A40210923802CFCF80915E
:101BC0003802803208F050C0E091380281E08E0F78
:101BD000809338028091BB00F0E0E75CFD4F80838A
:101BE000BDCF80913802803230F4E0913802F0E0CD
:101BF000E75CFD4F10820E94160D6091380270E084
:101C0000E0919D02F0919E0289E392E00995109285
:101C100038020E94200D36C084E08093A402109206
:101C20005A0210925902E0919F02F091A002099588
:101C300080915902811105C081E080935902109270
:101C40005B02E0915A0281E08E0F80935A02F0E02D
:101C5000E55AFD4F80818093BB0090915A0280919C
:101C60005902981708F47ACF85E88093BC000AC01F
:101C700085EC8093BC001092A40204C0109237023D
:101C80000E94160DFF91EF91BF91AF919F918F919F
:101C90007F916F915F914F913F912F910F900FBE68
:101CA0000F901F9018951F920F920FB60F9211244C
:101CB0002F933F938F939F93AF93BF938091A602EF
:101CC0009091A702A091A802B091A9023091A5021B
:101CD00023E0230F2D3720F40196A11DB11D05C06F
:101CE00026E8230F0296A11DB11D2093A502809323
:101CF000A6029093A702A093A802B093A902809194
:101D0000AA029091AB02A091AC02B091AD020196F3
:101D1000A11DB11D8093AA029093AB02A093AC02C7
:101D2000B093AD02BF91AF919F918F913F912F9151
:101D30000F900FBE0F901F9018952FB7F8946091D9
:101D4000A6027091A7028091A8029091A9022FBFCC
:101D500008953FB7F8948091AA029091AB02A091A8
:101D6000AC02B091AD0226B5A89B05C02F3F19F07B
:101D70000196A11DB11D3FBF6627782F892F9A2F8D
:101D8000620F711D811D911D42E0660F771F881F34
:101D9000991F4A95D1F70895CF92DF92EF92FF9263
:101DA000CF93DF936B017C010E94A90EEB01C1145C
:101DB000D104E104F10489F00E94B4140E94A90E38
:101DC0006C1B7D0B683E734090F381E0C81AD1080C
:101DD000E108F108C851DC4FEACFDF91CF91FF90C5
:101DE000EF90DF90CF900895019739F0880F991FF9
:101DF000880F991F02970197F1F70895789484B599
:101E0000826084BD84B5816084BD85B5826085BDF6
:101E100085B5816085BDEEE6F0E0808181608083DC
:101E2000E1E8F0E0108280818260808380818160BF
:101E30008083E0E8F0E0808181608083E1EBF0E086
:101E4000808184608083E0EBF0E08081816080832A
:101E5000EAE7F0E080818460808380818260808313
:101E60008081816080838081806880831092C1003E
:101E70000895833081F028F4813099F08230A1F008
:101E800008958730A9F08830B9F08430D1F480917A
:101E900080008F7D03C0809180008F7780938000C9
:101EA000089584B58F7702C084B58F7D84BD089571
:101EB0008091B0008F7703C08091B0008F7D8093B8
:101EC000B0000895CF93DF9390E0FC01ED53FF4FF6
:101ED0002491FC01E952FF4F8491882349F190E05D
:101EE000880F991FFC01E150FF4FA591B4918B50D1
:101EF0009F4FFC01C591D4919FB7611108C0F89420
:101F00008C91209582238C93888182230AC0623031
:101F100051F4F8948C91322F309583238C938881DF
:101F2000822B888304C0F8948C91822B8C939FBF62
:101F3000DF91CF9108950F931F93CF93DF931F925B
:101F4000CDB7DEB7282F30E0F901E155FF4F84917E
:101F5000F901ED53FF4F1491F901E952FF4F04913C
:101F60000023C9F0882321F069830E94390F698119
:101F7000E02FF0E0EE0FFF1FEB50FF4FA591B49163
:101F80009FB7F8948C91611103C01095812301C013
:101F9000812B8C939FBF0F90DF91CF911F910F9159
:101FA0000895CF93DF93282F30E0F901E155FF4FDB
:101FB0008491F901ED53FF4FD491F901E952FF4F9C
:101FC000C491CC2391F081110E94390FEC2FF0E0E5
:101FD000EE0FFF1FE551FF4FA591B4912C912D23DA
:101FE00081E090E021F480E002C080E090E0DF91A9
:101FF000CF910895FC01818D228D90E0805C9F4FF0
:10200000821B91098F7399270895FC01918D828D10
:10201000981731F0828DE80FF11D858D90E00895BD
:102020008FEF9FEF0895FC01918D828D981761F0DD
:10203000828DDF01A80FB11D5D968C91928D9F5FFF
:102040009F73928F90E008958FEF9FEF089587E937
:1020500091E1892B49F082ED96E0892B29F00E94CD
:10206000971181110C94D2060895FC01848DDF0133
:10207000A80FB11DA35ABF4F2C91848D90E00196FB
:102080008F739927848FA689B7892C93A089B189EA
:102090008C9180648C93938D848D981306C00288F4
:1020A000F389E02D80818F7D80830895CF93DF9326
:1020B000EC01888D8823C9F0EA89FB89808185FD40
:1020C00005C0A889B9898C9186FD0FC00FB607FCA1
:1020D000F5CF808185FFF2CFA889B9898C9185FFE2
:1020E000EDCFCE010E943510E7CFDF91CF9108955B
:1020F000CF92DF92FF920F931F93CF93DF931F92A4
:10210000CDB7DEB76C01DC015B969C915B975C966A
:102110008C915C97981307C05096ED91FC91519764
:10212000808185FD32C0F601038D10E00F5F1F4FE7
:102130000F731127F02EF601848DF81211C00FB61F
:1021400007FCF9CFD6015096ED91FC915197808113
:1021500085FFF1CFC60169830E9435106981EBCFFD
:10216000838DE80FF11DE35AFF4F6083D6015B9624
:102170000C935B975296ED91FC915397808180620E
:10218000808381E058968C930DC0D6015696ED91D0
:10219000FC91579760835096ED91FC915197808107
:1021A0008064808381E090E00F90DF91CF911F9158
:1021B0000F91FF90DF90CF900895BF92CF92DF9262
:1021C000EF92FF92CF93DF93EC016A017B01B22E75
:1021D000E889F98982E08083411581EE580761051D
:1021E0007105A1F060E079E08DE390E0A701960130
:1021F0000E94C11421503109410951095695479552
:1022000037952795211580E1380798F0E889F989F5
:10221000108260E874E88EE190E0A70196010E94C8
:10222000C1142150310941095109569547953795F7
:102230002795EC85FD853083EE85FF852083188EFC
:10224000EC89FD89B082EA89FB8980818061808385
:10225000EA89FB89808188608083EA89FB898081A3
:1022600080688083EA89FB8980818F7D8083DF910C
:10227000CF91FF90EF90DF90CF90BF9008951F9285
:102280000F920FB60F9211242F938F939F93EF937A
:10229000FF93E091BE02F091BF028081E091C40201
:1022A000F091C50282FD12C090818091C7028F5FBC
:1022B0008F732091C802821751F0E091C702F0E0BD
:1022C000E255FD4F958F8093C70201C08081FF9139
:1022D000EF919F918F912F910F900FBE0F901F90B4
:1022E00018951F920F920FB60F9211242F933F93C0
:1022F0004F935F936F937F938F939F93AF93BF930E
:10230000EF93FF938EEA92E00E943510FF91EF91D8
:10231000BF91AF919F918F917F916F915F914F91FD
:102320003F912F910F900FBE0F901F9018958EEA3E
:1023300092E00E94FA0F21E0892B09F420E0822F1D
:1023400008951092B1021092B00288EE93E0A0E0DE
:10235000B0E08093B2029093B302A093B402B09322
:10236000B5028EE991E09093AF028093AE0285ECC6
:1023700090E09093BB028093BA0284EC90E090933B
:10238000BD028093BC0280EC90E09093BF028093EA
:10239000BE0281EC90E09093C1028093C00282EC77
:1023A00090E09093C3028093C20286EC90E09093F9
:1023B000C5028093C4021092C7021092C802109204
:1023C000C9021092CA02089508950E94FE0E0E944A
:1023D000E4110E94B300C7E2D0E10E94A30320975A
:1023E000E1F30E942710F9CFCF92DF92EF92FF9294
:1023F0000F931F93CF93DF936C017A01EB01E60EED
:10240000F71E00E010E0CE15DF0561F06991D601FE
:10241000ED91FC910190F081E02DC6010995080F26
:10242000191FF1CFC801DF91CF911F910F91FF903C
:10243000EF90DF90CF9008956115710581F0DB0179
:102440000D900020E9F7AD0141505109461B570B93
:10245000DC01ED91FC910280F381E02D099480E094
:1024600090E00895DC01ED91FC91DB0114964D9113
:102470005C9115976D917C910280F381E02D099418
:102480000C941C12DC01ED91FC910190F081E02D87
:1024900009940F931F93CF93DF93EC016DE00E949B
:1024A00042128C016AE0CE010E944212800F911FFD
:1024B000DF91CF911F910F9108958F929F92AF92CC
:1024C000BF92CF92DF92EF92FF920F931F93CF9321
:1024D000DF93CDB7DEB7A1970FB6F894DEBF0FBE7E
:1024E000CDBF7C01C42EE52FCB01D22E19A221E055
:1024F0002D1510F02AE0D22E8E010F5D1F4F8D2C6E
:10250000912CA12CB12C6C2D7E2FA50194010E9441
:10251000C1148C2DD29E80191124015011098A30CA
:1025200014F4805D01C0895CF801808321153105B8
:102530004105510521F0C22EE32FCA01E4CFB801B5
:10254000C7010E941C12A1960FB6F894DEBF0FBE01
:10255000CDBFDF91CF911F910F91FF90EF90DF9052
:10256000CF90BF90AF909F908F900895CF92DF92C1
:10257000EF92FF920F931F93CF93DF93EC016A01C9
:102580007B012115310579F4E881F9810190F08111
:10259000E02D642FDF91CF911F910F91FF90EF906D
:1025A000DF90CF9009942A303105E9F477FF1AC003
:1025B0006DE20E9442128C0144275527BA014C1942
:1025C0005D096E097F092AE0CE010E945D12800F2D
:1025D000911FDF91CF911F910F91FF90EF90DF90AE
:1025E000CF9008952AE0B701A601CE01DF91CF91E7
:1025F0001F910F91FF90EF90DF90CF900C945D12A0
:102600000F931F93CF93DF93EC010E94B6128C01BE
:10261000CE010E944912800F911FDF91CF911F912F
:102620000F910895FC01808191810C949B15CF93AB
:10263000DF93EC0188819981009711F00E949B152E
:10264000198218821D821C821B821A82DF91CF910F
:1026500008950F931F93CF93DF93EC018B016F5F6E
:102660007F4F888199810E942A16009731F09983C3
:1026700088831B830A8381E001C080E0DF91CF91D2
:102680001F910F910895CF93DF93EC018881998179
:10269000892B29F08A819B818617970760F4CE01E8
:1026A0000E942913882341F08C819D81892B19F484
:1026B000E881F981108281E0DF91CF910895EF9256
:1026C000FF920F931F93CF93DF93EC017B018A015D
:1026D000BA010E944313811104C0CE010E94171356
:1026E00007C01D830C83B701888199810E942D1733
:1026F000CE01DF91CF911F910F91FF90EF90089540
:10270000FC011182108213821282158214826115DB
:10271000710559F0FB0101900020E9F7AF0141502C
:102720005109461B570B0C945F130895CF93DF9309
:10273000EC016115710561F0FB0101900020E9F7E2
:10274000AF0141505109461B570B0E945F1302C055
:102750000E941713CE01DF91CF910895EF92FF925F
:102760000F931F93CF93DF93EC017B010C811D81AD
:102770006115710511F480E016C04115510591F005
:10278000040F151FB8010E9443138823A1F3288169
:1027900039818C819D81B701820F931F0E942D1773
:1027A0001D830C8381E0DF91CF911F910F91FF90EA
:1027B000EF9008956115710559F0FB01019000201B
:1027C000E9F7AF0141505109461B570B0C94AE136A
:1027D00080E00895CF93DF9300D0CDB7DEB7698353
:1027E0001A8241E050E0BE016F5F7F4F0E94AE133E
:1027F0000F900F90DF91CF910895EF92FF920F937A
:102800001F93CF93DF9300D000D0CDB7DEB77C010C
:10281000862F4AE050E08E010F5F1F4FB80190E015
:102820000E943F17F80101900020E9F7AF014150E5
:102830005109401B510BB801C7010E94AE130F9004
:102840000F900F900F90DF91CF911F910F91FF90FC
:10285000EF900895DF92EF92FF920F931F93CF9323
:10286000DF93EC018C819D814817590718F08FEF99
:102870009FEF1BC08A010F5F1F4FE881F981E00FB6
:10288000F11FD0801082E880F980772767FD70956E
:10289000C7010E943417F701E00FF11FD0820097A3
:1028A00031F328813981821B930BDF91CF911F91E6
:1028B0000F91FF90EF90DF900895FC0144815581C6
:1028C000415051090C942A14BF92CF92DF92EF929B
:1028D000FF920F931F93CF93DF936C017B01EA016B
:1028E00089012417350720F48D2FE901042F182FB3
:1028F00066E471E0C6010E948013D70114968D91A1
:102900009C911597C817D907C8F48017910708F448
:102910008C01D701ED91FC911197E00FF11FB08070
:1029200010826D917C916C0F7D1FC6010E949613E1
:10293000D701ED91FC91E00FF11FB082C601DF914C
:10294000CF911F910F91FF90EF90DF90CF90BF90AC
:102950000895FC0180819181009711F00C94F41688
:1029600060E070E0CB0108950895991B79E004C000
:10297000991F961708F0961B881F7A95C9F78095BE
:102980000895A1E21A2EAA1BBB1BFD010DC0AA1FB0
:10299000BB1FEE1FFF1FA217B307E407F50720F0C8
:1029A000A21BB30BE40BF50B661F771F881F991F43
:1029B0001A9469F760957095809590959B01AC018C
:1029C000BD01CF010895EE0FFF1F0590F491E02D9A
:1029D0000994A29FB001B39FC001A39F700D811DF8
:1029E0001124911DB29F700D811D1124911D089518
:1029F0000E94E914A59F900DB49F900DA49F800D97
:102A0000911D11240895CF93DF938230910510F426
:102A100082E090E0E0914D03F0914E0320E030E041
:102A2000A0E0B0E0309739F1408151814817590753
:102A3000B8F04817590771F482819381109729F0F3
:102A400013969C938E9312972CC090934E03809371
:102A50004D0327C02115310531F04217530718F0F7
:102A6000A901DB0101C0EF019A01BD01DF01028074
:102A7000F381E02DD7CF21153105F9F0281B390B53
:102A80002430310580F48A819B816115710521F024
:102A9000FB019383828304C090934E0380934D0384
:102AA000FE01329644C0FE01E20FF31F8193919321
:102AB00022503109398328833AC020914B03309149
:102AC0004C03232B41F420910201309103013093F8
:102AD0004C0320934B0320910001309101012115FB
:102AE000310541F42DB73EB74091040150910501E5
:102AF000241B350BE0914B03F0914C03E217F307D5
:102B0000A0F42E1B3F0B2817390778F0AC014E5F5D
:102B10005F4F2417350748F04E0F5F1F50934C034B
:102B200040934B038193919302C0E0E0F0E0CF012A
:102B3000DF91CF910895CF93DF93009709F487C079
:102B4000FC01329713821282C0914D03D0914E0343
:102B5000209781F420813181280F391F80914B0308
:102B600090914C038217930779F5F0934C03E0930F
:102B70004B036DC0DE0120E030E0AE17BF0750F41C
:102B800012964D915C9113979D014115510509F1E4
:102B9000DA01F3CFB383A28340815181840F951F63
:102BA0008A179B0771F48D919C911197840F951F43
:102BB00002969183808312968D919C9113979383B3
:102BC00082832115310529F4F0934E03E0934D03E0
:102BD0003EC0D9011396FC93EE9312974D915D91EF
:102BE000A40FB51FEA17FB0779F480819181840F48
:102BF000951F0296D90111969C938E9382819381A1
:102C000013969C938E931297E0E0F0E08A819B816B
:102C1000009719F0FE01EC01F9CFCE010296288150
:102C20003981820F931F20914B0330914C03281759
:102C3000390769F4309729F410924E0310924D032E
:102C400002C013821282D0934C03C0934B03DF91D6
:102C5000CF910895A0E0B0E0E0E3F6E10C94AE1768
:102C6000EC01CB01209719F40E940315B8C0FE01B6
:102C7000E60FF71F9E0122503109E217F30708F40F
:102C8000ACC0D9010D911C91119706171707B8F028
:102C90000530110508F49FC0A8014450510946179A
:102CA000570708F498C002501109061B170B01932F
:102CB00011936D937C93CF010E949B158CC05B0197
:102CC000A01AB10A4E01800E911EA0914D03B09141
:102CD0004E03612C712C60E070E0109709F449C03C
:102CE000A815B905C9F5ED90FC901197670142E070
:102CF000C40ED11CCA14DB0478F147018A189B0862
:102D0000640142E0C40ED11C1296BC901297139637
:102D1000AC91B5E0CB16D10440F0B282A38391828E
:102D20008082D9018D939C9309C00E5F1F4F0E0DB9
:102D30001F1DF90111830083EB2DFA2F6115710519
:102D400031F0DB011396FC93EE93129744C0F0939D
:102D50004E03E0934D033FC06D917C911197661631
:102D6000770608F43B01BD0112960D90BC91A02D91
:102D7000B4CF60914B0370914C0368157905E9F469
:102D800068167906D0F44091000150910101411577
:102D9000510541F44DB75EB7609104017091050192
:102DA000461B570BE417F507C0F4F0934C03E09370
:102DB0004B03F901918380830EC00E9403157C01AF
:102DC000009759F0A801BE010E942417CE010E946D
:102DD0009B15C70104C0CE0102C080E090E0CDB7D2
:102DE000DEB7EEE00C94CA171F93FC0199278827E1
:102DF000BC01E89411911032E9F3193010F01E3043
:102E0000C8F31B3251F01D3249F4689406C00E9489
:102E10005517610F711D811D911D119110531A30AD
:102E2000B0F33EF490958095709561957F4F8F4FEC
:102E30009F4F1F910895FB01DC0102C005900D9288
:102E400041505040D8F70895FB01DC0102C00190C9
:102E50000D9241505040D8F70895FB01DC010190DC
:102E60000D920020E1F70895FC0181E090E00190CF
:102E7000061609F4CF010020D1F7019708954532D5
:102E8000510520F4423010F00C944A17FB011082D7
:102E9000CB010895BB274A3031F4992322F4BDE2D7
:102EA000909581959F4F0C946B17592F482F372F72
:102EB000262F660F771F881F991F660F771F881FA1
:102EC000991F620F731F841F951F660F771F881F3E
:102ED000991F0895BB27FB015527AA27880F991F23
:102EE000AA1FA41710F0A41B83955051B9F7A05D39
:102EF000AA3308F0A95DA193009779F7B111B193B6
:102F00001192CB010C949A17F999FECF92BD81BD15
:102F1000F89A992780B50895262FF999FECF1FBA00
:102F200092BD81BD20BD0FB6F894FA9AF99A0FBEF2
:102F300001960895DC01FC01672F71917723E1F779
:102F4000329704C07C916D9370836291AE17BF0776
:102F5000C8F308952F923F924F925F926F927F92A3
:102F60008F929F92AF92BF92CF92DF92EF92FF9299
:102F70000F931F93CF93DF93CDB7DEB7CA1BDB0B45
:102F80000FB6F894DEBF0FBECDBF09942A883988EA
:102F900048885F846E847D848C849B84AA84B984F1
:102FA000C884DF80EE80FD800C811B81AA81B981FD
:102FB000CE0FD11D0FB6F894DEBF0FBECDBFED0111
:102FC000089511E0C0E1D1E004C0FE010E94E514C3
:0C2FD0002296C231D107C9F7F894FFCF58
:102FDC0000004F038000E803983A01010100000053
:102FEC0001000000525443204E4F5420464F554E82
:102FFC00442E2E2E00525443206973204E4F5420E1
:10300C0072756E6E696E6721003A004F4646205409
:10301C00494D45203D20004F4E2054494D45203D03
:10302C002000504841534553203D20312E0058007C
:10303C0020322E0020332E004D4F544F522053542B
:10304C0041545553203D20004F4E004F4646004FF3
:10305C004B00000000009D08F41100000000C90B9B
:10306C009C0B710B790B8C0B9B0B000000007810E8
:0A307C00F411FA0F1310051056109E
:00000001FF
