:100000000C9472000C949A000C949A000C949A0030
:100010000C949A000C949A000C949A000C949A00F8
:100020000C949A000C949A000C949A000C949A00E8
:100030000C949A000C949A000C949A000C949A00D8
:100040000C9432130C949A000C944A160C947C165F
:100050000C949A000C949A000C949A000C949A00B8
:100060000C949A000C949A002F2A2D2B132D3D5B93
:100070005D5C203B27602C2E2F5F2B7B7D7C7E3AA6
:10008000227E3C3E3F21402324255E262A2829004B
:100090000000080002010000030407000000000047
:1000A0000000000102040810204080010204081032
:1000B00020010204081020040404040404040402BF
:1000C00002020202020303030303030000000025EF
:1000D0000028002B0000000000240027002A000058
:1000E000C606AC1611241FBECFEFD8E0DEBFCDBFD1
:1000F00011E0A0E0B1E0E8E3FFE202C005900D925C
:10010000A038B107D9F722E0A0E8B1E001C01D9204
:10011000A73DB207E1F710E0C4EED0E004C022979B
:10012000FE010E948F17C03ED107C9F70E94F0164A
:100130000C949A170C94000080E00895089580E0D4
:10014000089585E890E0089589E790E008958DE6A8
:1001500090E0089588E690E008950895860F911D37
:10016000860F911DFC015687458781E00895CF9346
:10017000DF93EC018C819D81DC01ED91FC91048089
:10018000F581E02D6E8109951F86188A81E08A8BA2
:100190001E821B8A1C8A1D8A1E8A1F8A80E0DF91AC
:1001A000CF910895FC018681089581E0633009F0C4
:1001B00080E0089581E0613009F080E00895860FC5
:1001C000911D860F911DFC01858596850895FC0182
:1001D00087890895EF92FF92CF93DF93FC01E701A7
:1001E0002289223029F16787408B8B81837083308D
:1001F000F9F48A8187FF1CC08E81908D981708F4CE
:10020000808F822F90E0DC01AA0FBB1FA80FB91FBF
:10021000AE0FBF1F8A818F7017968C9317978C81B2
:1002200018968C93189784E019968C932F5F228BE5
:10023000DF91CF91FF90EF900895EF92FF920F938F
:1002400002970E94EA000F91FF90EF9008950895A1
:10025000CF92DF92EF92FF920F93CF93DF931F9293
:10026000CDB7DEB7FC01CB012285473499F0433589
:1002700051F04933B9F421FB332730F93095422F3F
:1002800030FB41F90EC0322F31703095422F30FBD8
:1002900040F907C022FB332730F93095422F30FB5D
:1002A00042F942873285231789F0009779F0398324
:1002B0009E012F5F3F4F6901EE24E394F12C00E093
:1002C00022E040E060E00E94B01201C080E00F90A8
:1002D000DF91CF910F91FF90EF90DF90CF90089535
:1002E0002F923F924F925F926F927F928F929F9246
:1002F000AF92BF92CF92DF92EF92FF920F931F9334
:10030000CF93DF9300D000D0CDB7DEB76C017C83F4
:100310006B835A8349834C0180E1880E911C5601FE
:10032000A7E0AA0EB11C11E054E0452E67E0362E7E
:100330003601B2E16B0E711C73E0272EE2E05E2EF7
:100340008B819C81892B09F412C1F60180A1823036
:1003500061F128F4882349F0813079F0F1CF8330BE
:1003600041F1843009F44BC0EBCF548285819681F2
:10037000908787835286518610A3AE014D5F5F4FF1
:10038000BE016F5F7F4FC5010E946B08882309F48F
:10039000EEC0D6011596ED91FC911697808191964D
:1003A0008C939197818192968C93F60176826582E7
:1003B00020A2D60192968C91843081F018F482307C
:1003C00079F014C0853081F0813281F4D6019196A4
:1003D0008C919197825014968C9308C0F60113A2C9
:1003E000D60114963C9202C0F6018483F601858101
:1003F00096819087878384818287818740A2D601F6
:1004000092968C918430B1F0853009F442C08230EC
:1004100009F06EC0AE014D5F5F4FBE016F5F7F4F51
:10042000C5010E946B08882309F4A1C0F6018589E3
:1004300084A38EC0AE014D5F5F4FBE016F5F7F4FE3
:10044000C5010E946B08882309F491C0D601559616
:100450008C915597833009F07BC056968C915697B6
:10046000813009F075C098969C91989757968C9119
:10047000992321F0882309F46BC003C0813009F06F
:1004800067C0F60113A3928996A3938997A385A3C6
:100490005FC0AE014D5F5F4FBE016F5F7F4FC50113
:1004A0000E946B08882309F462C0D60193968C9150
:1004B0009397882309F44CC012968D919C911397C1
:1004C000009709F445C0DC01ED91FC910190F081A9
:1004D000E02D7401D60195960C91959797962C91E5
:1004E000979796964C91969794966C91099530C0F3
:1004F000F60181A19585992319F0913031F023C03F
:1005000090E002979787868715872B813C818981A8
:100510009A81782F692FD6011E964D915C911F9775
:1005200041155105E9F001962115310541F0415081
:100530005109F6015787468721503109EACF79835F
:100540006A831C821B82F60186859785892B79F444
:10055000D60116969C928E92159790961C92F0CE8C
:100560009A8389833C832B83F6011586ECCF0F9009
:100570000F900F900F90DF91CF911F910F91FF90EF
:10058000EF90DF90CF90BF90AF909F908F907F9033
:100590006F905F904F903F902F900895809121022F
:1005A000909122028230910564F060E08EE00E941A
:1005B000CF1488E580930601109222021092210246
:1005C00008950196909322028093210208959FB787
:1005D000F8942091290280912702213019F48DBBD3
:1005E0009FBF08958FBF0895CF92DF92EF92FF9241
:1005F0000F931F93CF93DF93CDB7DEB762970FB6FC
:10060000F894DEBF0FBECDBF6C01DC0157968C9114
:10061000882369F00E947C13F601038914892589D7
:100620003689601B710B820B930B97FF02C0F12C74
:1006300039C0F601838590E09A8B898BE12C8E017D
:100640000F5F1F4F9E012F5E3F4F42856681848161
:1006500095810E947A0FF82E811118C029893A8954
:100660002330310598F0D6011D968D919C911E97EF
:10067000009761F0DC01ED91FC910190F081E02D9B
:100680008E010F5F1F4F40E0B60109950E947C1359
:10069000F601208D620F711D811D911D638B748B7E
:1006A000858B968B8F2D62960FB6F894DEBF0FBEAA
:1006B000CDBFDF91CF911F910F91FF90EF90DF9011
:1006C000CF9008953F924F925F926F927F928F9258
:1006D0009F92AF92BF92CF92DF92EF92FF920F93D1
:1006E0001F93CF93DF93CDB7DEB7EC970FB6F89497
:1006F000DEBF0FBECDBF5C01462E342E522EDC0174
:100700001496CD90DC90159716968C9116978111C2
:100710003AC158961C92D601ED91FC910190F0815E
:10072000E02D60E0C60109957C01009711F486ED8B
:100730002FC1FC01808091808114910409F425C1AE
:100740003501F7E06F0E711CDC0111967C926E9200
:1007500014965C928E01065D1F4F28E030E040E069
:1007600060E0F501848195810E94790E8CAF811142
:10077000FDC01AA5D7018D929C92D601ED91FC91F6
:100780000280F381E02D232D40E0642DC601099500
:10079000F5018683882309F4FAC099A99087282F48
:1007A00040E060E0848195810E94260F8CAFD601E5
:1007B000ED91FC91D70114961C92882359F0048086
:1007C000F581E02DD50116966C91C6010995F501CC
:1007D0001682D7C00190F081E02DD50116966C915C
:1007E000C6010995009709F4A2CF133108F012E170
:1007F000FC015482112389F0212F30E08E01065D27
:100800001F4F40E0D50116966C91169714968D9166
:100810009C9115970E94790E8CAF8CAD8111A9C067
:100820004BAC512CB4E2CB2EB1E0DB2E4501B2E053
:100830008B0E911C7E01E1E1EE0EF11C541449F186
:10084000DA82C9829C828B821E86188A1F8619A230
:100850001AA21BA219A6FF82EE82F986E8868D8174
:100860008B878A87FD86EC868E010F5F1F4F252DB3
:1008700040E0D50116966C91169714968D919C9137
:1008800015970E94C70EF5018289823011F05394AA
:10089000D5CFD50152968C91823019F081ED8CAF75
:1008A00068C0930142E0F5016681848195810E94D0
:1008B000C7098CAF68EE73E080E090E00E94AB1354
:1008C000D5011F962C911F9740E016966C911697B4
:1008D00014968D919C9115970E94550F8CAF8111A4
:1008E00048C068EE73E080E090E00E94AB13F50131
:1008F000418D60E0C5010E9408138CAF811139C0A1
:1009000020E040E060E0C5010E94DE128CAF8AE288
:1009100091E09A838983AE014F5F5F4F60E070E0A2
:10092000C5010E946D1280E28CAF8CAD8823C1F0AE
:1009300090E0959587958CAFCE01CC966C01EE2416
:10094000E394F12C00E022E040E060E0C5010E9469
:10095000B01269E170E080E090E00E94AB13E5CF57
:1009600081E0D50157968C9380E012C0F701918207
:100970008082D501ED91FC910480F581E02DC501C7
:1009800009958CAD05C089ED03C087ED01C084EDEC
:10099000EC960FB6F894DEBF0FBECDBFDF91CF91BE
:1009A0001F910F91FF90EF90DF90CF90BF90AF908D
:1009B0009F908F907F906F905F904F903F900895A1
:1009C00020912902222399F03FB7F894209129021F
:1009D000213059F42DB3209327024DB320912802E2
:1009E000209524232DBB3FBF02C0309327028CBD2E
:1009F0009DBD0895633111F480E541C06E3211F45C
:100A000081E403C0603341F482E4809306011092D4
:100A10002202109221023BC0613311F483E4F5CF2E
:100A2000623311F484E4F1CF633311F485E4EDCF44
:100A3000643311F486E4E9CF653311F487E4E5CF3C
:100A4000663311F488E4E1CF673311F489E4DDCF34
:100A5000683311F48AE4D9CF693311F48BE4D5CF2C
:100A60006B3211F48CE40BC06D3211F48DE407C0CD
:100A70006A3211F48EE403C06F3249F48FE480933C
:100A8000060183E090E0909322028093210260911E
:100A900006018AE392E00E943D1761E08EE00C942B
:100AA000CF14CF93DF93EC010E94EB07882331F042
:100AB000682FCE01DF91CF910C94FA04DF91CF9192
:100AC00008952091250230912602280F391F2531E3
:100AD00031052CF4309326022093250206C085E1CF
:100AE00090E09093260280932502809125029091B8
:100AF000260297FF04C01092260210922502089544
:100B0000609106018AE392E00E943D1781E090E047
:100B10000C9461058AEA91E00E947411809125028B
:100B2000909126028A30910534F42FEF30E0309313
:100B30002402209323029C012A5031092A303105D6
:100B400038F480E890E0909324028093230206C05A
:100B5000449724F010922402109223026091230201
:100B60007091240283E00E940E140E94800562E3CB
:100B700070E080E090E00C94AB132A9A0895CF9334
:100B8000C82F80E591E00E94E0042A98CEBD0000C5
:100B90000DB407FEFDCF8EB51EBC00000DB407FEE0
:100BA000FDCFCEB50E94BD058091290281110E9422
:100BB000E7028C2FCF9108951F93CF93DF931F925D
:100BC000CDB7DEB7182F80E591E069830E94E0047D
:100BD0002A98812F82608EBD69810DB407FEFDCFFA
:100BE0008EB56EBD0DB407FEFDCF8EB50E94BD055E
:100BF00080912902882331F00F90DF91CF911F91CE
:100C00000C94E7020F90DF91CF911F91089588EF28
:100C10000E94BF05807C8034A1F018F4882301F184
:100C20000895803819F0803CB9F0089588ED0E944D
:100C3000BF0581FD0BC069EC88ED0E94DC0582E0F8
:100C40000CC088ED0E94BF0581FDF5CF6BEC88EDEF
:100C50000E94DC0583E001C081E08093800108955B
:100C600061ED88ED0E94DC051092800108950F93DC
:100C70001F93CF93DF938C01229A0E94BD050E949F
:100C80003107229A0E94BD05219868E188E80E94F8
:100C9000DC0560E288E70E94DC0560E088E70E94EE
:100CA000DC05C0E0D0E088E60E94BF05219680FD0B
:100CB00006C0CF3F8FEFD807B1F78FEF1DC061ECB3
:100CC00088ED0E94DC0560E680ED0E94DC0564E0B2
:100CD00088EE0E94DC0588EE0E94BF0582FFFBCFF4
:100CE000C8010E94070660E288EC0E94DC0561E012
:100CF00080E80E94DC0580E0DF91CF911F910F9189
:100D0000089526E040E855E260E070E08AE392E072
:100D10000E94E81567E071E08AE392E00E945817AC
:100D20008AEA91E00E9437068F3F31F46DE071E06E
:100D30008AE392E00E94581768EC70E080E090E04F
:100D40000E94AB130E947C1368577C4E8F4F9F4FBD
:100D500060938C0170938D0180938E0190938F012D
:100D600081E891E090939E0180939D0161E08EE087
:100D70000E94961461E083E00E94961461E084E092
:100D80000E94961461E084E00C94CF148AEA91E00A
:100D90000E94D4088AEA91E090939501809394018F
:100DA00086E491E0909391018093900184E691E034
:100DB00090939301809392011092A3011092A40149
:100DC0001092A5011092A6011092A7011092A901FC
:100DD0001092970188E0809398018CE380939901A9
:100DE00010929A0110929B0184E080939C0181E013
:100DF0008093A2011092A10110929F0110929E0176
:100E000010929D01E0E0F2E080E090E021913191CC
:100E1000232B51F4FC01EE0FFF1FE050FE4F80E941
:100E200091E09183808304C001968031910571F730
:100E300010928B0180E391E0909382018093810175
:100E400008958AE392E00E940515892B49F08AE310
:100E500092E00E941E158FEF9FEF0E946105F1CF77
:100E60000895CF93CFB7F89480912A02811116C0CC
:100E700061E08AE00E94CF1461E08AE00E9496144B
:100E80008CB580618CBD8CB580648CBD61E08DE0DB
:100E90000E94961461E08BE00E94961480912A02D1
:100EA0008F5F80932A02CFBFCF9108955F926F9298
:100EB0007F928F929F92AF92BF92CF92DF92EF92EA
:100EC000FF920F931F93CF93DF93EC014B01D80157
:100ED00012968C911297813009F46DC06A814C9101
:100EE000641739F0E881F9810480F581E02DCE01A5
:100EF00009955801B2E0AB0EB11C7501C12CD12C83
:100F0000D7014C913E016C0C7D1CF3013481F5013D
:100F100080E090E0512C20E0DE01A80FB91F14966C
:100F20005C91451303C0413009F021E05191531306
:100F300004C0313011F05524539401968630910548
:100F400059F7211113C0E881F9810280F381E02D66
:100F5000B401CE010995E881F9810680F781E02D81
:100F6000D7014C91D8016C91CE01099551100BC05D
:100F7000E881F9810084F185E02DD30114964C912C
:100F80006A81CE010995BFEFCB1ADB0AEFEFEE1AAB
:100F9000FE0AF6E0CF16D10409F0B2CFF80180E0E6
:100FA00090E02191DE01A80FB91F12962C930196B3
:100FB00088309105B1F7DF91CF911F910F91FF908C
:100FC000EF90DF90CF90BF90AF909F908F907F90E9
:100FD0006F905F900895CF93DF93C42F62722CEFD0
:100FE000240F2A3170F4FC01828581FD03C0662341
:100FF00029F002C0611102C08DE301C08DE58C0FA4
:1010000067C022EE240F2A30A0F4662361F0FC01B1
:10101000A081B1811A96ED91FC911B970995EC2F57
:10102000F0E07E9721C0473211F480E351C083E1A4
:10103000E6CF27EA240F293030F4FC01828580FFB7
:1010400046C088EDDCCF23ED240F2C30B0F4FC013A
:10105000A081B181D0E0662359F01C96ED91FC91FE
:101060001D970995FE01BD97E80FF91F849130C0C7
:101070001E96ED91FC911F97F4CF2CEA240F25309A
:1010800068F4FC01A081B1815096ED91FC915197DB
:101090000995EC2FF0E0E455F109E6CF4C3251F020
:1010A00020F44832A1F483E113C0423629F04336DC
:1010B00041F00DC080E20CC0FC01828580FF07C0BA
:1010C000B4CFFC01828580FF02C08EE201C080E0C7
:1010D000DF91CF910895CF93DF93FC01EA018081E6
:1010E0009181892B21F580E028C088819981892B05
:1010F000D1F3DB018D919C91DC015C91238130E087
:10110000241B310980819181820F931FDC015C9344
:101110008281815082838881998101979983888314
:10112000DB018D919C91119701968D939C93428147
:101130004111DBCF8381828381E0DF91CF910895DC
:10114000FC0120812EBDDC019B012150310951F0B1
:1011500011965C9111970DB407FEFDCF4EB55EBDA3
:101160004D93F3CFFB013197E80FF91F0DB407FE44
:10117000FDCF8EB5808308958EBD00000DB407FEAF
:10118000FDCF8EB5089580912902882361F09FB725
:10119000F8942091290280912702213019F48DBB07
:1011A0009FBF08958FBF0895FC018AE691E0918367
:1011B00080831582108681E0818712869F012E5FD1
:1011C0003F4F37832683128288E083838CE38483B6
:1011D00080E090E041E0DF01A80FB91F1D961C924E
:1011E0001D971E964C931E971F961C921F971C9638
:1011F0003C932E931B9705968B34910561F7EA5823
:10120000FF4F108281E180932F02089520E030E0AB
:1012100041E0FC01E20FF31F5585561739F04F5F8F
:101220002B5F3F4F4031A9F780E00895842F089548
:10123000EF92FF921F93CF93DF9300D0CDB7DEB72D
:101240007C01162F67FD5FC0283008F05CC0442386
:1012500031F0DC0115968C91873009F454C060E0C0
:10126000C7012A8349830E9406092A81498188236C
:1012700009F449C0E82FF0E0111123C085E08E9FEA
:10128000D0018F9FB00D1124AE0DBF1D442359F026
:1012900081E418968C93D70115968C9115978F5FE2
:1012A00015968C9303C081E018968C9385E08E9FF1
:1012B000D0018F9FB00D1124AE0DBF1D18968C91DB
:1012C00023C0612F6770660F660F660F442361F0BD
:1012D0006064D70115968C9115978F5F15968C9346
:1012E0008770687F682B03C02770687B622B85E05E
:1012F0008E9FD0018F9FB00D1124AE0DBF1D18968B
:101300006C93862F01C080E00F900F90DF91CF91FA
:101310001F91FF90EF900895CF93DF93EC01662328
:1013200059F00E940609882349F09E0145E0849FF8
:10133000200D311D1124C901069602C080E090E005
:10134000DF91CF910895CF93DF931F92CDB7DEB792
:1013500049830E948C094981009789F0DC01ED9155
:10136000FC911197309759F013969C9180E0891762
:1013700031F02081241731F033968F5FF8CF80E071
:1013800090E001C0CF010F90DF91CF910895EF92CF
:10139000FF921F93CF93DF931F92CDB7DEB7162F27
:1013A00079012115310569F049830E948C09FC01FE
:1013B0004981009741F01283F182E082438380E00B
:1013C00003C088ED01C086ED0F90DF91CF911F9192
:1013D000FF90EF9008952A9808951F93CF93DF937D
:1013E0001F92CDB7DEB7182F80E591E00E94E00490
:1013F0000E94EB09812F0E94BC0880E00E94BC087B
:1014000089830E94BD050E94C30889810F90DF91E6
:10141000CF911F9108951F93CF93DF9300D01F9218
:10142000CDB7DEB7182F80E591E06B830E94E00412
:101430000E94EB09126019836B816A8362E070E09D
:10144000CE0101960E94A0080E94BD050E94C3081B
:101450000F900F900F90DF91CF911F9108958F9271
:101460009F92BF92CF92DF92EF92FF920F931F93C2
:10147000CF93DF931F92CDB7DEB74C01B62E690133
:1014800049830E948C097C014981009709F443C07B
:10149000FC0180819181892B09F43FC06B2DC4012F
:1014A0000E94A309F601918380830097C1F1FC019A
:1014B000228126952695822F90E0409764F441E0A2
:1014C00050E060E070E004C0440F551F661F771FB6
:1014D0002A95D2F702C040E050E841505109F80186
:1014E000518340836B2D80EE0E940B0A88ED0E9491
:1014F000ED09F7019481992339F0F401EA58FF4F7F
:1015000060816260682B02C0682F697F88ED0E944D
:101510000B0A80E005C086ED03C087ED01C08BEDAE
:101520000F90DF91CF911F910F91FF90EF90DF907F
:10153000CF90BF909F908F9008958F929F92AF927F
:10154000BF92CF92DF92EF92FF920F931F93CF93B0
:10155000DF931F92CDB7DEB7A62E890149830E9483
:101560007C136B017C0188E8C80E83E1D81EE11C66
:10157000F11C812C912CB12C20E04981A42A2983D3
:101580000E947C136C197D098E099F09298197FFA0
:101590002DC06A2D80EF0E940B0A0E947C136C19EB
:1015A0007D098E099F0997FF09C088EC0E94ED090B
:1015B00087FFF3CF60E888EC0E940B0A88EF0E9457
:1015C000ED09282F2F70243019F02E3059F00EC05D
:1015D000EFEF8E1A9E0A0115110589F28016910609
:1015E00071F604C0B394F3E0BF12C9CF822F0F90FD
:1015F000DF91CF911F910F91FF90EF90DF90CF90EF
:10160000BF90AF909F908F9008959F92AF92BF929E
:10161000CF92DF92EF92FF920F931F93CF93DF93BE
:101620007C01B42E122FAA24A394DC01A60FB11DB5
:10163000A60FB11D6D0186E5C80ED11CC42FD0E0E8
:10164000AB96CC0FDD1FCE0DDF1DD6018D919C9189
:10165000DC01ED91FC910280F381E02D202F412FE0
:101660006B2D0995803EC1F4B1100BC061E088EE8E
:101670000E940B0A66E670E080E090E00E94AB13E7
:1016800015C088819981DC01ED91FC910284F3857C
:10169000E02D612F09950AC08D3031F48FEF8A0D4E
:1016A000833008F042C017C0811142C0F60180812A
:1016B0009181DC01ED91FC910190F081E02D202FD2
:1016C000412F6B2D0995982EBDE08B130CC08FEF29
:1016D0008A0D833050F464E670E080E090E00E9470
:1016E000AB13A394B2CF882311F1B1100BC061E00A
:1016F00088EE0E940B0A66E670E080E090E00E94AF
:10170000AB1311C0EB2DF0E0BB96EE0FFF1FEE0DFB
:10171000FF1D80819181DC01ED91FC910284F385B4
:10172000E02D612F0995892D03C08DE001C080E077
:10173000DF91CF911F910F91FF90EF90DF90CF90AD
:10174000BF90AF909F9008950F931F93CF93DF9317
:10175000D82FC62F8A0180E591E00E94E0040E9404
:10176000EB098D2F82600E94BC08D0E0209721F009
:10177000BE01C8010E94A008C00FD11F0E94BD0574
:101780000E94C308CE01DF91CF911F910F91089560
:101790002F923F924F925F926F927F928F929F9281
:1017A000AF92BF92CF92DF92EF92FF920F931F936F
:1017B000CF93DF9300D000D01F92CDB7DEB77D83EB
:1017C0006C835A016901FB0121808FEF820D803407
:1017D00008F06FC00E947C132B013C01F8E84F0E0B
:1017E000F3E15F1E611C711CEC81FD81828180FF31
:1017F00002C060E801C060E488EE0E940B0A20E0AD
:10180000312CC114D10409F444C076012C143D04D8
:1018100008F47101EA82A8016E2D80E10E94A40BF8
:101820006E2D88E30E940B0AEC81FD81608160626D
:1018300080EF0E940B0A88EC0E94ED0987FFFBCF26
:1018400060E888EC0E940B0A88EF0E94ED09282FBF
:101850002F70812C912C1982222309F46BC02B83C9
:101860000E947C1364197509860997092B8197FFDB
:1018700061C0263001F12E3009F456C0243049F4FD
:10188000FFEF8F1A9F0AA114B10459F18A149B0427
:1018900041F588EF2B830E94ED0985FB882780F9AD
:1018A000EC81FD81928180FB90F992832B81822FC4
:1018B00046C08AED44C088EF0E94ED0985FB882769
:1018C00080F991E08927EC81FD81928180FB90F97C
:1018D000928390FF02C060E801C060E488EE0E943D
:1018E0000B0A60E088E30E940B0AF801608180E146
:1018F0000E940B0A6A8188E30E940B0AEC81FD8139
:101900006081606280EF0E940B0A88EC0E94ED0902
:1019100087FFFBCF60E888EC0E940B0A88EF0E94EB
:10192000ED09282F2F7098CF89818F5F89838330AD
:10193000C1F6AFCFCE18DF080E0D1F1D62CF0F907E
:101940000F900F900F900F90DF91CF911F910F91FB
:10195000FF90EF90DF90CF90BF90AF909F908F90CF
:101960007F906F905F904F903F902F9008952F92AF
:101970003F924F925F926F927F928F929F92AF921F
:10198000BF92CF92DF92EF92FF920F931F93CF936C
:10199000DF93CDB7DEB729970FB6F894DEBF0FBE41
:1019A000CDBF1C01798768875B834A836901D901B0
:1019B0008D909C901197FB01F181F9831D921C92EF
:1019C000DB0112968C9181FF02C060E201C060E1F0
:1019D00088EE0E940B0A8E2D90E0A0E0B0E08C8390
:1019E0009D83AE83BF83482C2A813B81A885B9851E
:1019F0004C9160E0C1010E949D0AF82EB6E08B1365
:101A000016C088EF0E94ED098295817091E08927C8
:101A1000E885F985928180FB91F9928391FF02C05C
:101A200060E201C060E188EE0E940B0ADDCF811107
:101A300066C088EC0E94ED0982FF5FC080E30E94CF
:101A4000ED09582E90E08816990608F4542CD6011A
:101A50008D919C91652C712CF401E81BF90BCF0141
:101A6000F7FF02C080E090E05301861597050CF463
:101A70005C0180E591E00E94E0040E94EB0988E0AF
:101A80000E94BC08A50160E070E0C8010E949317A5
:101A9000A114B10421F0B501C8010E94A0080A0DEB
:101AA0001B1D0E94BD050E94C30864E088EC0E94D3
:101AB0000B0AD6018D919C911197860D971D8D93E0
:101AC0009C93B9815B1618F08815990560F088EF32
:101AD0000E94ED0982958170E885F985928180FBED
:101AE00091F992830CC0EE2009F47ECF6C817D8148
:101AF0008E819F810E94AB1377CF30EFF32E8F2D15
:101B000029960FB6F894DEBF0FBECDBFDF91CF91FF
:101B10001F910F91FF90EF90DF90CF90BF90AF900B
:101B20009F908F907F906F905F904F903F902F90FD
:101B300008952F923F924F925F926F927F928F9271
:101B40009F92AF92BF92CF92DF92EF92FF920F934C
:101B50001F93CF93DF93CDB7DEB762970FB6F8949C
:101B6000DEBF0FBECDBF3C01F42E322E202E5C2DE9
:101B70004FA058A4C9A4DAA4188A1F861E861D8601
:101B80008E01035F1F4F9E01215F3F4F598B0E94C3
:101B90002F0A5989811194C039822A82EB825C8391
:101BA000BE82AD8298868F82AE014F5F5F4F68E044
:101BB00080E20E94A40B2D853E854F2D60E1C3017C
:101BC0000E949D0A182F81117AC0232C221C2224E6
:101BD000221CC114D10409F466C0EF85F889828102
:101BE000222009F453C08260828354013324339449
:101BF000A114B10409F455C05C864B864D855E8501
:101C00006F857889E12C86019E01255F3F4FC301D6
:101C10000E94B70C182F8630B1F42F85388988EFD1
:101C2000298B3A8B0E94ED0985FB882780F9832553
:101C300029893A89D90112969C91129780FB91F9D2
:101C400012969C93D5CF81113AC0EBA5FCA5309795
:101C5000A1F00190F081E02D0190F081E02DC40110
:101C60008A199B099A8789876B857C859E01275FE6
:101C70003F4FA6018BA59CA509958B859C85A81A2D
:101C8000B90A8415950508F0B3CF0DC08160828331
:101C90004D855E8586019201BF01C3010E94C80B7C
:101CA000182F11110CC02D853E85222011F060EAFD
:101CB00001C060E84F2DC3010E949D0A01C0812F21
:101CC00062960FB6F894DEBF0FBECDBFDF91CF9105
:101CD0001F910F91FF90EF90DF90CF90BF90AF904A
:101CE0009F908F907F906F905F904F903F902F903C
:101CF00008958F929F92AF92BF92CF92EF920F93DF
:101D00001F931F921F921F930F933F932F9349018D
:101D1000A12CB12CCC24C394E12C06E020E80E9435
:101D2000990D0F900F900F900F900F900F901F91A3
:101D30000F91EF90CF90BF90AF909F908F900895AC
:101D40008F929F92AF92BF92CF92EF92FF920F939A
:101D50001F921F92FF92EF923F932F934901A12C64
:101D6000B12C52E0C52EE02E06E020E80E94990D2D
:101D70000F900F900F900F900F900F900F91FF907A
:101D8000EF90CF90BF90AF909F908F9008953F922B
:101D90004F925F926F927F928F929F92AF92BF927B
:101DA000CF92DF92EF92FF920F931F93CF93DF9327
:101DB000CDB7DEB7C054D1090FB6F894DEBF0FBE61
:101DC000CDBF3C01562E442E322EB02ECE010196B0
:101DD0006C017C01022F29E030E0C3010E94A00EBB
:101DE00081111BC08B809C801F93BF92DF92CF928A
:101DF0001F9280E48F93A12CB12C62E0C62EE32CBD
:101E000006E020E8442D652DC3010E94990D0F9036
:101E10000F900F900F900F900F90C05CDF4F0FB698
:101E2000F894DEBF0FBECDBFDF91CF911F910F9110
:101E3000FF90EF90DF90CF90BF90AF909F908F90EA
:101E40007F906F905F904F903F9008958F929F92F8
:101E5000AF92BF92CF92EF920F93CF931F921F92A8
:101E60001F921F921F921F92812C912CA12CB12C9A
:101E7000C12CE22E05E020E00E94990DC82F6CE2F3
:101E800071E080E090E00E94AB130F900F900F90F4
:101E90000F900F900F908C2FCF910F91EF90CF90CC
:101EA000BF90AF909F908F9008958F929F92AF9226
:101EB000BF92CF92EF920F931F921F921F921F9289
:101EC0001F921F92812C912CA12CB12CC12CE22E9F
:101ED00009E020E00E94990D0F900F900F900F9055
:101EE0000F900F900F91EF90CF90BF90AF909F9079
:101EF0008F9008958F929F92AF92BF92CF92DF9270
:101F0000EF920F931F93CF93DF9300D000D0CDB704
:101F1000DEB76C01590148011C821B821A821982AA
:101F20008E010F5F1F4F9E012D5F3F4F0E942F0AB2
:101F3000811109C049815A816B817C81840195019D
:101F4000C6010E94B70C0F900F900F900F90DF9179
:101F5000CF911F910F91EF90DF90CF90BF90AF90F6
:101F60009F908F900895CF92DF92FF920F931F93CF
:101F7000CF93DF9300D0CDB7DEB76C01662309F4B1
:101F800042C0062F10E085E0689FB0011124F601E1
:101F9000E60FF71F8085282F277086FF19C031E0D4
:101FA000E5E0FE2EF601F39EE00DF11D1124808583
:101FB00086958695869587708217E1F03F5F303170
:101FC00088F3F6018581821303C02150F601258331
:101FD00085E0809FF001819FF00D1124EC0DFD1D27
:101FE000108681E08187128682E0C80ED11CD782DC
:101FF000C68209C0632FC6012A8339830E94B30FAA
:102000002A813981CFCF0F900F90DF91CF911F910F
:102010000F91FF90DF90CF900895CF93DF93EC0165
:102020006134A1F4FC01855B9F4F41E09E012E5F6E
:102030003F4F158646871786348723873596E817DE
:10204000F907B9F71D82DF91CF9108950E94060923
:10205000682FCE01DF91CF910C94B30F0F931F9394
:10206000CF93DF93EC01022FCA3F8FEFD80711F413
:1020700086ED29C08E819F81892B01F12A87242F2B
:1020800040E0CE010E941809182F8823C9F0682F5C
:10209000CE010E948C09009759F3FC010483212F83
:1020A00040E060E0CE010E94260F082F882351F007
:1020B000612FCE010E940D10802F05C087ED03C057
:1020C00084ED01C080E0DF91CF911F910F910895C1
:1020D0002F923F924F925F926F927F928F929F9238
:1020E000AF92BF92CF92DF92EF92FF920F931F9326
:1020F000CF93DF93CDB7DEB766970FB6F894DEBF08
:102100000FBECDBF7C01862E742E922E1B8A88E0D6
:102110008C8B8CE38D8BD701ED91FC910190F0813C
:10212000E02D60E0C70109956C01009709F4ABC090
:10213000FC01A080B180CE0143969183808394827C
:102140008E010F5F1F4F22E130E040E060E0C701E9
:102150000E94790ED601AD92BC928111ACC0298447
:102160003A844B845C84BD81BE8B1E815701612CF7
:102170006501E6E5CE0ED11CD6018D919C910097AC
:1021800089F1DC01ED91FC910084F185E02D099548
:10219000811128C0F60180819181DC01ED91FC91D3
:1021A0000088F189E02D612F09958823D9F0F60187
:1021B00080819181DC01ED91FC910484F585E02D15
:1021C000A201B1010995811160C0F6018081918160
:1021D000DC01ED91FC910684F785E02D6E8909956F
:1021E000811153C06394B2E0AB0EB11CE0E16E12FA
:1021F000BFCF5701612C6501F6E5CF0ED11CD6018A
:102200008D919C91009789F1DC01ED91FC91008406
:10221000F185E02D0995811128C0F6018081918119
:10222000DC01ED91FC910088F189E02D612F099589
:102230008823B1F1F60180819181DC01ED91FC915F
:102240000484F585E02DA201B101099581110DC02D
:10225000F60180819181DC01ED91FC910684F78586
:10226000E02D6E8909958823D9F06394B2E0AB0E16
:10227000B11CE0E16E12BFCF292D472D682DC7019B
:102280000E942E1018C086ED16C0092D272D482D4E
:10229000662DC7010E94050B813D09F4A3CF0BC039
:1022A000092D272D482D662DC7010E94050B982F5B
:1022B000977F913DD1F266960FB6F894DEBF0FBEC0
:1022C000CDBFDF91CF911F910F91FF90EF90DF90E5
:1022D000CF90BF90AF909F908F907F906F905F90C6
:1022E0004F903F902F900895FF920F931F93CF939D
:1022F000DF93EC0119990EC088EC0E94ED0985FF6F
:1023000005C0CE010E94070660E201C060E088ECD3
:102310000E940B0A80918001813051F058F0823088
:1023200029F0833039F5FF24F3940DC0F12C0BC054
:1023300083E106C080912F02807F8031D9F081E156
:1023400080932F0217C080912F02807F803199F4F3
:102350000E947C1368537F4F8F4F9F4F60932B02D7
:1023600070932C0280932D0290932E0280E2809332
:102370002F0201C0F12C00E010E0FE01E00FF11F80
:10238000EA5AFF4F80819181009739F0DC01ED918D
:10239000FC910680F781E02D09950E5F1F4F0032FA
:1023A000110559F780912F02803409F446C070F46A
:1023B000803269F18033D9F1813109F088C0FE01A2
:1023C000EA58FF4F108200E010E00AC0813509F49E
:1023D0005AC0803809F46AC0803509F078C03CC022
:1023E000FE01E00FF11FEA5AFF4F808191810097B3
:1023F00039F0DC01ED91FC910480F581E02D099527
:102400000E5F1F4F0032110559F782E15EC00E9436
:102410007C1300912B0210912C0220912D023091FF
:102420002E02601B710B820B930B97FD50C061E075
:1024300088EE0E940B0A80E448C088EE0E94ED09F5
:1024400080FD45C088ED0E94ED09682F686088ED29
:102450000E940B0A80E539C088EC0E94ED0986FFD6
:1024600036C081E580932F020E947C136C5E7F4F03
:102470008F4F9F4F60932B0270932C0280932D02FD
:1024800090932E0224C00E947C1300912B02109185
:102490002C0220912D0230912E02601B710B820BB9
:1024A000930B97FD14C080E880932F022F2D40E0FE
:1024B00060E0CE010E946810882331F0823D39F03F
:1024C0008093300280EA01C080E980932F02DF917F
:1024D000CF911F910F91FF9008958F929F92AF928D
:1024E000BF92CF92EF920F93CF93DF93CDB7DEB72A
:1024F000C054D1090FB6F894DEBF0FBECDBF5F93B5
:102500004F939E012F5F3F4F3F932F931F9220E4E5
:102510002F9320E8822E912C5B0132E2C32EE12C16
:1025200006E021E840E0FC016681848195810E94FB
:10253000990D0F900F900F900F900F900F90C05C1F
:10254000DF4F0FB6F894DEBF0FBECDBFDF91CF9146
:102550000F91EF90CF90BF90AF909F908F90089584
:102560008F929F92AF92BF92CF92DF92EF92FF92A3
:102570000F938E2CA42EB12C1F921F92DF92CF921C
:10258000FF92EF929F2CC22EE02E09E021E2462F0F
:10259000FC016681848195810E94990D0F900F90B6
:1025A0000F900F900F900F900F91FF90EF90DF9092
:1025B000CF90BF90AF909F908F9008958F929F92F1
:1025C000AF92BF92CF92EF920F93A62EB12C1F9293
:1025D0001F921F921F921F921F92812C912CC22E2C
:1025E000E42E0AE021E240E0FC01668184819581CD
:1025F0000E94990D0F900F900F900F900F900F90D9
:102600000F91EF90CF90BF90AF909F908F900895D3
:102610008F929F92AF92BF92CF92EF920F93A62E7E
:10262000B12C1F921F921F921F921F921F92812CFA
:10263000912CC12CE42E0BE021E240E0FC016681EC
:10264000848195810E94990D0F900F900F900F90AB
:102650000F900F900F91EF90CF90BF90AF909F9001
:102660008F9008951F920F920FB60F9211242F93FF
:102670003F938F939F93AF93BF938091320290913A
:102680003302A0913402B09135023091310223E03F
:10269000230F2D3720F40196A11DB11D05C026E89A
:1026A000230F0296A11DB11D2093310280933202A7
:1026B00090933302A0933402B09335028091360296
:1026C00090913702A0913802B09139020196A11D74
:1026D000B11D8093360290933702A0933802B093D5
:1026E0003902BF91AF919F918F913F912F910F90A0
:1026F0000FBE0F901F9018952FB7F894609132027B
:102700007091330280913402909135022FBF089569
:102710003FB7F8948091360290913702A091380229
:10272000B091390226B5A89B05C02F3F19F001963C
:10273000A11DB11D3FBF6627782F892F9A2F620FE9
:10274000711D811D911D42E0660F771F881F991F23
:102750004A95D1F70895CF92DF92EF92FF92CF93EF
:10276000DF936B017C010E948813EB01C114D1043B
:10277000E104F10489F00E946A170E9488136C1B1F
:102780007D0B683E734090F381E0C81AD108E108E0
:10279000F108C851DC4FEACFDF91CF91FF90EF9065
:1027A000DF90CF900895789484B5826084BD84B51D
:1027B000816084BD85B5826085BD85B5816085BD3C
:1027C000EEE6F0E0808181608083E1E8F0E0108255
:1027D000808182608083808181608083E0E8F0E096
:1027E000808181608083E1EBF0E080818460808380
:1027F000E0EBF0E0808181608083EAE7F0E08081B7
:102800008460808380818260808380818160808316
:102810008081806880831092C10008951F93CF93B8
:10282000DF93182FEB0161E00E949614209711F4BA
:1028300060E004C0CF3FD10539F461E0812FDF9122
:10284000CF911F910C94CF14E12FF0E0E157FF4F8F
:10285000E491E330F9F048F4E130B9F0E230A1F569
:1028600084B5806284BDC8BD34C0E730E9F0E8308B
:1028700019F1E43049F580918000806280938000F6
:10288000D0938B00C0938A0024C084B5806884BD37
:10289000C7BD1FC080918000806880938000D09366
:1028A0008900C093880015C08091B0008068809333
:1028B000B000C093B3000DC08091B00080628093DF
:1028C000B000C093B40005C0C038D1050CF0B5CF3E
:1028D000AFCFDF91CF911F910895833081F028F41D
:1028E000813099F08230A1F008958730A9F08830C6
:1028F000B9F08430D1F4809180008F7D03C0809145
:1029000080008F7780938000089584B58F7702C010
:1029100084B58F7D84BD08958091B0008F7703C00A
:102920008091B0008F7D8093B0000895CF93DF93A6
:1029300090E0FC01ED55FF4F2491FC01E954FF4F5D
:102940008491882349F190E0880F991FFC01EB5294
:10295000FF4FA591B49185539F4FFC01C591D49130
:102960009FB7611108C0F8948C91209582238C93B5
:10297000888182230AC0623051F4F8948C91322FFE
:10298000309583238C938881822B888304C0F894AC
:102990008C91822B8C939FBFDF91CF9108950F93E1
:1029A0001F93CF93DF931F92CDB7DEB7282F30E070
:1029B000F901E157FF4F8491F901ED55FF4F149153
:1029C000F901E954FF4F04910023C9F0882321F055
:1029D00069830E946D146981E02FF0E0EE0FFF1F04
:1029E000E553FF4FA591B4919FB7F8948C91611175
:1029F00003C01095812301C0812B8C939FBF0F9042
:102A0000DF91CF911F910F910895FC01818D228D4F
:102A100090E0805C9F4F821B91098F7399270895E6
:102A2000FC01918D828D981731F0828DE80FF11D98
:102A3000858D90E008958FEF9FEF0895FC01918DB3
:102A4000828D981761F0828DDF01A80FB11D5D9610
:102A50008C91928D9F5F9F73928F90E008958FEF7E
:102A60009FEF089582EA96E1892B49F081E297E091
:102A7000892B29F00E94A21681110C942107089538
:102A8000FC01848DDF01A80FB11DA35ABF4F2C910B
:102A9000848D90E001968F739927848FA689B789DA
:102AA0002C93A089B1898C9180648C93938D848DB3
:102AB000981306C00288F389E02D80818F7D808382
:102AC0000895CF93DF93EC01888D8823C9F0EA89BC
:102AD000FB89808185FD05C0A889B9898C9186FD17
:102AE0000FC00FB607FCF5CF808185FFF2CFA88914
:102AF000B9898C9185FFEDCFCE010E944015E7CFBB
:102B0000DF91CF910895CF92DF92FF920F931F93A1
:102B1000CF93DF931F92CDB7DEB76C01DC015B96DC
:102B20009C915B975C968C915C97981307C050962C
:102B3000ED91FC915197808185FD32C0F601038DA6
:102B400010E00F5F1F4F0F731127F02EF601848DD9
:102B5000F81211C00FB607FCF9CFD6015096ED91CF
:102B6000FC915197808185FFF1CFC60169830E9456
:102B700040156981EBCF838DE80FF11DE35AFF4FBC
:102B80006083D6015B960C935B975296ED91FC9116
:102B9000539780818062808381E058968C930DC02A
:102BA000D6015696ED91FC91579760835096ED9122
:102BB000FC91519780818064808381E090E00F9048
:102BC000DF91CF911F910F91FF90DF90CF900895EB
:102BD000BF92CF92DF92EF92FF92CF93DF93EC01FF
:102BE0006A017B01B22EE889F98982E08083411570
:102BF00081EE580761057105A1F060E079E08DE391
:102C000090E0A70196010E946B17215031094109FC
:102C100051095695479537952795211580E1380735
:102C200098F0E889F989108260E874E88EE190E014
:102C3000A70196010E946B172150310941095109E2
:102C40005695479537952795EC85FD853083EE851C
:102C5000FF852083188EEC89FD89B082EA89FB8983
:102C6000808180618083EA89FB898081886080839C
:102C7000EA89FB89808180688083EA89FB89808179
:102C80008F7D8083DF91CF91FF90EF90DF90CF9089
:102C9000BF9008951F920F920FB60F9211242F9399
:102CA0008F939F93EF93FF93E0914A02F0914B0231
:102CB0008081E0915002F091510282FD12C090811A
:102CC000809153028F5F8F7320915402821751F0CD
:102CD000E0915302F0E0E65CFD4F958F8093530244
:102CE00001C08081FF91EF919F918F912F910F9063
:102CF0000FBE0F901F9018951F920F920FB60F9254
:102D000011242F933F934F935F936F937F938F93F0
:102D10009F93AF93BF93EF93FF938AE392E00E9458
:102D20004015FF91EF91BF91AF919F918F917F914E
:102D30006F915F914F913F912F910F900FBE0F9028
:102D40001F9018958AE392E00E94051521E0892BD7
:102D500009F420E0822F089510923D0210923C0267
:102D600088EE93E0A0E0B0E080933E0290933F02B3
:102D7000A0934002B093410284E791E090933B021C
:102D800080933A0285EC90E090934702809346024C
:102D900084EC90E0909349028093480280EC90E0AC
:102DA00090934B0280934A0281EC90E090934D0205
:102DB00080934C0282EC90E090934F0280934E02FD
:102DC00086EC90E09093510280935002109253024F
:102DD00010925402109255021092560208950895CE
:102DE0000E94D3130E94EF160E948106C2E3D5E130
:102DF0000E948A052097E1F30E943215F9CFCF9205
:102E0000DF92EF92FF920F931F93CF93DF936C01AA
:102E10007A01EB01E60EF71E00E010E0CE15DF05AB
:102E200061F06991D601ED91FC910190F081E02D66
:102E3000C6010995080F191FF1CFC801DF91CF9185
:102E40001F910F91FF90EF90DF90CF900895611543
:102E5000710581F0DB010D900020E9F7AD014150D3
:102E60005109461B570BDC01ED91FC910280F38167
:102E7000E02D099480E090E00895DC01ED91FC9153
:102E80000190F081E02D09940F931F93CF93DF936E
:102E9000EC016DE00E943D178C016AE0CE010E94BA
:102EA0003D17800F911FDF91CF911F910F910895D2
:102EB0000F931F93CF93DF93EC010E9427178C0190
:102EC000CE010E944417800F911FDF91CF911F9177
:102ED0000F9108950895A1E21A2EAA1BBB1BFD01B4
:102EE0000DC0AA1FBB1FEE1FFF1FA217B307E407E9
:102EF000F50720F0A21BB30BE40BF50B661F771F41
:102F0000881F991F1A9469F7609570958095909520
:102F10009B01AC01BD01CF010895EE0FFF1F05908D
:102F2000F491E02D0994DC0101C06D9341505040B3
:082F3000E0F70895F894FFCFCB
:102F38000000D7028000585374617274004F5343E5
:102F480020646964206E6F742073746172742E003B
:102F580000000000700100000000270100000000D0
:102F680056072801AD005105CE02A100A400A70014
:102F7800AA000000000062039C00B700F402D2001F
:102F88009E009F00D500DA00DF00AE00E700EA00EF
:102F9800FEFF00001D01000000008C0918090D103B
:102FA800000000008315FF1605151E151015611584
:00000001FF
