:100000000C94A0030C94C8030C94C8030C94C8036C
:100010000C94C8030C94C8030C94C8030C94C80334
:100020000C94C8030C94C8030C94C8030C94C80324
:100030000C94C8030C94C8030C94C8030C94C80314
:100040000C9466220C94C8030C941F250C94512523
:100050000C94C8030C94C8030C94C8030C94C803F4
:100060000C94C8030C94C80305A84CCDB2D44EB967
:100070003836A9020C50B9918688083CA6AAAA2A4B
:10008000BE000000803F00000000003E5B4F5B3E72
:100090003E6B4F6B3E1C3E7C3E1C183C7E3C181C4D
:1000A000577D571C1C5E7F5E1C00183C1800FFE744
:1000B000C3E7FF0018241800FFE7DBE7FF30483AEA
:1000C000060E2629792926407F050507407F05254C
:1000D0003F5A3CE73C5A7F3E1C1C08081C1C3E7FD4
:1000E00014227F22145F5F005F5F06097F017F009B
:1000F0006689956A606060606094A2FFA2940804BB
:100100007E040810207E201008082A1C08081C2ADB
:1001100008081E101010100C1E0C1E0C30383E3833
:1001200030060E3E0E06000000000000005F0000DA
:100130000007000700147F147F14242A7F2A12234B
:100140001308646236495620500008070300001C5B
:100150002241000041221C002A1C7F1C2A08083E64
:100160000808008070300008080808080000606077
:100170000020100804023E5149453E00427F4000E5
:1001800072494949462141494D331814127F1027BD
:10019000454545393C4A494931412111090736490C
:1001A000494936464949291E0000140000004034E0
:1001B00000000008142241141414141400412214E5
:1001C0000802015909063E415D594E7C1211127C0C
:1001D0007F494949363E414141227F4141413E7F6D
:1001E000494949417F090909013E414151737F084D
:1001F00008087F00417F41002040413F017F0814F3
:1002000022417F404040407F021C027F7F04081053
:100210007F3E4141413E7F090909063E4151215E31
:100220007F09192946264949493203017F01033FC5
:100230004040403F1F2040201F3F4038403F631454
:1002400008146303047804036159494D43007F4156
:1002500041410204081020004141417F0402010293
:1002600004404040404000030708002054547840B8
:100270007F284444383844444428384444287F384C
:100280005454541800087E090218A4A49C787F08CE
:1002900004047800447D40002040403D007F102849
:1002A000440000417F40007C047804787C0804040A
:1002B000783844444438FC1824241818242418FCA2
:1002C0007C08040408485454542404043F44243C47
:1002D0004040207C1C2040201C3C4030403C4428B6
:1002E0001028444C9090907C4464544C4400083650
:1002F00041000000770000004136080002010204BE
:10030000023C2623263C1EA1A161123A4040207ADD
:100310003854545559215555794122545478422125
:100320005554784020545579400C1E52721239555C
:100330005555593954545459395554545800004559
:100340007C410002457D420001457C407D12111236
:100350007DF0282528F07C545545002054547C54C9
:100360007C0A097F4932494949323A4444443A3285
:100370004A4848303A4141217A3A42402078009D2B
:10038000A0A07D3D4242423D3D4040403D3C24FFD7
:100390002424487E4943662B2FFC2F2BFF0929F686
:1003A00020C0887E090320545479410000447D41D7
:1003B0003048484A32384040227A007A0A0A727D30
:1003C0000D19317D2629292F28262929292630484B
:1003D0004D4020380808080808080808382F10C8B9
:1003E000ACBA2F102834FA00007B000008142A143D
:1003F0002222142A1408AA005500AAAA55AA55AA0E
:10040000000000FF00101010FF00141414FF001073
:1004100010FF00FF1010F010F0141414FC0014145E
:10042000F700FF0000FF00FF1414F404FC1414177D
:10043000101F10101F101F1414141F00101010F0A4
:10044000000000001F101010101F10101010F010EE
:10045000000000FF101010101010101010FF1000FE
:100460000000FF140000FF00FF00001F1017000035
:10047000FC04F414141710171414F404F40000FF0F
:1004800000F714141414141414F700F714141417A8
:100490001410101F101F141414F4141010F010F086
:1004A00000001F101F0000001F14000000FC1400BB
:1004B00000F010F01010FF10FF141414FF141010AF
:1004C000101F00000000F010FFFFFFFFFFF0F0F032
:1004D000F0F0FFFFFF0000000000FFFF0F0F0F0F05
:1004E0000F3844443844FC4A4A4A347E0202060625
:1004F000027E027E0263554941633844443C044015
:100500007E201E2006027E020299A5E7A5991C2ADC
:10051000492A1C4C7201724C304A4D4D303048789B
:100520004830BC625A463D3E494949007E010101BE
:100530007E2A2A2A2A2A44445F444440514A44409D
:1005400040444A51400000FF0103E080FF000008E2
:10055000086B6B083612362436060F090F060000AA
:1005600018180000001010003040FF0101001F01AA
:10057000011E00191D1712003C3C3C3C000000000D
:100580000000000100FF0032000100000102000035
:1005900007030030100400000008000202090000F8
:1005A000000A0000000C0000000D0000000F000019
:1005B00000100000001100070012000000130000EE
:1005C00000FF00C8001000901611002702FF003243
:1005D0000012001A00FF0032001300001829002A40
:1005E00000FF003200300000003100000032000047
:1005F0000035000602360008083700070038000101
:1006000002390000003C0000003D00000020000016
:100610000021000000500000005100EF00520000D7
:100620000053003F01600000A7610003006A000062
:10063000009000100092000000930003009500005D
:10064000119700000098000000070033010100B975
:1006500003FF8357FFFAB30400000606B60125B076
:100660000168CC0105B10600151C1C83AAC0065008
:1006700050013C1E08B4070240002A2A0D783A01B6
:10068000553601C0350100440200021100FF9629D1
:1006900000FF322E89298F2B02E200E401E510E6EB
:1006A00001E710E870F200EA00EB20EC3CEDC8E94D
:1006B00038F1011B1A1A022461255C183619011F32
:1006C00088FF051F80FF051F90FF051FD4FF05173A
:1006D0000536092838FF28283C02000300040005DD
:1006E000EF060007000801093F00000008000201B2
:1006F00000000304070000000000000000010204E5
:100700000810204080010204081020010204081093
:10071000200404040404040404020202020202038A
:10072000030303030300000000250028002B000042
:10073000000000240027002A0000CA038125DF03EF
:1007400011241FBECFEFD8E0DEBFCDBF11E0A0E087
:10075000B1E0E2E2F8E502C005900D92A437B107DE
:10076000D9F722E0A4E7B1E001C01D92A535B20798
:10077000E1F717E0CEE3D7E004C02297FE010E9424
:10078000C329CA33D107C9F70E94C5250C94042C8C
:100790000C940000EF920F9368E071E08DE991E016
:1007A0000E94A52682E1E82E0EE02FE040E161E103
:1007B00084E791E00E946C0B0F91EF9008958DE912
:1007C00091E00C943726AF92BF92CF92DF92EF92D6
:1007D000FF920F931F93CF93DF9326E040E855E2FB
:1007E00060E070E084EB91E00E94BD2484E791E03A
:1007F0000E941F0C84E791E00E94DD10BC0184E799
:1008000091E00E94071E6FEF7FEF84E791E00E9466
:100810003C1840E050E060E070E084E791E00E9426
:10082000220B60E070E084E791E00E942E0B62E012
:1008300084E791E00E94280B61E084E791E00E9448
:10084000F01B84E791E00E944D0B8C0184E791E05E
:100850000E94490B9C01C3E0D0E0C801BE010E9488
:100860005929E12C98EFF92E8B0140E050E060E02F
:1008700070E084E791E00E94B01784E791E00E9465
:100880004D0B8C0184E791E00E94490B6C0184E7D9
:1008900091E00E944D0B9C01C801880F991FBE0179
:1008A0000E9459298B01C901BE010E945929AB013F
:1008B000EE24EA94FE2C960160E070E084E791E07B
:1008C0000E94B01784E791E00E944D0B8C0184E7F1
:1008D00091E00E94490B6C0184E791E00E944D0B6E
:1008E000880F991FBE010E945929AB01E0EEEE2E40
:1008F000E7E0FE2E960160E070E084E791E00E9460
:10090000B01784E791E00E944D0BEC0184E791E081
:100910000E944D0B8C0184E791E00E94490B7C0101
:10092000CE0166E070E00E9459299B01A80117FFE3
:1009300002C04F5F5F4F55954795F701F7FC319621
:10094000BF01759567950FE110E084E791E00E9483
:10095000D80884E791E00E944D0B66E070E00E94A9
:1009600059297093A4016093A3011092AA011092D7
:10097000A9016091A9017091AA016936F1E07F0790
:100980000CF0E3C1882777FD8095982F0E94BF2740
:1009900029EF3FE049E450E40E94AC2820E030E039
:1009A00044E353E40E9424270E940F296B017C0139
:1009B0006091A3017091A401882777FD8095982FFD
:1009C0000E94BF279B01AC01C701B6010E94AC2861
:1009D0006B017C0184E791E00E94490B97FD019631
:1009E000BC0175956795882777FD8095982F0E94A3
:1009F000BF279B01AC01C701B6010E94BD2620E0C4
:100A000030E0A9010E94A828C091A301D091A401BF
:100A10006091A9017091AA0187FD41C0882777FDE7
:100A20008095982F0E94BF2729EF3FE049E450E4CA
:100A30000E94AC2820E030E044E353E40E942427E5
:100A40000E940F296B017C01BE01882777FD8095EC
:100A5000982F0E94BF279B01AC01C701B6010E94DD
:100A6000AC286B017C0184E791E00E94490B97FD63
:100A70000196BC0175956795882777FD8095982F1D
:100A80000E94BF279B01AC01C701B6010E94BD2691
:100A900020E030E040E05FE30E94BD2640C08827B0
:100AA00077FD8095982F0E94BF2729EF3FE049E40A
:100AB00050E40E94AC2820E030E044E353E40E947C
:100AC00024270E940F296B017C01BE01882777FD36
:100AD0008095982F0E94BF279B01AC01C701B601EA
:100AE0000E94AC286B017C0184E791E00E94490BD5
:100AF00097FD0196BC0175956795882777FD8095D0
:100B0000982F0E94BF279B01AC01C701B6010E942C
:100B1000BD2620E030E040E05FE30E94BC260E945A
:100B20008C277093A8016093A7016091A90170912F
:100B3000AA01882777FD8095982F0E94BF2729EF6B
:100B40003FE049E450E40E94AC2820E030E044E378
:100B500053E40E9424270E9421276B017C016091AD
:100B6000A3017091A401882777FD8095982F0E949A
:100B7000BF279B01AC01C701B6010E94AC286B01E5
:100B80007C0184E791E00E944D0B97FD0196BC012A
:100B900075956795882777FD8095982F0E94BF27C8
:100BA0009B01AC01C701B6010E94BD2620E030E0E8
:100BB000A9010E94A828C091A301D091A40160912D
:100BC000A9017091AA0187FD41C0882777FD809512
:100BD000982F0E94BF2729EF3FE049E450E40E948C
:100BE000AC2820E030E044E353E40E9424270E9434
:100BF00021276B017C01BE01882777FD8095982F06
:100C00000E94BF279B01AC01C701B6010E94AC281E
:100C10006B017C0184E791E00E944D0B97FD0196EA
:100C2000BC0175956795882777FD8095982F0E9460
:100C3000BF279B01AC01C701B6010E94BD2620E081
:100C400030E040E05FE30E94BD2640C0882777FD8A
:100C50008095982F0E94BF2729EF3FE049E450E498
:100C60000E94AC2820E030E044E353E40E942427B3
:100C70000E9421276B017C01BE01882777FD8095AA
:100C8000982F0E94BF279B01AC01C701B6010E94AB
:100C9000AC286B017C0184E791E00E944D0B97FD2D
:100CA0000196BC0175956795882777FD8095982FEB
:100CB0000E94BF279B01AC01C701B6010E94BD265F
:100CC00020E030E040E05FE30E94BC260E948C27D9
:100CD0005B017093A6016093A501E0917401F0910E
:100CE0007501C681D781C090A701D090A80184E783
:100CF00091E00E944D0B8C0184E791E00E94490B2A
:100D0000A80117FF02C04F5F5F4F55954795DC0163
:100D100097FD1196B595A7957FE1E72EF12C8501FA
:100D20009601BD0184E791E0FE0109958091A9013A
:100D30009091AA012091060130910701820F931F23
:100D40009093AA018093A90114CE84E791E00E94B8
:100D50004D0BD82FC92F84E791E00E944D0B4D2FEA
:100D60005C2F57FF02C04F5F5F4F9A013595279563
:100D700063E070E00E945929260F371FA90168E23D
:100D800070E084E791E00E94220B6DE971E084E756
:100D900091E0DF91CF911F910F91FF90EF90DF9045
:100DA000CF90BF90AF900C942526EF92FF920F93B7
:100DB0001F93CF93DF9384E791E00E944D0B8C014A
:100DC00084E791E00E94490BEC0184E791E00E94E6
:100DD0004D0B880F991F63E070E00E945929AB0109
:100DE000B0EEEB2EB7E0FB2E9E0160E070E084E7F2
:100DF00091E00E94B01768EE73E080E090E00E94FE
:100E0000D32284E791E00E944D0BD82FC92F84E7AD
:100E100091E00E944D0B4D2F5C2F57FF02C04F5F9A
:100E20005F4F9A013595279563E070E00E9459293C
:100E3000260F371FA90168E270E084E791E00E9465
:100E4000220B6DE971E084E791E00E94252668EEAF
:100E500073E080E090E0DF91CF911F910F91FF90C0
:100E6000EF900C94D3222F923F924F925F926F9209
:100E70007F928F929F92AF92BF92CF92DF92EF922A
:100E8000FF920F931F93CF93DF9300D000D0CDB785
:100E9000DEB74C017C836B836A015901C80187016D
:100EA000AC014C195D0957FF03C05195419551099B
:100EB00095016B817C81261B370B37FF03C0319571
:100EC0002195310922242394312C2417350714F05D
:100ED000212C312C2114310459F03A2D2B2D5C0199
:100EE000832F922F3B812C81DC82CB82C32ED22E8A
:100EF000AB81BC81AA16BB065CF43C2D2D2D6C0188
:100F0000832F922F3B812C81BC82AB82A32EB22EE9
:100F10002501EB81FC814E1A5F0A3C016C187D08AB
:100F200077FE03C0719461947108720157FE03C08B
:100F3000FFEFEF1AFF0AF594E794C816D9062CF4D0
:100F400021E030E03A83298324C06FEF7FEF7A837A
:100F500069831FC0D401ED91FC910480F581E02DDF
:100F6000980121143104D9F04B815C81B601C40190
:100F70000995E618F708F7FE06C0E981FA81CE0E5A
:100F8000DF1EE40CF51C2B813C812F5F3F4F3C831F
:100F90002B836B817C81A616B706E4F604C0A601FC
:100FA0006B817C81E4CF0F900F900F900F90DF91B9
:100FB000CF911F910F91FF90EF90DF90CF90BF9056
:100FC000AF909F908F907F906F905F904F903F90E9
:100FD0002F9008956F927F928F929F92AF92BF92BF
:100FE000CF92DF92EF92FF920F931F93CF93DF93F5
:100FF000EC015B016A0139014801E881F981028451
:10100000F385E02D87010995E881F981A601480D56
:10101000591D415051090284F385E02D9301B5011A
:10102000CE010995E881F9810084F185E02D9401D4
:10103000A601B501CE010995E881F981B501660DDA
:10104000771D615071090084F185E02D9401A6019E
:10105000CE010995DF91CF911F910F91FF90EF90F5
:10106000DF90CF90BF90AF909F908F907F906F90C8
:101070000895EF92FF920F931F93DC01ED91FC9185
:10108000240F351F215031090680F781E02D7801AA
:1010900089019B0109951F910F91FF90EF90089591
:1010A000EF92FF920F931F93DC01ED91FC91260FBD
:1010B000371F215031090680F781E02D78018A0120
:1010C00009951F910F91FF90EF9008956F927F9275
:1010D0008F929F92AF92BF92CF92DF92EF92FF9248
:1010E0000F931F93CF93DF935C014A01690138018D
:1010F000EB01C60ED71ECC15DD0574F4D501ED91BC
:10110000FC910084F185E02D87019301A401BE01CB
:10111000C50109952196EFCFDF91CF911F910F91D6
:10112000FF90EF90DF90CF90BF90AF909F908F9007
:101130007F906F900895EF92FF920F931F93DC01C1
:10114000ED91FC9111971A960D911C911B97189691
:101150002D913C9119970684F785E02D7B0140E0A5
:1011600050E060E070E009951F910F91FF90EF90C3
:1011700008950895FC011382128282E291E0918326
:101180008083758364835783468371876087538721
:101190004287158A158614861786168621E0248BC9
:1011A0008FEF9FEF938B828B918B808B268B089593
:1011B0002F923F924F925F926F927F928F929F9267
:1011C000AF92BF92CF92DF92EF92FF920F931F9355
:1011D000CF93DF9300D000D000D0CDB7DEB79E8391
:1011E0008D836B015A01790166246394712C621A14
:1011F000730A44245524421A530A440C551CDC013A
:10120000ED91FC91420F531F0480F581E02D980170
:101210000995AD81BE81ED91FC911197A5014E1903
:101220005F090480F581E02D9801B601CD01099593
:10123000AD81BE81ED91FC911197B6016E0D7F1DC0
:101240000480F581E02D9801A501CD010995AD81BE
:10125000BE81ED91FC911197B6016E197F09048052
:10126000F581E02D9801A501CD010995812C912CE6
:101270008E149F040CF0A1C077FC08C0B1E0EB1AFB
:10128000F108E2E04E0E511C640C751CFFEF8F1A42
:101290009F0AC401880F991F0196680E791EC40128
:1012A0008C0D9D1D9C838B83AD81BE81ED91FC9146
:1012B00011970480F581E02D980115012E0C3F1C3B
:1012C000A101BC01CD010995F601E819F909FA83DC
:1012D000E983AD81BE81ED91FC9111970480F58188
:1012E000E02D9801A10169817A81CD010995AD8137
:1012F000BE81ED91FC9111970480F581E02D98015C
:1013000015012E183F08A1016B817C81CD01099543
:10131000AD81BE81ED91FC9111970480F581E02DA6
:101320009801A10169817A81CD01099514012A0CE6
:101330003B1CAD81BE81ED91FC9111970480F5813C
:10134000E02D9801A101C6018E0D9F1D9C838B830A
:10135000BC01CD010995AD81BE81ED91FC91119744
:101360000480F581E02D9801A101C6018E199F0925
:101370009A838983BC01CD01099515012818390884
:10138000AD81BE81ED91FC9111970480F581E02D36
:101390009801A1016B817C81CD010995AD81BE8150
:1013A000ED91FC9111970480F581E02D9801A10148
:1013B00069817A81CD0109955BCF26960FB6F894A5
:1013C000DEBF0FBECDBFDF91CF911F910F91FF9078
:1013D000EF90DF90CF90BF90AF909F908F907F90D5
:1013E0006F905F904F903F902F9008952F923F9273
:1013F0004F925F926F927F928F929F92AF92BF9225
:10140000CF92DF92EF92FF920F931F93CF93DF93D0
:10141000CDB7DEB72C970FB6F894DEBF0FBECDBFA9
:101420009C878B873A0118870F83FA86E986CD82DD
:10143000DC0118968D919C911997681779070CF02B
:1014400094C01A968D919C911B97481759070CF0E0
:101450008CC08C2C912CCB01B6E0CB9E800D911DC5
:101460001124181619060CF080C0C40153E0880F2F
:10147000991F5A95E1F7860D971D181619060CF05D
:1014800074C0F5E02F9F200111245B016B011C82C9
:1014900092012A573F4F2901461A570A3C8135309D
:1014A00031F0F201EA0DFB1D44914B8301C01B8218
:1014B0007A82698213011E828B8180FF13C0AB8503
:1014C000BC85ED91FC91BD81B13031F40480F58192
:1014D000E02D2F81388519C00684F785E02DEF8037
:1014E000F8841EC0E985FA852F813885E217F30755
:1014F000F9F0AB85BC85ED91FC91BD81B13059F41B
:101500000480F581E02D29853A85A101B5018B85FF
:101510009C8509950DC00684F785E02DE984FA8441
:101520008401940149815A81B6018B859C85099576
:10153000EB81E695EB83FE81FF5FFE8329813A8193
:10154000280D391D3A8329833FEF231A330AF830D7
:1015500009F0B2CF4C814F5F4C83C80CD91C8FEF80
:10156000A81AB80A463009F099CF2C960FB6F8940D
:10157000DEBF0FBECDBFDF91CF911F910F91FF90C6
:10158000EF90DF90CF90BF90AF909F908F907F9023
:101590006F905F904F903F902F900895CF92EF9271
:1015A000FF920F931F93CF93DF93EC01262F6A30A6
:1015B00049F42C898E859F8538E0239F800D911DED
:1015C000112432C06D30A1F1EA88FB88088919899D
:1015D0004E855F856C857D85CC880E94F6092C89B7
:1015E000422F50E08C859D8536E0239F800D911D14
:1015F00011249D878C872E892223D1F06AEF640302
:101600009001659F300D112468857985260F371F5D
:10161000281739076CF463E0440F551F6A95E1F70A
:101620008E859F85840F951F9F878E871D861C86BC
:1016300081E090E0DF91CF911F910F91FF90EF90AB
:10164000CF900895FC017587648757874687089572
:10165000611101C061E0FC01648B0895FC01738B92
:10166000628B718B608B0895FC016370658B848144
:10167000958126813781613039F0633029F0918777
:1016800080873387228708953187208793878287D1
:101690000895FC01808591850895FC0182859385DC
:1016A0000895FC018AB18C6F8AB984B1836084B9D2
:1016B000158A158614861786168681E0848B8FEF2F
:1016C0009FEF918B808B80EF90E09187808780E403
:1016D00091E09387828708959F92AF92BF92CF92B5
:1016E000DF92EF92FF920F931F93CF93DF93EC0162
:1016F000A62EF42EB22E902E40E451E060EF70E062
:101700000E94BA088FE491E099838883E8A66A2D45
:1017100070E0FB01EF5EF84FE491F0E0EE0FFF1F89
:10172000EB5DF84FA591B491B98FA88F4F2D50E084
:10173000FA01EF5EF84FE491F0E0EE0FFF1FEB5D72
:10174000F84F859194919B8F8A8F2B2D30E0F90172
:10175000EF5EF84FE491F0E0EE0FFF1FEB5DF84F06
:10176000859194919D8F8C8F10E0F801EF5EF84F7A
:10177000E491F0E0EE0FFF1FEB5DF84FC590D490C1
:10178000DF8ECE8EFB01E350F94F649168A3FA011E
:10179000E350F94F449149A3F901E350F94F2491E3
:1017A0002AA3F801E350F94F04910BA398A1892FC4
:1017B00080958CA389A180958DA38AA180958EA305
:1017C00000950FA38C91892B8C93EA8DFB8D8081E2
:1017D00099A1892B8083EC8DFD8D80819AA1892B25
:1017E0008083EE8DFF8D80819BA1892B808361E0BA
:1017F0008A2D0E94692361E08F2D0E94692361E098
:101800008B2D0E94692361E0892D0E946923EE20BF
:1018100041F061E08E2D0E94A22361E08E2D0E9496
:101820006923CE01DF91CF911F910F91FF90EF902F
:10183000DF90CF90BF90AF909F900C94510BCF93BF
:10184000DF93EC01E88DF98D808198A1892B80834D
:10185000EC8DFD8D80819AA1892B8083EE8DFF8D8B
:1018600080819BA1892B808388A5882369F060E013
:101870000E94A22362E070E080E090E00E94D32208
:1018800061E088A50E94A223E88DF98D80819CA14A
:1018900089238083EA8DFB8D80819DA189238083AC
:1018A0008BB183708BB985B18C7F85B9EC8DFD8D43
:1018B00080819EA189238083EC8DFD8D80819AA1FA
:1018C000892B808383E0EC8DFD8D90812EA1922366
:1018D0009083EC8DFD8D90812AA1922B9083815075
:1018E00091F7E88DF98D808198A1892B808364EF31
:1018F00071E080E090E0DF91CF910C94D322FC0165
:10190000A08DB18D8C9194A189238C938085918534
:10191000A28DB38D2C9135A123232C932BB1237051
:1019200024602BB925B12C7F25B9A48DB58D2C91C0
:1019300036A123232C93A48DB58D2C9132A1232B7A
:101940002C93A28DB38D2C9131A1232B2C934BB1D1
:101950009C0121503109932F9C7F4370942B9BB99C
:1019600025B1932F93702C7F922B95B9A48DB58DB3
:101970009C9126A192239C93A48DB58D9C9122A12C
:10198000922B9C93A28DB38D9C9125A192239C9325
:101990009BB1937094609BB995B19C7F916095B910
:1019A000A48DB58D9C9126A192239C93A48DB58D79
:1019B0009C9122A1922B9C93A28DB38D9C9121A1ED
:1019C000922B9C932BB18150982F9C7F2370922B4C
:1019D0009BB995B183709C7F892B85B9A48DB58DFA
:1019E0008C9196A189238C93A48DB58D8C9192A115
:1019F000892B8C9382859385A28DB38D2C9135A1F3
:101A000023232C932BB1237028602BB925B12C7F75
:101A100025B9A48DB58D2C9136A123232C93A48DAB
:101A2000B58D2C9132A1232B2C93A28DB38D2C91AB
:101A300031A1232B2C934BB19C0121503109932FC1
:101A40009C7F4370942B9BB925B1932F93702C7F6F
:101A5000922B95B9A48DB58D9C9126A192239C9330
:101A6000A48DB58D9C9122A1922B9C93A28DB38DB8
:101A70009C9125A192239C939BB1937098609BB9F4
:101A800095B19C7F916095B9A48DB58D9C9126A14F
:101A900092239C93A48DB58D9C9122A1922B9C9313
:101AA000A28DB38D9C9121A1922B9C932BB181503F
:101AB000982F9C7F2370922B9BB995B183709C7F4C
:101AC000892B85B9A48DB58D8C9196A189238C9392
:101AD000A48DB58D8C9192A1892B8C93A08DB18D05
:101AE0008C9190A1892B8C930895DF92EF92FF92B5
:101AF0000F931F93CF93DF93FC01CB01A08DB18D8A
:101B00006C9174A167236C93A28DB38D6C9175A1B8
:101B100067236C9367896230B9F0611113C06BB1B0
:101B200063706BB965B16C7F65B9A48DB58D6C912F
:101B300076A167236C93A48DB58D6C9172A1672BF0
:101B40006C9309C0633039F46BB163706C626BB92C
:101B500065B16C7F07C06BB1637060626BB965B1D2
:101B60006C7F626065B9A48DB58D6C9176A1672399
:101B70006C93A48DB58D6C9172A1672B6C93A28D23
:101B8000B38D6C9171A1672B6C936BB1C92FCC7F16
:101B900063706C2B6BB965B1D92FD3706C7F6D2BD3
:101BA00065B9A48DB58D6C9176A167236C93A48DD6
:101BB000B58D6C9172A1672B6C936BB1782F7C7F84
:101BC000F72E6370672B6BB965B1782F7370E72EB2
:101BD0006C7F672B65B9A48DB58D6C9176A1672359
:101BE0006C93A48DB58D6C9172A1672B6C93BA0127
:101BF000A90141505109610971098A019B0156E00F
:101C000036952795179507955A95D1F7981719F096
:101C100080E090E03AC180E090E00817190709F4ED
:101C200066C020E1A48DB58D3C91C6A13C233C93B8
:101C3000A48DB58D3C91C2A13C2B3C93A48DB58D58
:101C40003C91C6A13C233C93A48DB58D3C91C2A18F
:101C50003C2B3C93A48DB58D3C91C6A13C233C9379
:101C6000A48DB58D3C91C2A13C2B3C93A48DB58D28
:101C70003C91C6A13C233C93A48DB58D3C91C2A15F
:101C80003C2B3C93A48DB58D3C91C6A13C233C9349
:101C9000A48DB58D3C91C2A13C2B3C93A48DB58DF8
:101CA0003C91C6A13C233C93A48DB58D3C91C2A12F
:101CB0003C2B3C93A48DB58D3C91C6A13C233C9319
:101CC000A48DB58D3C91C2A13C2B3C93A48DB58DC8
:101CD0003C91C6A13C233C93A48DB58D3C91C2A1FF
:101CE0003C2B3C93215009F09DCF019696CF4F732A
:101CF0004150C8F0A48DB58D8C9196A189238C9309
:101D0000A48DB58D8C9192A1892B8C93A48DB58DCA
:101D10008C9196A189238C93A48DB58D8C9192A1E1
:101D2000892B8C93E5CFA08DB18D8C9190A1892BBF
:101D30008C93DF91CF911F910F91FF90EF90DF90E7
:101D400008953BB133703C2B3BB935B13C7F3D2B03
:101D500035B9A48DB58D3C91D6A03D213C93A48D81
:101D6000B58D3C91D2A03D293C933BB133703F29C6
:101D70003BB935B13C7F3E2935B9A48DB58D3C9139
:101D8000D6A03D213C93A48DB58D3C91D2A03D2998
:101D90003C933BB133703C2B3BB935B13C7F3D2B81
:101DA00035B9A48DB58D3C91D6A03D213C93A48D31
:101DB000B58D3C91D2A03D293C933BB133703F2976
:101DC0003BB935B13C7F3E2935B9A48DB58D3C91E9
:101DD000D6A03D213C93A48DB58D3C91D2A03D2948
:101DE0003C933BB133703C2B3BB935B13C7F3D2B31
:101DF00035B9A48DB58D3C91D6A03D213C93A48DE1
:101E0000B58D3C91D2A03D293C933BB133703F2925
:101E10003BB935B13C7F3E2935B9A48DB58D3C9198
:101E2000D6A03D213C93A48DB58D3C91D2A03D29F7
:101E30003C933BB133703C2B3BB935B13C7F3D2BE0
:101E400035B9A48DB58D3C91D6A03D213C93A48D90
:101E5000B58D3C91D2A03D293C933BB133703F29D5
:101E60003BB935B13C7F3E2935B9A48DB58D3C9148
:101E7000D6A03D213C93A48DB58D3C91D2A03D29A7
:101E80003C93215009F05DCF01960817190711F016
:101E900020E157CF4F73415008F445CF8BB1837089
:101EA0008C2B8BB985B18C7F8D2B85B9A48DB58D8D
:101EB0008C9196A189238C93A48DB58D8C9192A140
:101EC000892B8C938BB183708F298BB985B18C7FD3
:101ED0008E2985B9A48DB58D8C9196A189238C937B
:101EE000A48DB58D8C9192A1892B8C93D4CFFC01BC
:101EF000A68DB78D8C9197A189238C9300C000C0CB
:101F000000C0000089B193B1A68DB78D2C9133A18B
:101F1000232B2C9393708C7F892B0895CF92DF9283
:101F2000EF92FF92CF93DF93EC01E88DF98D8081E2
:101F30009CA189238083EA8DFB8D80819DA18923CB
:101F400080839BB1862F8C7F9370892B8BB985B151
:101F500063708C7F682B65B9EC8DFD8D80819EA1AF
:101F600089238083EC8DFD8D80819AA1892B8083CC
:101F70008AB183708AB984B18C7F84B9EA8DFB8D74
:101F8000808199A1892B808382E390E00E94FB22CB
:101F9000CE010E94770FC82ED12CE12CF12CFE2C03
:101FA000ED2CDC2CCC24CE010E94770FC82AFE2C0D
:101FB000ED2CDC2CCC24CE010E94770FC82AFE2CFD
:101FC000ED2CDC2CCC24CE010E94770FE88DF98D0E
:101FD000908128A1922B90839AB19C6F9AB994B169
:101FE000936094B9A7019601282BCA01B901DF912A
:101FF000CF91FF90EF90DF90CF9008950F931F93B4
:10200000CF93DF9300D000D0CDB7DEB78C01DC01D9
:102010005896ED91FC915997808194969C91949754
:10202000892380835A96ED91FC915B9780819596E8
:102030009C919597892380839BB1862F8C7F937089
:10204000892B8BB985B163708C7F682B65B95C96E1
:10205000ED91FC915D97808196969C91969789234E
:1020600080835C96ED91FC915D97808192969C9126
:102070009297892B80835A96ED91FC915B97808192
:1020800091969C91892B80838AE090E029833A8302
:102090004B835C830E94FB227BB129813A814B8177
:1020A0005C81CA01AA27BB27682F6C7F7370672BDE
:1020B0006BB965B183706C7F862B85B9D8015C964E
:1020C000ED91FC915D97808196969C9196978923DE
:1020D00080835C96ED91FC915D97808192969C91B6
:1020E000892B80838AE090E029833A834B835C8349
:1020F0000E94FB22FBB129813A814B815C81BB2785
:10210000A52F942F832FE82FEC7FF370EF2BEBB9E3
:10211000E5B1682F6370EC7F6E2B65B9D8015C96D2
:10212000ED91FC915D97808196969C91969789237D
:1021300080835C96ED91FC915D97808192969C9155
:10214000892B80838AE090E029833A834B835C83E8
:102150000E94FB229BB12981822F8C7F9370892B57
:102160008BB985B123708C7F282B25B9D8015C965B
:10217000ED91FC915D97808196969C91969789232D
:1021800080835C96ED91FC915D97808192969C9105
:102190009297892B80835896ED91FC915997808175
:1021A00090969C91892B80830F900F900F900F90A9
:1021B000DF91CF911F910F9108951F93CF93DF93DC
:1021C000EC0164E00E948E0F611570488105910555
:1021D00009F457C063EDCE010E948E0F613473493C
:1021E00009F46AC0E88DF98D80819CA189238083E0
:1021F000EA8DFB8D80819DA1892380838BB18370C3
:102200008BB985B18C7F85B9EC8DFD8D80819EA1C8
:1022100089238083EC8DFD8D80819AA1892B808319
:10222000EC8DFD8D80819EA189238083EC8DFD8DB9
:1022300080819AA1892B80838AB183708AB984B105
:102240008C7F84B9EA8DFB8D808199A1892B808355
:10225000CE010E94770F182FCE010E94770F9AB1FE
:102260009C6F9AB994B1936094B9E88DF98D90817F
:1022700028A1922B9083212F30E0322F2227282B68
:102280001DC027E533E84FEF50E069EBCE010E9417
:10229000FE0F6CE271E080E090E00E94D32260EDDE
:1022A000CE010E948E0F611571058949910509F0D3
:1022B00091CF27E533E802C021E433E9C901DF917A
:1022C000CF911F9108950F931F93CF93DF9300D069
:1022D00000D0CDB7DEB78C01DC015896ED91FC91B2
:1022E0005997808194969C919497892380835A96DC
:1022F000ED91FC915B97808195969C9195978923B0
:1023000080839BB1862F8C7F9370892B8BB985B18D
:1023100063708C7F682B65B95C96ED91FC915D973D
:10232000808196969C919697892380835C96ED9107
:10233000FC915D97808192969C919297892B8083E6
:102340005A96ED91FC915B97808191969C91892B97
:1023500080838AE090E029833A834B835C830E94E8
:10236000FB227BB129813A814B815C81852F9927A2
:10237000AA27BB27682F6C7F7370672B6BB965B179
:1023800083706C7F862B85B9D8015C96ED91FC91AA
:102390005D97808196969C919697892380835C9621
:1023A000ED91FC915D97808192969C91892B808321
:1023B0008AE090E029833A834B835C830E94FB226E
:1023C0007BB129813A814B815C81CA01AA27BB2755
:1023D000682F6C7F7370672B6BB965B183706C7FEE
:1023E000862B85B9D8015C96ED91FC915D97808133
:1023F00096969C919697892380835C96ED91FC91AB
:102400005D97808192969C91892B80838AE090E0F1
:1024100029833A834B835C830E94FB22FBB1298191
:102420003A814B815C81BB27A52F942F832FE82F06
:10243000EC7FF370EF2BEBB9E5B1682F6370EC7FA5
:102440006E2B65B9D8015C96ED91FC915D9780810A
:1024500096969C919697892380835C96ED91FC914A
:102460005D97808192969C91892B80838AE090E091
:1024700029833A834B835C830E94FB229BB1298191
:10248000822F8C7F9370892B8BB985B123708C7FC1
:10249000282B25B9D8015C96ED91FC915D97808140
:1024A00096969C919697892380835C96ED91FC91FA
:1024B0005D97808192969C919297892B8083589604
:1024C000ED91FC915997808190969C91892B808306
:1024D0000F900F900F900F90DF91CF911F910F9160
:1024E0000895EF92FF920F931F93CF93DF93EC0128
:1024F0007A01C901E88DF98D20813CA12323208335
:102500002F8921116DC22D89223081F0233019F1DC
:10251000213079F52FEE30E0F901E01BF10B241B9F
:10252000350BAB01D9018C01C90112C02FEE30E08F
:10253000F901E81BF90BC901861B970B2FE331E06A
:10254000B901601B710B8901041B150BA801DC018B
:102550007B01BF010FC02FE331E0F901E81BF90B4C
:10256000261B370BA901D701C8018901B7017F01DB
:1025700001C0DB01EA8DFB8D20813DA12323208357
:102580002BB123702BB925B12C7F25B9EC8DFD8D96
:1025900020813EA123232083EC8DFD8D20813AA153
:1025A000232B20832BB1237020652BB925B12C7FE1
:1025B00025B9EC8DFD8D20813EA123232083EC8D58
:1025C000FD8D20813AA1232B2083EA8DFB8D208174
:1025D00039A1232B20833BB1272F2C7F3370232B52
:1025E0002BB935B1272F23703C7F232B25B9EC8DD8
:1025F000FD8D20813EA123232083EC8DFD8D208144
:102600003AA1232B20833BB1262F2C7F3370232B21
:102610002BB925B163702C7F622B65B9EC8DFD8DD4
:1026200020813EA123232083EC8DFD8D20813AA1C2
:10263000232B2083EA8DFB8D20813DA12323208342
:102640002BB123702BB925B12C7F25B9EC8DFD8DD5
:1026500020813EA123232083EC8DFD8D20813AA192
:10266000232B20832BB1237020652BB925B12C7F20
:10267000216025B9EC8DFD8D20813EA1232320838F
:10268000EC8DFD8D20813AA1232B2083EA8DFB8DDB
:10269000208139A1232B20833BB1292F2C7F33703C
:1026A000232B2BB925B193702C7F922B95B9EC8DF0
:1026B000FD8D90812EA192239083EC8DFD8D9081D4
:1026C0002AA1922B90832BB1982F9C7F2370922B61
:1026D0009BB995B183709C7F892B85B9EC8DFD8D5D
:1026E00080819EA189238083EC8DFD8D80819AA1BC
:1026F000892B8083EA8DFB8D80819DA18923808336
:102700008BB183708BB985B18C7F85B9EC8DFD8DD4
:1027100080819EA189238083EC8DFD8D80819AA18B
:10272000892B80838BB1837080658BB985B18C7F59
:10273000826085B9EC8DFD8D80819EA18923808387
:10274000EC8DFD8D80819AA1892B8083EA8DFB8D94
:10275000808199A1892B80839BB18F2D8C7F937071
:10276000892B8BB995B18F2D83709C7F892B85B96F
:10277000EC8DFD8D80819EA189238083EC8DFD8D64
:1027800080819AA1892B80839BB18E2D8C7F937041
:10279000892B8BB985B12E2D23708C7F282B25B9E1
:1027A000EC8DFD8D80819EA189238083EC8DFD8D34
:1027B00080819AA1892B8083EA8DFB8D80819DA1E8
:1027C000892380838BB183708BB985B18C7F85B968
:1027D000EC8DFD8D80819EA189238083EC8DFD8D04
:1027E00080819AA1892B80838BB1837080658BB99E
:1027F00085B1836085B9EC8DFD8D80819EA1892393
:102800008083EC8DFD8D80819AA1892B8083EA8D58
:10281000FB8D808199A1892B80839BB1812F8C7F37
:102820009370892B8BB995B1812F83709C7F892BF5
:1028300085B9EC8DFD8D80819EA189238083EC8DEF
:10284000FD8D80819AA1892B80839BB1802F8C7F05
:102850009370892B8BB985B103708C7F082B05B9D8
:10286000EC8DFD8D80819EA189238083EC8DFD8D73
:1028700080819AA1892B8083EA8DFB8D80819DA127
:10288000892380838BB183708BB985B18C7F85B9A7
:10289000EC8DFD8D80819EA189238083EC8DFD8D43
:1028A00080819AA1892B80838BB1837080628BB9E0
:1028B00085B18C7F85B9EC8DFD8D80819EA18923AA
:1028C0008083EC8DFD8D80819AA1892B8083EA8D98
:1028D000FB8D808199A1892B80839BB18B2F8C7F6D
:1028E0009370892B8BB985B1B3708C7FB82BB5B938
:1028F000EC8DFD8D80819EA189238083EC8DFD8DE3
:1029000080819AA1892B80839BB18A2F8C7F9370C1
:10291000892B8BB985B1A3708C7FA82BA5B9EC8DC1
:10292000FD8D80819EA189238083EC8DFD8D80812A
:102930009AA1892B8083EA8DFB8D80819DA18923BB
:1029400080838BB183708BB985B18C7F85B9EC8D19
:10295000FD8D80819EA189238083EC8DFD8D8081FA
:102960009AA1892B80838BB1837080628BB985B1EA
:102970008C7F816085B9EC8DFD8D80819EA189233E
:102980008083EC8DFD8D80819AA1892B8083EA8DD7
:10299000FB8D808199A1892B80839BB1852F8C7FB2
:1029A0009370892B8BB985B153708C7F582B55B997
:1029B000EC8DFD8D80819EA189238083EC8DFD8D22
:1029C00080819AA1892B80839BB1842F8C7F937007
:1029D000892B8BB985B143708C7F482B45B9ADC12C
:1029E000213009F0B7C1EA8DFB8D20813DA1232361
:1029F00020832BB123702BB925B12C7F226025B900
:102A0000EC8DFD8D20813EA123232083EC8DFD8D57
:102A100020813AA1232B2083EA8DFB8D208139A1CF
:102A2000232B20833BB1272F2C7F3370232B2BB9F3
:102A300035B1272F23703C7F232B25B9EC8DFD8DDD
:102A400020813EA123232083EC8DFD8D20813AA19E
:102A5000232B2083EA8DFB8D20813DA1232320831E
:102A60002BB123702BB925B1236025B9EC8DFD8DD9
:102A700020813EA123232083EC8DFD8D20813AA16E
:102A8000232B2083EA8DFB8D208139A1232B2083EA
:102A90003BB1262F2C7F3370232B2BB925B16370CC
:102AA0002C7F622B65B9EC8DFD8D20813EA1232307
:102AB0002083EC8DFD8D20813AA1232B2083EA8D8C
:102AC000FB8D20813DA1232320832BB12370246023
:102AD0002BB925B12C7F226025B9EC8DFD8D20818D
:102AE0003EA123232083EC8DFD8D20813AA1232B51
:102AF0002083EA8DFB8D208139A1232B20833BB1DC
:102B00002F2D2C7F3370232B2BB935B12F2D237014
:102B10003C7F232B25B9EC8DFD8D20813EA1232305
:102B20002083EC8DFD8D20813AA1232B2083EA8D1B
:102B3000FB8D20813DA1232320832BB123702460B2
:102B40002BB925B1236025B9EC8DFD8D20813EA1E7
:102B500023232083EC8DFD8D20813AA1232B20831C
:102B6000EA8DFB8D208139A1232B20833BB1242FBB
:102B70002C7F3370232B2BB935B1242F23703C7F4E
:102B8000232B25B9EC8DFD8D20813EA123232083AD
:102B9000EC8DFD8D20813AA1232B2083EA8DFB8DC6
:102BA00020813DA1232320832BB1237024602BB9E6
:102BB00025B12C7F25B9EC8DFD8D20813EA12323ED
:102BC0002083EC8DFD8D20813AA1232B2083EA8D7B
:102BD000FB8D208139A1232B20833BB1292F2C7F12
:102BE0003370232B2BB925B193702C7F922B95B981
:102BF000EC8DFD8D90812EA192239083EC8DFD8D27
:102C000090812AA1922B9083EA8DFB8D90812DA13A
:102C1000922390839BB1937094609BB995B19C7FF4
:102C2000916095B9EC8DFD8D90812EA192239083BA
:102C3000EC8DFD8D90812AA1922B9083EA8DFB8DE6
:102C4000908129A1922B90832BB1982F9C7F237088
:102C5000922B9BB995B183709C7F892B85B9EC8DA4
:102C6000FD8D80819EA189238083EC8DFD8D8081E7
:102C70009AA1892B8083EA8DFB8D80819DA1892378
:102C800080838BB1837088608BB985B18C7F85B967
:102C9000EC8DFD8D80819EA189238083EC8DFD8D3F
:102CA00080819AA1892B8083EA8DFB8D808199A1F7
:102CB000892B80839BB1812F8C7F9370892B8BB95B
:102CC00095B1812F83709C7F892B85B9EC8DFD8D0B
:102CD00080819EA189238083EC8DFD8D80819AA1C6
:102CE000892B8083EA8DFB8D80819DA18923808340
:102CF0008BB1837088608BB985B18C7F816085B919
:102D0000EC8DFD8D80819EA189238083EC8DFD8DCE
:102D100080819AA1892B8083EA8DFB8D808199A186
:102D2000892B80839BB1802F8C7F9370892B8BB9EB
:102D300085B103708C7F082B05B9EC8DFD8D8081EA
:102D40009EA189238083EC8DFD8D80819AA1892BA2
:102D500080832BC02250223040F5AB01662757FDFF
:102D60006095762F33272227AA2797FDA095BA2FA3
:102D7000282B392B4A2B5B2B6AE2CE010E94631170
:102D8000C701AA2797FDA095BA2FAC0133272227A8
:102D9000C801AA2797FDA095BA2F282B392B4A2BBB
:102DA0005B2B6BE2CE010E946311E88DF98D80816F
:102DB00098A1892B8083DF91CF911F910F91FF9074
:102DC000EF900895CF92DF92EF92FF920F931F93AF
:102DD000CF93DF93EC0169017801121613060CF012
:102DE0004FC057FD4DC08A859B85481759070CF089
:102DF00047C088859985681779070CF041C0FB01A9
:102E0000E20FF31F9F012150310937FD39C077FFD1
:102E100003C06F0160E070E02817390734F09C01AF
:102E2000215031096C01C61AD70A8A01CE010E94CD
:102E300071129601442737FD4095542FB701CE01FA
:102E40000E94750D8F89811110C00A851B85015064
:102E50001109288539852150310940E050E060E0B2
:102E600070E0CE010E9471120BC0CE01DF91CF91B4
:102E70001F910F91FF90EF90DF90CF900C947F0CFB
:102E8000DF91CF911F910F91FF90EF90DF90CF9046
:102E90000895CF92DF92EF92FF920F931F93CF93FB
:102EA000DF93EC0169017801121613060CF04FC094
:102EB00077FD4DC088859985681779070CF047C064
:102EC0008A859B85481759070CF041C09A012C0D43
:102ED0003D1D89010150110917FD39C057FF03C07D
:102EE000690140E050E00817190734F08C010150E7
:102EF00011096C01C41AD50A9B01CE010E947112FE
:102F00009601442737FD4095542FB701CE010E940A
:102F1000750D8F89811110C00A851B85015011091B
:102F2000288539852150310940E050E060E070E0AB
:102F3000CE010E9471120BC0CE01DF91CF911F9183
:102F40000F91FF90EF90DF90CF900C947F0CDF916A
:102F5000CF911F910F91FF90EF90DF90CF90089548
:102F60008F929F92AF92BF92CF92DF92EF92FF9299
:102F70000F931F93CF93DF93EC0159016801470131
:102F8000121613060CF06BC0101611060CF067C079
:102F900088859985681779070CF061C0EA84FB84FD
:102FA0004E155F050CF05BC0FB01E20FF31F9F01A4
:102FB0002150310937FD53C0DA01A00FB11F8D0137
:102FC0000150110917FD4BC077FF03C05F0160E09E
:102FD00070E057FF03C06D0140E050E0281739074B
:102FE00034F09C01215031095C01A61AB70A0E1574
:102FF0001F0534F08701015011096701C41AD50A71
:10300000CE010E9471129601D5010E948F299B0169
:10301000AC01B401CE010E94750D8F89811110C0E1
:103020000A851B85015011092885398521503109F0
:1030300040E050E060E070E0CE010E9471120FC0ED
:10304000CE01DF91CF911F910F91FF90EF90DF9014
:10305000CF90BF90AF909F908F900C947F0CDF919A
:10306000CF911F910F91FF90EF90DF90CF90BF9085
:10307000AF909F908F900895EF92FF920F931F93C0
:10308000CF93DF93EC017B018F898111D2C0ED8951
:10309000E150E33060F4F0E0DF01A85BBE4F8C91BB
:1030A000EE0FFF1FEE5BFE4F2081318104C020E058
:1030B00030E080E090E0E88DF98D90814CA1942380
:1030C0009083EA8DFB8D90814DA1942390839BB1D9
:1030D00093709BB995B19C7F95B9EC8DFD8D9081D6
:1030E0004EA194239083EC8DFD8D90814AA1942B69
:1030F00090839BB1937090629BB995B19C7F95B979
:10310000EC8DFD8D90814EA194239083EC8DFD8DEF
:1031100090814AA1942B9083EA8DFB8D908149A1E7
:10312000942B90839BB193709BB995B19C7F95B97B
:10313000EC8DFD8D90814EA194239083EC8DFD8DBF
:1031400090814AA1942B90834BB1982F9C7F437020
:10315000942B9BB995B183709C7F892B85B9EC8D9D
:10316000FD8D80819EA189238083EC8DFD8D8081E2
:103170009AA1892B8083EA8DFB8D80819DA1892373
:1031800080838BB183708BB985B18C7F85B9EC8DD1
:10319000FD8D80819EA189238083EC8DFD8D8081B2
:1031A0009AA1892B80838BB1837080628BB985B1A2
:1031B0008C7F816085B9EC8DFD8D80819EA18923F6
:1031C0008083EC8DFD8D80819AA1892B8083EA8D8F
:1031D000FB8D808199A1892B80838BB183708BB902
:1031E00085B133708C7F382B35B9EC8DFD8D8081A6
:1031F0009EA189238083EC8DFD8D80819AA1892BEE
:1032000080839BB1822F8C7F9370892B8BB985B182
:1032100023708C7F282B25B9EC8DFD8D80819EA19C
:1032200089238083EC8DFD8D80819AA1892B8083F9
:1032300012C08150833078F40A851B850150110932
:10324000288539852150310940E050E060E070E088
:10325000CE010E94711220E03CE241E050E0B70153
:10326000CE01DF91CF911F910F91FF90EF900C94C1
:10327000750DEF92FF920F931F93CF93DF93EC01A5
:10328000F22EE32E77FDA5C257FDA3C2888599854E
:10329000681779070CF09DC28A859B8548175907E6
:1032A0000CF097C2E88DF98D80819CA189238083E1
:1032B0008F898111FAC08D89823059F08330B1F045
:1032C0008130D1F48FEE90E0841B950BAB01BC01F3
:1032D00013C08FEE90E09C01261B370BB9018FE3E2
:1032E00091E09C01241B350BA90106C08FE391E0FE
:1032F000861B970BBA01AC01EA8DFB8D80819DA1E5
:10330000892380838BB183708BB985B18C7F85B91C
:10331000EC8DFD8D80819EA189238083EC8DFD8DB8
:1033200080819AA1892B80838BB1837080628BB955
:1033300085B18C7F85B9EC8DFD8D80819EA189231F
:103340008083EC8DFD8D80819AA1892B8083EA8D0D
:10335000FB8D808199A1892B80839BB1872F8C7FE6
:103360009370892B8BB995B1872F83709C7F892BA4
:1033700085B9EC8DFD8D80819EA189238083EC8DA4
:10338000FD8D80819AA1892B80839BB1862F8C7FB4
:103390009370892B8BB985B163708C7F682B65B96D
:1033A000EC8DFD8D80819EA189238083EC8DFD8D28
:1033B00080819AA1892B8083EA8DFB8D80819DA1DC
:1033C000892380838BB183708BB985B18C7F85B95C
:1033D000EC8DFD8D80819EA189238083EC8DFD8DF8
:1033E00080819AA1892B80838BB1837080628BB995
:1033F00085B18C7F816085B9EC8DFD8D80819EA12A
:1034000089238083EC8DFD8D80819AA1892B808317
:10341000EA8DFB8D808199A1892B80839BB1852FBB
:103420008C7F9370892B8BB995B1852F83709C7F8E
:10343000892B85B9EC8DFD8D80819EA189238083A8
:10344000EC8DFD8D80819AA1892B80839BB1842F87
:103450008C7F9370892B8BB985B143708C7F482BFF
:1034600045B9EC8DFD8D80819EA189238083EC8DF3
:10347000FD8D80819AA1892B8083EA8DFB8D8081CF
:103480009DA1892380838BB183708BB985B18C7F9B
:1034900085B9EC8DFD8D80819EA189238083EC8D83
:1034A000FD8D80819AA1892B21C1813009F027C12E
:1034B000ED89E150E33028F4F0E0E15CFE4F20813B
:1034C00001C020E0EA8DFB8D90818DA1982390832F
:1034D0008BB1837084618BB985B18C7F826085B933
:1034E000EC8DFD8D90818EA198239083EC8DFD8DC8
:1034F00090818AA1982B9083EA8DFB8D908189A180
:10350000982B90839BB1822F8C7F9370892B8BB9E2
:1035100085B18C7F85B9EC8DFD8D80819EA189233D
:103520008083EC8DFD8D80819AA1892B8083EA8D2B
:10353000FB8D80819DA1892380838BB183708BB9A2
:1035400085B18C7F826085B9EC8DFD8D80819EA1D7
:1035500089238083EC8DFD8D80819AA1892B8083C6
:10356000EA8DFB8D808199A1892B80839BB1872F68
:103570008C7F9370892B8BB995B1872F83709C7F3B
:10358000892B85B9EC8DFD8D80819EA18923808357
:10359000EC8DFD8D80819AA1892B8083EA8DFB8D36
:1035A00080819DA1892380838BB183708BB985B184
:1035B000836085B9EC8DFD8D80819EA189238083F8
:1035C000EC8DFD8D80819AA1892B8083EA8DFB8D06
:1035D000808199A1892B80839BB1862F8C7F9370EA
:1035E000892B8BB985B163708C7F682B65B9EC8DA5
:1035F000FD8D80819EA189238083EC8DFD8D80814E
:103600009AA1892B8083EA8DFB8D80819DA18923DE
:1036100080838BB1837084608BB985B18C7F82602D
:1036200085B9EC8DFD8D80819EA189238083EC8DF1
:10363000FD8D80819AA1892B8083EA8DFB8D80810D
:1036400099A1892B80839BB1852F8C7F9370892BC7
:103650008BB995B1852F83709C7F892B85B9EC8DB3
:10366000FD8D80819EA189238083EC8DFD8D8081DD
:103670009AA1892B8083EA8DFB8D80819DA189236E
:1036800080838BB1837084608BB985B1836085B989
:10369000EC8DFD8D80819EA189238083EC8DFD8D35
:1036A00080819AA1892B8083EA8DFB8D808199A1ED
:1036B000892B80839BB1842F8C7F9370892B8BB94E
:1036C00085B143708C7F482B45B9EC8DFD8D808191
:1036D0009EA189238083EC8DFD8D80819AA1892B09
:1036E0008083EA8DFB8D80819DA1892380838BB1AE
:1036F000837080628BB985B18C7F826021C08250DB
:10370000823008F060C00A851B85015011092885A8
:10371000398521503109CE010E947112E88DF98D51
:1037200080819CA189238083EA8DFB8D80819DA16E
:10373000892380838BB183708C628BB985B18C7F38
:1037400085B9EC8DFD8D80819EA189238083EC8DD0
:10375000FD8D80819AA1892B8083EA8DFB8D8081EC
:1037600099A1892B80839BB18E2D8C7F9370892B9F
:103770008BB995B18E2D83709C7F892B85B9EC8D8B
:10378000FD8D80819EA189238083EC8DFD8D8081BC
:103790009AA1892B80839BB18F2D8C7F9370892B6D
:1037A0008BB995B18F2D83709C7F892B85B9EC8D5A
:1037B000FD8D80819EA189238083EC8DFD8D80818C
:1037C0009AA1892B8083E88DF98D808198A1892B1E
:1037D0008083DF91CF911F910F91FF90EF9008951B
:1037E000CF92DF92FF920F931F93CF93DF931F929D
:1037F000CDB7DEB76C010E94340BD6015896ED911F
:10380000FC915997808194969C9194978923808309
:1038100057968C9157978111A1C05596EC91E15024
:10382000E33038F4F0E0EE0FFF1FE75CFE4F20813D
:1038300001C020E3D6015A96ED91FC915B978081FF
:1038400095969C919597892380838BB183708BB9D2
:1038500085B18C7F85B95C96ED91FC915D978081F7
:1038600096969C919697892380835C96ED91FC9126
:103870005D97808192969C919297892B80838BB1E2
:1038800083708BB995B1936095B95C96ED91FC917D
:103890005D97908196968C919697982390835C96ED
:1038A000ED91FC915D97908192968C919297982BD7
:1038B00090835A96ED91FC915B97908191968C91B3
:1038C0009197982B90838BB1837080618BB995B160
:1038D0009C7F95B95C96ED91FC915D979081969651
:1038E0008C919697982390835C96ED91FC915D97CF
:1038F000908192968C919297982B90839BB1822F76
:103900008C7F9370892B8BB985B18C7F85B95C9640
:10391000ED91FC915D97808196969C919697892375
:1039200080835C96ED91FC915D97808192969C914D
:103930009297892B80831A960D911C911B970150A9
:10394000110918962D913C9119972150310940E0A9
:1039500050E060E070E0C6010E947112F6018789B4
:10396000813009F05AC0E589E150E33028F4F0E0F5
:10397000EA5CFE4F208101C020E0D6015A96ED910D
:10398000FC915B97908195968C9195979823908365
:103990008BB1837084618BB985B18C7F826085B96E
:1039A0005C96ED91FC915D97908196968C9196979F
:1039B000982390835C96ED91FC915D97908192960F
:1039C0008C919297982B90835A96ED91FC915B97EE
:1039D000908191968C919197982B90839BB1822F97
:1039E0008C7F9370892B8BB985B18C7F85B95C9660
:1039F000ED91FC915D97808196969C919697892395
:103A000080835C96ED91FC915D97808192969C916C
:103A1000892B8083C6010E947F0CF6018789823042
:103A200009F074C08589813059F038F0823059F03E
:103A3000833059F4F8E2F98308C088E8898305C027
:103A4000A8EEA98302C0B8E4B983D6015A96ED91D5
:103A5000FC915B97808195969C91959789238083B3
:103A60008BB1837084638BB985B18C7F826085B99B
:103A70005C96ED91FC915D97808196969C919697CE
:103A8000892380835C96ED91FC915D97808192966D
:103A90009C919297892B80835A96ED91FC915B972C
:103AA000808191969C919197892B80839BB189818C
:103AB0008C7F9370892B8BB985B18C7F85B95C968F
:103AC000ED91FC915D97808196969C9196978923C4
:103AD00080835C96ED91FC915D97808192969C919C
:103AE0009297892B80831A960D911C911B970150F8
:103AF000110918962D913C9119972150310940E0F8
:103B000050E060E070E0C6010E947112F601878902
:103B1000833009F073C08589813059F038F08230E4
:103B200059F0833051F460E6F62E07C050ECF52EC4
:103B300004C040EAF42E01C0F12CD6015A96ED9152
:103B4000FC915B97808195969C91959789238083C2
:103B50008BB1837084638BB985B18C7F826085B9AA
:103B60005C96ED91FC915D97808196969C919697DD
:103B7000892380835C96ED91FC915D97808192967C
:103B80009C919297892B80835A96ED91FC915B973B
:103B9000808191969C919197892B80839BB18F2DE9
:103BA0008C7F9370892B8BB985B18C7F85B95C969E
:103BB000ED91FC915D97808196969C9196978923D3
:103BC00080835C96ED91FC915D97808192969C91AB
:103BD0009297892B80831A960D911C911B97015007
:103BE000110918962D913C9119972150310940E007
:103BF00050E060E070E0C6010E9471120F90DF910A
:103C0000CF911F910F91FF90DF90CF9008950F9368
:103C10001F93CF93DF93EC018B010E941F0C68EC84
:103C200070E080E090E00E94D322053283E918071B
:103C300029F00832E3E91E0709F08DC01F8AE88DDC
:103C4000F98D80819CA18923808301E815E0F8012A
:103C500085919491F8013296659174918F3F910509
:103C600029F480E090E00E94D32269C0EA8DFB8DA8
:103C700020813DA1232320833BB1292F2C7F33704A
:103C8000232B2BB925B193702C7F922B95B9EC8DFA
:103C9000FD8D90812EA192239083EC8DFD8D9081DE
:103CA0002AA1922B90832BB1982F9C7F2370922B6B
:103CB0009BB995B183709C7F892B85B9EC8DFD8D67
:103CC00080819EA189238083EC8DFD8D80819AA1C6
:103CD000892B8083EA8DFB8D808199A1892B80833C
:103CE0009BB1872F8C7F9370892B8BB995B1872FD0
:103CF00083709C7F892B85B9EC8DFD8D80819EA181
:103D000089238083EC8DFD8D80819AA1892B80830E
:103D10009BB1862F8C7F9370892B8BB985B1637093
:103D20008C7F682B65B9EC8DFD8D80819EA18923E8
:103D30008083EC8DFD8D80819AA1892B80830C5F1F
:103D40001F4FF6E00D341F0709F081CF6D89CE01BA
:103D50000E94F01BC4C2013483E9180709F0CBC2EA
:103D600082E08F8BE88DF98D80819CA189238083EF
:103D7000EA8DFB8D80819DA1892380838BB1837027
:103D80008BB985B18C7F816085B9EC8DFD8D80818B
:103D90009EA189238083EC8DFD8D80819AA1892B42
:103DA0008083EA8DFB8D808199A1892B80838BB1E3
:103DB00083708BB985B18C7F85B9EC8DFD8D808149
:103DC0009EA189238083EC8DFD8D80819AA1892B12
:103DD000808362E370E080E090E00E94D322EA8D6D
:103DE000FB8D80819DA1892380838BB18370886244
:103DF0008BB985B18C7F85B9EC8DFD8D80819EA1BD
:103E000089238083EC8DFD8D80819AA1892B80830D
:103E1000EA8DFB8D808199A1892B80838BB1837082
:103E20008BB985B18C7F85B9EC8DFD8D80819EA18C
:103E300089238083EC8DFD8D80819AA1892B8083DD
:103E4000EA8DFB8D80819DA1892380838BB1837056
:103E5000806C8BB985B18C7F85B9EC8DFD8D8081AF
:103E60009EA189238083EC8DFD8D80819AA1892B71
:103E70008083EA8DFB8D808199A1892B80838BB112
:103E8000837080628BB985B1836085B9EC8DFD8DBF
:103E900080819EA189238083EC8DFD8D80819AA1F4
:103EA000892B8083EA8DFB8D80819DA1892380836E
:103EB0008BB18370806C8BB985B18C7F816085B943
:103EC000EC8DFD8D80819EA189238083EC8DFD8DFD
:103ED00080819AA1892B8083EA8DFB8D808199A1B5
:103EE000892B80838BB1837080618BB985B18C7F86
:103EF00085B9EC8DFD8D80819EA189238083EC8D19
:103F0000FD8D80819AA1892B8083EA8DFB8D808134
:103F10009DA1892380838BB183708BB985B18C7F00
:103F200085B9EC8DFD8D80819EA189238083EC8DE8
:103F3000FD8D80819AA1892B80838BB18370846CE5
:103F40008BB985B18C7F816085B9EC8DFD8D8081C9
:103F50009EA189238083EC8DFD8D80819AA1892B80
:103F60008083EA8DFB8D808199A1892B80838BB121
:103F7000837088628BB985B1836085B9EC8DFD8DC6
:103F800080819EA189238083EC8DFD8D80819AA103
:103F9000892B80838BB1837088628BB985B18360F4
:103FA00085B9EC8DFD8D80819EA189238083EC8D68
:103FB000FD8D80819AA1892B8083EA8DFB8D808184
:103FC0009DA1892380838BB18370846C8BB985B16B
:103FD000836085B9EC8DFD8D80819EA189238083CE
:103FE000EC8DFD8D80819AA1892B8083EA8DFB8DDC
:103FF000808199A1892B80838BB18370806C8BB970
:1040000085B18C7F85B9EC8DFD8D80819EA1892342
:104010008083EC8DFD8D80819AA1892B8083EA8D30
:10402000FB8D80819DA1892380838BB18370846304
:104030008BB985B18C7F826085B9EC8DFD8D8081D7
:104040009EA189238083EC8DFD8D80819AA1892B8F
:104050008083EA8DFB8D808199A1892B80838BB130
:10406000837088688BB985B18C7F85B9EC8DFD8DA7
:1040700080819EA189238083EC8DFD8D80819AA112
:10408000892B8083EA8DFB8D80819DA1892380838C
:104090008BB1837088638BB985B18C7F826085B961
:1040A000EC8DFD8D80819EA189238083EC8DFD8D1B
:1040B00080819AA1892B8083EA8DFB8D808199A1D3
:1040C000892B80838BB1837084658BB985B18C7F9C
:1040D000816085B9EC8DFD8D80819EA189238083CF
:1040E000EC8DFD8D80819AA1892B8083EA8DFB8DDB
:1040F00080819DA1892380838BB183708BB985B129
:104100008C7F85B9EC8DFD8D80819EA18923808374
:10411000EC8DFD8D80819AA1892B80838BB183707A
:10412000806B8BB985B18C7F816085B9EC8DFD8DFD
:1041300080819EA189238083EC8DFD8D80819AA151
:10414000892B8083EA8DFB8D808199A1892B8083C7
:104150008BB183708BB985B18C7F85B9EC8DFD8D6A
:1041600080819EA189238083EC8DFD8D80819AA121
:10417000892B80838BB1837088618BB985B1836013
:1041800085B9EC8DFD8D80819EA189238083EC8D86
:10419000FD8D80819AA1892B8083EA8DFB8D8081A2
:1041A0009DA1892380838BB18370846B8BB985B18A
:1041B000836085B9EC8DFD8D80819EA189238083EC
:1041C000EC8DFD8D80819AA1892B8083EA8DFB8DFA
:1041D000808199A1892B80838BB1837084608BB996
:1041E00085B1836085B9EC8DFD8D80819EA1892389
:1041F0008083EC8DFD8D80819AA1892B8083EA8D4F
:10420000FB8D80819DA1892380838BB18370806128
:104210008BB985B18C7F816085B9EC8DFD8D8081F6
:104220009EA189238083EC8DFD8D80819AA1892BAD
:104230008083EA8DFB8D808199A1892B80838BB14E
:1042400083708BB985B18C7F85B9EC8DFD8D8081B4
:104250009EA189238083EC8DFD8D80819AA1892B7D
:10426000808366E970E080E090E00E94D322EA8DCE
:10427000FB8D80819DA1892380838BB183708862AF
:104280008BB985B18C7F816085B9EC8DFD8D808186
:104290009EA189238083EC8DFD8D80819AA1892B3D
:1042A0008083EA8DFB8D808199A1892B80838BB1DE
:1042B00083708BB985B18C7F85B9EC8DFD8D808144
:1042C0009EA189238083EC8DFD8D80819AA1892B0D
:1042D000808364EF71E080E090E00E94D3220FE3DE
:1042E00011E02FEE30E040E050E060E070E0CE0101
:1042F0000E947112E6C00735E3E81E0709F078C096
:1043000083E08F8BE88DF98D80819CA18923808348
:1043100080E0E82FF0E0E35BF94F949112E0180F92
:1043200061E0680FE62FF0E0E35BF94F64919F3F97
:1043300031F470E080E090E00E94D32254C0A88D58
:10434000B98D2C913CA123232C93AA8DBB8D2C914C
:104350003DA123232C933BB1292F2C7F3370232B9A
:104360002BB925B193702C7F922B95B9EC8DFD8DD7
:1043700090812EA192239083EC8DFD8D90812AA1B6
:10438000922B9083EA8DFB8D908129A1922B9083B3
:10439000860F8E5FE12FE817F9F031E03E0FF0E075
:1043A000E35BF94FE4912BB19E2F9C7F2370922BFE
:1043B0009BB995B1E3709C7FE92BE5B9EC8DFD8D40
:1043C00090812EA192239083EC8DFD8D90812AA166
:1043D000922B9083E32FDFCF160FE88DF98D80812C
:1043E00098A1892B8083163408F06BC0812F91CF60
:1043F0000537154709F063C081E08F8BE88DF98D93
:1044000080819CA18923808303E916E0F8018491CF
:10441000319664918F3F31F470E080E090E00E942B
:10442000D3223BC0AA8DBB8D9C912DA192239C933E
:104430002BB1982F9C7F2370922B9BB995B18370E1
:104440009C7F892B85B9AC8DBD8D8C919EA18923D4
:104450008C93AC8DBD8D8C919AA1892B8C93AA8D58
:10446000BB8D8C9199A1892B8C939BB1862F8C7FCE
:104470009370892B8BB995B1862F83709C7F892B84
:1044800085B9EC8DFD8D80819EA189238083EC8D83
:10449000FD8D80819AA1892B80830E5F1F4FF6E0EE
:1044A000093E1F0709F0B2CF6D89CE010E94F01BB3
:1044B000CE01DF91CF911F910F910C947F0C8FEF64
:1044C0008F8BDF91CF911F910F9108951F920F92C3
:1044D0000FB60F9211242F933F938F939F93AF9317
:1044E000BF938091AC019091AD01A091AE01B091CC
:1044F000AF013091AB0123E0230F2D3720F401965B
:10450000A11DB11D05C026E8230F0296A11DB11DF6
:104510002093AB018093AC019093AD01A093AE01C9
:10452000B093AF018091B0019091B101A091B2011F
:10453000B091B3010196A11DB11D8093B00190937C
:10454000B101A093B201B093B301BF91AF919F911C
:104550008F913F912F910F900FBE0F901F90189544
:104560003FB7F8948091B0019091B101A091B20150
:10457000B091B30126B5A89B05C02F3F19F0019655
:10458000A11DB11D3FBF6627782F892F9A2F620F7B
:10459000711D811D911D42E0660F771F881F991FB5
:1045A0004A95D1F70895CF92DF92EF92FF92CF9381
:1045B000DF936B017C010E94B022EB01C114D10496
:1045C000E104F10489F00E94BB260E94B0226C1B1A
:1045D0007D0B683E734090F381E0C81AD108E10872
:1045E000F108C851DC4FEACFDF91CF91FF90EF90F7
:1045F000DF90CF900895019739F0880F991F880FA9
:10460000991F02970197F1F70895789484B5826015
:1046100084BD84B5816084BD85B5826085BD85B566
:10462000816085BDEEE6F0E0808181608083E1E815
:10463000F0E010828081826080838081816080834D
:10464000E0E8F0E0808181608083E1EBF0E0808150
:1046500084608083E0EBF0E0808181608083EAE722
:10466000F0E08081846080838081826080838081AB
:10467000816080838081806880831092C10008956A
:10468000833081F028F4813099F08230A1F00895D0
:104690008730A9F08830B9F08430D1F4809180005F
:1046A0008F7D03C0809180008F7780938000089574
:1046B00084B58F7702C084B58F7D84BD08958091C5
:1046C000B0008F7703C08091B0008F7D8093B000E1
:1046D0000895CF93DF9390E0FC01E350F94F2491CC
:1046E000FC01EF5EF84F8491882349F190E0880F38
:1046F000991FFC01E15DF84FA591B4918B5D984F36
:10470000FC01C591D4919FB7611108C0F8948C91B8
:10471000209582238C93888182230AC0623051F4D1
:10472000F8948C91322F309583238C938881822B3F
:10473000888304C0F8948C91822B8C939FBFDF9167
:10474000CF9108950F931F93CF93DF931F92CDB70F
:10475000DEB7282F30E0F901E751F94F8491F901D4
:10476000E350F94F1491F901EF5EF84F04910023E3
:10477000C9F0882321F069830E9440236981E02FDA
:10478000F0E0EE0FFF1FEB5DF84FA591B4919FB7DE
:10479000F8948C91611103C01095812301C0812B85
:1047A0008C939FBF0F90DF91CF911F910F91089530
:1047B0000E94B82BFC01818D228D90E0805C9F4F80
:1047C000821B91098F7399270895FC01918D828D29
:1047D000981731F0828DE80FF11D858D90E00895D6
:1047E0008FEF9FEF0895FC01918D828D981761F0F6
:1047F000828DDF01A80FB11D5D968C91928D9F5F18
:104800009F73928F90E008958FEF9FEF089587E751
:1048100095E2892B49F080E090E0892B29F00E94F5
:10482000772581110C9400000895FC01848DDF012F
:10483000A80FB11DA35ABF4F2C91848D90E0019613
:104840008F739927848FA689B7892C93A089B18902
:104850008C9180648C93938D848D981306C002880C
:10486000F389E02D80818F7D80830895CF93DF933E
:10487000EC01888D8823C9F0EA89FB89808185FD58
:1048800005C0A889B9898C9186FD0FC00FB607FCB9
:10489000F5CF808185FFF2CFA889B9898C9185FFFA
:1048A000EDCFCE010E941524E7CFDF91CF9108957F
:1048B000CF92DF92FF920F931F93CF93DF931F92BC
:1048C000CDB7DEB76C01DC015B969C915B975C9683
:1048D0008C915C97981307C05096ED91FC9151977D
:1048E000808185FD32C0F601038D10E00F5F1F4F00
:1048F0000F731127F02EF601848DF81211C00FB638
:1049000007FCF9CFD6015096ED91FC91519780812B
:1049100085FFF1CFC60169830E9415246981EBCF21
:10492000838DE80FF11DE35AFF4F6083D6015B963C
:104930000C935B975296ED91FC9153978081806226
:10494000808381E058968C930DC0D6015696ED91E8
:10495000FC91579760835096ED91FC91519780811F
:104960008064808381E090E00F90DF91CF911F9170
:104970000F91FF90DF90CF900895BF92CF92DF927A
:10498000EF92FF92CF93DF93EC016A017B01B22E8D
:10499000E889F98982E08083411581EE5807610535
:1049A0007105A1F060E079E08DE390E0A701960148
:1049B0000E946D29215031094109510956954795A9
:1049C00037952795211580E1380798F0E889F9890E
:1049D000108260E874E88EE190E0A70196010E94E1
:1049E0006D2921503109410951095695479537954F
:1049F0002795EC85FD853083EE85FF852083188E15
:104A0000EC89FD89B082EA89FB898081806180839D
:104A1000EA89FB89808188608083EA89FB898081BB
:104A200080688083EA89FB8980818F7D8083DF9124
:104A3000CF91FF90EF90DF90CF90BF9008951F929D
:104A40000F920FB60F9211242F938F939F93EF9392
:104A5000FF93E091C401F091C5018081E091CA010A
:104A6000F091CB0182FD12C090818091CD018F5FCA
:104A70008F732091CE01821751F0E091CD01F0E0CB
:104A8000EC54FE4F958F8093CD0101C08081FF9142
:104A9000EF919F918F912F910F900FBE0F901F90CC
:104AA00018951F920F920FB60F9211242F933F93D8
:104AB0004F935F936F937F938F939F93AF93BF9326
:104AC000EF93FF9384EB91E00E941524FF91EF9107
:104AD000BF91AF919F918F917F916F915F914F9116
:104AE0003F912F910F900FBE0F901F90189584EB60
:104AF00091E00E94DA2321E0892B09F420E0822F43
:104B000008951092B7011092B60188EE93E0A0E0EC
:104B1000B0E08093B8019093B901A093BA01B0932B
:104B2000BB0187E691E09093B5018093B40185ECD9
:104B300090E09093C1018093C00184EC90E0909349
:104B4000C3018093C20180EC90E09093C5018093F3
:104B5000C40181EC90E09093C7018093C60182EC80
:104B600090E09093C9018093C80186EC90E0909307
:104B7000CB018093CA011092CD011092CE01109208
:104B8000CF011092D001089508950E9405230E943C
:104B9000C4250E94E303C7E0D4E20E94D506209713
:104BA000E1F30E940724F9CFCF92DF92EF92FF92B8
:104BB0000F931F93CF93DF936C017A01EB01E60E05
:104BC000F71E00E010E0CE15DF0561F06991D60117
:104BD000ED91FC910190F081E02DC6010995080F3F
:104BE000191FF1CFC801DF91CF911F910F91FF9055
:104BF000EF90DF90CF900895DC01ED91FC91DB0107
:104C000014964D915C9115976D917C910280F38182
:104C1000E02D0994DC01ED91FC910190F081E02DF3
:104C200009940F931F93CF93DF93EC016DE00E94E3
:104C30000A268C016AE0CE010E940A26800F911F8D
:104C4000DF91CF911F910F9108950F931F93CF93F1
:104C5000DF93EC010E94FC258C01CE010E941126FD
:104C6000800F911FDF91CF911F910F910895FC014B
:104C7000808191810C945F2ACF93DF93EC0188812E
:104C80009981009711F00E945F2A198218821D8273
:104C90001C821B821A82DF91CF9108950F931F937C
:104CA000CF93DF93EC018B016F5F7F4F88819981F8
:104CB0000E94EE2A009731F0998388831B830A8330
:104CC00081E001C080E0DF91CF911F910F910895A5
:104CD000CF93DF93EC0188819981892B29F08A8118
:104CE0009B818617970760F4CE010E944E26882389
:104CF00041F08C819D81892B19F4E881F981108222
:104D000081E0DF91CF910895EF92FF920F931F936F
:104D1000CF93DF93EC017B018A01BA010E946826E0
:104D2000811104C0CE010E943C2607C01D830C8364
:104D3000B701888199810E94C62BCE01DF91CF9166
:104D40001F910F91FF90EF900895FC011182108246
:104D500013821282158214826115710559F0FB01CC
:104D600001900020E9F7AF0141505109461B570B54
:104D70000C948426089508955058BB27AA270ED076
:104D80009CC165D130F06AD120F031F49F3F11F41D
:104D90001EF45AC10EF4E095E7FB50C1E92FAFD1E4
:104DA00080F3BA17620773078407950718F071F448
:104DB0009EF5C7C10EF4E0950B2EBA2FA02D0B0166
:104DC000B90190010C01CA01A0011124FF27591B50
:104DD00099F0593F50F4503E68F11A16F040A22F56
:104DE000232F342F4427585FF3CF469537952795C7
:104DF000A795F0405395C9F77EF41F16BA0B620BC6
:104E0000730B840BBAF09150A1F0FF0FBB1F661F0C
:104E1000771F881FC2F70EC0BA0F621F731F841F4F
:104E200048F4879577956795B795F7959E3F08F075
:104E3000B3CF9395880F08F09927EE0F9795879534
:104E4000089514D1E3954AC10CD037C107D140F081
:104E5000FED030F021F45F3F19F0F0C0511172C163
:104E6000F3C04DD198F39923C9F35523B1F3951BA2
:104E7000550BBB27AA2762177307840738F09F5F7B
:104E80005F4F220F331F441FAA1FA9F333D00E2EEA
:104E90003AF0E0E830D091505040E695001CCAF757
:104EA00029D0FE2F27D0660F771F881FBB1F26171C
:104EB00037074807AB07B0E809F0BB0B802DBF01EF
:104EC000FF2793585F4F2AF09E3F510568F0B6C008
:104ED00039C15F3FECF3983EDCF386957795679593
:104EE000B795F7959F5FC9F7880F911D96958795A0
:104EF00097F90895E1E0660F771F881FBB1F6217BF
:104F000073078407BA0720F0621B730B840BBA0B7C
:104F1000EE1F88F7E095089504D06894B11112C18E
:104F20000895F5D088F09F5790F0B92F9927B75181
:104F3000A0F0D1F0660F771F881F991F1AF0BA955D
:104F4000C9F712C0B13081F0FCD0B1E00895F9C0CA
:104F5000672F782F8827B85F39F0B93FCCF3869553
:104F600077956795B395D9F73EF4909580957095B0
:104F700061957F4F8F4F9F4F0895E89409C097FB2D
:104F80003EF490958095709561957F4F8F4F9F4F20
:104F90009923A9F0F92F96E9BB279395F695879564
:104FA00077956795B795F111F8CFFAF4BB0F11F427
:104FB00060FF1BC06F5F7F4F8F4F9F4F16C08823CE
:104FC00011F096E911C0772321F09EE8872F762F04
:104FD00005C0662371F096E8862F70E060E02AF045
:104FE0009A95660F771F881FDAF7880F9695879531
:104FF00097F90895990F0008550FAA0BE0E8FEEF06
:1050000016161706E807F907C0F012161306E4078C
:10501000F50798F0621B730B840B950B39F40A2685
:1050200061F0232B242B252B21F408950A2609F463
:10503000A140A6958FEF811D811D089597F99F6767
:1050400080E870E060E008959FEF80EC0895002410
:105050000A941616170618060906089500240A94DD
:1050600012161306140605060895EECF50D0E8F385
:10507000E894E0E0BB279F57F0F02AED3FE049ECD1
:1050800006C0EE0FBB0F661F771F881F28F0B23ACD
:1050900062077307840728F0B25A620B730B840B04
:1050A000E3959A9572F7803830F49A95BB0F661F96
:1050B000771F881FD2F79048BAC0092E0394000CBE
:1050C00011F4882352F0BB0F40F4BF2B11F460FFA2
:1050D00004C06F5F7F4F8F4F9F4F0895EF93E0FFA6
:1050E00006C0A2EA2AED3FE049EC5FEB57DEE5DFC0
:1050F0000F90039401FC9058E8E6F0E0A4C057FD3F
:105100009058440F551F59F05F3F71F04795880F35
:1051100097FB991F61F09F3F79F0879508951216CC
:1051200013061406551FF2CF4695F1DF08C0161678
:1051300017061806991FF1CF869571056105089429
:105140000895E894BB2766277727CB0197F9089540
:1051500051DF08F48FEF08950BD0AFCF78DF28F040
:105160007DDF18F0952309F069CF6ECF1124EACFC7
:10517000C6DFA0F3959FD1F3950F50E0551F629FB6
:10518000F001729FBB27F00DB11D639FAA27F00DA0
:10519000B11DAA1F649F6627B00DA11D661F829FC7
:1051A0002227B00DA11D621F739FB00DA11D621FAC
:1051B000839FA00D611D221F749F3327A00D611DC9
:1051C000231F849F600D211D822F762F6A2F1124AB
:1051D0009F5750408AF0E1F088234AF0EE0FFF1FFE
:1051E000BB1F661F771F881F91505040A9F79E3F35
:1051F000510570F023CFA6CF5F3FECF3983EDCF370
:10520000869577956795B795F795E7959F5FC1F771
:10521000FE2B880F911D9695879597F908959F937A
:1052200025DF0F9007FCEE5F59CF9F3F31F0915083
:1052300020F4879577956795B795880F911D96957A
:10524000879597F908959F938F937F936F93FF931B
:10525000EF939B01AC0180DFEF91FF9105D02F917F
:105260003F914F915F9178CFDF93CF931F930F932F
:10527000FF92EF92DF927B018C01689405C0DA2ED9
:10528000EF0176DFFE01E894A591259135914591D6
:105290005591AEF3EF0182DDFE019701A801DA948A
:1052A00079F7DF90EF90FF900F911F91CF91DF91F1
:1052B000089597FB072E16F4009407D077FD09D0C8
:1052C0000E94AD2907FC05D03EF4909581959F4F33
:1052D0000895709561957F4F0895A1E21A2EAA1B3B
:1052E000BB1BFD010DC0AA1FBB1FEE1FFF1FA21796
:1052F000B307E407F50720F0A21BB30BE40BF50B93
:10530000661F771F881F991F1A9469F7609570951B
:10531000809590959B01AC01BD01CF0108950E943D
:105320009729332312F48A1B9B0B0C94A829A29F64
:10533000B001B39FC001A39F700D811D1124911D69
:10534000B29F700D811D1124911D08950E9497290F
:10535000B7FF0895821B930B0895AA1BBB1B51E155
:1053600007C0AA1FBB1FA617B70710F0A61BB70BD5
:10537000881F991F5A95A9F780959095BC01CD017A
:105380000895EE0FFF1F0590F491E02D0994CF933F
:10539000DF938230910510F482E090E0E0915302B7
:1053A000F091540220E030E0A0E0B0E0309739F115
:1053B0004081518148175907B8F04817590771F4CF
:1053C00082819381109729F013969C938E93129764
:1053D0002CC0909354028093530227C021153105AD
:1053E00031F04217530718F0A901DB0101C0EF01AA
:1053F0009A01BD01DF010280F381E02DD7CF211595
:105400003105F9F0281B390B2430310580F48A81ED
:105410009B816115710521F0FB019383828304C098
:105420009093540280935302FE01329644C0FE01D1
:10543000E20FF31F8193919322503109398328831E
:105440003AC02091510230915202232B41F4209115
:1054500002013091030130935202209351022091B6
:105460000001309101012115310541F42DB73EB7FE
:105470004091040150910501241B350BE09151022C
:10548000F0915202E217F307A0F42E1B3F0B2817EE
:10549000390778F0AC014E5F5F4F2417350748F0AD
:1054A0004E0F5F1F5093520240935102819391938C
:1054B00002C0E0E0F0E0CF01DF91CF910895CF93FB
:1054C000DF93009709F487C0FC01329713821282A0
:1054D000C0915302D0915402209781F420813181F0
:1054E000280F391F80915102909152028217930721
:1054F00079F5F0935202E09351026DC0DE0120E095
:1055000030E0AE17BF0750F412964D915C9113979F
:105510009D014115510509F1DA01F3CFB383A2834F
:1055200040815181840F951F8A179B0771F48D91DB
:105530009C911197840F951F0296918380831296F8
:105540008D919C911397938382832115310529F4C2
:10555000F0935402E09353023EC0D9011396FC939A
:10556000EE9312974D915D91A40FB51FEA17FB07BB
:1055700079F480819181840F951F0296D90111964B
:105580009C938E938281938113969C938E93129712
:10559000E0E0F0E08A819B81009719F0FE01EC01C8
:1055A000F9CFCE01029628813981820F931F209175
:1055B0005102309152022817390769F4309729F4C3
:1055C000109254021092530202C013821282D0939E
:1055D0005202C0935102DF91CF910895A0E0B0E054
:1055E000E4EFFAE20C94D12BEC01CB01209719F4F3
:1055F0000E94C729B8C0FE01E60FF71F9E01225086
:105600003109E217F30708F4ACC0D9010D911C91E0
:10561000119706171707B8F00530110508F49FC059
:10562000A801445051094617570708F498C0025082
:105630001109061B170B019311936D937C93CF01F6
:105640000E945F2A8CC05B01A01AB10A4E01800E35
:10565000911EA0915302B0915402612C712C60E014
:1056600070E0109709F449C0A815B905C9F5ED9087
:10567000FC901197670142E0C40ED11CCA14DB04F0
:1056800078F147018A189B08640142E0C40ED11CDE
:105690001296BC9012971396AC91B5E0CB16D1043C
:1056A00040F0B282A38391828082D9018D939C9332
:1056B00009C00E5F1F4F0E0D1F1DF90111830083DE
:1056C000EB2DFA2F6115710531F0DB011396FC9378
:1056D000EE93129744C0F0935402E09353023FC0FC
:1056E0006D917C9111976616770608F43B01BD0118
:1056F00012960D90BC91A02DB4CF60915102709183
:10570000520268157905E9F468167906D0F44091DB
:105710000001509101014115510541F44DB75EB7AB
:105720006091040170910501461B570BE417F507C2
:10573000C0F4F0935202E0935102F9019183808307
:105740000EC00E94C7297C01009759F0A801BE0134
:105750000E94BD2BCE010E945F2AC70104C0CE016A
:1057600002C080E090E0CDB7DEB7EEE00C94ED2B08
:1057700081E090E0F8940C94042CFB01DC0102C061
:1057800001900D9241505040D8F70895FB01DC0183
:1057900001900D920020E1F708952F923F924F92D1
:1057A0005F926F927F928F929F92AF92BF92CF92B1
:1057B000DF92EF92FF920F931F93CF93DF93CDB7BA
:1057C000DEB7CA1BDB0B0FB6F894DEBF0FBECDBF32
:1057D00009942A88398848885F846E847D848C8403
:1057E0009B84AA84B984C884DF80EE80FD800C810C
:1057F0001B81AA81B981CE0FD11D0FB6F894DEBFEF
:105800000FBECDBFED01089517E0CEE3D7E004C091
:10581000FE010E94C3292296C034D107C9F7F8942B
:02582000FFCFB8
:105822000000550280000F004D4552412042484180
:10583200524154204D4148414E2E2E2E210000004F
:105842000000CE0AD425D823330739085008EA07C6
:1058520066089B08B90860C0A028100010181060E4
:10586200C0A000003F013F01EFEF0000000000CEAA
:105872000AD425391933074917E216EA07B0173C4B
:1058820018B908000000005824D425DA23F323E5D0
:045892002336240095
:00000001FF
