:100000000C94E5010C940D020C940D020C947C11DF
:100010000C947C110C947C110C940D020C940D0228
:100020000C940D020C940D020C940D020C940D0214
:100030000C940D020C940D020C940D020C940D0204
:100040000C940D130C940D020C94E3150C941516DE
:100050000C940D020C940D020C940D020C940D02E4
:100060000C940D020C940D02C40BDB0BF20B090C6B
:10007000200C370C4E0C010D060D0B0D100D150D3F
:100080001A0D1F0D4D4F544F52204F4646004D4FF5
:10009000544F52204F4E004D4F544F522053544F07
:1000A0005045442E2E2E2100504F574552204E4F82
:1000B0005420415641494C41424C45202E2E2E2180
:1000C00000504F574552204641494C004D4F544F28
:1000D0005220535441525445442E2E2E2100494E55
:1000E00056414C4944204B4559574F5244202E2EDF
:1000F0002E21002C205345433D002C205052493DD9
:10010000002C20504F574552204641494C002C208E
:10011000504F574552204F4B004F4646004F4E0020
:100120004D4F544F522049532000534543205345CF
:100130005420544F203D00505249205345542054E0
:100140004F203D0049444C45005245414459004729
:10015000534D2074657374696E672E0041542B43B0
:100160005041530041542B4349505348555400418A
:10017000542B435042533D22534D220041542B43B4
:100180004D47463D310041542B434D45453D3000E0
:1001900041542B434C49503D310041542B4950525E
:1001A0003D004552524F523A2053494D393030208C
:1001B000646F65736E277420616E737765722E208D
:1001C000436865636B20706F77657220616E642091
:1001D00073657269616C2070696E7320696E204767
:1001E000534D2E6370700041542B4950523D3936A7
:1001F00030300D003131353230300041542B495010
:10020000523D393630300D003537363030004154EC
:100210002B4950523D393630300D003338343030B0
:100220000041542B4950523D393630300D003139A0
:100230003230300041542B4950523D393630300D68
:1002400000393630300041542B4950523D39363058
:10025000300D00343830300041542B4950523D3974
:100260003630300D00323430300041542B4950527A
:100270003D393630300D00313230300054727969FA
:100280006E6720746F20666F7263652074686520E6
:10029000626175642D7261746520746F2039363027
:1002A000300A0041542B4950523D0044423A464FD7
:1002B000554E4420505245562042520044423A4145
:1002C00055544F2042415544205241544500444228
:1002D0003A434F52524543542042520041542B431B
:1002E0004D47443D0041542B434D47523D0041543E
:1002F0002B434D474C3D22414C4C220041542B4353
:100300004D474C3D22524543205245414422004135
:10031000542B434D474C3D2252454320554E5245A8
:100320004144220041542B434D47533D2200446F2A
:100330006E27742073656E64206D657373616765E5
:10034000206C6F6E676572207468616E2031363084
:100350002063686172616374657273000000000855
:10036000000201000003040700000000000000007C
:10037000010204081020408001020408102001023C
:100380000408102004040404040404040202020209
:1003900002020303030303030000000023002600FE
:1003A000290000000000250028002B0000000000AC
:1003B000240027002A002A07800786077D0D830D69
:1003C000770E741045163407810E11241FBECFEF2F
:1003D000D8E0DEBFCDBF13E0A0E0B1E0E2EBFBE38D
:1003E00002C005900D92AC3BB107D9F727E0ACEB0A
:1003F000B3E001C01D92A534B207E1F713E0C6ECEB
:10040000D3E004C02297FE010E94D21AC63BD10756
:10041000C9F70E9489160C94CC1D0C9400001F9300
:10042000CF93DF9361E089E00E942F1460E081E1C7
:100430000E942F1460E082E10E942F1460E083E1AB
:100440000E942F1461E08FE00E942F1461E080E190
:100450000E942F1461E08AE00E942F1461E08BE07B
:100460000E942F1460E08FE00E94681460E080E139
:100470000E94681460E08BE00E94681460E08AE0EB
:100480000E946814C6E061E089E00E94681468EE8A
:1004900073E080E090E00E94861360E089E00E94B3
:1004A000681468EE73E080E090E00E948613C1500B
:1004B00051F726E040E855E260E070E084EA96E01B
:1004C0000E94811560E070E082E495E00E943E07A2
:1004D000803531F5E5E1F1E0119281E0E432F80791
:1004E000D9F712E0C12FDD27C7FDD095BE0182E408
:1004F00095E00E943E07833279F0BE0182E495E0E8
:100500000E943E07CD5EDE4F8883682F84EA96E026
:100510000E940B171F5FE6CF84EA96E00E94121735
:1005200061E070E082E495E00E943E07833531F59A
:10053000E6E0F1E0119281E0E531F807D9F715E145
:10054000C12FDD27C7FDD095BE0182E495E00E9452
:100550003E07833279F0BE0182E495E00E943E07B7
:10056000CF50DF4F8883682F84EA96E00E940B17F4
:100570001F5FE6CF84EA96E00E94121762E370E004
:1005800082E495E00E943E07813019F480933F0594
:1005900002C010923F056FE471E084EA96E00E9489
:1005A000261740E855E260E070E08DE495E00E9497
:1005B000960A892B71F069E471E084EA96E00E9462
:1005C000261781E08093330461E08AE00E9468147A
:1005D00006C064E471E084EA96E00E9426178091E8
:1005E0003304882349F0C1E06C2F8BE395E00E942F
:1005F0004210CF5FC531C1F7DF91CF911F910895B0
:100600000F931F93CF93DF93CDB7DEB768970FB6E5
:10061000F894DEBF0FBECDBF6FEB73E0CE01439603
:100620000E948D1865E171E0CE010D960E948D1833
:1006300066E071E0CE0107960E948D1865E271E0D8
:10064000CE0101960E948D18BE016F5F7F4FCE01D3
:1006500043960E94F7198C01CE0101960E941F1843
:1006600017FF0BC040E050E0BE01635F7F4FCE013B
:1006700043960E94DB1997FD04C081E08093BC0380
:100680000DC040E050E0BE01695F7F4FCE01439650
:100690000E94DB1997FD04C01092BC0311E001C059
:1006A00010E0CE0107960E941F18CE010D960E9401
:1006B0001F18CE0143960E941F18812F68960FB60F
:1006C000F894DEBF0FBECDBFDF91CF911F910F9188
:1006D000089561E08FE00E94681460E47FE180E0AB
:1006E00090E00E94861360E08FE00E94681468EE3C
:1006F00073E080E090E00E9486136EE870E084EA88
:1007000096E00E94261761E08BE00C94681461E08B
:1007100080E10E94681460E47FE180E090E00E9444
:10072000861360E080E10E94681468EE73E080E068
:1007300090E00E94861364E870E084EA96E00E94EC
:10074000261760E08BE00C946814CF93DF9300D001
:1007500000D000D0CDB7DEB76FED72E0CE010196CC
:100760000E948D1868E97AE380E090E00E94861389
:100770008BE495E00E94640E0E94870310923F056F
:1007800010923E0560E177E280E090E00E948613DF
:100790008091BD03882399F08091BC0348EA51E61B
:1007A000882319F065E171E002C066E071E08BE436
:1007B00095E00E942B0E1092BD031092BC03809115
:1007C000BE03882319F167E970E0CE0101960E940B
:1007D000F31820E030E044E650E06FEC73E0CE0127
:1007E00001960E94B1198091BC034FEC53E088231D
:1007F00019F065E171E002C066E071E08BE395E01D
:100800000E94C00E1092BE031092BC0340E062E34F
:1008100070E082E495E00E944107CE0101960E94BB
:100820001F1826960FB6F894DEBF0FBECDBFDF911E
:10083000CF91089581E10E94E913811592404CF017
:1008400082E10E94E913811592401CF083E10E942D
:10085000E91381E00895CF93DF9300D000D000D05A
:10086000CDB7DEB76FED72E0CE0101960E948D1814
:100870000E941A04882309F45DC068E873E180E0EF
:1008800090E00E9486138BE495E00E94640E0E9423
:10089000690381E080933F0580933E058091BD030D
:1008A0008823C9F060E375E780E090E00E9486133A
:1008B0008091BC0348EA51E6882319F065E171E0B4
:1008C00002C066E071E08BE495E00E942B0E10926E
:1008D000BD031092BC038091BE03882319F16CEC18
:1008E00070E0CE0101960E94F31820E030E044E66B
:1008F00050E06FEC73E0CE0101960E94B119809137
:10090000BC034FEC53E0882319F065E171E002C0AD
:1009100066E071E08BE395E00E94C00E1092BE038A
:100920001092BC0341E062E370E082E495E00E9433
:1009300041073FC061EC70E084EA96E00E94261710
:100940008091BD03882371F060E27EE480E090E056
:100950000E9486138BE495E00E94640E1092BD0302
:100960001092BC038091BE03882319F168EA70E0FD
:10097000CE0101960E94F31820E030E044E650E0FA
:100980006FEC73E0CE0101960E94B1198091BC0317
:100990004FEC53E0882319F065E171E002C066E096
:1009A00071E08BE395E00E94C00E1092BE0310929E
:1009B000BC03CE0101960E941F1826960FB6F8942C
:1009C000DEBF0FBECDBFDF91CF910895CF938AE3F5
:1009D00095E00E944507C82F813041F54EE465E15E
:1009E00071E08BE495E00E94F90D882371F0C093CB
:1009F000BC03C093BD0380913F05882319F0CF91BC
:100A00000C94A503CF910C942B044EE466E071E0A6
:100A10008BE495E00E94F90D882319F01092BC0335
:100A2000E8CF8BE495E0CF910C94640ECF910895BC
:100A3000EF92FF920F931F93CF93DF93CDB7DEB763
:100A40006E970FB6F894DEBF0FBECDBF6FEC73E0AC
:100A5000CE0149960E948D186FED72E0CE0143964B
:100A60000E948D186FED72E0CE010D960E948D18D8
:100A70006FED72E0CE0107960E948D1823E030E002
:100A800040E050E0BE01675E7F4FCE0101960E94BC
:100A9000351ABE016F5F7F4FCE010D960E94C418BC
:100AA000CE0101960E941F18BE01635F7F4F84EA4A
:100AB00096E00E94381763E371E0CE010D960E9424
:100AC0007F19882309F477C0E5E1F1E0119281E014
:100AD000E432F807D9F76DE3CE0149960E942E1A49
:100AE0002D8D3E8DAC014F5F5F4FBE01675E7F4F26
:100AF000CE0101960E94351A20E030E04FE050E030
:100B000065E171E0CE0101960E94B119CE01019616
:100B10000E941F1865E171E0CE0143960E94DB1828
:100B2000EF8840E560E070E082E495E00E944107D4
:100B3000F12C0F2D112707FD1095B801FE1474F448
:100B4000CE0143960E94AF19B8016E5F7F4F482FC8
:100B500082E495E00E944107F394EBCF6E5F7F4FF4
:100B600043E282E495E00E94410767E371E0CE0131
:100B700007960E94F31865E171E0CE0107960E9486
:100B8000401920E030E044E650E06FEC73E0CE0125
:100B900007960E94B1198091BC034FEC53E0882363
:100BA00019F065E171E002C066E071E08BE395E069
:100BB0000E94C00EC3C067E371E0CE010D960E9493
:100BC0007F19882309F45AC0E6E0F1E0119281E030
:100BD000E531F807D9F76DE3CE0149960E942E1A48
:100BE0002D8D3E8DAC014F5F5F4FBE01675E7F4F25
:100BF000CE0101960E94351A20E030E04FE050E02F
:100C000066E071E0CE0101960E94B119CE01019615
:100C10000E941F1866E071E0CE0143960E94DB1827
:100C2000FF8843E561E070E082E495E00E944107BF
:100C300000E010E0602F0F1584F4B801CE01439658
:100C40000E94AF19B8016B5E7F4F482F82E495E098
:100C50000E9441070F5F1F4FEDCF772767FD70950B
:100C60006B5E7F4F43E282E495E00E9441076AE2B7
:100C700071E0CE0107960E94F31856C06BE371E055
:100C8000CE010D960E947F19882331F081E0809378
:100C9000BE030E942B0452C06FE371E0CE010D969B
:100CA0000E947F19882331F081E08093BE030E9467
:100CB000A50344C063E471E0CE010D960E947F1944
:100CC0008823A9F160E271E0CE0107960E94F31833
:100CD00080913F05882319F06DE171E002C069E160
:100CE00071E0CE0107960E9450190E941A048823D1
:100CF00019F06EE071E002C061E071E0CE0107968C
:100D00000E9450196AEF70E0CE0107960E945019B8
:100D100065E171E0CE0107960E94401963EF70E033
:100D2000CE0107960E94501966E071E026CF6EED65
:100D300070E0CE0107960E94F31823CFCE010796EC
:100D40000E941F18CE010D960E941F18CE014396D7
:100D50000E941F18CE0149960E941F186E960FB66A
:100D6000F894DEBF0FBECDBFDF91CF911F910F91E1
:100D7000FF90EF9008950F9360E08BE395E00E9461
:100D80002D0F8093CE038823B1F004E62FEC33E0DF
:100D90004FEB53E0682F8BE395E00E94890F0E9490
:100DA000000381110E9418056091CE038BE395E04A
:100DB0000F910C9442100F910895EF920F931F938F
:100DC00082E0E82E0CE412E024EF31E044EF51E041
:100DD00067E471E08DE495E00E943009813311F001
:100DE00061E001C060E08AE00E94681480913F05E4
:100DF000882319F180913C0590913D0501969093CF
:100E00003D0580933C054E97C4F010923D0510922D
:100E10003C050E941A0490913E05882341F09111EF
:100E20000CC00E94690381E080933E0506C09923AF
:100E300021F00E94870310923E0568EE73E080E087
:100E400090E00E9486130E94E6041F910F91EF909C
:100E50000C94BB0663E070E080E495E00E94890D8D
:100E600084E394E00C948C0781ED92E09093350438
:100E70008093340480E195E00C94F611CB010C943E
:100E80007F1DCB01642F0C94871D80911A06811160
:100E900035C081E080931A066CE571E08BE495E043
:100EA0000E94DF0D42E350E068E873E18DE495E0D5
:100EB0000E9423098430E1F06AE471E08DE495E05A
:100EC0000E94B107882311F080E015C063E571E04E
:100ED0008DE495E00E94B10781110CC06CE571E0D2
:100EE0008DE495E00E94B107882371F382E003C08E
:100EF00089E001C081E010921A0608958AE0089501
:100F000063E070E083E495E00C94890D63E070E0A9
:100F100085E495E00C94890D0F931F93CF93DF9395
:100F2000EC0181ED92E099838883FE01E553FF4F48
:100F300081E090E0918380838E0104521F4F20E076
:100F400043E062E0C8010E944F124AE050E0B8015D
:100F5000CE0185509F4FDF91CF911F910F910C943F
:100F60007A100F931F93CF93DF938C01EB01FC0159
:100F7000EF52FF4F808167EF71E08823F1F084EA40
:100F800096E00E940917BE0184EA96E00E944A1783
:100F90006DEF71E084EA96E00E9409170E5F1F4F23
:100FA000B80184EA96E00E944A17BE01C8010E9477
:100FB0005D1D21E0892B89F40FC084EA96E00E9430
:100FC0000917BE0184EA96E00E944A1763E072E0C6
:100FD00084EA96E00E94091720E0822FDF91CF91EA
:100FE0001F910F910895FF920F931F93CF93DF935B
:100FF000F62E21E0261708F18C0103531F4FF8014C
:101000002083EC01C452DF4F67E172E0CE010E9401
:1010100009176F2D70E04AE050E0CE010E94FF17E3
:101020006BE172E0CE010E94091764EF71E080E08D
:1010300090E00E948613F8011082DF91CF911F91FA
:101040000F91FF9008956F927F928F929F92AF922F
:10105000BF92CF92DF92EF92FF920F931F93CF93A5
:10106000DF93EC018C010E521F4FF801808181113A
:1010700033C0CE0184529F4F0E9416119E01295207
:101080003F4F7901892BF1F40E945713F701C0807B
:10109000D180E280F3806C197D098E099F09349715
:1010A000C080D180E12CF12C6C157D058E059F054B
:1010B00098F032978081FE01E80FF11D128284E0E2
:1010C000782E0BC00E945713F701608371838283CF
:1010D000938381E0F8018083712CF8018081813055
:1010E00009F05EC07E01FCEDEF0EF11CC7010E940D
:1010F0001611682E882349F00E945713FE01E95209
:10110000FF4F608371838283938300E010E06E0160
:1011100021EDC20ED11C5E013FECA30EB11C601686
:1011200009F1F6018081883CB8F4F5018080918056
:10113000C7010E948910F4018083F50180819181AB
:10114000019691838083F60180818F5F8083FE0109
:10115000E80FF11D128203C0C7010E9489100F5FC2
:101160001F4FDDCF0E945713FE01E952FF4F008150
:10117000118122813381601B710B820B930B32979B
:101180000081118120E030E060177107820793072A
:1011900038F034978081C80FD11D1A827724739458
:1011A000872DDF91CF911F910F91FF90EF90DF90EE
:1011B000CF90BF90AF909F908F907F906F90089549
:1011C000CF93DF93EC01FC01EE52FF4F108231967A
:1011D000718360833296518340830E945713FE01CE
:1011E000E952FF4F60837183828393831A82389719
:1011F000CE010296918380833296108286529F4F51
:10120000DF91CF910C942E110F931F93CF93DF9307
:10121000EC0189010E94E008CE010E942308882386
:10122000D9F3813041F4B801CE010E94B10788237F
:1012300021F082E003C084E001C083E0DF91CF9120
:101240001F910F910895CF93DF93EC010E94E00866
:10125000CE010E9423088823D9F3DF91CF9108950E
:101260004F925F926F927F928F929F92AF92BF92B6
:10127000CF92DF92EF92FF920F931F93CF93DF9362
:101280001F92CDB7DEB72C016B015A014901F12C39
:101290002FEF3C018CED680E711CFE14F9F0FF205D
:1012A00031F064EF71E080E090E00E948613B601B7
:1012B000C3010E944A17A401B501C2010E9423097B
:1012C000813041F4B801C2010E94B107811105C00B
:1012D00020E001C02FEFF394E0CF21E048E853E194
:1012E00068EE73E0C20129830E9423092981822FBD
:1012F0000F90DF91CF911F910F91FF90EF90DF90B2
:10130000CF90BF90AF909F908F907F906F905F90A5
:101310004F900895CF92DF92EF920F931F93CF9348
:10132000DF936C01EC01C353DF4F8881811122C030
:1013300081E0888392E0E92E0CE412E022E330E0C1
:1013400048EE53E06DE172E0C6010E9430092AE0E8
:10135000E22E09E212E028EE33E048EE53E060E3CB
:1013600072E0C6010E94300991E0813009F090E0FE
:10137000188201C09FEF892FDF91CF911F910F91AC
:10138000EF90DF90CF9008956F927F928F929F920F
:10139000AF92BF92CF92DF92EF92FF920F931F9383
:1013A000CF93DF93EC016B015A014901F12C8FEFD0
:1013B0003E019CED690E711CFE14F1F0FF2031F02E
:1013C00064EF71E080E090E00E948613B601C301F3
:1013D0000E942617A401B501CE010E942309813085
:1013E00039F4B801CE010E94B107882311F003C07F
:1013F0008FEFF394E1CF81E0DF91CF911F910F91B7
:10140000FF90EF90DF90CF90BF90AF909F908F9024
:101410007F906F900895CF92DF92EF920F931F937A
:10142000CF93DF93EC016C018DECC80ED11C81E0F1
:10143000F601808335E0E32E0CE412E022E330E095
:1014400044EF51E060E971E0CE010E94C40922E35B
:1014500030E044EF51E066E871E0CE010E94C4093B
:1014600022E330E044EF51E06CE771E0CE010E94EE
:10147000C409F6011082CE010E948A0922E330E0FD
:1014800048EE53E06FE671E0CE010E94C40907E424
:1014900012E022E330E044EF51E064E671E0CE0177
:1014A0000E94C409DF91CF911F910F91EF90DF90BF
:1014B000CF900895CF92DF92EF920F931F93CF9327
:1014C000DF93EC01662359F0613041F5DF91CF9154
:1014D0001F910F91EF90DF90CF900C940B0A6C014D
:1014E0008DECC80ED11C81E0F601808345E0E42E2E
:1014F0000CE412E022E330E048EE53E06FE472E0E7
:10150000CE010E94300922E330E044EF51E064E56F
:1015100072E0CE010E943009F6011082DF91CF9176
:101520001F910F91EF90DF90CF9008952F923F92EF
:101530004F925F926F927F928F929F92AF92BF92E3
:10154000CF92DF92EF92FF920F931F93CF93DF938F
:10155000CDB7DEB727970FB6F894DEBF0FBECDBF6D
:101560006C012A013B01411582EC580781E06807B4
:10157000710561F469E572E084EA96E00E944A1719
:10158000B0E84B2EB5E25B2E612C712C46019DEC30
:10159000890E911C81E0F4018083C60184529F4F23
:1015A0009F838E83B301A2010E947F12160192E0F5
:1015B000290E311CF601E153FF4FFB83EA83318290
:1015C0002082C60185539F4F9D838C8381E090E0EC
:1015D000EC81FD8191838083A3E0AA2EB12CF5E0FC
:1015E000EF2E0CE412E024E630E044EF51E067E433
:1015F00071E0C6010E9430098F3FD9F46AEB72E0B6
:1016000084EA96E00E944A1761E088E00E9468142C
:1016100060EB74E080E090E00E94861360E088E078
:101620000E94681460E177E280E090E00E948613F7
:1016300006C065EC72E084EA96E00E944A1748EE24
:1016400053E068EE73E0C6010E942309F1E0AF1A8F
:10165000B10829F6E5E0EE2E0CE412E024E630E0D5
:1016600044EF51E067E471E0C6010E943009813027
:1016700051F46EEC72E084EA96E00E942617FF2493
:10168000F394198203C0F12C81E0898375E0E72E81
:101690000CE412E024E630E044EF51E067E471E04E
:1016A000C6010E943009811141C0F11062C16CEB8A
:1016B00072E084EA96E00E942617A12CB12CF50175
:1016C0003197E730F10508F498C140EB54E060E051
:1016D00070E08E819F810E947F1264E670E080E05E
:1016E00090E00E94861365E0E62E0CE412E024E60A
:1016F00030E044EF51E067E471E0C6010E94300938
:10170000813009F4A1C161EB72E084EA96E00E94A5
:101710004A179FEFA91AB90AE8E0AE16B10479F6A4
:10172000F4011082EA81FB8131822082F981FF235A
:1017300009F41FC1F1101DC16CE772E084EA96E064
:101740000E942617A12CB12CF5013197E730F10545
:1017500020F4EC5CFF4F0C94D01A40EB54E060E0B6
:1017600070E08E819F810E947F1268EE73E080E0BE
:1017700090E00E94861367E772E084EA96E00E9498
:1017800026176AE672E0A0C040E659E060E070E02B
:101790008E819F810E947F1268EE73E080E090E06E
:1017A0000E94861365E672E084EA96E00E9426179E
:1017B00068E572E089C040EC52E160E070E08E8143
:1017C0009F810E947F1268EE73E080E090E00E94AB
:1017D000861363E572E084EA96E00E94261766E4C9
:1017E00072E072C040E855E260E070E08E819F8157
:1017F0000E947F1268EE73E080E090E00E94861302
:1018000061E472E084EA96E00E94261764E372E0E5
:101810005BC040E05BE460E070E08E819F810E94ED
:101820007F1268EE73E080E090E00E9486136EE223
:1018300072E084EA96E00E94261761E272E044C0FA
:1018400040E056E960E070E08E819F810E947F1247
:1018500068EE73E080E090E00E9486136BE172E036
:1018600084EA96E00E9426176EE072E02DC040E008
:1018700051EE60E070E08E819F810E947F1268EEE1
:1018800073E080E090E00E94861368E072E084EAF2
:1018900096E00E9426176BEF71E016C040E052EC14
:1018A00061E070E08E819F810E947F1268EE73E09C
:1018B00080E090E00E94861364EF71E084EA96E095
:1018C0000E94261767EE71E08E819F810E94D616D6
:1018D00068EE73E080E090E00E94861340E855E2F5
:1018E00060E070E08E819F810E947F1268EE73E05D
:1018F00080E090E00E94861355E0E52E0CE412E0B3
:1019000024E630E044EF51E067E471E0C6010E9454
:10191000300968EE73E080E090E00E94861348EEA4
:1019200053E068EE73E0C6010E9423098FEFA81A06
:10193000B80A98E0A916B10409F006CF62EA71E08E
:1019400084EA96E00E94261761E088E00E9468140D
:1019500060EB74E080E090E00E94861360E088E035
:101960000E94681460E177E280E090E00E948613B4
:1019700041C0F4011082FF20D9F042E350E062E35D
:1019800070E0C6010E94230960E0C6010E945A0A65
:10199000C6010E940B0A60E0C6010E94F30782E0C4
:1019A00090E0EC81FD819183808381E090E08CC0A8
:1019B00040E052EC61E070E08E819F810E947F12D6
:1019C00068EE73E080E090E00E9486136AE971E0BF
:1019D0008E819F810E94D6162AE030E0B301A201D9
:1019E0008E819F810E94B5176BE172E08E819F818D
:1019F0000E94091780E090E067C0E55CFF4F0C94FF
:101A0000D01A40E659E060E070E063CE40EC52E16D
:101A100060E070E05ECE40E855E260E070E059CEF4
:101A200040E05BE460E070E054CE40E056E960E006
:101A300070E04FCE40E051EE60E070E04ACE40E012
:101A400052EC61E070E045CE6BEA72E084EA96E029
:101A50000E94261763EA72E08E819F810E94D6164B
:101A60002AE030E0B301A2018E819F810E94B51768
:101A70006BE172E08E819F810E94091764EF71E033
:101A800080E090E00E948613B301A2018E819F81C5
:101A90000E947F1264E670E080E090E00E9486136E
:101AA00024E630E044EF51E067E471E0C6010E94B3
:101AB0003009813031F468EA72E084EA96E00E94ED
:101AC0004A17FF24F3942CCE27960FB6F894DEBF66
:101AD0000FBECDBFDF91CF911F910F91FF90EF907F
:101AE000DF90CF90BF90AF909F908F907F906F903E
:101AF0005F904F903F902F90089563E070E087E4EF
:101B000095E00C94890D63E070E089E495E00C9415
:101B1000890DFC01718360830895CF93DF93EC01FD
:101B200002960E948C0787E493E09983888381E57D
:101B300093E09B838A83DF91CF91089527E433E07C
:101B4000FC013183208321ED32E0338322838252F2
:101B50009F4F0C94F611DC01ED91FC91369720819A
:101B60003181280F391FC90184529F4F0C940917E6
:101B7000DC01ED91FC91369720813181280F391FCE
:101B8000C90184529F4F0C940917DC01ED91FC911F
:101B9000369720813181280F391FC90184529F4F08
:101BA0000C94D616DC01ED91FC91369720813181A1
:101BB000280F391FC90184529F4F0C944A17DC012A
:101BC000ED91FC91369720813181280F391FC90191
:101BD00084529F4F0C942617DC01ED91FC913697AF
:101BE00020813181280F391FC90184529F4F0C94E5
:101BF0004A171F93CF93DF93EC019B01142FE881C9
:101C0000F9813697808191818C0F9D1FFC01E553EE
:101C1000FF4F80819181019711F480E018C042E369
:101C200050E068E873E18DE495E00E940409823099
:101C3000A1F7183559F468ED71E0CE010E94EC0D62
:101C400068EE73E080E090E00E94861381E0DF910F
:101C5000CF911F910895EF92FF920F931F93CF930F
:101C6000DF93EC018B017A01E881F981369780815D
:101C700091818C0F9D1FFC01E553FF4F8081918165
:101C80000197D1F068EE72E0CE010E94B80DB80164
:101C9000CE010E94AB0D6CEE72E0CE010E94EC0D05
:101CA000B70180E090E00E94861368ED71E0CE01FC
:101CB0000E94EC0D81E001C080E0DF91CF911F9187
:101CC0000F91FF90EF90089568ED71E00C94EC0D8A
:101CD000DC01ED91FC91369720813181280F391F6D
:101CE0004AE050E0C90184529F4F0C94071863E00A
:101CF00070E083E596E00E94890D8BE495E00C94FA
:101D00008D0D8BE495E00C949E0DDC01ED91FC9122
:101D1000369720813181280F391FC90184529F4F86
:101D20000E9489100895DF92EF92FF920F931F9304
:101D3000CF93DF937B018A01C0E0D0E0C017D107C9
:101D400094F48BE495E00E94850ED82E18164CF47E
:101D5000682F84EA96E00E940B17F701EC0FFD1F35
:101D6000D0822196EBCFC80117FF02C080E090E03F
:101D7000DF91CF911F910F91FF90EF90DF90089529
:101D8000EF92FF920F931F93CF93DF9300D0CDB7C5
:101D9000DEB77B018A01FA0101900020E9F7319753
:101DA000E41BF50BE03AF10530F06EE273E084EAF3
:101DB00096E00E9426178AE189831A8264E273E022
:101DC0008BE495E00E94C50DB7018BE495E00E947D
:101DD000AB0D66EF72E08BE495E00E94EC0D63E5DD
:101DE00073E084EA96E00E944A1728E633E044EF65
:101DF00051E068EE73E08DE495E00E9404098230C2
:101E000011F08FEF1FC062E673E084EA96E00E9453
:101E10004A17B8018BE495E00E94AB0DBE016F5FDD
:101E20007F4F8BE495E00E94D20D2AE633E048E82C
:101E300053E168E57BE18DE495E00E94040982307E
:101E400001F781E010921A060F900F90DF91CF9169
:101E50001F910F91FF90EF900895CF9380911A06F4
:101E6000811154C081E080931A06613049F028F056
:101E7000623061F46EEE72E005C06FE073E002C0A4
:101E80006CEF72E08BE495E00E94DF0D4CED55E0C5
:101E900068E873E18DE495E00E94E0086CE472E08C
:101EA0008DE495E00E94B10781110CC08DE495E0AE
:101EB0000E942308882391F3813021F0843009F1B6
:101EC000C0E020C060E773E08DE495E00E94B107B8
:101ED000882369F06AE370E08FE495E00E94281D92
:101EE000009729F001960E94F11CC82F01C0C0E0A4
:101EF00044E150E064E170E08DE495E00E94230944
:101F000001C0CEEF10921A068C2F01C08FEFCF9137
:101F100008959F92AF92BF92CF92DF92EF92FF927D
:101F20000F931F93CF93DF93C62F6A017901662326
:101F300009F499C080911A06811197C081E08093BD
:101F40001A06FA01108265EE72E08BE495E00E94B9
:101F5000C50D6C2F70E08BE495E00E94680E27E7BA
:101F600033E044E650E068E873E18DE495E00E94D8
:101F70000409833039F0843009F46DC0823009F0EF
:101F80006DC00FC06CE472E08DE495E00E94B10773
:101F9000811164C06DE773E08DE495E00E94B107A4
:101FA0005DC063E873E08DE495E00E94B1078111A4
:101FB0000BC060E973E08DE495E00E94B1078823CF
:101FC00031F022E0922E05C09924939402C093E050
:101FD000992E6CE270E08FE495E00E94281D029635
:101FE0005C0162E270E00E94281DEC01009729F07C
:101FF0001882B501C6010E943C1D6AE070E0CE0166
:1020000001960E94281D009751F1EC0121966DE088
:1020100070E0CE010E94281D009711F0FC01108293
:10202000FE0101900020E9F73197EC1BFD0BE01752
:1020300028F4BE01C7010E943C1D11C010E0A80198
:1020400041505109BE01C7010E941F1DF701E00F59
:10205000F11F108204C08EEF982E01C0912C1092B7
:102060001A06892D03C08DEF01C08FEFDF91CF914C
:102070001F910F91FF90EF90DF90CF90BF90AF90A6
:102080009F900895CF93C62F662349F180911A0639
:10209000811127C081E080931A066CED72E08BE419
:1020A00095E00E94C50D6C2F70E08BE495E00E94D6
:1020B000680E2CE432E042E350E068E873E18DE41E
:1020C00095E00E940409823021F0843021F080E004
:1020D00003C081E001C08EEF10921A0603C08DEF9D
:1020E00001C08FEFCF91089563E070E085E596E041
:1020F0000C94890DFC017183608328EE33E0DA01D2
:102100000E94D61A628373838483958381E08287D9
:1021100008952091990630919A0628173907B9F445
:102120009091570680915806981789F0E0915706CC
:10213000F0E0E75AF94F80812091570630E02F5F99
:102140003F4F2F7333272093570690E008958FEF6A
:102150009FEF08951F93CF93DF93DC015C968D91E1
:102160009C915D97009749F481E090E013969C93D1
:102170008E93129780E090E03BC05196ED91FC91D8
:10218000529750962C915097322F30951FB75E96EC
:102190004C915E9741FB772770F941FD6095F8946B
:1021A0004081772311F0422B01C043234083EC018F
:1021B0002197F1F748E0508160FF02C0522B01C027
:1021C00053235083EC012197F1F76695415099F71D
:1021D0008081772311F0832301C0822B80831FBF6E
:1021E0005C968D919C915D970197F1F781E090E06D
:1021F000DF91CF911F9108952091990630919A0611
:102200002817390781F4909157068091580698173E
:1022100051F0E0915706F0E0E75AF94F8081992795
:1022200087FD909508958FEF9FEF0895209199066F
:1022300030919A062817390771F480915806209139
:10224000570690E0805C9F4F821B910960E470E02C
:102250000E947B1A089580E090E0089520919906ED
:1022600030919A062817390739F48FB7F8941092ED
:102270005806109257068FBF0895E0919906F09185
:102280009A06E817F90769F4A389B4899C918589AE
:10229000809589238C9310929A061092990681E07A
:1022A000089580E00895CF93DF93EC018A8D9B8D94
:1022B000892BF1F08091990690919A068C179D07D1
:1022C000B9F0009711F00E943D118E8D8E7F8E8F98
:1022D0001092580610925706D0939A06C09399060A
:1022E000EB89FC8980819D89892B808381E001C0F5
:1022F00080E0DF91CF9108951F920F920FB60F9259
:1023000011242F933F934F935F936F937F938F93FA
:102310009F93AF93BF93EF93FF93E0919906F09152
:102320009A06309709F451C0868DA685B7859585A4
:1023300081FF04C08C91892329F447C08C918923A3
:1023400009F043C0A389B4899C918589809589232C
:102350008C93868997890197F1F7208D318DA68519
:10236000B785758558E040E0C9010197F1F7842FE2
:1023700090E095958795482F6C91672309F0406808
:10238000515091F7868D81FD40958091580690E0DF
:1023900001968F73992720915706281749F0A0912D
:1023A0005806B0E0A75AB94F4C938093580603C023
:1023B000868D8160868F828D938D0197F1F7A38939
:1023C000B4898C919589892B8C93FF91EF91BF9162
:1023D000AF919F918F917F916F915F914F913F91BD
:1023E0002F910F900FBE0F901F9018952FE933E09B
:1023F000FC01318320830C943D111F93CF93DF9315
:10240000EC01162F6E8D6695617081E06827812F33
:102410000E94681461E0812F0E942F14812F90E0A8
:10242000FC01E059FC4FE491E88BFC01EC57FC4FB8
:10243000E491F0E0EE0FFF1FEE55FC4F8591949173
:102440009A8B898BDF91CF911F9108951F93CF9322
:10245000DF93EC01162F60E0812F0E942F148E8DE8
:1024600081FD04C061E0812F0E9468141C87812FC8
:1024700090E0FC01E059FC4FE491ED87FC01EC5742
:10248000FC4FE491F0E0EE0FFF1FE856FC4F859102
:1024900094919F878E87DF91CF911F910895FF922E
:1024A0000F931F93CF93DF93EC01F62E522F1B82D5
:1024B0001A8208EE13E020E030E00C831D832E83A7
:1024C0003F838FE993E0998388831F8A1E8A198E40
:1024D000188E1B8E1A8E1D8E1C8E8E8D8E7F50FB3D
:1024E00081F98E8F642FCE010E94FD116F2DCE01D8
:1024F000DF91CF911F910F91FF900C942612CF93F3
:10250000DF93EC019A01AB011B8E1A8E198E188E87
:102510001F8A1E8A60E079E08DE390E00E94B11A84
:10252000C9012430310520F0B9016350710902C09E
:1025300061E070E07D8F6C8FEC85E63108F068C05B
:10254000B901769567956431710518F06351710989
:1025500002C061E070E07F8B6E8B069718F0C901B6
:10256000059702C081E090E0998F888FC901880F9C
:10257000991F820F931F96958795969587958D3015
:10258000910510F00C9702C081E090E09B8F8A8F3C
:1025900020916800E83050F091E0EE3008F490E0CF
:1025A00081E001C0880F9A95EAF701C084E0822B90
:1025B000809368002C85283038F02E3040F026318A
:1025C00048F48CE690E008C08DE690E005C08BE60C
:1025D00090E002C080E090E09C8B8B8B283030F440
:1025E00081E001C0880F2A95EAF70DC0822F90E0A4
:1025F0002E3010F4089701C00E9791E001C0990F9A
:102600008A95EAF7892F8D8B8C8D9D8D0197F1F737
:10261000CE01DF91CF910C9453111F920F920FB600
:102620000F9211242F933F938F939F93AF93BF9358
:1026300080919C0690919D06A0919E06B0919F0668
:1026400030919B0623E0230F2D3720F40196A11D26
:10265000B11D05C026E8230F0296A11DB11D2093D0
:102660009B0680939C0690939D06A0939E06B09334
:102670009F068091A0069091A106A091A206B0911C
:10268000A3060196A11DB11D8093A0069093A106FB
:10269000A093A206B093A306BF91AF919F918F9193
:1026A0003F912F910F900FBE0F901F9018952FB74D
:1026B000F89460919C0670919D0680919E06909181
:1026C0009F062FBF08953FB7F8948091A006909180
:1026D000A106A091A206B091A30626B5A89B05C0AD
:1026E0002F3F19F00196A11DB11D3FBF6627782F1E
:1026F000892F9A2F620F711D811D911D42E0660F77
:10270000771F881F991F4A95D1F70895CF92DF92BE
:10271000EF92FF92CF93DF936B017C010E946313D2
:10272000EB01C114D104E104F10489F00E947A1A8A
:102730000E9463136C1B7D0B683E734090F381E035
:10274000C81AD108E108F108C851DC4FEACFDF917F
:10275000CF91FF90EF90DF90CF900895789484B55B
:10276000826084BD84B5816084BD85B5826085BD8D
:1027700085B5816085BDEEE6F0E080818160808373
:10278000E1E8F0E010828081826080838081816056
:102790008083E0E8F0E0808181608083E1EBF0E01D
:1027A000808184608083E0EBF0E0808181608083C1
:1027B000EAE7F0E0808184608083808182608083AA
:1027C0008081816080838081806880831092C100D5
:1027D00008958E3008F08E5087702091240190E487
:1027E000299F90011124822B80937C0080917A0094
:1027F000806480937A0080917A0086FDFCCF80917E
:1028000078002091790090E0922B0895833081F038
:1028100028F4813099F08230A1F008958730A9F032
:102820008830B9F08430D1F4809180008F7D03C06E
:10283000809180008F7780938000089584B58F7792
:1028400002C084B58F7D84BD08958091B0008F77DC
:1028500003C08091B0008F7D8093B0000895CF9326
:10286000DF9390E0FC01E059FC4F2491FC01EC5710
:10287000FC4F8491882349F190E0880F991FFC0157
:10288000E455FC4FA591B4918E559C4FFC01C59128
:10289000D4919FB7611108C0F8948C912095822340
:1028A0008C93888182230AC0623051F4F8948C9111
:1028B000322F309583238C938881822B888304C0A8
:1028C000F8948C91822B8C939FBFDF91CF910895C8
:1028D0000F931F93CF93DF931F92CDB7DEB7282FAF
:1028E00030E0F901E45AFC4F8491F901E059FC4FC2
:1028F0001491F901EC57FC4F04910023C9F088238F
:1029000021F069830E9406146981E02FF0E0EE0F48
:10291000FF1FEE55FC4FA591B4919FB7F8948C9191
:10292000611103C01095812301C0812B8C939FBF3F
:102930000F90DF91CF911F910F910895FC01818D30
:10294000228D90E0805C9F4F821B91098F739927A5
:102950000895FC01918D828D981731F0828DE80FDA
:10296000F11D858D90E008958FEF9FEF0895FC0194
:10297000918D828D981761F0828DDF01A80FB11DB6
:102980005D968C91928D9F5F9F73928F90E00895DA
:102990008FEF9FEF08958BE396E1892B49F080E05C
:1029A00090E0892B29F00E943B1681110C940000C5
:1029B0000895FC01848DDF01A80FB11DA35ABF4FFC
:1029C0002C91848D90E001968F739927848FA6892E
:1029D000B7892C93A089B1898C9180648C93938D55
:1029E000848D981306C00288F389E02D80818F7D45
:1029F00080830895CF93DF93EC01888D8823C9F0FD
:102A0000EA89FB89808185FD05C0A889B9898C91F7
:102A100086FD0FC00FB607FCF5CF808185FFF2CF92
:102A2000A889B9898C9185FFEDCFCE010E94D91478
:102A3000E7CFDF91CF910895CF92DF92FF920F936E
:102A40001F93CF93DF931F92CDB7DEB76C01DC01EC
:102A50005B969C915B975C968C915C97981307C0F2
:102A60005096ED91FC915197808185FD32C0F60121
:102A7000038D10E00F5F1F4F0F731127F02EF6012B
:102A8000848DF81211C00FB607FCF9CFD60150960D
:102A9000ED91FC915197808185FFF1CFC60169834B
:102AA0000E94D9146981EBCF838DE80FF11DE35AA1
:102AB000FF4F6083D6015B960C935B975296ED9126
:102AC000FC91539780818062808381E058968C933B
:102AD0000DC0D6015696ED91FC91579760835096A4
:102AE000ED91FC91519780818064808381E090E03A
:102AF0000F90DF91CF911F910F91FF90DF90CF90BA
:102B00000895BF92CF92DF92EF92FF92CF93DF931F
:102B1000EC016A017B01B22EE889F98982E08083A9
:102B2000411581EE580761057105A1F060E079E07B
:102B30008DE390E0A70196010E948F1A2150310980
:102B4000410951095695479537952795211580E1FB
:102B5000380798F0E889F989108260E874E88EE116
:102B600090E0A70196010E948F1A21503109410976
:102B700051095695479537952795EC85FD85308306
:102B8000EE85FF852083188EEC89FD89B082EA8965
:102B9000FB89808180618083EA89FB8980818860EC
:102BA0008083EA89FB89808180688083EA89FB8948
:102BB00080818F7D8083DF91CF91FF90EF90DF90B8
:102BC000CF90BF9008951F920F920FB60F921124CD
:102BD0002F938F939F93EF93FF93E091B406F0911F
:102BE000B5068081E091BA06F091BB0682FD12C065
:102BF00090818091BD068F5F8F732091BE068217F2
:102C000051F0E091BD06F0E0EC55F94F958F8093BF
:102C1000BD0601C08081FF91EF919F918F912F910F
:102C20000F900FBE0F901F9018951F920F920FB626
:102C30000F9211242F933F934F935F936F937F9342
:102C40008F939F93AF93BF93EF93FF9384EA96E0A4
:102C50000E94D914FF91EF91BF91AF919F918F91F5
:102C60007F916F915F914F913F912F910F900FBE88
:102C70000F901F90189584EA96E00E949E1421E020
:102C8000892B09F420E0822F08951092A706109254
:102C9000A60688EE93E0A0E0B0E08093A8069093AB
:102CA000A906A093AA06B093AB068FEA93E090938F
:102CB000A5068093A40685EC90E09093B1068093DE
:102CC000B00684EC90E09093B3068093B20680EC5B
:102CD00090E09093B5068093B40681EC90E09093D9
:102CE000B7068093B60682EC90E09093B906809385
:102CF000B80686EC90E09093BB068093BA061092DB
:102D0000BD061092BE061092BF061092C00608952E
:102D100008950E94AE130E9488160E940F02CBEC09
:102D2000D4E10E94DD062097E1F30E94CB14F9CF95
:102D3000CF92DF92EF92FF920F931F93CF93DF9387
:102D40006C017A01EB01E60EF71E00E010E0CE15F3
:102D5000DF0561F06991D601ED91FC910190F08160
:102D6000E02DC6010995080F191FF1CFC801DF91A9
:102D7000CF911F910F91FF90EF90DF90CF9008952A
:102D80006115710581F0DB010D900020E9F7AD01BF
:102D900041505109461B570BDC01ED91FC9102801B
:102DA000F381E02D099480E090E00895EF92FF9286
:102DB0000F931F93CF93DF938C01FB01C0E0D0E012
:102DC00064917F018FEFE81AF80A662361F0D80159
:102DD000ED91FC910190F081E02DC8010995C80F9B
:102DE000D91FF701EDCFCE01DF91CF911F910F9148
:102DF000FF90EF900895DC01ED91FC91DB011496BA
:102E00004D915C9115976D917C910280F381E02D3D
:102E100009940C94C016DC01ED91FC910190F081B5
:102E2000E02D09940F931F93CF93DF93EC016DE096
:102E30000E940B178C016AE0CE010E940B17800FD5
:102E4000911FDF91CF911F910F9108950F931F93C1
:102E5000CF93DF93EC010E94D6168C01CE010E9425
:102E60001217800F911FDF91CF911F910F9108953D
:102E70000F931F93CF93DF93EC010E94FB168C01FD
:102E8000CE010E941217800F911FDF91CF911F91E9
:102E90000F9108950F931F93CF93DF93EC010E943E
:102EA000C0168C01CE010E941217800F911FDF9176
:102EB000CF911F910F9108958F929F92AF92BF92E1
:102EC000CF92DF92EF92FF920F931F93CF93DF93F6
:102ED000CDB7DEB7A1970FB6F894DEBF0FBECDBF5A
:102EE0007C01C42EE52FCB01D22E19A221E02D1595
:102EF00010F02AE0D22E8E010F5D1F4F8D2C912CE9
:102F0000A12CB12C6C2D7E2FA50194010E948F1A4B
:102F10008C2DD29E80191124015011098A3014F48D
:102F2000805D01C0895CF801808321153105410570
:102F3000510521F0C22EE32FCA01E4CFB801C70129
:102F40000E94C016A1960FB6F894DEBF0FBECDBF8B
:102F5000DF91CF911F910F91FF90EF90DF90CF9075
:102F6000BF90AF909F908F900895CF92DF92EF9295
:102F7000FF920F931F93CF93DF93EC016A017B01C4
:102F80002115310579F4E881F9810190F081E02D76
:102F9000642FDF91CF911F910F91FF90EF90DF9001
:102FA000CF9009942A303105E9F477FF1AC06DE219
:102FB0000E940B178C0144275527BA014C195D0953
:102FC0006E097F092AE0CE010E945C17800F911FD5
:102FD000DF91CF911F910F91FF90EF90DF90CF90F5
:102FE00008952AE0B701A601CE01DF91CF911F918C
:102FF0000F91FF90EF90DF90CF900C945C179A01A7
:10300000AB01662757FD6095762F0C94B5170F938B
:103010001F93CF93DF93EC019A01AB01662757FD15
:103020006095762F0E94B5178C01CE010E94121771
:10303000800F911FDF91CF911F910F910895FC0197
:10304000808191810C94981BCF93DF93EC01888150
:103050009981009711F00E94981B198218821D8295
:103060001C821B821A82DF91CF9108950F931F93C8
:10307000CF93DF93EC018B016F5F7F4F8881998144
:103080000E94271C009731F0998388831B830A8351
:1030900081E001C080E0DF91CF911F910F910895F1
:1030A000CF93DF93EC0188819981892B29F08A8164
:1030B0009B818617970760F4CE010E9436188823FB
:1030C00041F08C819D81892B19F4E881F98110826E
:1030D00081E0DF91CF910895EF92FF920F931F93BC
:1030E000CF93DF93EC017B018A01BA010E94501853
:1030F000811104C0CE010E94241807C01D830C83D7
:10310000B701888199810E943C1DCE01DF91CF914A
:103110001F910F91FF90EF900895FC011182108292
:1031200013821282158214826115710559F0FB0118
:1031300001900020E9F7AF0141505109461B570BA0
:103140000C946C180895EF92FF920F931F93CF93F6
:10315000DF93EC017B018A01BA010E9450188111B2
:1031600004C0CE010E94241807C01D830C83B70140
:10317000888199810E940F1DCE01DF91CF911F910F
:103180000F91FF90EF900895CF93DF93EC01FB0137
:103190008617970761F0608171816115710529F0CB
:1031A000448155810E946C1802C00E942418CE01EF
:1031B000DF91CF910895CF93DF93EC0161157105F5
:1031C00061F0FB0101900020E9F7AF014150510986
:1031D000461B570B0E946C1802C00E942418CE0197
:1031E000DF91CF9108950F931F93CF93DF9300D07A
:1031F000CDB7DEB78C016115710561F0CB01698334
:103200007A830E94161DAC0169817A81C8010E94EF
:10321000A31802C00E942418C8010F900F90DF91DC
:10322000CF911F910F910895EF92FF920F931F93EB
:10323000CF93DF93EC017B010C811D81611571053A
:1032400011F480E016C04115510591F0040F151FCF
:10325000B8010E9450188823A1F3288139818C81FC
:103260009D81B701820F931F0E943C1D1D830C831B
:1032700081E0DF91CF911F910F91FF90EF90089522
:103280006115710559F0FB0101900020E9F7AF01CC
:1032900041505109461B570B0C94141980E00895B6
:1032A000EF92FF920F931F93CF93DF93EC017B017B
:1032B0006115710511F480E01BC0CB010E94161D41
:1032C0000097A9F00C811D81080F191FB801CE01CC
:1032D0000E945018882379F3288139818C819D813F
:1032E000B701820F931F0E940F1D1D830C8381E085
:1032F000DF91CF911F910F91FF90EF900895FC0106
:1033000024813581232B31F421E061157105A1F071
:10331000FB0108C0FC01808191816115710531F4C8
:1033200021E0FC018081882339F005C00E94331D13
:1033300021E0892B09F020E0822F0895FC012481EF
:1033400035816217730748F480819181009729F0D5
:10335000FC01E60FF71F8081089580E008950C942A
:103360009E190F931F93CF93DF93EB0141155105E6
:10337000E9F02097D9F0FC016481758126173707A1
:10338000A0F4621B730B8A010150110960177107C9
:1033900008F48B01FC0160817181620F731FA80129
:1033A000CE010E94431DC00FD11F1882DF91CF9123
:1033B0001F910F910895CF93DF93FC018481958134
:1033C0004817590778F4C081D181FB016081718170
:1033D000CE01840F951F0E945D1D009719F08C1B74
:1033E0009D0B02C08FEF9FEFDF91CF91089540E0DA
:1033F00050E00C94DB19DF92EF92FF920F931F9332
:10340000CF93DF93EC018C819D814817590718F009
:103410008FEF9FEF1BC08A010F5F1F4FE881F9817B
:10342000E00FF11FD0801082E880F980772767FDD8
:103430007095C7010E94521DF701E00FF11FD08265
:10344000009731F328813981821B930BDF91CF9153
:103450001F910F91FF90EF90DF900895FC01448140
:103460005581415051090C94FB19BF92CF92DF92C4
:10347000EF92FF920F931F93CF93DF936C017B0129
:10348000EA0189012417350720F48D2FE901042F63
:10349000182F6FED72E0C6010E948D18D7011496A7
:1034A0008D919C911597C817D907C8F4801791077B
:1034B00008F48C01D701ED91FC911197E00FF11FF9
:1034C000B08010826D917C916C0F7D1FC6010E94AF
:1034D000DB18D701ED91FC91E00FF11FB082C6011E
:1034E000DF91CF911F910F91FF90EF90DF90CF90E0
:1034F000BF900895089597FB072E16F4009407D007
:1035000077FD09D00E94DD1A07FC05D03EF49095A6
:1035100081959F4F0895709561957F4F0895A1E221
:103520001A2EAA1BBB1BFD010DC0AA1FBB1FEE1F3D
:10353000FF1FA217B307E407F50720F0A21BB30B88
:10354000E40BF50B661F771F881F991F1A9469F704
:1035500060957095809590959B01AC01BD01CF0160
:103560000895052E97FB1EF400940E94C81A57FD7B
:1035700007D00E948F1A07FC03D04EF40C94C81A8F
:1035800050954095309521953F4F4F4F5F4F08958F
:1035900090958095709561957F4F8F4F9F4F0895BF
:1035A000EE0FFF1F0590F491E02D09940E94F11A8F
:1035B000B7FF0895821B930B0895AA1BBB1B51E113
:1035C00007C0AA1FBB1FA617B70710F0A61BB70B93
:1035D000881F991F5A95A9F780959095BC01CD0138
:1035E0000895A29FB001B39FC001A39F700D811DDC
:1035F0001124911DB29F700D811D1124911D0895FC
:10360000CF93DF938230910510F482E090E0E09157
:103610004307F091440720E030E0A0E0B0E03097AD
:1036200039F14081518148175907B8F048175907B7
:1036300071F482819381109729F013969C938E9355
:1036400012972CC0909344078093430727C02115FD
:10365000310531F04217530718F0A901DB0101C011
:10366000EF019A01BD01DF010280F381E02DD7CF88
:1036700021153105F9F0281B390B2430310580F470
:103680008A819B816115710521F0FB0193838283FF
:1036900004C09093440780934307FE01329644C0D0
:1036A000FE01E20FF31F8193919322503109398378
:1036B00028833AC02091410730914207232B41F4DF
:1036C000209102013091030130934207209341077A
:1036D00020910001309101012115310541F42DB7F0
:1036E0003EB74091040150910501241B350BE09138
:1036F0004107F0914207E217F307A0F42E1B3F0B9E
:103700002817390778F0AC014E5F5F4F2417350753
:1037100048F04E0F5F1F509342074093410781933B
:10372000919302C0E0E0F0E0CF01DF91CF910895E6
:10373000CF93DF93009709F487C0FC01329713827F
:103740001282C0914307D0914407209781F42081D1
:103750003181280F391F80914107909142078217CC
:10376000930779F5F0934207E09341076DC0DE01BE
:1037700020E030E0AE17BF0750F412964D915C91F7
:1037800013979D014115510509F1DA01F3CFB38378
:10379000A28340815181840F951F8A179B0771F482
:1037A0008D919C911197840F951F02969183808330
:1037B00012968D919C9113979383828321153105E5
:1037C00029F4F0934407E09343073EC0D9011396D0
:1037D000FC93EE9312974D915D91A40FB51FEA17DC
:1037E000FB0779F480819181840F951F0296D9019E
:1037F00011969C938E938281938113969C938E93C2
:103800001297E0E0F0E08A819B81009719F0FE01B9
:10381000EC01F9CFCE01029628813981820F931FE6
:1038200020914107309142072817390769F43097F2
:1038300029F4109244071092430702C013821282A7
:10384000D0934207C0934107DF91CF910895A0E044
:10385000B0E0EDE2FCE10C94991DEC01CB01209766
:1038600019F40E94001BB8C0FE01E60FF71F9E016D
:1038700022503109E217F30708F4ACC0D9010D91C9
:103880001C91119706171707B8F00530110508F4B9
:103890009FC0A801445051094617570708F498C023
:1038A00002501109061B170B019311936D937C9322
:1038B000CF010E94981B8CC05B01A01AB10A4E0177
:1038C000800E911EA0914307B0914407612C712C8A
:1038D00060E070E0109709F449C0A815B905C9F572
:1038E000ED90FC901197670142E0C40ED11CCA1400
:1038F000DB0478F147018A189B08640142E0C40E9A
:10390000D11C1296BC9012971396AC91B5E0CB16D1
:10391000D10440F0B282A38391828082D9018D9339
:103920009C9309C00E5F1F4F0E0D1F1DF9011183DF
:103930000083EB2DFA2F6115710531F0DB01139631
:10394000FC93EE93129744C0F0934407E09343072F
:103950003FC06D917C9111976616770608F43B0184
:10396000BD0112960D90BC91A02DB4CF609141077E
:103970007091420768157905E9F468167906D0F464
:1039800040910001509101014115510541F44DB79D
:103990005EB76091040170910501461B570BE41757
:1039A000F507C0F4F0934207E0934107F9019183D2
:1039B00080830EC00E94001B7C01009759F0A80173
:1039C000BE010E941F1DCE010E94981BC70104C0AA
:1039D000CE0102C080E090E0CDB7DEB7EEE00C94FF
:1039E000B51DFC0188279927E89421912032E9F33D
:1039F000293010F02E30C8F32B3241F02D3239F43B
:103A0000689404C00E94771D820F911D219120535C
:103A10002A30C0F31EF4909581959F4F0895FB01C5
:103A2000DC0105900D920020E1F70895FC0105905E
:103A30000020E9F7809590958E0F9F1F0895FB0158
:103A4000DC0102C001900D9241505040D8F708951A
:103A5000FC018191861721F08823D9F799270895D1
:103A60003197CF010895FB01DC018D910190801900
:103A70000110D9F3990B0895FB01DC0101900D921F
:103A80000020E1F70895FB01DC014150504048F06F
:103A900001900D920020C9F701C01D924150504085
:103AA000E0F70895FC0181E090E00190061609F42A
:103AB000CF010020D1F701970895FB0151915523C3
:103AC000A9F0BF01DC014D9145174111E1F759F40F
:103AD000CD010190002049F04D9140154111C9F3ED
:103AE000FB014111EFCF81E090E0019708957AE06A
:103AF000979F902D879F802D910D11240895F999FE
:103B0000FECF92BD81BDF89A992780B50895262FE2
:103B1000F999FECF1FBA92BD81BD20BD0FB6F894B2
:103B2000FA9AF99A0FBE019608952F923F924F92FA
:103B30005F926F927F928F929F92AF92BF92CF923D
:103B4000DF92EF92FF920F931F93CF93DF93CDB746
:103B5000DEB7CA1BDB0B0FB6F894DEBF0FBECDBFBE
:103B600009942A88398848885F846E847D848C848F
:103B70009B84AA84B984C884DF80EE80FD800C8198
:103B80001B81AA81B981CE0FD11D0FB6F894DEBF7B
:103B90000FBECDBFED01089513E0C6ECD3E004C025
:103BA000FE010E94D21A2296CA3CD107C9F7F894A6
:023BB000FFCF45
:103BB2000000450780003938313938393539313319
:103BC20000000000003735383830393331303500E5
:103BD2000000000001393831393839353931332C98
:103BE2002030005052490053454300535441005382
:103BF200544F00474554004154002B435041533A1F
:103C02002030002B435041533A2033002B43504184
:103C1200533A2034004F4B0D0A002B434C43433A96
:103C220020312C312C342C302C30002B434C43438C
:103C32003A20312C312C342C312C30002B434C4384
:103C4200433A20312C302C302C302C30002B434C7A
:103C520043433A20312C312C302C302C30002B4372
:103C62004C43433A20312C312C302C312C30002B58
:103C7200434C43433A0041545445534F3A20004E7B
:103C8200554C4C00415441004154480041542B448E
:103C92004445543D310041542B444445543D300089
:103CA2002B44544D463A004154543A200052494361
:103CB2003A20005249433A204E4F20535452494E23
:103CC20047205243564400415445000D0041542BB5
:103CD200434E4D493D322C30002B43504D533A0058
:103CE20041542B43504D533D22534D222C22534DD0
:103CF200222C22534D220053485554204F4B004151
:103D0200542646004154453000446F6E2774207596
:103D12007365206261756472617465203131353278
:103D22003030207769746820536F667477617265EA
:103D32002053657269616C2E0A4175746F6D6174EE
:103D42006963616C6C79206368616E676564206188
:103D52007420393630302E0044423A4F4B204252C2
:103D62000044423A4E4F2042520044423A4E4F20C3
:103D7200524553500044423A454C5345000000001E
:103D820000960A41542B51434349440D0D0D0A003C
:103D92002B434C49503A2000415444003B002B43F2
:103DA2004D474C00222C22002B435245473A2030EB
:103DB2002C31002B435245473A20302C35002B43FF
:103DC20050425200434849414D414E544520005310
:103DD200414C5641544F20002B43475245473A200D
:103DE200302C002B51454E47002B4F4B00470351BF
:103DF20003020000000000930E850E0000FEFF008B
:103E020000960A44454255473A534D532054455370
:103E1200540044454255473A3E002B434D47530018
:103E22002B434D474C3A002B434D475200455252CB
:103E32004F52002252454320554E524541442200E2
:103E4200225245432052454144220000000000AA6C
:103E520010981616118910FC102E11000000001C7B
:0C3E62001598169E14B714A914FA140049
:00000001FF
