:100000000C9499030C94C1030C94C1030C94C10388
:100010000C94C1030C94C1030C94C1030C94C10350
:100020000C94C1030C94C1030C94C1030C94C10340
:100030000C94C1030C94C30C0C94C1030C94C10325
:100040000C947D0D0C94C1030C9414100C94461068
:100050000C94C1030C94C1030C94C1030C94C10310
:100060000C94C1030C94C10330860A102060000375
:10007000070B090E0B030505060903050304080613
:1000800008080908080808080303090809080C0CEF
:1000900009090909080A0A03090C080C0A0A090ACD
:1000A0000A090B0A0C100C0B0905040508080309C2
:1000B0000909090906090903040A030D09090909BF
:1000C00006080609090F0B09070602060908FEFEC5
:1000D000FE1D1D1D1E1E1E001E1E1E000000000017
:1000E00000003030F0FE3E3030F0FE3E30061E1F85
:1000F0000706061E1F070606387CFEE6FFC6CE8CE6
:100100000C040C1C183F191F0F073C7E42427E3C1A
:100110008060108C82808000000000100C020100C2
:100120000F1F10101F0F00809CFEFEE6BE3E9C803D
:1001300080070F1F1918191F0F0F1F1D1E1E1E00ED
:100140000000E0F8FC1E020F3F7FF080021EFCF86A
:10015000E080F07F3F0F08683E3E68080000000026
:100160000000C0C0C0F8F8F8C0C0C00101010F0F06
:100170000F010101000000DC7C3C80808080800356
:10018000030303030000001C1C1C008078061807F2
:100190000000F8FCFE0606FEFCF8070F1F18181FEB
:1001A0000F07607038FEFEFE0000001F1F1F181CA6
:1001B0001E0686FEFC78181C1E1F1B191818081C2A
:1001C0001EC6C6FEFC38060E1E18181F0F0780C07C
:1001D000F0381CFEFEFE0003030303031F1F1F0372
:1001E000F0FEFE6666E6C686060E1E18181F0F078E
:1001F000F0FCFE4666EECE8C030F1F18181F0F078B
:1002000006060686E6F61E0600001C1F1F010000FB
:1002100038FCFEC6C6FEFC38070F1F18181F0F0754
:1002200078FCFE8686FEFCF0040C1D19181F0F03D7
:100230007070701C1C1C707070DC7C3CE0E0E0F0A6
:100240007070703838030303070707070E0E7070CD
:100250007070707070700707070707070707383856
:10026000707070F0E0E0E00E0E070707070303036D
:10027000181C9EC6E6FE7C3800001D1D1D000000F7
:10028000E018C4F43A0A0AF2FA7C08F00718272F9B
:1002900048484C4F4F2836110080E0F8FE1EFEF80B
:1002A000E08000001C1F0F07060606070F1F1C102A
:1002B000FEFEFEC6C6FEBC98001F1F1F1818181FA2
:1002C0000F07F0FCFC0E060E1E1C08030F1F1C1867
:1002D0001C1F0E06FEFEFE06060EFEFCF01F1F1F74
:1002E00018181C1F0F03FEFEFEC6C6C6C6C6061F94
:1002F0001F1F181818181818FEFEFEC6C6C6C60618
:100300001F1F1F0000000000F0FCFC0E06C6CEDE22
:10031000DCC8030F0F1C18181C1F0F0FFEFEFEC0B9
:10032000C0C0C0FEFEFE1F1F1F000000001F1F1FD9
:10033000FEFEFE1F1F1F000000000000FEFEFE0666
:100340000F1F1C18181F0F07FEFEFEC0E0F0F8DCA0
:100350000E0602001F1F1F00000001071F1E1810BD
:10036000FEFEFE00000000001F1F1F1818181818BE
:10037000FEFEFE3EF88080F83EFEFEFE1F1F1F00C0
:10038000031F1F03001F1F1FFEFEFE7CF0E080FE08
:10039000FEFE1F1F1F0001030F1F1F1FF0FCFC0E9E
:1003A00006060EFCFCF0030F0F1C18181C0F0F03A1
:1003B000FEFEFEC6C6C6FE7E3C1F1F1F00000000DC
:1003C0000000F0FCFC0E06060EFCFCF0030F0F1CF8
:1003D000181E1C1F1F33FEFEFEC6C6C6FE7E3C0056
:1003E0001F1F1F0000030F1F1C10387CFEE6E6EEE7
:1003F000DEDC98060E1E1C18191F0F0706060606DF
:10040000FEFEFE06060606000000001F1F1F00007D
:100410000000FEFEFE00000000FEFEFE070F1F1C97
:1004200018181C1F0F071EFEFCF0800080F0FCFE59
:100430001E020000031F1F1C1F1F03000000FEFE02
:10044000F80080F8FE3EFEF88000F8FEFE06000F81
:100450001F1F1F07010001071F1F1F0F0000061E9F
:100460003CF8F0E0F0F83C1E0602181E0F070301EE
:1004700003070F1E1810020E1E7EF8E0F87E1E0EF7
:1004800002000000001F1F1F00000000000606C63B
:10049000E6F63E1E0E1C1E1F1B1918181818FEFE2D
:1004A000FE0606FFFFFFC0C00678800000000718A8
:1004B0000606FEFEFEC0C0FFFFFF40707C1E1E7CD5
:1004C000704000000000000000000000000000007C
:1004D0000000404040404040404002060400000010
:1004E00040607030B0B0F0F0E00E1F1F1B19091F04
:1004F0001F1FFEFEFE603030F0E0C01F1F1F0C18F3
:10050000181F0F07C0E0F0703030706040070F1FF9
:100510001C18181C0C04C0E0F0303060FEFEFE0712
:100520000F1F18180C1F1F1FC0E0F0B0B0B0F0E094
:10053000C0070F1F1D19191D0D0530FCFEFE3636B4
:10054000001F1F1F0000C0E0F0303060F0F0F047E7
:10055000CFDFD8D8CCFF7F3FFEFEFE203030F0F05A
:10056000E01F1F1F0000001F1F1FF6F6F61F1F1FB2
:1005700000F6F6F6C0FFFF7FFEFEFEC0E0F0F030B2
:1005800010001F1F1F0301071F1E1C10FEFEFE1F71
:100590001F1FF0F0F02030F0F0E02030F0F0E01F0E
:1005A0001F1F00001F1F1F00001F1F1FF0F0F02063
:1005B0003030F0F0E01F1F1F0000001F1F1FC0E0C1
:1005C000F0703070F0E0C0070F1F1C181C1F0F07E1
:1005D000F0F0F0603070F0E0C0FFFFFF0C18181F63
:1005E0000F07C0E0F0303060F0F0F0070F1F181870
:1005F0000CFFFFFFF0F0F02030101F1F1F00000065
:10060000E0F0F09090B0302008191B13131F1F0E5C
:1006100030FCFCFE3030000F1F1F1818F0F0F00007
:100620000000F0F0F00F1F1F1818081F1F1F10F018
:10063000F0C000E0F0F0100000071F1C1F070000D2
:1006400010F0F0E00000F0F0F00000E0F0F010003A
:1006500000071F1E0F0300030F1E1F0700001030AE
:1006600070E0C080C0E070301010181E0F07030744
:100670000F1E181010F0F0C000C0F0F030C0C0C75E
:10068000FFFC3F0F0100303030F0F0F0301C1E1F37
:100690001B1918180000FCFEFE0603037FFFFCC0B8
:1006A000FEFEFFFF06FEFEFC0000C0FCFF7F030312
:1006B000C0E0E0E0E0C0C0C0E001000000010101D6
:1006C0000100F8080808080808F81F10101010109A
:1006D000101F0000000800020100000304070000D2
:1006E0000000000000000102040810204080010208
:1006F0000408102001020408102004040404040467
:1007000004040202020202020303030303030000C3
:10071000000023002600290000000000250028001A
:100720002B0000000000240027002A001704761088
:10073000230411241FBECFEFD8E0DEBFCDBF11E0F0
:10074000A0E0B1E0E0E9FBE202C005900D92A03428
:10075000B107D9F724E0A0E4B1E001C01D92A23AAC
:10076000B207E1F717E0C0E3D7E004C02297FE012B
:100770000E94FD12CC32D107C9F70E94BA100C9426
:10078000BB150C94000089ED92E00C948907CF937F
:10079000DF9326E040E855E260E070E081E094E01D
:1007A0000E94B20F60E971E083ED92E00E94221195
:1007B00060E070E080EF93E00E94970C8130B1F42C
:1007C00061E070E080EF93E00E94970CC1E0D0E020
:1007D000843291F0682F83ED92E00E94B911219646
:1007E000BE0180EF93E00E94970CF2CF68E071E0C9
:1007F00083ED92E00E94751181E08093400148EB07
:100800005BE060E070E082EF93E00E94520D2FEF1A
:100810003FEFA90163EC73E082EF93E00E94620D69
:1008200061E089ED92E0DF91CF910C94980641E070
:1008300062E089ED92E00E947B0566E271E083ED63
:1008400092E00C945F1183ED92E00C94F1108F9282
:100850009F92AF92BF92CF92DF92EF92FF920F934F
:100860001F93CF93DF93CDB7DEB72C970FB6F894D5
:10087000DEBF0FBECDBF80914001882309F485C043
:100880001092400163E271E0CE0107960E945F1171
:10089000BE01695F7F4F83ED92E00E9457129C0179
:1008A00040E050E063ED72E0CE0101960E946112DB
:1008B000CE0101960E94A612709307016093060173
:1008C000CE0101960E94F110CE0107960E94F11010
:1008D00063E271E0CE0107960E945F11BE01695F7D
:1008E0007F4F83ED92E00E9457122091D702309102
:1008F000D802AC014E5F5F4F63ED72E0CE0101960E
:100900000E9461128D819E819093420180934101EA
:10091000CE0101960E94F110CE0107960E94F110BF
:10092000E0904101F090420163E271E0CE01079650
:100930000E945F11BE01695F7F4F83ED92E00E94CC
:1009400057122091D7023091D802AC014E5F5F4F11
:1009500063ED72E0CE0101960E94611221E030E069
:10096000A70163E471E0CE0101960E94DF11CE0180
:1009700001960E94F110CE0107960E94F11066E2E6
:1009800071E083ED92E00E94751161E089ED92E0E3
:100990000E94980668E670E089ED92E00E945E0889
:1009A000E3E4F1E0DF010D900020E9F7AD014150F3
:1009B00051094354514000E010E02FE330E0BF0103
:1009C00089ED92E00E94BB0A0E94C70D4B015C01B9
:1009D00081E094E00E94CF0E1816190614F1C09021
:1009E0000601D0900701EE24D7FCE094FE2CC80C41
:1009F000D91CEA1CFB1C0E94C70DC616D706E806C8
:100A0000F90630F740E050E06FEF7FEF89ED92E0BC
:100A10000E94380BF82E0E94C70D4B015C01FF208D
:100A2000B9F22C960FB6F894DEBF0FBECDBFDF91A2
:100A3000CF911F910F91FF90EF90DF90CF90BF90DB
:100A4000AF909F908F900895CF93DF9381E094E0D3
:100A50000E94CF0E892BB1F181E094E00E94E80E54
:100A6000843251F581E08093400141E060E070E024
:100A700080EF93E00E949A0CC1E0D0E0BE0161508B
:100A800071098091D7029091D8026817790760F4B4
:100A900083ED92E00E94DD11482FBE0180EF93E0CC
:100AA0000E949A0C2196EACF44E2BE0180EF93E0C7
:100AB000DF91CF910C949A0C682F83ED92E00E9405
:100AC000B911C4CFDF91CF910895FC01E15FFE4FD2
:100AD000408120E4429FA00111246FEF70E0FC01EF
:100AE000808191810C9422158EBD00000DB407FE0B
:100AF000FDCF8EB50895CF93DF93EC01FC01E35F4A
:100B0000FE4F608331964083649F802D112431967F
:100B1000808390E031969C0144E0220F331F4A9578
:100B2000E1F73183208332969C0155E0220F331F79
:100B30005A95E1F7318320833296AC01440F551F5B
:100B4000440F551F9A01220F331F240F351F220F08
:100B5000331F220F331F31832083B6E0880F991F84
:100B6000BA95E1F70E940113998388830E949E0C35
:100B70008CB58F7D8CBD8CB5837F8CBD8CB58C7F07
:100B80008CBD8DB58E7F8DBD60E086E00E94700EBD
:100B900060E087E00E94700E60E08DE00E94700EC1
:100BA00060E088E00E94700E61E08BE00E94700EB1
:100BB00060E089E00E94700E61E086E00E94370EDE
:100BC00061E087E00E94370E61E08DE00E94370E01
:100BD00061E088E00E94370E61E08BE00E94370EF2
:100BE00061E089E00E94370ECE010E946505CA5E71
:100BF000DE4F1882DF91CF9108950F93CF93DF934B
:100C0000FC01DC01A35FBE4F3C91A0E23A9FC00112
:100C100011246817790708F087C0DF01A25FBE4F73
:100C20008C91A0E18A9FC00111244817590708F050
:100C30007BC0CB018F719927DA01C4E0B695A795E7
:100C4000CA95E1F7D5E076956795DA95E1F73A9F91
:100C5000600D112430E2639F800D911D1124BC01B1
:100C600033E0769567953A95E1F74F705527DF01A8
:100C7000A15FBE4FCC91A4E0CA9FE00111244C9F1C
:100C8000D0014D9FB00D5C9FB00D11246A0F7B1FEA
:100C9000DC01A770BB27A95DBE4F8C912230F1F01B
:100CA00028F4222341F0213071F03EC0233021F19D
:100CB000243069F139C00190F081E02DE60FF71F73
:100CC000013041F420C00190F081E02DE60FF71FC4
:100CD0000023C9F09081982B908326C0013021F524
:100CE0000190F081E02DE60FF71F9081292F282336
:100CF000C9F08095892317C00130B1F40190F081CB
:100D0000E02DE60FF71F809590819823E5CF013005
:100D100059F40190F081E02DE60FF71F9081292F03
:100D2000282311F4892B8083DF91CF910F910895AF
:100D300061110C946505FC01E15FFE4F408120E4E8
:100D4000429FA001112460E070E0FC01808191814C
:100D50000C9422152F923F924F925F926F927F9246
:100D60008F929F92AF92BF92CF92DF92EF92FF92BB
:100D70000F931F93CF93DF9300D000D000D0CDB757
:100D8000DEB74C016B015E834D8329011C830B830D
:100D90001E2DEB80FC80E41AF50A5901A61AB70A49
:100DA000F7FE07C0F194E194F10822242A94322C32
:100DB00003C022242394312CB7FE08C0B194A1941F
:100DC000B1082FEF3FEF3A83298304C081E090E020
:100DD0009A838983EE0CFF1CAA0CBB1C01E0212F17
:100DE0004D815E81B601C4010E94FD05EA14FB0439
:100DF00014F5C501959587953701681A790AC414C9
:100E0000D504F1F177FC08C0ED81FE81E20DF31D00
:100E1000FE83ED836A187B0829813A81C20ED31EB6
:100E20006E0C7F1C01E0212F4D815E81B601C40153
:100E30000E94FD05E4CFC701959587953501681A95
:100E4000790A2D813E818B819C8128173907C1F059
:100E500077FC06C089819A81C80ED91E6E187F085A
:100E6000ED81FE81E20DF31DFE83ED836A0C7B1C98
:100E700001E0212FAF01B601C4010E94FD05E1CFC1
:100E800026960FB6F894DEBF0FBECDBFDF91CF918F
:100E90001F910F91FF90EF90DF90CF90BF90AF9098
:100EA0009F908F907F906F905F904F903F902F908A
:100EB00008956F927F928F929F92AF92BF92CF923E
:100EC000DF92EF92FF920F931F93CF93DF935C011A
:100ED000EB014A0169013801FE2CCC16DD0654F005
:100EE000EF2C83019E01A401BE01C5010E94AA0648
:100EF0002196F3CFDF91CF911F910F91FF90EF904B
:100F0000DF90CF90BF90AF909F908F907F906F9029
:100F100008954F925F926F927F928F929F92AF92BD
:100F2000BF92CF92DF92EF92FF920F931F93CF93D6
:100F3000DF93EC018AE00E94A60E019709F0ADC094
:100F4000FE01E15FFE4F608084E0689E3001112465
:100F50007E01AAEEEA1AAEEFFA0AF7018081869DB9
:100F60002001879D500C112482016E01FCEECF1AE6
:100F7000FEEFDF0A5E018EEEA81A8EEFB80A4E0170
:100F8000A0EF8A1AAEEF9A0AC8018419950986154E
:100F9000970574F5E881F981E00FF11FD6018D9175
:100FA0009C91E80FF91F80810E947405E881F98106
:100FB000E00FF11FD5018D919C91E80FF91F808101
:100FC0000E947405E881F981E00FF11FD4018D9131
:100FD0009C91E80FF91F80810E947405E881F981D6
:100FE000E00FF11F80810E9474050F5F1F4FCCCF6F
:100FF00060E089E00E94700E61E088E00E94700E5F
:1010000060E088E00E94700EF70180818130D1F0AD
:1010100078F0823019F1833061F561E087E00E9459
:10102000700E61E086E00E94700EF701108221C010
:1010300060E087E00E94700E60E086E00E94700E23
:1010400081E015C060E087E00E94700E61E086E0FC
:101050000E94700E82E0F70180830BC061E087E0A0
:101060000E94700E60E086E00E94700E83E0D7015F
:101070008C9361E089E0DF91CF911F910F91FF90F8
:10108000EF90DF90CF90BF90AF909F908F907F9028
:101090006F905F904F900C94700EDF91CF911F91E5
:1010A0000F91FF90EF90DF90CF90BF90AF909F9007
:1010B0008F907F906F905F904F900895855F9E4FC7
:1010C000FC01718360830895603209F46EE6FC01CF
:1010D000E55FFE4F20813181F9013496749131969C
:1010E00084916717A0F0462F50E090E0870F911D84
:1010F0004817590764F4671BF901849181110AC0EC
:101100003196E491E11106C0F901329608C080E001
:1011100090E00895E62FF0E03696E20FF31FE49199
:101120008E2F90E008952F923F924F925F926F9290
:101130007F928F929F92AF92BF92CF92DF92EF9267
:10114000FF920F931F93CF93DF93CDB7DEB76697D0
:101150000FB6F894DEBF0FBECDBF9E8B8D8B5B01AB
:101160004A010E83FC01E35FFE4F808130E2839FE2
:10117000C0011124861797070CF421C1ED89FE895F
:10118000E25FFE4F808140E1849FC00111248815F9
:1011900099050CF414C1ED89FE89E55FFE4F80814D
:1011A0009181FC0133960491AD89BE89A55FBE4F44
:1011B000BC87AB872032B9F460E28D899E890E949A
:1011C00064086C01F401E00FF11D8F019501280FF7
:1011D000391FEE24E394A401B5018D899E890E94F4
:1011E00059077601F2C0FC0134963491319644904F
:1011F000231708F4E8C0622F70E0512CA201430FBE
:10120000511D641775070CF0DEC0202E312CA10192
:10121000495F5F4F63E0559547956A95E1F7231B5A
:10122000FC013491332331F0DC011696FD0160E0BE
:1012300070E016C0FC013196E491E111F5CFFC019C
:1012400032961491249FC001259F900D1124189F60
:101250002001199F500C1124A6E04A0E511C1BC0FE
:101260003E2F3A1B321728F43491630F711D3196CB
:10127000F7CF649FF001659FF00D749FF00D11246E
:1012800036E0430E511C4E0E5F1EE22FF0E0369604
:10129000E80FF91F1491E12EF12C882799278E1958
:1012A0009F09A816B9060CF490C0882799278219BF
:1012B0009309881699060CF488C04D8330E0842F7A
:1012C0008150898BDA011197BB8BAA8BF10138977A
:1012D000FA87E987311709F478C01C821B82832FB3
:1012E00090E0AC01440D551D588B4F87D501A80FD8
:1012F000B91FB887AF8389899B81891B8E3F08F00E
:101300005CC04F855889819F400D511D1124AB85CC
:10131000BC85ED91FC91E40FF51FE49190E0AC01E8
:1013200023E0440F551F2A95E1F75A834983AA8980
:10133000BB898A179B0731F4BD81B23018F09985BB
:101340008A8502C099818A81C92ED82E612C712C80
:101350004E2F50E05E874D87A981BA81CA16DB0601
:10136000E4F02C143D04CCF0ED85FE85062C02C083
:10137000F595E7950A94E2F7A601480D591DE0FF9F
:1013800002C001E001C000E02E816F8178858D8967
:101390009E893C8B0E94FD053C89FFEF6F1A7F0AF6
:1013A0004FEFC41AD40A58E065167104A9F68B8170
:1013B0009C8101969C838B839ECF3F5F8BCFEE24D5
:1013C000EA94FE2C02C0E12CF12CC70166960FB600
:1013D000F894DEBF0FBECDBFDF91CF911F910F916B
:1013E000FF90EF90DF90CF90BF90AF909F908F9045
:1013F0007F906F905F904F903F902F9008952F9225
:101400003F924F925F926F927F928F929F92AF9294
:10141000BF92CF92DF92EF92FF920F931F93CF93E1
:10142000DF93CDB7DEB729970FB6F894DEBF0FBEB6
:10143000CDBF998788875B016A011901702EEF8201
:10144000835F9E4F9C838B83FC018081F0E28F9FA2
:10145000C0011124681779070CF074C028853985FC
:10146000225F3E4F3E832D83F9018081F0E18F9F03
:10147000C0011124481759070CF064C0E885F985AC
:10148000E55FFE4F0190F081E02D3396E4914A0133
:101490008E0E911C97FC56C0EE24E394840161509B
:1014A00071099B01888599850E94AA062101E12C7A
:1014B000F12C272D30E03A832983C2018219930948
:1014C00029813A8182179307ECF5F20121912F01CE
:1014D0000F81A601B5016E0D7F1D888599850E943B
:1014E000930818161906A4F43701680E791EB50181
:1014F000660D771DEE24E39484019B01A601888587
:1015000099850E94AA067301FFEFEF1AFF0A02C035
:10151000892BC1F4EB81FC818081F0E28F9FC001B7
:10152000112495012E0D3F1D281739075CF4ED811C
:10153000FE818081F0E18F9FC0011124C816D90679
:101540000CF4BBCF29960FB6F894DEBF0FBECDBF0B
:10155000DF91CF911F910F91FF90EF90DF90CF908F
:10156000BF90AF909F908F907F906F905F904F90C3
:101570003F902F9008952F923F924F925F926F92DB
:101580007F928F929F92AF92BF92CF92DF92EF9213
:10159000FF920F931F93CF93DF931F92CDB7DEB7C8
:1015A0001C01490138015C018DEFA81A8EEFB80AC1
:1015B000D5011D921C927B01C12CD12C442E512CA3
:1015C000C414D504DCF4F701D7018D917D01D1015C
:1015D000AC0DBD1D12968C936081C10149830E94A0
:1015E00064080196F50120813181280F391F31836C
:1015F0002083FFEFCF1ADF0A4981E2CFF101E55FD7
:10160000FE4F0190F081E02D3396E491D101AB5F64
:10161000BE4FF0E0ED93FC93F101E40DF51D128255
:10162000F101E75FFE4F7182608232979182808282
:101630003597408391012E5F3F4FE12C042FA3018A
:10164000B401C1010E94FF090F90DF91CF911F915A
:101650000F91FF90EF90DF90CF90BF90AF909F9051
:101660008F907F906F905F904F903F902F90089554
:101670006F927F928F929F92AF92BF92CF92DF92A2
:10168000EF92FF920F931F93CF93DF93EC015B01D7
:101690004A017C0129EFE21A2EEFF20AD7018D915F
:1016A0009C911197860F971F8D939C938E01075FD6
:1016B0001E4FF80120813181240F351F3183208393
:1016C000369720813181319521953109AE01435FF3
:1016D0005E4F6A01DA01821793074CF48C91B0E2F5
:1016E0008B9FC0011124F701918380830BC04C9123
:1016F000B0E24B9FA0011124481759074CF4F701A1
:1017000031832083CE010E9465057724739401C044
:10171000712CD8012D913C91FE01EB5FFE4F808131
:1017200091819195819591093996281739074CF443
:101730008081B0E18B9FC0011124F80191838083E7
:101740000BC04081F0E14F9FA001112442175307C5
:1017500044F4D8018D939C93CE010E9465057724B3
:101760007394892809F0C2C0BFEFAB16BB0609F01D
:1017700064C020E030E05E01E1EFAE1AEEEFBE0A99
:10178000F5018081F0E48F9FC001112428173907EB
:101790001CF5D601EC91B4E0EB9FF0011124C901D6
:1017A000BF010E94C512AF0141505109E881F98182
:1017B000E20FF31F8417950721F48081880F8F5F54
:1017C00007C08181881F8827881F9081990F890F02
:1017D00080832F5F3F4FD4CFD7018D909C90612C99
:1017E0005E01BEEFAB1ABB0AF5018081681608F0F6
:1017F0008EC0FE01E60DF11D7F0122E0E20EF11C1C
:101800006281CE010E946408D6012C91A401480F88
:10181000591FB0E22B9F900111244217530744F047
:10182000F8014081518100E0D7012C91B4015AC0E8
:101830000196880E991E6394D7CFAA94AB2809F01D
:1018400055C0FE01E15FFE4F208140E4249F9001DE
:10185000112421503109F0F0D6016C91B4E06B9F56
:10186000B0011124C9010E94C512E881F981E20F7B
:10187000F31F892B21F480818695805809C0DF01F0
:1018800011979C918081869540E8949F800D11244A
:101890008083DFCFD701ED90FC90912C5E01BEEFED
:1018A000AB1ABB0A04C00196E80EF91E9394D50149
:1018B0008C91981660F5FE01E90DF11D6F0122E093
:1018C000C20ED11C6281CE010E9464089701280FCC
:1018D000391F37FDE8CFD8014D915C9100E0F6014A
:1018E0002081B701CE010E94930811C0FE01EE5F76
:1018F000FE4F9E012E5F3F4FD8014D915C91D70165
:101900006D917C91E12C0081CE010E94FF09872D11
:10191000DF91CF911F910F91FF90EF90DF90CF90CB
:10192000BF90AF909F908F907F906F900895CB0164
:101930000C946E15CB01642F0C947615CF93CFB712
:10194000F8948091F103811116C061E08AE00E9451
:10195000700E61E08AE00E94370E8CB580618CBD0C
:101960008CB580648CBD61E08DE00E94370E61E033
:101970008BE00E94370E8091F1038F5F8093F1031B
:10198000CFBFCF9108951F920F920FB60F921124DF
:101990002F933F934F935F936F937F938F939F9377
:1019A000AF93BF93EF93FF93E091F603F091F703AA
:1019B0000995FF91EF91BF91AF919F918F917F9189
:1019C0006F915F914F913F912F910F900FBE0F90AC
:1019D0001F901895FC01A3E0440F551F661F771F49
:1019E000AA95D1F74115510581E06807710514F4F6
:1019F00081E00EC033E075956795579547953A9508
:101A0000D1F74115510581E0680771051CF482E0AA
:101A1000828331C023E075956795579547952A9540
:101A2000D1F74115510581E06807710514F483E091
:101A3000EFCF92E075956795579547959A95D1F7B1
:101A40004115510581E06807710514F484E0E0CF89
:101A500082E075956795579547958A95D1F785E00A
:101A600082834115510581E06807710524F04FEF2D
:101A70005FEF60E070E08FB78383F8945183408319
:101A8000509387004093860083818FBF80918100AF
:101A9000887F80938100809181009281892B80933F
:101AA000810008951092800020E1209381000C9421
:101AB000EA0CE1E8F0E02081DC0112968C91282B01
:101AC000208308950F931F93CF93DF93EC018B0135
:101AD000BA01A901141615061606170614F40E9479
:101AE000EA0C1D830C8381E080936F00CE01DF91AF
:101AF000CF911F910F910C94590D1F920F920FB619
:101B00000F9211242F933F938F939F93AF93BF9383
:101B10008091F9039091FA03A091FB03B091FC032B
:101B20003091F80323E0230F2D3720F40196A11DF7
:101B3000B11D05C026E8230F0296A11DB11D2093FB
:101B4000F8038093F9039093FA03A093FB03B093F7
:101B5000FC038091FD039091FE03A091FF03B091DF
:101B600000040196A11DB11D8093FD039093FE0317
:101B7000A093FF03B0930004BF91AF919F918F9109
:101B80003F912F910F900FBE0F901F9018952FB778
:101B9000F8946091F9037091FA038091FB0390919E
:101BA000FC032FBF0895789484B5826084BD84B50A
:101BB000816084BD85B5826085BD85B5816085BD48
:101BC000EEE6F0E0808181608083E1E8F0E0108261
:101BD000808182608083808181608083E0E8F0E0A2
:101BE000808181608083E1EBF0E08081846080838C
:101BF000E0EBF0E0808181608083EAE7F0E08081C3
:101C00008460808380818260808380818160808322
:101C10008081806880831092C1000895833081F0B4
:101C200028F4813099F08230A1F008958730A9F02E
:101C30008830B9F08430D1F4809180008F7D03C06A
:101C4000809180008F7780938000089584B58F778E
:101C500002C084B58F7D84BD08958091B0008F77D8
:101C600003C08091B0008F7D8093B0000895CF9322
:101C7000DF9390E0FC01EA51F94F2491FC01E6501A
:101C8000F94F8491882349F190E0880F991FFC0156
:101C9000EE5DF84FA591B491885E984FFC01C59117
:101CA000D4919FB7611108C0F8948C91209582233C
:101CB0008C93888182230AC0623051F4F8948C910D
:101CC000322F309583238C938881822B888304C0A4
:101CD000F8948C91822B8C939FBFDF91CF910895C4
:101CE0000F931F93CF93DF931F92CDB7DEB7282FAB
:101CF00030E0F901EE52F94F8491F901EA51F94FC0
:101D00001491F901E650F94F04910023C9F088239A
:101D100021F069830E940E0E6981E02FF0E0EE0F42
:101D2000FF1FE85EF84FA591B4919FB7F8948C918E
:101D3000611103C01095812301C0812B8C939FBF3B
:101D40000F90DF91CF911F910F910895CF93DF9363
:101D5000282F30E0F901EE52F94F8491F901EA5150
:101D6000F94FD491F901E650F94FC491CC2391F089
:101D700081110E940E0EEC2FF0E0EE0FFF1FE25FCC
:101D8000F84FA591B4912C912D2381E090E021F49E
:101D900080E002C080E090E0DF91CF910895FC01E7
:101DA000818D228D90E0805C9F4F821B91098F7303
:101DB00099270895FC01918D828D981731F0828DBD
:101DC000E80FF11D858D90E008958FEF9FEF089546
:101DD000FC01918D828D981761F0828DDF01A80F33
:101DE000B11D5D968C91928D9F5F9F73928F90E055
:101DF00008958FEF9FEF08958CE690E1892B49F0CD
:101E000084E295E0892B29F00E946C1081110C94DA
:101E100024050895FC01848DDF01A80FB11DA35A8C
:101E2000BF4F2C91848D90E001968F739927848FFA
:101E3000A689B7892C93A089B1898C9180648C93F1
:101E4000938D848D981306C00288F389E02D8081DC
:101E50008F7D80830895CF93DF93EC01888D882355
:101E6000C9F0EA89FB89808185FD05C0A889B98907
:101E70008C9186FD0FC00FB607FCF5CF808185FFE2
:101E8000F2CFA889B9898C9185FFEDCFCE010E9450
:101E90000A0FE7CFDF91CF910895CF92DF92FF92A3
:101EA0000F931F93CF93DF931F92CDB7DEB76C01D3
:101EB000DC015B969C915B975C968C915C97981388
:101EC00007C05096ED91FC915197808185FD32C0FD
:101ED000F601038D10E00F5F1F4F0F731127F02ED7
:101EE000F601848DF81211C00FB607FCF9CFD601A8
:101EF0005096ED91FC915197808185FFF1CFC601FD
:101F000069830E940A0F6981EBCF838DE80FF11D71
:101F1000E35AFF4F6083D6015B960C935B97529612
:101F2000ED91FC91539780818062808381E0589687
:101F30008C930DC0D6015696ED91FC915797608316
:101F40005096ED91FC91519780818064808381E06F
:101F500090E00F90DF91CF911F910F91FF90DF9054
:101F6000CF900895BF92CF92DF92EF92FF92CF93DE
:101F7000DF93EC016A017B01B22EE889F98982E0E6
:101F80008083411581EE580761057105A1F060E07D
:101F900079E08DE390E0A70196010E94D9122150CB
:101FA00031094109510956954795379527952115CE
:101FB00080E1380798F0E889F989108260E874E8D0
:101FC0008EE190E0A70196010E94D91221503109BB
:101FD000410951095695479537952795EC85FD851B
:101FE0003083EE85FF852083188EEC89FD89B082D1
:101FF000EA89FB89808180618083EA89FB8980810D
:1020000088608083EA89FB89808180688083EA898F
:10201000FB8980818F7D8083DF91CF91FF90EF904E
:10202000DF90CF90BF9008951F920F920FB60F923E
:1020300011242F938F939F93EF93FF93E0911104BB
:10204000F09112048081E0911704F091180482FD50
:1020500012C0908180911A048F5F8F7320911B04AE
:10206000821751F0E0911A04F0E0EF5FFB4F958F7B
:1020700080931A0401C08081FF91EF919F918F910D
:102080002F910F900FBE0F901F9018951F920F92D7
:102090000FB60F9211242F933F934F935F936F933B
:1020A0007F938F939F93AF93BF93EF93FF9381E0C1
:1020B00094E00E940A0FFF91EF91BF91AF919F9121
:1020C0008F917F916F915F914F913F912F910F90E1
:1020D0000FBE0F901F90189581E094E00E94CF0EE4
:1020E00021E0892B09F420E0822F08951092040446
:1020F0001092030488EE93E0A0E0B0E08093050422
:1021000090930604A0930704B093080483E391E03E
:10211000909302048093010485EC90E090930E0468
:1021200080930D0484EC90E09093100480930F044E
:1021300080EC90E0909312048093110481EC90E085
:10214000909314048093130482EC90E0909316040F
:102150008093150486EC90E0909318048093170404
:1021600010921A0410921B0410921C0410921D0469
:10217000089508950E94D30D0E94B9100E94C703CC
:10218000CCEFDEE00E9427042097E1F30E94FC0ED2
:10219000F9CFCF92DF92EF92FF920F931F93CF93DD
:1021A000DF936C017A01EB01E60EF71E00E010E010
:1021B000CE15DF0561F06991D601ED91FC9101909A
:1021C000F081E02DC6010995080F191FF1CFC80154
:1021D000DF91CF911F910F91FF90EF90DF90CF9003
:1021E0000895FC01808191810C949913CF93DF9322
:1021F000EC0188819981009711F00E94991319824E
:1022000018821D821C821B821A82DF91CF91089551
:102210000F931F93CF93DF93EC018B016F5F7F4F81
:10222000888199810E942814009731F099838883CE
:102230001B830A8381E001C080E0DF91CF911F9171
:102240000F910895CF93DF93EC0188819981892BB9
:1022500029F08A819B818617970760F4CE010E943E
:102260000811882341F08C819D81892B19F4E88124
:10227000F981108281E0DF91CF910895EF92FF9272
:102280000F931F93CF93DF93EC017B018A01BA0177
:102290000E942211811104C0CE010E94F61007C0D5
:1022A0001D830C83B701888199810E942915CE0175
:1022B000DF91CF911F910F91FF90EF900895FC0156
:1022C00011821082138212821582148261157105A7
:1022D00059F0FB0101900020E9F7AF01415051098D
:1022E000461B570B0C943E110895CF93DF93EC01DE
:1022F0006115710561F0FB0101900020E9F7AF0164
:1023000041505109461B570B0E943E1102C00E94CA
:10231000F610CE01DF91CF910895EF92FF920F93C7
:102320001F93CF93DF93EC017B010C811D8161151D
:10233000710511F480E016C04115510591F0040FAC
:10234000151FB8010E9422118823A1F32881398129
:102350008C819D81B701820F931F0E9429151D83D7
:102360000C8381E0DF91CF911F910F91FF90EF904F
:102370000895CF93DF9300D0CDB7DEB769831A827B
:1023800041E050E0BE016F5F7F4F0E948D110F90C2
:102390000F90DF91CF910895FC0124813581621760
:1023A000730748F480819181009729F0FC01E60FC2
:1023B000F71F8081089580E008950C94CC110F934D
:1023C0001F93CF93DF93EB0141155105E9F020975F
:1023D000D9F0FC016481758126173707A0F4621BD0
:1023E000730B8A01015011096017710708F48B0102
:1023F000FC0160817181620F731FA801CE010E94F0
:102400003015C00FD11F1882DF91CF911F910F910E
:102410000895AF92BF92CF92DF92EF92FF920F9307
:102420001F93CF93DF937B01EA01FB014481558128
:102430004115510569F1FC012481358121153105D2
:1024400039F12417350720F1C217D30710F0E9013D
:102450002197FC0100811181C801AA24AA94BB2400
:10246000BA946801CC0EDD1EC816D906A0F0F7019B
:10247000608171810E943F15009769F09C01201BCB
:10248000310BC217D30708F4950101965901ECCF1F
:102490008FEF9FEF01C0C501DF91CF911F910F9189
:1024A000FF90EF90DF90CF90BF90AF900895FC0128
:1024B00044815581FB0124813581421B530B0C94CF
:1024C0000912BF92CF92DF92EF92FF920F931F9368
:1024D000CF93DF936C017B01EA0189012417350753
:1024E00020F48D2FE901042F182F66E271E0C60158
:1024F0000E945F11D70114968D919C911597C81772
:10250000D907C8F48017910708F48C01D701ED9121
:10251000FC911197E00FF11FB08010826D917C91BA
:102520006C0F7D1FC6010E947511D701ED91FC91C2
:10253000E00FF11FB082C601DF91CF911F910F9183
:10254000FF90EF90DF90CF90BF900895FC018081C5
:102550009181009711F00C94F21460E070E0CB01CF
:102560000895AA1BBB1B51E107C0AA1FBB1FA617DA
:10257000B70710F0A61BB70B881F991F5A95A9F72C
:1025800080959095BC01CD01089597FB072E16F418
:10259000009407D077FD09D00E94B11207FC05D046
:1025A0003EF4909581959F4F0895709561957F4F6A
:1025B0000895A1E21A2EAA1BBB1BFD010DC0AA1F84
:1025C000BB1FEE1FFF1FA217B307E407F50720F09C
:1025D000A21BB30BE40BF50B661F771F881F991F17
:1025E0001A9469F760957095809590959B01AC0160
:1025F000BD01CF010895EE0FFF1F0590F491E02D6E
:102600000994CF93DF938230910510F482E090E03B
:10261000E091A004F091A10420E030E0A0E0B0E05F
:10262000309739F14081518148175907B8F0481760
:10263000590771F482819381109729F013969C9326
:102640008E9312972CC09093A1048093A00427C06E
:102650002115310531F04217530718F0A901DB01AC
:1026600001C0EF019A01BD01DF010280F381E02D7D
:10267000D7CF21153105F9F0281B390B243031054E
:1026800080F48A819B816115710521F0FB019383A0
:10269000828304C09093A1048093A004FE0132962B
:1026A00044C0FE01E20FF31F819391932250310940
:1026B000398328833AC020919E0430919F04232BB4
:1026C00041F4209102013091030130939F04209343
:1026D0009E0420910001309101012115310541F442
:1026E0002DB73EB74091040150910501241B350BD5
:1026F000E0919E04F0919F04E217F307A0F42E1BD3
:102700003F0B2817390778F0AC014E5F5F4F241755
:10271000350748F04E0F5F1F50939F0440939E046F
:102720008193919302C0E0E0F0E0CF01DF91CF917F
:102730000895CF93DF93009709F487C0FC01329787
:1027400013821282C091A004D091A104209781F439
:1027500020813181280F391F80919E0490919F0420
:102760008217930779F5F0939F04E0939E046DC060
:10277000DE0120E030E0AE17BF0750F412964D9115
:102780005C9113979D014115510509F1DA01F3CFD1
:10279000B383A28340815181840F951F8A179B07C1
:1027A00071F48D919C911197840F951F02969183DE
:1027B000808312968D919C91139793838283211528
:1027C000310529F4F093A104E093A0043EC0D9019F
:1027D0001396FC93EE9312974D915D91A40FB51F44
:1027E000EA17FB0779F480819181840F951F029687
:1027F000D90111969C938E938281938113969C9319
:102800008E931297E0E0F0E08A819B81009719F0A7
:10281000FE01EC01F9CFCE01029628813981820FA9
:10282000931F20919E0430919F042817390769F463
:10283000309729F41092A1041092A00402C01382D0
:102840001282D0939F04C0939E04DF91CF9108958C
:10285000A0E0B0E0EEE2F4E10C948815EC01CB01CD
:10286000209719F40E940113B8C0FE01E60FF71F6C
:102870009E0122503109E217F30708F4ACC0D901D8
:102880000D911C91119706171707B8F00530110527
:1028900008F49FC0A801445051094617570708F48F
:1028A00098C002501109061B170B019311936D93E9
:1028B0007C93CF010E9499138CC05B01A01AB10ACE
:1028C0004E01800E911EA091A004B091A104612C34
:1028D000712C60E070E0109709F449C0A815B905A3
:1028E000C9F5ED90FC901197670142E0C40ED11C30
:1028F000CA14DB0478F147018A189B08640142E09E
:10290000C40ED11C1296BC9012971396AC91B5E0F0
:10291000CB16D10440F0B282A38391828082D90188
:102920008D939C9309C00E5F1F4F0E0D1F1DF90163
:1029300011830083EB2DFA2F6115710531F0DB0156
:102940001396FC93EE93129744C0F093A104E09386
:10295000A0043FC06D917C9111976616770608F42C
:102960003B01BD0112960D90BC91A02DB4CF60919A
:102970009E0470919F0468157905E9F4681679063C
:10298000D0F440910001509101014115510541F4ED
:102990004DB75EB76091040170910501461B570B5E
:1029A000E417F507C0F4F0939F04E0939E04F90147
:1029B000918380830EC00E9401137C01009759F01F
:1029C000A801BE010E941915CE010E949913C701EA
:1029D00004C0CE0102C080E090E0CDB7DEB7EEE0EB
:1029E0000C94A4151F93FC0199278827BC01E89437
:1029F00011911032E9F3193010F01E30C8F31B3278
:102A000051F01D3249F4689406C00E945915610FB7
:102A1000711D811D911D119110531A30B0F33EF4B8
:102A200090958095709561957F4F8F4F9F4F1F9127
:102A30000895FB01DC0102C001900D92415050400D
:102A4000D8F70895DC0101C06D9341505040E0F784
:102A50000895FB01DC0101900D920020E1F708953B
:102A6000FB01DC014150504048F001900D920020E4
:102A7000C9F701C01D9241505040E0F70895FB0195
:102A800051915523A9F0BF01DC014D91451741112A
:102A9000E1F759F4CD010190002049F04D91401526
:102AA0004111C9F3FB014111EFCF81E090E00197A3
:102AB0000895592F482F372F262F660F771F881F0D
:102AC000991F660F771F881F991F620F731F841F3E
:102AD000951F660F771F881F991F0895F999FECFDC
:102AE00092BD81BDF89A992780B50895262FF9994E
:102AF000FECF1FBA92BD81BD20BD0FB6F894FA9AE1
:102B0000F99A0FBE019608952F923F924F925F92CD
:102B10006F927F928F929F92AF92BF92CF92DF92ED
:102B2000EF92FF920F931F93CF93DF93CDB7DEB752
:102B3000CA1BDB0B0FB6F894DEBF0FBECDBF0994E6
:102B40002A88398848885F846E847D848C849B843D
:102B5000AA84B984C884DF80EE80FD800C811B814B
:102B6000AA81B981CE0FD11D0FB6F894DEBF0FBE7A
:102B7000CDBFED01089517E0C0E3D7E004C0FE012A
:102B80000E94FD122296C233D107C9F7F894FFCFF5
:102B90000000A20480001E0033304D53474E4F20EA
:102BA0004D45535341474520544F20444953504CC1
:102BB0004159004D53470080402010080402010095
:102BC0000000004D0FC910CF0EE80EDA0E2B0F00DB
:00000001FF
