:100000000C9462000C948A000C948A000C948A0070
:100010000C948A000C948A000C948A000C948A0038
:100020000C948A000C948A000C948A000C948A0028
:100030000C948A000C948A000C948A000C948A0018
:100040000C9483020C948A000C948A000C948A000D
:100050000C948A000C948A000C948A000C948A00F8
:100060000C948A000C948A00000000080002010031
:100070000003040700000000000000000102040863
:100080001020408001020408102001020408102002
:10009000040404040404040402020202020203032E
:1000A00003030303000000002300260029000000D2
:1000B0000000250028002B0000000000240027007D
:1000C0002A00F90111241FBECFEFD8E0DEBFCDBF5B
:1000D00011E0A0E0B1E0E8EAFCE002C005900D927A
:1000E000AA31B107D9F721E0AAE1B1E001C01D9220
:1000F000A333B207E1F710E0C4ECD0E004C02297CC
:10010000FE010E943F06C23CD107C9F70E943E048F
:100110000C9452060C940000CF93DF93C4E0D1E01E
:100120008881229661E00E94A50381E0C831D8074A
:10013000B9F761E08CE00E94A50360E08DE00E94C9
:10014000A50361E08FE00E94A5036DE070E08AE105
:1001500091E00E9409026AE070E08AE191E0DF919B
:10016000CF910C942F024F925F926F927F92AF9239
:10017000BF92CF92DF92EF92FF920F931F93CF9394
:10018000DF9364EF71E080E090E00E94FC028091D8
:1001900024018F5F80932401843109F0B5C061E0B0
:1001A00082E10E94A50360E08EE00E94A50361E069
:1001B00082E10E94DE0368EE73E080E090E00E943E
:1001C000FC02109226011092270110922801109231
:1001D0002901C5E0D0E040902601509027016090B1
:1001E0002801709029018EE00E945F03BC018827DE
:1001F00077FD8095982F0E942D059B01AC01C301CE
:10020000B2010E94960460932601709327018093A7
:1002100028019093290162E370E080E090E00E9461
:10022000FC022197C1F6609126017091270180910F
:100230002801909129010E94FA04CB0165E070E049
:100240000E94C9052B01662457FC6094762CC301DB
:10025000B2010E942D0560932601709327018093BF
:100260002801909329011F921F921F928AE08F9379
:10027000A12CB12C650114E8E12E13E0F12E00E071
:1002800010E024E630E040E050E0C301B2010E94FB
:100290004D047093230160932201C4E0D1E00F90DC
:1002A0000F900F900F90612C712C809122019091F2
:1002B00023016816790614F461E001C060E08881CA
:1002C0000E94DE038FEF681A780A22968AE0681689
:1002D000710459F760E082E10E94DE0360E082E190
:1002E0000E94A50361E08EE00E94A50361E08EE01C
:1002F0000E94DE0364E175E080E090E00E94FC0271
:1003000060E08EE00E94DE03809124018C33F9F4DA
:10031000809122019091230102970797C0F080916C
:1003200025018823A1F061E08CE00E94DE0368EEE5
:1003300073E080E090E00E94FC0260E08CE00E94AC
:10034000DE0368EE73E080E090E00E94FC028091A2
:100350002401883709F5109224018091220190919F
:10036000230103970597C0F0809125018823A1F010
:1003700061E08CE00E94DE0368EE73E080E090E0D4
:100380000E94FC0260E08CE00E94DE0368EE73E0F5
:1003900080E090E00E94FC028AE191E00E9433023A
:1003A0008AE191E00E947F028823A1F080912501DB
:1003B00091E0892780932501882311F061E001C035
:1003C00060E08FE00E94DE038AE191E00E947F02FC
:1003D0008111FACFDF91CF911F910F91FF90EF9094
:1003E000DF90CF90BF90AF907F906F905F904F90D5
:1003F00008958AE191E00C94FD01FC0110821182C4
:10040000128213828AE090E0958384831682178299
:1004100008950F931F93CF93DF931F92CDB7DEB74D
:100420008C01FC016783862F69830E941404F80104
:1004300016826981862F0E941404892B19F083E0AB
:10044000F80186830E94CD02F80160837183828364
:1004500093830F90DF91CF911F910F910895FC012D
:10046000758364830895FF920F931F93CF93DF9357
:10047000EC018F810E941404FF24F394892B09F46A
:10048000F12C8E81982F977F9E8386958170F81628
:1004900051F00E94CD02688379838A839B838E8189
:1004A00092E0892721C00E94CD02088119812A810A
:1004B0003B81601B710B820B930B0C811D8120E033
:1004C00030E0601771078207930778F08E818170A2
:1004D0008F1559F00E94CD02688379838A839B83AC
:1004E0008E8191E0892788608E838E8183FB8827A7
:1004F00080F9DF91CF911F910F91FF900895FC013A
:100500008681817008951F920F920FB60F92112469
:100510002F933F938F939F93AF93BF9380912B0122
:1005200090912C01A0912D01B0912E0130912A01C2
:1005300023E0230F2D3720F40196A11DB11D05C026
:1005400026E8230F0296A11DB11D20932A01809356
:100550002B0190932C01A0932D01B0932E0180913B
:100560002F0190913001A0913101B091320101969B
:10057000A11DB11D80932F0190933001A0933101F3
:10058000B0933201BF91AF919F918F913F912F9185
:100590000F900FBE0F901F9018952FB7F894609191
:1005A0002B0170912C0180912D0190912E012FBF74
:1005B00008953FB7F89480912F0190913001A09158
:1005C0003101B091320126B5A89B05C02F3F19F02B
:1005D0000196A11DB11D3FBF6627782F892F9A2F45
:1005E000620F711D811D911D42E0660F771F881FEC
:1005F000991F4A95D1F70895CF92DF92EF92FF921B
:10060000CF93DF936B017C010E94D902EB01C114EF
:10061000D104E104F10489F00E9494040E94D902FB
:100620006C1B7D0B683E734090F381E0C81AD108C3
:10063000E108F108C851DC4FEACFDF91CF91FF907C
:10064000EF90DF90CF900895789484B5826084BD58
:1006500084B5816084BD85B5826085BD85B58160C6
:1006600085BDEEE6F0E0808181608083E1E8F0E026
:100670001082808182608083808181608083E0E855
:10068000F0E0808181608083E1EBF0E08081846034
:100690008083E0EBF0E0808181608083EAE7F0E036
:1006A000808184608083808182608083808181609A
:1006B00080838081806880831092C10008958E308D
:1006C00008F08E5087702091180190E4299F9001C6
:1006D0001124822B80937C0080917A008064809327
:1006E0007A0080917A0086FDFCCF8091780020917D
:1006F000790090E0922B0895833081F028F48130C6
:1007000099F08230A1F008958730A9F08830B9F0CF
:100710008430D1F4809180008F7D03C0809180006F
:100720008F7780938000089584B58F7702C084B559
:100730008F7D84BD08958091B0008F7703C0809134
:10074000B0008F7D8093B0000895CF93DF9390E049
:10075000FC01E458FF4F2491FC01E057FF4F8491C6
:10076000882349F190E0880F991FFC01E854FF4F5E
:10077000A591B49182559F4FFC01C591D4919FB72B
:10078000611108C0F8948C91209582238C93888104
:1007900082230AC0623051F4F8948C91322F309544
:1007A00083238C938881822B888304C0F8948C9156
:1007B000822B8C939FBFDF91CF9108950F931F934E
:1007C000CF93DF931F92CDB7DEB7282F30E0F9012A
:1007D000E859FF4F8491F901E458FF4F1491F90152
:1007E000E057FF4F04910023C9F0882321F069836B
:1007F0000E947C036981E02FF0E0EE0FFF1FE255BD
:10080000FF4FA591B4919FB7F8948C91611103C0EB
:100810001095812301C0812B8C939FBF0F90DF9196
:10082000CF911F910F910895CF93DF93282F30E040
:10083000F901E859FF4F8491F901E458FF4FD49131
:10084000F901E057FF4FC491CC2391F081110E9430
:100850007C03EC2FF0E0EE0FFF1FEC55FF4FA5914E
:10086000B4912C912D2381E090E021F480E002C02E
:1008700080E090E0DF91CF91089508950E942403D5
:100880000E943D040E948C00C0E0D0E00E94B300B2
:100890002097E1F30E940000F9CF4F925F926F9290
:1008A0007F92AF92BF92CF92DF92EF92FF920F931F
:1008B0001F93CF93DF93CDB7DEB729013A01621BB7
:1008C000730B840B950B29893A894B895C892A190A
:1008D0003B094C095D09298B3A8B4B8B5C8B9B0147
:1008E000AC0169897A898B899C890E94B905E418D1
:1008F000F50806091709A80197010E94DD052A0DD0
:100900003B1D4C1D5D1DCA01B901DF91CF911F91A7
:100910000F91FF90EF90DF90CF90BF90AF907F90BE
:100920006F905F904F90089508955058BB27AA2765
:100930000ED0E5C0D6D030F0DBD020F031F49F3FB0
:1009400011F41EF4CBC00EF4E095E7FBC1C0E92F13
:10095000E7D080F3BA17620773078407950718F08A
:1009600071F49EF5FFC00EF4E0950B2EBA2FA02D6A
:100970000B01B90190010C01CA01A0011124FF274C
:10098000591B99F0593F50F4503E68F11A16F04047
:10099000A22F232F342F4427585FF3CF4695379546
:1009A0002795A795F0405395C9F77EF41F16BA0B0B
:1009B000620B730B840BBAF09150A1F0FF0FBB1FB9
:1009C000661F771F881FC2F70EC0BA0F621F731F02
:1009D000841F48F4879577956795B795F7959E3F5F
:1009E00008F0B3CF9395880F08F09927EE0F9795ED
:1009F0008795089504D06894B111B5C0089598D032
:100A000088F09F5790F0B92F9927B751A0F0D1F0F7
:100A1000660F771F881F991F1AF0BA95C9F712C081
:100A2000B13081F09FD0B1E008959CC0672F782F3E
:100A30008827B85F39F0B93FCCF3869577956795ED
:100A4000B395D9F73EF490958095709561957F4F59
:100A50008F4F9F4F0895E89409C097FB3EF49095FF
:100A60008095709561957F4F8F4F9F4F9923A9F087
:100A7000F92F96E9BB279395F69587957795679516
:100A8000B795F111F8CFFAF4BB0F11F460FF1BC05A
:100A90006F5F7F4F8F4F9F4F16C0882311F096E9ED
:100AA00011C0772321F09EE8872F762F05C066239B
:100AB00071F096E8862F70E060E02AF09A95660F54
:100AC000771F881FDAF7880F9695879597F908950D
:100AD00097F99F6780E870E060E008959FEF80ECF1
:100AE000089500240A941616170618060906089594
:100AF00000240A9412161306140605060895092EFA
:100B00000394000C11F4882352F0BB0F40F4BF2B68
:100B100011F460FF04C06F5F7F4F8F4F9F4F0895A8
:100B200057FD9058440F551F59F05F3F71F047959E
:100B3000880F97FB991F61F09F3F79F08795089583
:100B4000121613061406551FF2CF4695F1DF08C0A2
:100B5000161617061806991FF1CF869571056105BF
:100B600008940895E894BB2766277727CB0197F967
:100B70000895DB018F939F930E94FC05BF91AF9175
:100B8000A29F800D911DA39F900DB29F900D1124E7
:100B9000089597FB072E16F4009407D077FD09D02F
:100BA0000E94070607FC05D03EF4909581959F4F63
:100BB0000895709561957F4F0895052E97FB1EF45B
:100BC00000940E94F40557FD07D00E941B0607FC05
:100BD00003D04EF40C94F405509540953095219532
:100BE0003F4F4F4F5F4F0895909580957095619559
:100BF0007F4F8F4F9F4F08950E944306A59F900DF2
:100C0000B49F900DA49F800D911D11240895AA1BDF
:100C1000BB1B51E107C0AA1FBB1FA617B70710F0E7
:100C2000A61BB70B881F991F5A95A9F78095909519
:100C3000BC01CD010895A1E21A2EAA1BBB1BFD0128
:100C40000DC0AA1FBB1FEE1FFF1FA217B307E407AB
:100C5000F50720F0A21BB30BE40BF50B661F771F03
:100C6000881F991F1A9469F76095709580959095E3
:100C70009B01AC01BD01CF010895EE0FFF1F059050
:100C8000F491E02D0994A29FB001B39FC001A39FEE
:100C9000700D811D1124911DB29F700D811D1124B5
:080CA000911D0895F894FFCFA7
:100CA8000100000002000300040005000600070020
:0A0CB800080009000A000B0001000B
:00000001FF
