:100000000C945D000C9485000C9485000C94850084
:100010000C9485000C9485000C9485000C9485004C
:100020000C9485000C9485000C9485000C9485003C
:100030000C9485000C9485000C9485000C9485002C
:100040000C941B030C9485000C9485000C94850083
:100050000C9485000C9485000C9485000C9485000C
:100060000C9485000C94850000000008000201003B
:100070000003040700000000000000000102040863
:100080001020408001020408102001020408102002
:10009000040404040404040402020202020203032E
:1000A0000303030300000000250028002B000000CC
:1000B0000000240027002A00870011241FBECFEF74
:1000C000D8E0DEBFCDBF11E0A0E0B1E0EAE6FBE0A2
:1000D00002C005900D92A434B107D9F721E0A4E441
:1000E000B1E001C01D92A536B207E1F710E0CAEBFE
:1000F000D0E004C02297FE010E94A005C83BD107B2
:10010000C9F70E94AB040C94B3050C940000CF9285
:10011000EF920F9388E0C82E97E0E92E06E025E0E5
:100120004AE06CE084E491E00E94B5020F91EF9008
:10013000CF90089520E042E060E184E491E00E94E5
:10014000FA0144E251E060E084E491E00E94DB02C5
:100150004CE151E061E084E491E00E94DB0244E183
:1001600051E062E084E491E00E94DB024CE051E067
:1001700063E084E491E00E94DB0244E051E064E04B
:1001800084E491E00E94DB026DE271E084E491E09E
:100190000E94F80460E084E491E00E94150360E3AB
:1001A00071E084E491E00E94F80461E084E491E06D
:1001B0000C941503AF92BF92CF92DF92EF92FF9211
:1001C0000F931F938EE00E94F503BC01882777FDF3
:1001D0008095982F1F921F9223E02F9328EE2F9344
:1001E00028ECA22EB12CC12CD12CEE24EA9413E0E1
:1001F000F12E00E010E020E030E0A9010E94FA04B6
:100200006B017C0141E064E084E491E00E94E00144
:1002100063E084E491E00E941503EE24D7FCE094AF
:10022000FE2CC701B6010E94880341E064E084E42B
:1002300091E00E94E00164E084E491E00E941503F3
:100240000F900F900F900F90C701B6011F910F9163
:10025000FF90EF90DF90CF90BF90AF900C94880309
:10026000CF93DF93EC0160E08E810E94740481E003
:1002700090E00E94B00361E08E810E94740481E0EE
:1002800090E00E94B00360E08E810E94740484E6D6
:1002900090E0DF91CF910C94B003CF92DF92EF9278
:1002A000FF920F931F93CF93DF937C01C0E0D0E0C8
:1002B000C62ED12C87010C0F1D1F61E0F80187812C
:1002C0000E943B04B6010C2E02C0759567950A94F6
:1002D000E2F76170F80187810E9474042196C430AE
:1002E000D10541F7C701DF91CF911F910F91FF9089
:1002F000EF90DF90CF900C943001CF92DF92EF928D
:10030000FF920F931F93CF93DF937C01C0E0D0E067
:10031000C62ED12C87010C0F1D1F61E0F8018781CB
:100320000E943B04B6010C2E02C0759567950A9495
:10033000E2F76170F80187810E9474042196C83049
:10034000D10541F7C701DF91CF911F910F91FF9028
:10035000EF90DF90CF900C9430011F93CF93DF93F9
:10036000EC01162F642F8C810E9474048D818F3FC5
:1003700019F060E00E9474048F85612F84FF06C02D
:10038000CE01DF91CF911F910C947D0170E084E04C
:10039000759567958A95E1F7CE010E944D01612F11
:1003A000CE01DF91CF911F910C944D0140E00C9450
:1003B000AD0161E00E94D60180ED97E00C94B0039E
:1003C000443008F043E0FC012389421710F04FEF5E
:1003D000420FFC01E40FF11D2489260F2068622FD3
:1003E0000C94D601FC016089262F2460208B6C6060
:1003F0000C94D601CF93DF93EC01423018F08F8537
:1004000088608F874B8B1C8A80E48D8B6E8B70E0AD
:10041000605C7F4F6F8B222329F0413019F48F8568
:1004200084608F8780E593EC0E94B00360E08C814C
:100430000E94740460E08E810E9474048D818F3F5D
:1004400019F060E00E9474046F8564FD1DC063E0D4
:10045000CE010E944D0184E991E10E94B00363E066
:10046000CE010E944D0184E991E10E94B00363E056
:10047000CE010E944D0186E990E00E94B00362E047
:10048000CE010E944D0116C06062CE010E94D601CD
:1004900084E991E10E94B0036F856062CE010E9401
:1004A000D60186E990E00E94B0036F856062CE01BC
:1004B0000E94D6016F856062CE010E94D60184E061
:1004C000888BCE010E94F201CE010E94D90182E008
:1004D000898B66E0CE01DF91CF910C94D6016F92AB
:1004E0007F928F92AF92CF92EF920F931F93CF9301
:1004F000DF93CDB7DEB73C01162F842F5D854E8587
:100500003F859889F301848325830683E782C0862B
:10051000A1868286538744873587968761E00E944B
:100520003B04F30185818F3F19F061E00E943B0499
:1005300061E0F30186810E943B04112319F0F3016D
:10054000178603C080E1F301878720E041E060E186
:10055000C301DF91CF911F910F91EF90CF90AF909A
:100560008F907F906F900C94FA018F92AF92CF9200
:10057000EF920F93DC0113961C921E921297EFE3F9
:10058000F1E0ED93FC931F921F921F921F928C2C0F
:10059000AE2CC02EE22E042F2FEF462F61E00E94DA
:1005A0006F020F900F900F900F900F91EF90CF90E0
:1005B000AF908F900895CF92DF92EF92FF920F93BA
:1005C0001F93CF93DF9300D0CDB7DEB78C01677058
:1005D00088E0689FB00111246064C80149835A8390
:1005E0000E94D6014981C42E5A81D52EE12CF12CCE
:1005F000D6016D916D01D801ED91FC910190F081D2
:10060000E02DC8010995BFEFEB1AFB0AE8E0EE16F2
:10061000F10471F70F900F90DF91CF911F910F911F
:10062000FF90EF90DF90CF90089541E00E94AD01E0
:1006300081E090E008951F920F920FB60F9211245F
:100640002F933F938F939F93AF93BF9380915D01BF
:1006500090915E01A0915F01B091600130915C01C9
:1006600023E0230F2D3720F40196A11DB11D05C0F5
:1006700026E8230F0296A11DB11D20935C018093F3
:100680005D0190935E01A0935F01B0936001809142
:10069000610190916201A0916301B09164010196A2
:1006A000A11DB11D8093610190936201A09363012C
:1006B000B0936401BF91AF919F918F913F912F9122
:1006C0000F900FBE0F901F9018953FB7F894809130
:1006D000610190916201A0916301B091640126B51E
:1006E000A89B05C02F3F19F00196A11DB11D3FBF6A
:1006F0006627782F892F9A2F620F711D811D911DFA
:1007000042E0660F771F881F991F4A95D1F7089519
:10071000CF92DF92EF92FF92CF93DF936B017C0138
:100720000E946503EB01C114D104E104F10489F0D6
:100730000E9441050E9465036C1B7D0B683E73405F
:1007400090F381E0C81AD108E108F108C851DC4FE4
:10075000EACFDF91CF91FF90EF90DF90CF90089597
:10076000019739F0880F991F880F991F02970197F9
:10077000F1F70895789484B5826084BD84B5816072
:1007800084BD85B5826085BD85B5816085BDEEE699
:10079000F0E0808181608083E1E8F0E01082808178
:1007A00082608083808181608083E0E8F0E08081E6
:1007B00081608083E1EBF0E0808184608083E0EB06
:1007C000F0E0808181608083EAE7F0E080818460EE
:1007D000808380818260808380818160808380814A
:1007E000806880831092C10008958E3008F08E508A
:1007F000877020912C0190E4299F90011124822B75
:1008000080937C0080917A00806480937A0080914C
:100810007A0086FDFCCF809178002091790090E0ED
:10082000922B0895833081F028F4813099F0823042
:10083000A1F008958730A9F08830B9F08430D1F460
:10084000809180008F7D03C0809180008F7780939E
:100850008000089584B58F7702C084B58F7D84BDF4
:1008600008958091B0008F7703C08091B0008F7D94
:100870008093B0000895CF93DF9390E0FC01E4589B
:10088000FF4F2491FC01E057FF4F8491882349F1E9
:1008900090E0880F991FFC01E255FF4FA591B4919C
:1008A0008C559F4FFC01C591D4919FB7611108C031
:1008B000F8948C91209582238C93888182230AC09E
:1008C000623051F4F8948C91322F309583238C93BD
:1008D0008881822B888304C0F8948C91822B8C931E
:1008E0009FBFDF91CF9108950F931F93CF93DF9315
:1008F0001F92CDB7DEB7282F30E0F901E859FF4F3E
:100900008491F901E458FF4F1491F901E057FF4F2A
:1009100004910023C9F0882321F069830E94120406
:100920006981E02FF0E0EE0FFF1FEC55FF4FA5911E
:10093000B4919FB7F8948C91611103C010958123F5
:1009400001C0812B8C939FBF0F90DF91CF911F919E
:100950000F91089508950E94BA030E94AA040E946C
:100960009A00C0E0D0E00E94DA002097E1F30E94F4
:100970000000F9CFCF92DF92EF92FF920F931F9377
:10098000CF93DF936C017A01EB01E60EF71E00E0D6
:1009900010E0CE15DF0561F06991D601ED91FC9173
:1009A0000190F081E02DC6010995080F191FF1CFC4
:1009B000C801DF91CF911F910F91FF90EF90DF90D1
:1009C000CF9008956115710581F0DB010D90002035
:1009D000E9F7AD0141505109461B570BDC01ED9180
:1009E000FC910280F381E02D099480E090E008956D
:1009F0000C94E2044F925F926F927F92AF92BF92FB
:100A0000CF92DF92EF92FF920F931F93CF93DF93DA
:100A1000CDB7DEB729013A01621B730B840B950B2E
:100A200029893A894B895C892A193B094C095D0956
:100A3000298B3A8B4B8B5C8B9B01AC0169897A8942
:100A40008B899C890E944205E418F508060917095C
:100A5000A80197010E9474052A0D3B1D4C1D5D1DC8
:100A6000CA01B901DF91CF911F910F91FF90EF90D3
:100A7000DF90CF90BF90AF907F906F905F904F903E
:100A800008950895DB018F939F930E949305BF9172
:100A9000AF91A29F800D911DA39F900DB29F900DCD
:100AA00011240895A1E21A2EAA1BBB1BFD010DC043
:100AB000AA1FBB1FEE1FFF1FA217B307E407F5070E
:100AC00020F0A21BB30BE40BF50B661F771F881FEA
:100AD000991F1A9469F760957095809590959B0180
:100AE000AC01BD01CF010895052E97FB1EF40094C3
:100AF0000E948B0557FD07D00E94520507FC03D0CA
:100B00004EF40C948B0550954095309521953F4FB0
:100B10004F4F5F4F089590958095709561957F4FE9
:100B20008F4F9F4F08950E94A405A59F900DB49FDD
:100B3000900DA49F800D911D11240895EE0FFF1FAD
:100B40000590F491E02D0994A29FB001B39FC001DC
:100B5000A39F700D811D1124911DB29F700D811DE9
:0A0B60001124911D0895F894FFCFB1
:100B6A0001000000040A04150E04040A040A04041D
:100B7A000E15040A00000A0000000E1100000A0007
:100B8A0000110E00000A1F1F1F0E04000149200059
:100B9A002041726475696E6F212000000000001503
:040BAA0003BA040086
:00000001FF
