:100000000C9457010C947F010C947F010C94DC0933
:100010000C94DC090C94DC090C947F010C947F0196
:100020000C947F010C947F010C947F010C947F0150
:100030000C947F010C947F010C947F010C947F0140
:100040000C946D0B0C947F010C94260E0C94580E9E
:100050000C947F010C947F010C947F010C947F0120
:100060000C947F010C947F01B705BC05C105C60542
:10007000CB05D005D505600677068E06A506BC061D
:10008000D306EA0641542B43504D533D22534D2293
:100090002C22534D222C22534D220041542B434EEF
:1000A0004D493D322C300041542B43495053485563
:1000B000540041542B435042533D22534D220041A2
:1000C000542B434D47463D310041542B434D45454C
:1000D0003D300041542B434C49503D310041544583
:1000E000300041542646004552524F523A2053495F
:1000F0004D39303020646F65736E277420616E73E4
:100100007765722E20436865636B20706F77657228
:1001100020616E642073657269616C2070696E7312
:1001200020696E2047534D2E6370700041542B4957
:1001300050523D393630300D0031313532303000DB
:1001400041542B4950523D393630300D0035373649
:1001500030300041542B4950523D393630300D007B
:1001600033383430300041542B4950523D39363009
:10017000300D0031393230300041542B4950523D5E
:10018000393630300D00393630300041542B49506B
:10019000523D393630300D00343830300041542B68
:1001A0004950523D393630300D0032343030004144
:1001B000542B4950523D393630300D0031323030F9
:1001C00000547279696E6720746F20666F72636580
:1001D0002074686520626175642D72617465207495
:1001E0006F20393630300A00446F6E2774207573E3
:1001F0006520626175647261746520313135323019
:1002000030207769746820536F6674776172652057
:1002100053657269616C2E0A4175746F6D61746902
:1002200063616C6C79206368616E676564206174DA
:1002300020393630302E0041542B434D47443D0089
:100240000000000800020100000304070000000095
:100250000000000001020408102040800102040890
:1002600010200102040810200404040404040404FF
:100270000202020202020303030303030000000060
:1002800023002600290000000000250028002B0084
:1002900000000000240027002A00F0010E021402D2
:1002A000B107B707FB07D408880E0C020508112414
:1002B0001FBECFEFD8E0DEBFCDBF11E0A0E0B1E0C0
:1002C000E6E5F7E202C005900D92A23FB107D9F72B
:1002D00025E0A2EFB1E001C01D92A431B207E1F721
:1002E00012E0CAEAD2E004C02297FE010E941E1169
:1002F000CA39D107C9F70E94CC0E0C949E130C94F6
:10030000000084EF91E00E9442108AEF91E00E9489
:10031000421080E092E00E94421087E092E00C944C
:10032000D20726E040E855E260E070E083E794E021
:100330000E94C40D66E071E083E794E00E946D0FB7
:1003400040E855E260E070E08CE193E00E94F10447
:10035000892B81F06AE171E083E794E00E946D0FE0
:1003600068E271E083E794E00E946D0F81E0809382
:10037000060206C06CE371E083E794E00E946D0F13
:1003800080910602882309F181E090E09093F301C7
:100390008093F2016091F2017091F3016531710572
:1003A00054F48FE093E00E94A2088091F2019091B2
:1003B000F3010196EBCF1092F3011092F20169E480
:1003C00071E083E794E00C946D0F08958AE193E067
:1003D0000C947A088091060281110C94E60108952C
:1003E00063E070E080E193E00E94BD0787E092E067
:1003F0000E94C10765E671E080E092E00E94B010C3
:1004000065E671E08AEF91E00E94B01065E671E068
:1004100084EF91E00C94B0100C94810163E070E0E3
:1004200082E193E00C94BD0763E070E084E193E027
:100430000C94BD070F931F93CF93DF93EC0184E8D7
:1004400091E099838883FE01E553FF4F81E090E0BE
:10045000918380838E0104521F4F20E043E062E0CD
:10046000C8010E94AF0A4AE050E0B801CE018550B1
:100470009F4FDF91CF911F910F910C94DA08FC01EF
:10048000EF52FF4F2081222331F002960E944D133C
:1004900021E0892B09F420E0822F0895FF920F9329
:1004A0001F93CF93DF93F62E21E0261708F18C01DE
:1004B00003531F4FF8012083EC01C452DF4F60E665
:1004C00071E0CE010E943E0F6F2D70E04AE050E0D7
:1004D000CE010E94221064E671E0CE010E943E0F20
:1004E00064EF71E080E090E00E94E60BF80110827A
:1004F000DF91CF911F910F91FF9008956F927F929E
:100500008F929F92AF92BF92CF92DF92EF92FF9223
:100510000F931F93CF93DF93EC018C010E521F4F6B
:10052000F8018081811133C0CE0184529F4F0E9417
:1005300076099E0129523F4F7901892BF1F40E94DF
:10054000B70BF701C080D180E280F3806C197D0980
:100550008E099F093497C080D180E12CF12C6C1555
:100560007D058E059F0598F032978081FE01E80F8A
:10057000F11D128284E0782E0BC00E94B70BF701A8
:10058000608371838283938381E0F8018083712C7F
:10059000F8018081813009F05EC07E01FCEDEF0E34
:1005A000F11CC7010E947609682E882349F00E9439
:1005B000B70BFE01E952FF4F6083718382839383FF
:1005C00000E010E06E0121EDC20ED11C5E013FEC97
:1005D000A30EB11C601609F1F6018081883CB8F4C5
:1005E000F50180809180C7010E94E908F4018083B1
:1005F000F50180819181019691838083F60180814C
:100600008F5F8083FE01E80FF11D128203C0C701D6
:100610000E94E9080F5F1F4FDDCF0E94B70BFE015C
:10062000E952FF4F0081118122813381601B710BE0
:10063000820B930B32970081118120E030E060172C
:1006400071078207930738F034978081C80FD11D56
:100650001A8277247394872DDF91CF911F910F9188
:10066000FF90EF90DF90CF90BF90AF909F908F90D2
:100670007F906F900895CF93DF93EC01FC01EE52D1
:10068000FF4F10823196718360833296518340838D
:100690000E94B70BFE01E952FF4F60837183828392
:1006A00093831A823897CE01029691838083329683
:1006B000108286529F4FDF91CF910C948E090F9339
:1006C0001F93CF93DF93EC0189010E943B03CE017E
:1006D0000E947E028823D9F3813041F4B801CE0113
:1006E0000E943F02882321F082E003C084E001C021
:1006F00083E0DF91CF911F910F910895CF93DF9306
:10070000EC010E943B03CE010E947E028823D9F3B4
:10071000DF91CF9108954F925F926F927F928F9267
:100720009F92AF92BF92CF92DF92EF92FF920F9380
:100730001F93CF93DF931F92CDB7DEB72C016B01D0
:100740005A014901F12C2FEF3C018CED680E711C10
:10075000FE14F9F0FF2031F064EF71E080E090E0EA
:100760000E94E60BB601C3010E946D0FA401B50102
:10077000C2010E947E03813041F4B801C2010E948F
:100780003F02811105C020E001C02FEFF394E0CFBC
:1007900021E048E853E168EE73E0C20129830E943A
:1007A0007E032981822F0F90DF91CF911F910F91AE
:1007B000FF90EF90DF90CF90BF90AF909F908F9081
:1007C0007F906F905F904F9008956F927F928F927D
:1007D0009F92AF92BF92CF92DF92EF92FF920F93D0
:1007E0001F93CF93DF93EC016B015A014901F12C68
:1007F0008FEF3E019CED690E711CFE14F1F0FF209D
:1008000031F064EF71E080E090E00E94E60BB60109
:10081000C3010E945B0FA401B501CE010E947E03BB
:10082000813039F4B801CE010E943F02882311F0D3
:1008300003C08FEFF394E1CF81E0DF91CF911F915F
:100840000F91FF90EF90DF90CF90BF90AF909F906F
:100850008F907F906F900895CF92DF92EF920F93D9
:100860001F93CF93DF936C01EC01C353DF4F88815B
:10087000811122C081E0888392E0E92E02E711E035
:1008800022E330E048EE53E06BE970E0C6010E94DD
:10089000E5032AE0E22E06E611E028EE33E048EE1A
:1008A00053E064E870E0C6010E94E50391E0813006
:1008B00009F090E0188201C09FEF892FDF91CF915E
:1008C0001F910F91EF90DF90CF900895CF92DF921C
:1008D000EF920F931F93CF93DF93EC016C018DEC9C
:1008E000C80ED11C81E0F601808335E0E32E02E7DB
:1008F00011E022E330E044EF51E063ED70E0CE011F
:100900000E94E50322E330E044EF51E069EC70E03F
:10091000CE010E94E50322E330E044EF51E06FEBAB
:1009200070E0CE010E94E503F6011082CE010E9424
:100930002C0422E330E048EE53E062EB70E0CE019D
:100940000E94E5030DE611E022E330E044EF51E0C0
:1009500067EA70E0CE010E94E503DF91CF911F911D
:100960000F91EF90DF90CF900895CF92DF92EF92AA
:100970000F931F93CF93DF93EC01662359F06130FF
:1009800041F5DF91CF911F910F91EF90DF90CF90C4
:100990000C9466046C018DECC80ED11C81E0F6014C
:1009A000808345E0E42E02E711E022E330E048EEE8
:1009B00053E062EE70E0CE010E94E50322E330E0F6
:1009C00044EF51E06DED70E0CE010E94E503F601C9
:1009D0001082DF91CF911F910F91EF90DF90CF9018
:1009E00008952F923F924F925F926F927F928F92D3
:1009F0009F92AF92BF92CF92DF92EF92FF920F93AE
:100A00001F93CF93DF93CDB7DEB727970FB6F89438
:100A1000DEBF0FBECDBF6C012A013B0161E088E063
:100A20000E94720C61E089E00E94720C411482EC19
:100A3000580681E06806710461F468EE71E083E7AE
:100A400094E00E945B0FB0E84B2EB5E25B2E612C68
:100A5000712C46019DEC890E911C81E0F40180838C
:100A6000C60184529F4F9F838E83B301A2010E94CF
:100A7000DF0A160192E0290E311CF601E153FF4F07
:100A8000FB83EA8331822082C60185539F4F9D8379
:100A90008C8381E090E0EC81FD8191838083A3E0F1
:100AA000AA2EB12CF5E0EF2E02E711E024E630E0AB
:100AB00044EF51E065E771E0C6010E948B038F3F70
:100AC000A1F461E088E00E94AB0C60EB74E080E090
:100AD00090E00E94E60B60E088E00E94AB0C60E1D1
:100AE00077E280E090E00E94E60B48EE53E068EE8B
:100AF00073E0C6010E947E03F1E0AF1AB10891F6DF
:100B0000E5E0EE2E02E711E024E630E044EF51E0AC
:100B100065E771E0C6010E948B03813021F0F12C62
:100B200081E0898303C0FF24F394198275E0E72EE6
:100B300002E711E024E630E044EF51E065E771E0C0
:100B4000C6010E948B0381118DC0F110AEC1A12C92
:100B5000B12CF5013197E730F10520F4EC5CFF4F43
:100B60000C941C1140EB54E060E070E022C040E6C1
:100B700059E060E070E01DC040EC52E160E070E0E0
:100B800018C040E855E260E070E013C040E05BE46C
:100B900060E070E00EC040E056E960E070E009C03F
:100BA00040E051EE60E070E004C040E052EC61E0F3
:100BB00070E08E819F810E94DF0A64E670E080E031
:100BC00090E00E94E60B65E0E62E02E711E024E6E5
:100BD00030E044EF51E065E771E0C6010E948B030D
:100BE000813091F568E771E08E819F810E943E0F10
:100BF0002AE030E0B301A2018E819F810E94D80FCC
:100C000064E671E08E819F810E943E0F64EF71E087
:100C100080E090E00E94E60BB301A2018E819F81EB
:100C20000E94DF0A64E670E080E090E00E94E60B3C
:100C300024E630E044EF51E065E771E0C6010E9430
:100C40008B03FF24F39408C09FEFA91AB90AE8E0C8
:100C5000AE16B10409F07DCFF4011082EA81FB8168
:100C600031822082F981FF2309F41FC1F1101DC1D7
:100C700061EC71E083E794E00E945B0FA12CB12C42
:100C8000F5013197E730F10520F4E55CFF4F0C9456
:100C90001C1140EB54E060E070E08E819F810E9467
:100CA000DF0A68EE73E080E090E00E94E60B6CEBF8
:100CB00071E083E794E00E945B0F6FEA71E0A0C0EF
:100CC00040E659E060E070E08E819F810E94DF0A7B
:100CD00068EE73E080E090E00E94E60B6AEA71E063
:100CE00083E794E00E945B0F6DE971E089C040ECFE
:100CF00052E160E070E08E819F810E94DF0A68EE21
:100D000073E080E090E00E94E60B68E971E083E721
:100D100094E00E945B0F6BE871E072C040E855E21E
:100D200060E070E08E819F810E94DF0A68EE73E0D0
:100D300080E090E00E94E60B66E871E083E794E0D3
:100D40000E945B0F69E771E05BC040E05BE460E03C
:100D500070E08E819F810E94DF0A68EE73E080E080
:100D600090E00E94E60B63E771E083E794E00E9465
:100D70005B0F66E671E044C040E056E960E070E079
:100D80008E819F810E94DF0A68EE73E080E090E030
:100D90000E94E60B60E671E083E794E00E945B0F3F
:100DA00063E571E02DC040E051EE60E070E08E81BF
:100DB0009F810E94DF0A68EE73E080E090E00E946D
:100DC000E60B6DE471E083E794E00E945B0F60E462
:100DD00071E016C040E052EC61E070E08E819F81CE
:100DE0000E94DF0A68EE73E080E090E00E94E60B6C
:100DF00069E371E083E794E00E945B0F6CE271E0CD
:100E00008E819F810E94190F68EE73E080E090E070
:100E10000E94E60B40E855E260E070E08E819F8121
:100E20000E94DF0A68EE73E080E090E00E94E60B2B
:100E300055E0E52E02E711E024E630E044EF51E012
:100E400065E771E0C6010E948B0368EE73E080E005
:100E500090E00E94E60B48EE53E068EE73E0C601B6
:100E60000E947E038FEFA81AB80A98E0A916B10471
:100E700009F006CF67EE70E083E794E00E945B0F15
:100E800061E088E00E94AB0C60EB74E080E090E0F1
:100E90000E94E60B60E088E00E94AB0C60E177E224
:100EA00080E090E00E94E60B41C0F4011082FF2038
:100EB000D9F042E350E062E370E0C6010E947E0395
:100EC00060E0C6010E94B504C6010E94660460E0AD
:100ED000C6010E944E0282E090E0EC81FD81918388
:100EE000808381E090E024C040E052EC61E070E05B
:100EF0008E819F810E94DF0A68EE73E080E090E0BF
:100F00000E94E60B68E771E08E819F810E943E0F90
:100F10002AE030E0B301A2018E819F810E94D80FA8
:100F200064E671E08E819F810E943E0F80E090E038
:100F300027960FB6F894DEBF0FBECDBFDF91CF91DD
:100F40001F910F91FF90EF90DF90CF90BF90AF90E7
:100F50009F908F907F906F905F904F903F902F90D9
:100F6000089563E070E086E193E00C94BD0763E0D0
:100F700070E088E193E00C94BD07FC01718360830D
:100F80000895CF93DF93EC0102960E941A0280E944
:100F900091E0998388838CE991E09B838A83DF9138
:100FA000CF91089520E931E0FC013183208324E8CA
:100FB00031E03383228382529F4F0C94560ADC0126
:100FC000ED91FC91369720813181280F391FC9019D
:100FD00084529F4F0C94190FDC01ED91FC913697D0
:100FE00020813181280F391F4AE050E0C901845225
:100FF0009F4F0C942A1063E070E082E294E00E941C
:10100000BD078AE193E00C94C1078AE193E00C9458
:10101000D207DC01ED91FC91369720813181280FB8
:10102000391FC90184529F4F0E94E9080895DC01CD
:10103000ED91FC91369720813181280F391FC9012C
:1010400084529F4F0C947609AF92BF92CF92DF9259
:10105000EF92FF920F931F93CF93DF938C017B014D
:101060006A018AE193E00E941708181619063CF0FD
:1010700064E670E080E090E00E94E60BF2CFC0E012
:10108000D0E0560181E0A81AB1088AE193E00E94FD
:10109000170818161906ECF4CA15DB05D4F4D801A4
:1010A000ED91FC91369780819181800F911F845240
:1010B0009F4F0E94E90818162CF4F701EC0FFD1F52
:1010C0008083219661E070E080E090E00E94E60B72
:1010D000DCCFF701EC0DFD1D31971082CE01DF91C1
:1010E000CF911F910F91FF90EF90DF90CF90BF9025
:1010F000AF900895CF93DF93EC01E881F9813697A3
:10110000808191818C0F9D1F84529F4F0E94760990
:1011100018161906A4F4E881F98136978081918127
:101120008C0F9D1F84529F4F0E94E90818163CF4B3
:10113000682F83E794E0DF91CF910C94400FDF910B
:10114000CF910895CF93C62F662349F18091E9038B
:10115000811127C081E08093E90367E372E08AE1AF
:1011600093E00E94DF076C2F70E08AE193E00E9419
:10117000EC0722E731E042E350E068E873E18CE1FC
:1011800093E00E945F03823021F0843021F080E000
:1011900003C081E001C08EEF1092E90303C08DEF20
:1011A00001C08FEFCF91089563E070E084E294E096
:1011B0000C94BD07FC017183608328EE33E0DA01F3
:1011C0000E942211628373838483958381E08287E6
:1011D0000895209168043091690428173907B9F4FB
:1011E0009091260480912704981789F0E0912604B5
:1011F000F0E0E85DFB4F80812091260430E02F5F16
:101200003F4F2F7333272093260490E008958FEFEC
:101210009FEF08951F93CF93DF93DC015C968D9130
:101220009C915D97009749F481E090E013969C9320
:101230008E93129780E090E03BC05196ED91FC9127
:10124000529750962C915097322F30951FB75E963B
:101250004C915E9741FB772770F941FD6095F894BA
:101260004081772311F0422B01C043234083EC01DE
:101270002197F1F748E0508160FF02C0522B01C076
:1012800053235083EC012197F1F76695415099F76C
:101290008081772311F0832301C0822B80831FBFBD
:1012A0005C968D919C915D970197F1F781E090E0BC
:1012B000DF91CF911F9108952091680430916904C6
:1012C0002817390781F490912604809127049817F4
:1012D00051F0E0912604F0E0E85DFB4F8081992712
:1012E00087FD909508958FEF9FEF089520916804F2
:1012F000309169042817390771F4809127042091EF
:10130000260490E0805C9F4F821B910960E470E0AE
:101310000E94C710089580E090E00895209168042D
:10132000309169042817390739F48FB7F89410926F
:101330002704109226048FBF0895E0916804F0916D
:101340006904E817F90769F4A389B4899C91858930
:10135000809589238C93109269041092680481E02F
:10136000089580E00895CF93DF93EC018A8D9B8DE3
:10137000892BF1F080916804909169048C179D0786
:10138000B9F0009711F00E949D098E8D8E7F8E8F8F
:101390001092270410922604D0936904C093680425
:1013A000EB89FC8980819D89892B808381E001C044
:1013B00080E0DF91CF9108951F920F920FB60F92A8
:1013C00011242F933F934F935F936F937F938F934A
:1013D0009F93AF93BF93EF93FF93E0916804F091D5
:1013E0006904309709F451C0868DA685B785958527
:1013F00081FF04C08C91892329F447C08C918923F3
:1014000009F043C0A389B4899C918589809589237B
:101410008C93868997890197F1F7208D318DA68568
:10142000B785758558E040E0C9010197F1F7842F31
:1014300090E095958795482F6C91672309F0406857
:10144000515091F7868D81FD40958091270490E061
:1014500001968F73992720912604281749F0A091AF
:101460002704B0E0A85DBB4F4C938093270403C0D2
:10147000868D8160868F828D938D0197F1F7A38988
:10148000B4898C919589892B8C93FF91EF91BF91B1
:10149000AF919F918F917F916F915F914F913F910C
:1014A0002F910F900FBE0F901F90189525ED31E0F2
:1014B000FC01318320830C949D091F93CF93DF930C
:1014C000EC01162F6E8D6695617081E06827812F83
:1014D0000E94AB0C61E0812F0E94720C812F90E082
:1014E000FC01EC5AFD4FE491E88BFC01E859FD4FFB
:1014F000E491F0E0EE0FFF1FEA57FD4F85919491C4
:101500009A8B898BDF91CF911F9108951F93CF9371
:10151000DF93EC01162F60E0812F0E94720C8E8DFC
:1015200081FD04C061E0812F0E94AB0C1C87812FDC
:1015300090E0FC01EC5AFD4FE491ED87FC01E85985
:10154000FD4FE491F0E0EE0FFF1FE458FD4F859151
:1015500094919F878E87DF91CF911F910895FF927D
:101560000F931F93CF93DF93EC01F62E522F1B8224
:101570001A8208EE13E020E030E00C831D832E83F6
:101580003F8385ED91E0998388831F8A1E8A198E97
:10159000188E1B8E1A8E1D8E1C8E8E8D8E7F50FB8C
:1015A00081F98E8F642FCE010E945D0A6F2DCE01CE
:1015B000DF91CF911F910F91FF900C94860ACF93EA
:1015C000DF93EC019A01AB011B8E1A8E198E188ED7
:1015D0001F8A1E8A60E079E08DE390E00E94FD1092
:1015E000C9012430310520F0B9016350710902C0EE
:1015F00061E070E07D8F6C8FEC85E63108F068C0AB
:10160000B901769567956431710518F063517109D8
:1016100002C061E070E07F8B6E8B069718F0C90105
:10162000059702C081E090E0998F888FC901880FEB
:10163000991F820F931F96958795969587958D3064
:10164000910510F00C9702C081E090E09B8F8A8F8B
:1016500020916800E83050F091E0EE3008F490E01E
:1016600081E001C0880F9A95EAF701C084E0822BDF
:10167000809368002C85283038F02E3040F02631D9
:1016800048F48CE690E008C08DE690E005C08BE65B
:1016900090E002C080E090E09C8B8B8B283030F48F
:1016A00081E001C0880F2A95EAF70DC0822F90E0F3
:1016B0002E3010F4089701C00E9791E001C0990FE9
:1016C0008A95EAF7892F8D8B8C8D9D8D0197F1F787
:1016D000CE01DF91CF910C94B3091F920F920FB6F8
:1016E0000F9211242F933F938F939F93AF93BF93A8
:1016F00080916B0490916C04A0916D04B0916E0484
:1017000030916A0423E0230F2D3720F40196A11DA8
:10171000B11D05C026E8230F0296A11DB11D20931F
:101720006A0480936B0490936C04A0936D04B0934F
:101730006E0480916F0490917004A0917104B09137
:1017400072040196A11DB11D80936F0490937004E3
:10175000A0937104B0937204BF91AF919F918F9148
:101760003F912F910F900FBE0F901F9018952FB79C
:10177000F89460916B0470916C0480916D04909169
:101780006E042FBF08953FB7F89480916F04909135
:101790007004A0917104B091720426B5A89B05C095
:1017A0002F3F19F00196A11DB11D3FBF6627782F6D
:1017B000892F9A2F620F711D811D911D42E0660FC6
:1017C000771F881F991F4A95D1F70895CF92DF920E
:1017D000EF92FF92CF93DF936B017C010E94C30BCA
:1017E000EB01C114D104E104F10489F00E94C61098
:1017F0000E94C30B6C1B7D0B683E734090F381E02D
:10180000C81AD108E108F108C851DC4FEACFDF91CE
:10181000CF91FF90EF90DF90CF900895789484B5AA
:10182000826084BD84B5816084BD85B5826085BDDC
:1018300085B5816085BDEEE6F0E0808181608083C2
:10184000E1E8F0E0108280818260808380818160A5
:101850008083E0E8F0E0808181608083E1EBF0E06C
:10186000808184608083E0EBF0E080818160808310
:10187000EAE7F0E0808184608083808182608083F9
:101880008081816080838081806880831092C10024
:101890000895833081F028F4813099F08230A1F0EE
:1018A00008958730A9F08830B9F08430D1F4809160
:1018B00080008F7D03C0809180008F7780938000AF
:1018C000089584B58F7702C084B58F7D84BD089557
:1018D0008091B0008F7703C08091B0008F7D80939E
:1018E000B0000895CF93DF9390E0FC01EC5AFD4FD8
:1018F0002491FC01E859FD4F8491882349F190E03F
:10190000880F991FFC01E057FD4FA591B4918A57AC
:101910009D4FFC01C591D4919FB7611108C0F89407
:101920008C91209582238C93888182230AC0623017
:1019300051F4F8948C91322F309583238C938881C5
:10194000822B888304C0F8948C91822B8C939FBF48
:10195000DF91CF9108950F931F93CF93DF931F9241
:10196000CDB7DEB7282F30E0F901E05CFD4F849160
:10197000F901EC5AFD4F1491F901E859FD4F04911A
:101980000023C9F0882321F069830E94490C6981F2
:10199000E02FF0E0EE0FFF1FEA57FD4FA591B49145
:1019A0009FB7F8948C91611103C01095812301C0F9
:1019B000812B8C939FBF0F90DF91CF911F910F913F
:1019C0000895FC01818D228D90E0805C9F4F821BE9
:1019D00091098F7399270895FC01918D828D981735
:1019E00031F0828DE80FF11D858D90E008958FEF25
:1019F0009FEF0895FC01918D828D981761F0828D83
:101A0000DF01A80FB11D5D968C91928D9F5F9F7332
:101A1000928F90E008958FEF9FEF08958EE79EE0FC
:101A2000892B49F080E090E0892B29F00E947E0EFE
:101A300081110C9400000895FC01848DDF01A80F32
:101A4000B11DA35ABF4F2C91848D90E001968F73E6
:101A50009927848FA689B7892C93A089B1898C9105
:101A600080648C93938D848D981306C00288F389CB
:101A7000E02D80818F7D80830895CF93DF93EC01EB
:101A8000888D8823C9F0EA89FB89808185FD05C09E
:101A9000A889B9898C9186FD0FC00FB607FCF5CFD8
:101AA000808185FFF2CFA889B9898C9185FFEDCF20
:101AB000CE010E941C0DE7CFDF91CF910895CF9208
:101AC000DF92FF920F931F93CF93DF931F92CDB7B7
:101AD000DEB76C01DC015B969C915B975C968C9108
:101AE0005C97981307C05096ED91FC9151978081B7
:101AF00085FD32C0F601038D10E00F5F1F4F0F739D
:101B00001127F02EF601848DF81211C00FB607FCD4
:101B1000F9CFD6015096ED91FC915197808185FFC8
:101B2000F1CFC60169830E941C0D6981EBCF838DC3
:101B3000E80FF11DE35AFF4F6083D6015B960C93CB
:101B40005B975296ED91FC915397808180628083E0
:101B500081E058968C930DC0D6015696ED91FC917C
:101B6000579760835096ED91FC91519780818064E6
:101B7000808381E090E00F90DF91CF911F910F91D2
:101B8000FF90DF90CF900895BF92CF92DF92EF92B7
:101B9000FF92CF93DF93EC016A017B01B22EE889BB
:101BA000F98982E08083411581EE5807610571054E
:101BB000A1F060E079E08DE390E0A70196010E943A
:101BC000DB10215031094109510956954795379548
:101BD0002795211580E1380798F0E889F989108266
:101BE00060E874E88EE190E0A70196010E94DB10A6
:101BF0002150310941095109569547953795279547
:101C0000EC85FD853083EE85FF852083188EEC8979
:101C1000FD89B082EA89FB89808180618083EA89BD
:101C2000FB89808188608083EA89FB898081806864
:101C30008083EA89FB8980818F7D8083DF91CF91CA
:101C4000FF90EF90DF90CF90BF9008951F920F927A
:101C50000FB60F9211242F938F939F93EF93FF93BF
:101C6000E0918304F09184048081E0918904F091F3
:101C70008A0482FD12C0908180918C048F5F8F73E3
:101C800020918D04821751F0E0918C04F0E0ED5822
:101C9000FB4F958F80938C0401C08081FF91EF9161
:101CA0009F918F912F910F900FBE0F901F901895BD
:101CB0001F920F920FB60F9211242F933F934F93C1
:101CC0005F936F937F938F939F93AF93BF93EF93A4
:101CD000FF9383E794E00E941C0DFF91EF91BF9169
:101CE000AF919F918F917F916F915F914F913F91B4
:101CF0002F910F900FBE0F901F90189583E794E0DF
:101D00000E94E10C21E0892B09F420E0822F089544
:101D1000109276041092750488EE93E0A0E0B0E093
:101D20008093770490937804A0937904B0937A0415
:101D300085EE91E0909374048093730485EC90E0B9
:101D40009093800480937F0484EC90E090938204CD
:101D50008093810480EC90E09093840480938304CA
:101D600081EC90E0909386048093850482EC90E06F
:101D7000909388048093870486EC90E090938A0483
:101D80008093890410928C0410928D0410928E041A
:101D900010928F04089508950E940E0C0E94CB0E9D
:101DA0000E949101CEE0DDE00E94EA012097E1F37C
:101DB0000E940E0DF9CFCF92DF92EF92FF920F9318
:101DC0001F93CF93DF936C017A01EB01E60EF71EB0
:101DD00000E010E0CE15DF0561F06991D601ED91CC
:101DE000FC910190F081E02DC6010995080F191FA3
:101DF000F1CFC801DF91CF911F910F91FF90EF902C
:101E0000DF90CF9008956115710581F0DB010D9091
:101E10000020E9F7AD0141505109461B570BDC0189
:101E2000ED91FC910280F381E02D099480E090E037
:101E30000895EF92FF920F931F93CF93DF938C013E
:101E4000FB01C0E0D0E064917F018FEFE81AF80A4F
:101E5000662361F0D801ED91FC910190F081E02DB5
:101E6000C8010995C80FD91FF701EDCFCE01DF9149
:101E7000CF911F910F91FF90EF9008950C94030F55
:101E8000DC01ED91FC910190F081E02D09940F931C
:101E90001F93CF93DF93EC016DE00E94400F8C0104
:101EA0006AE0CE010E94400F800F911FDF91CF9119
:101EB0001F910F9108950F931F93CF93DF93EC0120
:101EC0000E94190F8C01CE010E94470F800F911FB5
:101ED000DF91CF911F910F9108950F931F93CF938F
:101EE000DF93EC010E94030F8C01CE010E94470F8B
:101EF000800F911FDF91CF911F910F9108958F92C5
:101F00009F92AF92BF92CF92DF92EF92FF920F9388
:101F10001F93CF93DF93CDB7DEB7A1970FB6F89499
:101F2000DEBF0FBECDBF7C01C42EE52FCB01D22E6C
:101F300019A221E02D1510F02AE0D22E8E010F5D9E
:101F40001F4F8D2C912CA12CB12C6C2D7E2FA50117
:101F500094010E94DB108C2DD29E80191124015017
:101F600011098A3014F4805D01C0895CF801808316
:101F7000211531054105510521F0C22EE32FCA017B
:101F8000E4CFB801C7010E94030FA1960FB6F894E1
:101F9000DEBF0FBECDBFDF91CF911F910F91FF909C
:101FA000EF90DF90CF90BF90AF909F908F9008956B
:101FB000CF92DF92EF92FF920F931F93CF93DF9315
:101FC000EC016A017B012115310579F4E881F98181
:101FD0000190F081E02D642FDF91CF911F910F913F
:101FE000FF90EF90DF90CF9009942A303105E9F40B
:101FF00077FF1AC06DE20E94400F8C0144275527DD
:10200000BA014C195D096E097F092AE0CE010E94D0
:102010007F0F800F911FDF91CF911F910F91FF9044
:10202000EF90DF90CF9008952AE0B701A601CE018E
:10203000DF91CF911F910F91FF90EF90DF90CF90A4
:102040000C947F0F9A01AB01662757FD6095762FA0
:102050000C94D80F0F931F93CF93DF93EC019A0149
:10206000AB01662757FD6095762F0E94D80F8C0133
:10207000CE010E94470F800F911FDF91CF911F91DA
:102080000F910895FC01808191810C94E411CF930C
:10209000DF93EC0188819981009711F00E94E4118F
:1020A000198218821D821C821B821A82DF91CF91B5
:1020B00008950F931F93CF93DF93EC018B016F5F14
:1020C0007F4F888199810E947312009731F0998324
:1020D00088831B830A8381E001C080E0DF91CF9178
:1020E0001F910F910895CF93DF93EC01888199811F
:1020F000892B29F08A819B818617970760F4CE018E
:102100000E945910882341F08C819D81892B19F4FC
:10211000E881F981108281E0DF91CF910895EF92FB
:10212000FF920F931F93CF93DF93EC017B018A0102
:10213000BA010E947310811104C0CE010E944710A1
:1021400007C01D830C83B701888199810E944613C3
:10215000CE01DF91CF911F910F91FF90EF900895E5
:10216000FC01118210821382128215821482611581
:10217000710559F0FB0101900020E9F7AF014150D2
:102180005109461B570B0C948F100895089597FB27
:10219000072E16F4009407D077FD09D00E9429116C
:1021A00007FC05D03EF4909581959F4F089570955A
:1021B00061957F4F0895A1E21A2EAA1BBB1BFD015A
:1021C0000DC0AA1FBB1FEE1FFF1FA217B307E40716
:1021D000F50720F0A21BB30BE40BF50B661F771F6E
:1021E000881F991F1A9469F760957095809590954E
:1021F0009B01AC01BD01CF010895052E97FB1EF494
:1022000000940E94141157FD07D00E94DB1007FCB8
:1022100003D04EF40C9414115095409530952195AF
:102220003F4F4F4F5F4F0895909580957095619502
:102230007F4F8F4F9F4F0895EE0FFF1F0590F49132
:10224000E02D09940E943D11B7FF0895821B930B66
:102250000895AA1BBB1B51E107C0AA1FBB1FA617ED
:10226000B70710F0A61BB70B881F991F5A95A9F73F
:1022700080959095BC01CD010895A29FB001B39FB8
:10228000C001A39F700D811D1124911DB29F700D7F
:10229000811D1124911D0895CF93DF938230910504
:1022A00010F482E090E0E0911205F091130520E037
:1022B00030E0A0E0B0E0309739F14081518148171B
:1022C0005907B8F04817590771F482819381109724
:1022D00029F013969C938E9312972CC0909313051C
:1022E0008093120527C02115310531F0421753079D
:1022F00018F0A901DB0101C0EF019A01BD01DF0166
:102300000280F381E02DD7CF21153105F9F0281B8C
:10231000390B2430310580F48A819B816115710568
:1023200021F0FB019383828304C090931305809373
:102330001205FE01329644C0FE01E20FF31F8193A5
:10234000919322503109398328833AC02091100596
:1023500030911105232B41F42091020130910301AA
:102360003093110520931005209100013091010157
:102370002115310541F42DB73EB74091040150912C
:102380000501241B350BE0911005F0911105E217B2
:10239000F307A0F42E1B3F0B2817390778F0AC0188
:1023A0004E5F5F4F2417350748F04E0F5F1F509365
:1023B0001105409310058193919302C0E0E0F0E095
:1023C000CF01DF91CF910895CF93DF93009709F468
:1023D00087C0FC01329713821282C0911205D091FE
:1023E0001305209781F420813181280F391F8091B6
:1023F0001005909111058217930779F5F093110557
:10240000E09310056DC0DE0120E030E0AE17BF079D
:1024100050F412964D915C9113979D014115510511
:1024200009F1DA01F3CFB383A28340815181840F94
:10243000951F8A179B0771F48D919C911197840FBA
:10244000951F02969183808312968D919C9113978C
:10245000938382832115310529F4F0931305E093CA
:1024600012053EC0D9011396FC93EE9312974D913D
:102470005D91A40FB51FEA17FB0779F48081918164
:10248000840F951F0296D90111969C938E93828199
:10249000938113969C938E931297E0E0F0E08A81EB
:1024A0009B81009719F0FE01EC01F9CFCE01029655
:1024B00028813981820F931F2091100530911105D9
:1024C0002817390769F4309729F4109213051092F0
:1024D000120502C013821282D0931105C093100519
:1024E000DF91CF910895A0E0B0E0E9E7F2E10C942C
:1024F0006B13EC01CB01209719F40E944C11B8C06A
:10250000FE01E60FF71F9E0122503109E217F30783
:1025100008F4ACC0D9010D911C911197061717074B
:10252000B8F00530110508F49FC0A80144505109C6
:102530004617570708F498C002501109061B170BDD
:10254000019311936D937C93CF010E94E4118CC091
:102550005B01A01AB10A4E01800E911EA0911205D6
:10256000B0911305612C712C60E070E0109709F4B4
:1025700049C0A815B905C9F5ED90FC901197670100
:1025800042E0C40ED11CCA14DB0478F147018A185A
:102590009B08640142E0C40ED11C1296BC901297B5
:1025A0001396AC91B5E0CB16D10440F0B282A38370
:1025B00091828082D9018D939C9309C00E5F1F4F39
:1025C0000E0D1F1DF90111830083EB2DFA2F6115EC
:1025D000710531F0DB011396FC93EE93129744C022
:1025E000F0931305E09312053FC06D917C91119714
:1025F0006616770608F43B01BD0112960D90BC915A
:10260000A02DB4CF60911005709111056815790562
:10261000E9F468167906D0F4409100015091010167
:102620004115510541F44DB75EB7609104017091B9
:102630000501461B570BE417F507C0F4F09311058D
:10264000E0931005F901918380830EC00E944C1124
:102650007C01009759F0A801BE010E943D13CE01F4
:102660000E94E411C70104C0CE0102C080E090E0E6
:10267000CDB7DEB7EEE00C948713FB01DC0102C09E
:1026800001900D9241505040D8F70895FB01DC01B4
:1026900001900D920020E1F70895FB01519155231F
:1026A000A9F0BF01DC014D9145174111E1F759F443
:1026B000CD010190002049F04D9140154111C9F321
:1026C000FB014111EFCF81E090E0019708952F9237
:1026D0003F924F925F926F927F928F929F92AF92B2
:1026E000BF92CF92DF92EF92FF920F931F93CF93FF
:1026F000DF93CDB7DEB7CA1BDB0B0FB6F894DEBF96
:102700000FBECDBF09942A88398848885F846E84BB
:102710007D848C849B84AA84B984C884DF80EE8005
:10272000FD800C811B81AA81B981CE0FD11D0FB60E
:10273000F894DEBF0FBECDBFED01089512E0CAEAE6
:10274000D2E004C0FE010E941E112296CE3AD107AB
:06275000C9F7F894FFCF69
:1027560000001405800047534D20536869656C647A
:102766002074657374696E672E000A7374617475DC
:10277600733D5245414459004E4F204E4557205314
:102786004D532C5741495454494E47000A737461BE
:102796007475733D49444C450052656164792074F3
:1027A6006F206765742063616C6C732E2E2E21007A
:1027B600415445000D002B43504D533A00534855A4
:1027C60054204F4B0041540041542B4950523D0078
:1027D60000000000F10490019C01020000000000CE
:1027E6002408090817080000FEFF0000F1043E0057
:1027F6002B434D4753002B434D474C3A002B434D3B
:102806004752004552524F52002252454320554EE0
:10281600524541442200225245432052454144221A
:1028260000000000000A09DB0E7609E9085C098E43
:1028360009000000005F0DDB0EE10CFA0CEC0C3D0C
:022846000D0083
:00000001FF
